:020000040000fa
:080000000018040000000000dc
:020000040000fa
:103000002fba20000eff20000e01880000000000f3
:103010000c0007000033250001002000110007000c
:10302000000020000000e00002003200000002006a
:1030300000000000da4f0200000000000040da004b
:103040000000fe004440a900000020000000e00055
:103050000300320000002000a00188004440a800c6
:103060000000060091018800800078000000eb005d
:1030700015003700e280400032a0b4009101ba0090
:10308000e280400032a0b4009102ba00e280400029
:1030900032a0b4000002eb00472bde00f507b200bf
:1030a000602ce10004003a000059eb008301e900c4
:1030b000fdff3e00040037006128e10001003200fe
:1030c0000082eb00040007001101ba000200e000da
:1030d000e8ff3a00000006003159ba008301e90018
:1030e0000c0032002159ba008301e90008003200c7
:1030f0000400e00003003a00e280400032a0b40087
:10310000f5ff370011d9ba008301e900faff3a0050
:103110008100e800e180400032a0b4000000060019
:103120006022b800060220000000d0008180d2009a
:103130000482d2008582d2000000a0000202520068
:1031400083825a00030031000202420083824a0057
:103150000000a1000603e900f3ff3a0000000600aa
:103160008001eb0002003700817178008301e800e4
:10317000828f5100fcff3a00000006006011b80089
:103180000002eb00050220004600dd006182200005
:10319000810040003100780000014100e0814900d9
:1031a0000402e800850f5200faff3a004b1add00d6
:1031b0004510de0000007200c598de000000060029
:1031c0006011b8008000eb006480200034007800bb
:1031d00000014100e08149008100e800f08f5000cb
:1031e000faff3a004c1add004410de0000007200c5
:1031f000c498de00000006000000eb004047880095
:103200003047880021e3a90025c3bf0001ceb300e9
:10321000014060005040b30025e3b70010c0b30088
:1032200024e3b70023c3bf007f40600023e3b7005f
:1032300025e3a90020c3bf007f4060000046b30023
:1032400020e3b70023c3bf00c2cfb3000240600039
:1032500023e3b7002043a8002143a8002223a800ad
:103260002063a9002343a80022c3bf00fdc0500073
:10327000014060000034a00022e3b7003003a80042
:103280003023a80030c3a8002ca3ef002c03a90012
:103290002c23a9002cc3a90021c3bf000240600059
:1032a00021e3b70021e3a80085a0a90095a0a8000c
:1032b000000006003600f800809fbe00829fbe001e
:1032c000849fbe00869fbe00881f780085a0a9004d
:1032d0000118800051478800141880006447880056
:1032e000251880007547880043478000038041000f
:1032f00062822000013079000104200080804000bb
:10330000843079000008b000053079000300e8003f
:10331000ff0f5000010034000000eb004047880020
:10332000084080000804e800e40f54000100360063
:103330000004eb00084088000800e00007003200ad
:103340004f0478004f03be004f02be004f01be0085
:103350004f00be003600f90000400600d462a8000d
:10336000d462a900790507000004070028020700bd
:103370000428ec00a25c80000201e800a25c880046
:10338000c05380000100240081006000905c800038
:10339000808f50000b003200a85c88001840880025
:1033a000915c88004f0478004f03be004f02be00be
:1033b0004f01be004f00be003600f900004006007d
:1033c000e6ff3700401f2000800f5100f4ff360059
:1033d0001000200010408800915c8800f1ff370049
:1033e000b05c8800a12c200091407800cac2bf00c8
:1033f000a22c200012417800e4806000620060008e
:10340000808070006101610002807000c05c8800f3
:1034100030558800960be200050032008000400025
:1034200040b4200061007800a00e88000000060073
:103430008000400040b3200061007800a00e8800aa
:1034400000000600809fbe00821f78008660a900f1
:10345000cac2bf00a12c200091407800a22c2000fd
:103460001241780064006000e2806000010070009a
:103470006101610002007000c05c8800960be200f0
:10348000070032008000400040b420006100780056
:10349000a00e88004f0178004f00be0000400600db
:1034a0008000400040b3200061007800a00e88003a
:1034b0004f0178004f00be0000400600f8ff3700c3
:1034c000962bef00cac2bf00a12c200091407800cb
:1034d000a22c20001241780064006000e2806000ad
:1034e000010070006101610002007000c05c880092
:1034f0000000400041b32000e0807800a10e880069
:103500006080a80060a0a80060c0a8006880a80033
:1035100068a0a80068c0a8008660a9009660a800fe
:1035200000000600620220000281b90084af200082
:103530008401410084a720000401410000024000f2
:1035400045ab200064807a000000e80000b27a00f9
:1035500042039000c601980052039000d6019800e3
:1035600062039000e601980072039000f601980053
:103570000213900086119800720b9000f6099800d3
:103580000003eb00810f50004b0035000000eb0002
:1035900000b27a0093009000120090001600200004
:1035a000808f50000e003200008050000082eb003f
:1035b00001003300140020000480500090019800a6
:1035c00001d02700810f500045003c000130280049
:1035d000810f500042003500900198000003eb007d
:1035e000a300900022009000808f50000e00320057
:1035f000008050000082eb00010033001400200026
:1036000004805000a001980001d02700810f5000d5
:103610002f003c0001302800810f50002c003500a5
:10362000a00198000003eb00b3009000320090006e
:10363000808f50000e003200008050000082eb00ae
:10364000010033001400200004805000b0019800f5
:1036500001d02700810f500025003c0001302800d8
:10366000810f500022003500b00198000003eb00ec
:103670009310900012109000808f50000e003200c6
:10368000008050000081eb00010033001200200098
:10369000028050009011980001d02700810f500047
:1036a00007003c0001302800810f50000400350065
:1036b000901198000003eb0006007800000006005f
:1036c00001007800901198000003eb00faff37002a
:1036d00001007800a00198000003eb00d2ff370042
:1036e00001007800900198000003eb00bcff370058
:1036f00001007800b00198000003eb00dcff370008
:10370000620220000281b90084af200084014100e0
:1037100084a72000040141000002400045ab2000c6
:1037200064807a000000e80000b27a004203900052
:10373000c601980052039000d601980062039000e1
:10374000e601980062039000f601980002139000d1
:103750008611980072099000f20998000001eb00b0
:10376000810f5000270035000000eb0000b27a0006
:1037700013009000120020000000e000060032005c
:103780008080eb0001003500110020000100500096
:10379000900198000001eb00230090000000e00081
:1037a000060032008080eb0001003500110020008f
:1037b00001005000a00198000001eb0033009000d0
:1037c0000000e000060032008080eb0001003500c0
:1037d0001100200001005000b00198000001eb0032
:1037e000131090000000e000060032008080eb0023
:1037f00001003500110020000100500090119800d8
:103800000001eb000200780000000600889fbe0067
:10381000800478006002200000c8b90082af200058
:10382000000141000004eb001801980028019800f5
:103830003801980018119800780198004801980004
:10384000580198006801980008119800c248dd00ee
:10385000c0aa2000008040006011b8000288be00ad
:1038600000ab2000808040008288be004648dd001a
:1038700081ab200001004000020420008800780095
:1038800037fe070089804400a0aa20008830780015
:1038900080aa20008830780040ab20008830780073
:1038a0004f04be00000006007c1a3700000006002e
:1038b000ec874700889fbe008a9fbe008c9fbe0099
:1038c0008e1f780080bf9f00810178006002200079
:1038d0000fb997000090b90082af200002014000ac
:1038e000d2b79f0082a7200002004000c0b79f000f
:1038f000100c9000830f54009f00350020089000aa
:1039000003047800808f5100a4003500cfb19700e8
:1039100093017800628061009b0032000000eb00a0
:10392000d4030700000578000a01540012598800ea
:103930005fb29700440090000090de009400900079
:103940000183b900e6b79f00f7b79f008fbb9700d0
:10395000423fdd0000b32000000047006fb2970037
:10396000ffb297000488be0006ab200006004700a7
:10397000cf91de0030024100a0824900dfb3970002
:10398000770090006101b900820f5200838f5a00c6
:1039900006003c000000ea00cf80de000401be000b
:1039a000800f5200818f5a007a00350006004700d0
:1039b0000288be005fb0970020029000cfa2de0018
:1039c000500090000000e900030033008381d10023
:1039d0000281d300fbff37000416b80003a0b90032
:1039e0000d0040000591b90082064000c0b22000e1
:1039f000000047000c88be000fb997008204410008
:103a000083aa200069847900c6aa20000603470023
:103a10004512dd00080242000402420087ab20008c
:103a200064817b00cf91de0036001100a680190072
:103a30000001be00a5aa200069807a0000005500a0
:103a400000b27b008ab47a00cf80de00020540001d
:103a5000838548000a8bbe000800e800ff0f500075
:103a6000010034000000eb0081aa200080b478003f
:103a70005fb1970032009000cf80de000a02b800ec
:103a800001d1b900050141000b80b900800241005d
:103a9000dfb19700630090000000e90003003300ed
:103aa0008582d1000482d300fbff370080b2200062
:103ab000000047000488be0040b22000000147001b
:103ac0000009eb0032117800000021004fb397008d
:103ad000160060000300320013109000cf80de005b
:103ae0000089be006fb39700ffb397000600460041
:103af00087804e000400400085804800320240006c
:103b0000a2824800f4588800055988000400be00cd
:103b1000c27d200003002000c57d2000850f5000dd
:103b2000e08f580009003c00f058800001598000e7
:103b300002812f00f3ff2f00820f5000838f580067
:103b400002003500f258800003598000f2588800c6
:103b500003598800820078000fb89700cf1907003a
:103b60004f0778004f06be004f05be004f04be0051
:103b7000cf00b100000006008001780093017800ba
:103b80006280610065ff3a006c0307000005780061
:103b900065ff37000001be0084ff37000004780095
:103ba000cfb197005aff3700881f78000004eb0060
:103bb000b8558800d8578800e8578800f85788001b
:103bc000d858880038588800085888001858880045
:103bd00028588800c85888006000b80060558800e0
:103be0007155880080558800915588000204200096
:103bf0008800780080ab200059fd070058558800e8
:103c000048558800a85588004f0478000000060039
:103c1000889fbe000208e20001003200b62aef00d1
:103c200079548000f90fb20042548000b8558000ea
:103c3000e20f5400600032003b003400e40f5400f7
:103c4000cf0032006b003d00a15580008100e800ec
:103c5000a15588000054800000588800105480004e
:103c60001058880020548000205888003058880060
:103c7000c0548000c0588800b0548000b0588800fc
:103c8000900f2000808f500023003400b42aef00f2
:103c9000d0578000110020000000e0000600320034
:103ca0008080eb0001003500110020000100500071
:103cb000d05788008000eb00e05780000000e00053
:103cc000060032008080eb0001003500110020006a
:103cd00001005000e05788008000eb00f0578000a2
:103ce0000000e000060032008080eb00010035009b
:103cf0001100200001005000f05788008000eb0008
:103d0000d05880000000e000a8003a000100e00068
:103d100001003200b05588006000b8005f1907004c
:103d20004f04be00000006000800e00028003a0032
:103d3000880078000800780058190700e18f5400c7
:103d400096003200e28f54000c013200e38f5400e1
:103d5000f3ff3a0060002000b0558800d857880073
:103d6000e8578800f8578800d858880038588800e5
:103d7000085888001858880028588800c8588800b3
:103d8000ac2aef00ae2aef00b02aef00b22aef0013
:103d9000020420008800780080ab2000f0fc0700bf
:103da0005855880048558800a85588004f04be0023
:103db00000000600dcff3700e28f540013003200e1
:103dc000b62aef004f04be0000000600d6ff370001
:103dd000e10f5400d0ff3a00820078000000eb00b1
:103de0002e190700e18f5400cdff3200b62aef00f4
:103df000f4ff3700e60f5400c7ff3a00e38f54008a
:103e0000c5ff3200b62aef00eeff3700a155800053
:103e10008100e800a1558800005480000058880007
:103e200010548000105888002054800020588800ca
:103e30003054800030588800c0548000c05888003a
:103e4000b0548000b0588800900f2000808f500040
:103e500045003400b42aef00d1578000d0538000d1
:103e600013002000808f50000d00320000805000b1
:103e70008081eb000100330013002000038050001c
:103e800001d02700810f500064003c000130280061
:103e9000810f500061003500d05788008001eb0091
:103ea000e1578000e0538000808f50000d00320009
:103eb000008050008081eb000100330013002000df
:103ec0000380500001d02700810f50004f003c00bc
:103ed00001302800810f50004c003500e057880069
:103ee0008001eb00f1578000f0538000808f50007c
:103ef0000d003200008050008081eb000100330093
:103f0000130020000380500001d02700810f5000d3
:103f10003a003c0001302800810f50003700350086
:103f2000f05788008001eb00d1588000d054800009
:103f3000808f500026003200008050008081eb000e
:103f400001003300130020000380500001d027003f
:103f5000810f500026003c0001302800810f5000e6
:103f600023003500d0588800820078000000eb0064
:103f70004ffe07004f04be00000006006aff370036
:103f8000e28f54002900320030002000b055880034
:103f90004f04be000000060063ff3700b9558800db
:103fa0004f04be00000006005fff37008080eb007a
:103fb0000000e00001003500110020000100500069
:103fc000d05888006000b800b418070054ff3700cc
:103fd0000300e000e4ff320040002000b0558800fc
:103fe000820078000000eb0031fe0700e1ff37009f
:103ff00001007800d0588800dbff3700010078000e
:10400000f05788008001eb00c7ff370001007800ff
:10401000e05788008001eb00b2ff37000100780014
:10402000d05788008001eb009dff3700a15580002c
:104030008100e800a15588000054800000588800e5
:1040400010548000105888002054800020588800a8
:104050003054800030588800c0548000c058880018
:10406000b0548000b0588800900f2000808f50001e
:10407000bdff3400b42aef00d1578000d053800038
:10408000808f50000c003200008050008081eb00d7
:1040900001003300130020000380500001d02700ee
:1040a000810f500032003c0001302800810f500089
:1040b0002f003500d0578800e1578000e053800082
:1040c000808f50000c003200008050008081eb0097
:1040d00001003300130020000380500001d02700ae
:1040e000810f50001f003c0001302800810f50005c
:1040f0001c003500e0578800f1578000f053800025
:10410000808f50000c003200008050008081eb0056
:1041100001003300130020000380500001d027006d
:10412000810f50000c003c0001302800810f50002e
:1041300009003500f0578800d1588000d054800025
:10414000808f50007cff3a00820078000000eb0076
:10415000d7fd070087ff370001007800f05788007f
:10416000f5ff370001007800e0578800e2ff3700d4
:1041700001007800d0578800cfff3700b95588007c
:10418000d8578800e8578800f8578800d858880022
:10419000385888000858880018588800285888001f
:1041a000c8588800ac2aef00ae2aef00b02aef0012
:1041b000b22aef00020420008800780080ab2000c3
:1041c000e7fb07005855880048558800a855880027
:1041d000f6fe370090478000010220000000e0005a
:1041e00002003200010078000000060000007800a4
:1041f00000000600fdff3700a047800001012000fd
:104200000000e0000200320001007800000006001b
:104210000000780000000600fdff3700f04e80002f
:104220000000060060488000714880000000060021
:10423000804880009148800000000600b047800060
:104240000000060080017800020278000000e00013
:10425000090032004308dd00110009000380d80086
:104260000020b8004d09dd004300de0000007100b1
:10427000c308de000000060000000600881f78006a
:104280000004eb00c84788006000b800e0478800e1
:10429000f1478800804888009148880028488800b5
:1042a000d847880000488800114888006048880086
:1042b000714888003848880002042000880078008f
:1042c00080992000a6fb07000208200088007800e3
:1042d00080912000a2fb07004f0478000000060038
:1042e000881f78000004eb00f84e8800e84e880034
:1042f000d84e8800a00f2000c04e8800b848880023
:10430000a8488800c84788006000b800e0478800d7
:10431000f147880080488800914888002848880034
:10432000a847880098478800d84788000048880038
:104330001148880060488800714888003848880023
:10434000b847880002042000880078008099200087
:1043500083fb07000208200088007800809120007d
:104360007ffb07004f04780000000600881f7800dc
:10437000c04e8000f00f500004003c00d809e2005d
:1043800002003400f608e200c9003200d809ed004e
:104390008000eb0002003300c14e80008100e90084
:1043a000c14e8800b05580000000e0000a003200d5
:1043b000e50f500008003200b0478000e40f5000c5
:1043c000a6003200b0478000e10f50000a00320022
:1043d0004f04780000000600f008e200f6ff32000b
:1043e00040002000b0478800b0478000e40f500034
:1043f000f4ff3a009900370060fb07008000780066
:10440000e04e8000008050006300b9000080d100c1
:10441000f04e8800b05580000000e000a0003a0097
:10442000de29ef00314880008100e8000001eb0048
:10443000700f2000808f500002003c003248800046
:104440000201e80032488800314880000100e000a5
:104450002d003a00fa08ec00ef0f5000b8003400cd
:1044600001007800d0478800d3478000f04e8000dc
:10447000f24e80000280b900c219dd00829920004e
:10448000828141008089be000029ef000229ef00ef
:104490000002eb00820278003501be000048800077
:1044a00011488000020040008380480000488800d6
:1044b000114888000402e800f00f5200f6ff3a00ad
:1044c00000488000114880004c09dd004400de00f7
:1044d00000007100c488de006048880071488800d0
:1044e000984780000800e00007003a00624880001a
:1044f0007348800000842700d1172000800f5100ee
:10450000818f5900a3003c00214880008100e80011
:104510000001eb00f0262000808f500002003c00dc
:10452000224880000201e8002248880021488000db
:104530000100e00024003a00f808ec00ff0f5000f2
:104540006f00340001007800c0478800c347800036
:10455000f04e8000f24e80000280b900c219dd00ea
:1045600082912000828141008089be00fc28ef00fa
:10457000fe28ef000002eb00060220008202780015
:104580003501be00e0478000f14780000200400096
:1045900083804800e0478800f14788000402e80073
:1045a000860f5200f6ff3a00e0478000f147800096
:1045b0004b09dd004500de0000007100c588de000b
:1045c0008048880091488800a84780000800e000e3
:1045d0007fff3a00824880009348800000902000ce
:1045e000d1032000800f5100818f590078ff3400e3
:1045f00030002000b047880010002000a04788004d
:10460000c8478800fc28ef00fe28ef001029ef00c3
:104610001229ef0028488800d84788000029ef00b9
:104620000229ef000c29ef000e29ef00384888001e
:10463000020420008800780080992000c8fa070052
:10464000020820008800780080912000c4fa07004a
:104650004f047800000006005fff370010002000c4
:10466000c6fa0700e04e8800e14e8000307320005b
:10467000808f500004003600e14e80009019b00099
:10468000808f50003d00360040002000b047880079
:10469000b0478000e10f50004dff3a0056ff370051
:1046a000e50f50005fff3a00de29ef005dff3700a5
:1046b00010002000b1fa07001629b400c24e800095
:1046c000e10f510031ff3a00b04880004400de00a5
:1046d000e04e8800e14e800030732000808f500053
:1046e0004d003600e14e80009019b000808f5000e0
:1046f00049003e00b24788008247880023ff370008
:10470000f808ec00c0478800c3478000f04e8000e6
:10471000f24e80000280b900c219dd0082912000b3
:10472000828141008089be00fc28ef00fe28ef0056
:104730000002eb00060220008202780090ff3700a2
:10474000fa08ec00d0478800d3478000f04e800084
:10475000f24e80000280b900c219dd00829920006b
:10476000828141008089be000029ef000229ef000c
:104770000002eb008202780047ff370010002000a3
:10478000b0478800b0478000e10f500010ff3a00aa
:1047900019ff3700f14e800080382100808f5000d3
:1047a00004003c00f14e800080c72e00808f500036
:1047b00055ff3d0020002000b04788001000200079
:1047c00090478800c8478800fc28ef00fe28ef00cb
:1047d0001029ef001229ef0028488800d8478800e8
:1047e0000029ef000229ef000c29ef000e29ef004d
:1047f0003848880002042000880078008099200052
:1048000057fa0700020820008800780080912000f5
:1048100053fa07003cff3700f628ef001629ef0097
:104820001429ef0040062000c04e8800d7fe370054
:1048300000000600c4c2bf004400de00610060004a
:104840000004a2004400dd00412c200091407800cb
:104850000144a10080c0700001007800c4e2b700ec
:104860000000060000004000e1b6200060807800f3
:10487000000006004200dd0021b7200001024000d8
:104880006011b8008000eb003400780000014100a6
:10489000e08149008100e800e28f5000faff3a0011
:1048a0008380d1000280d300000006000001780060
:1048b00063806000e10f50000c00320078eaab002a
:1048c00005003a0002004100e1b62000010040006e
:1048d0001008e8000000060002014100c208de00e6
:1048e000c0b720000131780000000600c209de00d8
:1048f000e0fd2300808f5100f0ff3e008200410068
:10490000c0b720008330780000000600cc82a800e9
:10491000cc62a8000000eb00c3b72000e2b6200084
:104920008000780001b07900013079000080e80053
:10493000e40f5000fbff3a000000060000004000ba
:10494000c1b720006080780000000600889fbe008c
:10495000c902a900cf02a800c8c2a900cec2a800ff
:10496000cc82a900cc62a900cd22a900d422a90042
:104970000000000000000000000000000000000037
:104980000000000000000000000000000000000027
:104990000000000000000000000000000000000017
:1049a0000000000000000000000000000000000007
:1049b00000000000000000000000000000000000f7
:1049c00000000000000000000000000000000000e7
:1049d00000000000000000000000000000000000d7
:1049e00000000000000000000000000000000000c7
:1049f00000000000000000000000000000000000b7
:104a000000000000000000000000000000000000a6
:104a10000000000000000000000000000000000096
:104a20000000000000000000000000000000000086
:104a30000000000000000000000000000000000076
:104a40000000000000000000000000000000000066
:104a50000000000000000000000000000000000056
:104a60000000000000000000000000000000000046
:104a70000000000000000000000000000000000036
:104a80000000000000000000000000000000000026
:104a90000000000000000000000000000000000016
:104aa0000000000000000000000000000000000006
:104ab00000000000000000000000000000000000f6
:104ac00000000000000000000000000000000000e6
:104ad00000000000000000000000000000000000d6
:104ae000cd22a800d422a800cca2a800ccc2a80045
:104af00000000000000000000000000000000000b6
:104b000000000000000000000000000000000000a5
:104b10000000000000000000000000000000000095
:104b20000000000000000000000000000000000085
:104b30000000000000000000000000000000000075
:104b40000000000000000000000000000000000065
:104b50000000000000000000000000000000000055
:104b60000000000000000000000000000000000045
:104b70000000000000000000000000000000000035
:104b80000000000000000000000000000000000025
:104b90000000000000000000000000000000000015
:104ba0000000000000000000000000000000000005
:104bb000cd22a900d422a9000000000000000000be
:104bc00000000000000000000000000000000000e5
:104bd00000000000000000000000000000000000d5
:104be00000000000000000000000000000000000c5
:104bf00000000000000000000000000000000000b5
:104c000000000000000000000000000000000000a4
:104c10000000000000000000000000000000000094
:104c20000000000000000000000000000000000084
:104c30000000000000000000000000000000000074
:104c40000000000000000000000000000000000064
:104c50000000000000000000000000000000000054
:104c60000000000000000000000000000000000044
:104c70000000000000000000cd22a800d422a800ff
:104c8000cca2a900ccc2a9000000000000000000d6
:104c90000000000000000000000000000000000014
:104ca0000000000000000000000000000000000004
:104cb00000000000000000000000000000000000f4
:104cc00000000000000000000000000000000000e4
:104cd00000000000000000000000000000000000d4
:104ce00000000000000000000000000000000000c4
:104cf00000000000000000000000000000000000b4
:104d000000000000000000000000000000000000a3
:104d10000000000000000000000000000000000093
:104d20000000000000000000000000000000000083
:104d30000000000000000000000000000000000073
:104d40000000000000000000cd22a900d422a9002c
:104d50000000000000000000000000000000000053
:104d60000000000000000000000000000000000043
:104d70000000000000000000000000000000000033
:104d80000000000000000000000000000000000023
:104d90000000000000000000000000000000000013
:104da0000000000000000000000000000000000003
:104db00000000000000000000000000000000000f3
:104dc00000000000000000000000000000000000e3
:104dd00000000000000000000000000000000000d3
:104de00000000000000000000000000000000000c3
:104df00000000000000000000000000000000000b3
:104e000000000000000000000000000000000000a2
:104e1000cd22a800d422a800cca2a800ccc2a80011
:104e20000000000000000000000000000000000082
:104e30000000000000000000000000000000000072
:104e40000000000000000000000000000000000062
:104e50000000000000000000000000000000000052
:104e60000000000000000000000000000000000042
:104e70000000000000000000000000000000000032
:104e80000000000000000000000000000000000022
:104e90000000000000000000000000000000000012
:104ea0000000000000000000000000000000000002
:104eb00000000000000000000000000000000000f2
:104ec00000000000000000000000000000000000e2
:104ed00000000000000000000000000000000000d2
:104ee000cd22a900d422a90000000000000000008b
:104ef00000000000000000000000000000000000b2
:104f000000000000000000000000000000000000a1
:104f10000000000000000000000000000000000091
:104f20000000000000000000000000000000000081
:104f30000000000000000000000000000000000071
:104f40000000000000000000000000000000000061
:104f50000000000000000000000000000000000051
:104f60000000000000000000000000000000000041
:104f70000000000000000000000000000000000031
:104f80000000000000000000000000000000000021
:104f90000000000000000000000000000000000011
:104fa0000000000000000000cd22a800d422a800cc
:104fb000cca2a900ccc2a9000000000000000000a3
:104fc00000000000000000000000000000000000e1
:104fd00000000000000000000000000000000000d1
:104fe00000000000000000000000000000000000c1
:104ff00000000000000000000000000000000000b1
:1050000000000000000000000000000000000000a0
:105010000000000000000000000000000000000090
:105020000000000000000000000000000000000080
:105030000000000000000000000000000000000070
:105040000000000000000000000000000000000060
:105050000000000000000000000000000000000050
:105060000000000000000000000000000000000040
:105070000000000000000000cd22a900d422a900f9
:105080000000000000000000000000000000000020
:105090000000000000000000000000000000000010
:1050a0000000000000000000000000000000000000
:1050b00000000000000000000000000000000000f0
:1050c00000000000000000000000000000000000e0
:1050d00000000000000000000000000000000000d0
:1050e00000000000000000000000000000000000c0
:1050f00000000000000000000000000000000000b0
:10510000000000000000000000000000000000009f
:10511000000000000000000000000000000000008f
:10512000000000000000000000000000000000007f
:10513000000000000000000000000000000000006f
:10514000cd22a800d422a800cca2a800ccc2a800de
:10515000000000000000000000000000000000004f
:10516000000000000000000000000000000000003f
:10517000000000000000000000000000000000002f
:10518000000000000000000000000000000000001f
:10519000000000000000000000000000000000000f
:1051a00000000000000000000000000000000000ff
:1051b00000000000000000000000000000000000ef
:1051c00000000000000000000000000000000000df
:1051d00000000000000000000000000000000000cf
:1051e00000000000000000000000000000000000bf
:1051f00000000000000000000000000000000000af
:10520000000000000000000000000000000000009e
:10521000cd22a900d422a900000000000000000057
:10522000000000000000000000000000000000007e
:10523000000000000000000000000000000000006e
:10524000000000000000000000000000000000005e
:10525000000000000000000000000000000000004e
:10526000000000000000000000000000000000003e
:10527000000000000000000000000000000000002e
:10528000000000000000000000000000000000001e
:10529000000000000000000000000000000000000e
:1052a00000000000000000000000000000000000fe
:1052b00000000000000000000000000000000000ee
:1052c00000000000000000000000000000000000de
:1052d0000000000000000000cd22a800d422a80099
:1052e000cca2a900ccc2a900000000000000000070
:1052f00000000000000000000000000000000000ae
:10530000000000000000000000000000000000009d
:10531000000000000000000000000000000000008d
:10532000000000000000000000000000000000007d
:10533000000000000000000000000000000000006d
:10534000000000000000000000000000000000005d
:10535000000000000000000000000000000000004d
:10536000000000000000000000000000000000003d
:10537000000000000000000000000000000000002d
:10538000000000000000000000000000000000001d
:10539000000000000000000000000000000000000d
:1053a0000000000000000000cd22a900d422a900c6
:1053b00000000000000000000000000000000000ed
:1053c00000000000000000000000000000000000dd
:1053d00000000000000000000000000000000000cd
:1053e00000000000000000000000000000000000bd
:1053f00000000000000000000000000000000000ad
:10540000000000000000000000000000000000009c
:10541000000000000000000000000000000000008c
:10542000000000000000000000000000000000007c
:10543000000000000000000000000000000000006c
:10544000000000000000000000000000000000005c
:10545000000000000000000000000000000000004c
:10546000000000000000000000000000000000003c
:10547000cd22a800d422a800cca2a800ccc2a800ab
:10548000000000000000000000000000000000001c
:10549000000000000000000000000000000000000c
:1054a00000000000000000000000000000000000fc
:1054b00000000000000000000000000000000000ec
:1054c00000000000000000000000000000000000dc
:1054d00000000000000000000000000000000000cc
:1054e00000000000000000000000000000000000bc
:1054f00000000000000000000000000000000000ac
:10550000000000000000000000000000000000009b
:10551000000000000000000000000000000000008b
:10552000000000000000000000000000000000007b
:10553000000000000000000000000000000000006b
:10554000cd22a900d422a900000000000000000024
:10555000000000000000000000000000000000004b
:10556000000000000000000000000000000000003b
:10557000000000000000000000000000000000002b
:10558000000000000000000000000000000000001b
:10559000000000000000000000000000000000000b
:1055a00000000000000000000000000000000000fb
:1055b00000000000000000000000000000000000eb
:1055c00000000000000000000000000000000000db
:1055d00000000000000000000000000000000000cb
:1055e00000000000000000000000000000000000bb
:1055f00000000000000000000000000000000000ab
:105600000000000000000000cd22a800d422a80065
:10561000cca2a900ccc2a90000000000000000003c
:10562000000000000000000000000000000000007a
:10563000000000000000000000000000000000006a
:10564000000000000000000000000000000000005a
:10565000000000000000000000000000000000004a
:10566000000000000000000000000000000000003a
:10567000000000000000000000000000000000002a
:10568000000000000000000000000000000000001a
:10569000000000000000000000000000000000000a
:1056a00000000000000000000000000000000000fa
:1056b00000000000000000000000000000000000ea
:1056c00000000000000000000000000000000000da
:1056d0000000000000000000cd22a900d422a90093
:1056e00000000000000000000000000000000000ba
:1056f00000000000000000000000000000000000aa
:105700000000000000000000000000000000000099
:105710000000000000000000000000000000000089
:105720000000000000000000000000000000000079
:105730000000000000000000000000000000000069
:105740000000000000000000000000000000000059
:105750000000000000000000000000000000000049
:105760000000000000000000000000000000000039
:105770000000000000000000000000000000000029
:105780000000000000000000000000000000000019
:105790000000000000000000000000000000000009
:1057a000d000200090130700cd22a800d422a8002a
:1057b000cca2a800ccc2a80000000000000000009d
:1057c00000000000000000000000000000000000d9
:1057d00000000000000000000000000000000000c9
:1057e00000000000000000000000000000000000b9
:1057f00000000000000000000000000000000000a9
:105800000000000000000000000000000000000098
:105810000000000000000000000000000000000088
:105820000000000000000000000000000000000078
:105830000000000000000000000000000000000068
:105840000000000000000000000000000000000058
:105850000000000000000000000000000000000048
:105860000000000000000000000000000000000038
:105870000000000000000000cd22a900d422a900f1
:105880000000000000000000000000000000000018
:105890000000000000000000000000000000000008
:1058a00000000000000000000000000000000000f8
:1058b00000000000000000000000000000000000e8
:1058c00000000000000000000000000000000000d8
:1058d00000000000000000000000000000000000c8
:1058e00000000000000000000000000000000000b8
:1058f00000000000000000000000000000000000a8
:105900000000000000000000000000000000000097
:105910000000000000000000000000000000000087
:105920000000000000000000000000000000000077
:105930000000000000000000000000000000000067
:10594000cd22a800d422a800cca2a800ccc2a800d6
:105950000000000000000000000000000000000047
:105960000000000000000000000000000000000037
:105970000000000000000000000000000000000027
:105980000000000000000000000000000000000017
:105990000000000000000000000000000000000007
:1059a00000000000000000000000000000000000f7
:1059b00000000000000000000000000000000000e7
:1059c00000000000000000000000000000000000d7
:1059d00000000000000000000000000000000000c7
:1059e00000000000000000000000000000000000b7
:1059f00000000000000000000000000000000000a7
:105a00000000000000000000000000000000000096
:105a1000cd22a900d422a90000000000000000004f
:105a20000000000000000000000000000000000076
:105a30000000000000000000000000000000000066
:105a40000000000000000000000000000000000056
:105a50000000000000000000000000000000000046
:105a60000000000000000000000000000000000036
:105a70000000000000000000000000000000000026
:105a80000000000000000000000000000000000016
:105a90000000000000000000000000000000000006
:105aa00000000000000000000000000000000000f6
:105ab00000000000000000000000000000000000e6
:105ac00000000000000000000000000000000000d6
:105ad0000000000000000000cd22a800d422a80091
:105ae000cca2a800ccc2a80000000000000000006a
:105af00000000000000000000000000000000000a6
:105b00000000000000000000000000000000000095
:105b10000000000000000000000000000000000085
:105b20000000000000000000000000000000000075
:105b30000000000000000000000000000000000065
:105b40000000000000000000000000000000000055
:105b50000000000000000000000000000000000045
:105b60000000000000000000000000000000000035
:105b70000000000000000000000000000000000025
:105b80000000000000000000000000000000000015
:105b90000000000000000000000000000000000005
:105ba0000000000000000000cd22a900d422a900be
:105bb00000000000000000000000000000000000e5
:105bc00000000000000000000000000000000000d5
:105bd00000000000000000000000000000000000c5
:105be00000000000000000000000000000000000b5
:105bf00000000000000000000000000000000000a5
:105c00000000000000000000000000000000000094
:105c10000000000000000000000000000000000084
:105c20000000000000000000000000000000000074
:105c30000000000000000000000000000000000064
:105c40000000000000000000000000000000000054
:105c50000000000000000000000000000000000044
:105c60000000000000000000000000000000000034
:105c7000cd22a800d422a800cca2a800ccc2a800a3
:105c80000000000000000000000000000000000014
:105c90000000000000000000000000000000000004
:105ca00000000000000000000000000000000000f4
:105cb00000000000000000000000000000000000e4
:105cc00000000000000000000000000000000000d4
:105cd00000000000000000000000000000000000c4
:105ce00000000000000000000000000000000000b4
:105cf00000000000000000000000000000000000a4
:105d00000000000000000000000000000000000093
:105d10000000000000000000000000000000000083
:105d20000000000000000000000000000000000073
:105d30000000000000000000000000000000000063
:105d4000cd22a900d422a90000000000000000001c
:105d50000000000000000000000000000000000043
:105d60000000000000000000000000000000000033
:105d70000000000000000000000000000000000023
:105d80000000000000000000000000000000000013
:105d90000000000000000000000000000000000003
:105da00000000000000000000000000000000000f3
:105db00000000000000000000000000000000000e3
:105dc00000000000000000000000000000000000d3
:105dd00000000000000000000000000000000000c3
:105de00000000000000000000000000000000000b3
:105df00000000000000000000000000000000000a3
:105e00000000000000000000cd22a800d422a8005d
:105e1000cca2a800ccc2a800000000000000000036
:105e20000000000000000000000000000000000072
:105e30000000000000000000000000000000000062
:105e40000000000000000000000000000000000052
:105e50000000000000000000000000000000000042
:105e60000000000000000000000000000000000032
:105e70000000000000000000000000000000000022
:105e80000000000000000000000000000000000012
:105e90000000000000000000000000000000000002
:105ea00000000000000000000000000000000000f2
:105eb00000000000000000000000000000000000e2
:105ec00000000000000000000000000000000000d2
:105ed0000000000000000000cd22a900d422a9008b
:105ee00000000000000000000000000000000000b2
:105ef00000000000000000000000000000000000a2
:105f00000000000000000000000000000000000091
:105f10000000000000000000000000000000000081
:105f20000000000000000000000000000000000071
:105f30000000000000000000000000000000000061
:105f40000000000000000000000000000000000051
:105f50000000000000000000000000000000000041
:105f60000000000000000000000000000000000031
:105f70000000000000000000000000000000000021
:105f80000000000000000000000000000000000011
:105f90000000000000000000000000000000000001
:105fa000cd22a800d422a800cca2a800ccc2a80070
:105fb00000000000000000000000000000000000e1
:105fc00000000000000000000000000000000000d1
:105fd00000000000000000000000000000000000c1
:105fe00000000000000000000000000000000000b1
:105ff00000000000000000000000000000000000a1
:106000000000000000000000000000000000000090
:106010000000000000000000000000000000000080
:106020000000000000000000000000000000000070
:106030000000000000000000000000000000000060
:106040000000000000000000000000000000000050
:106050000000000000000000000000000000000040
:106060000000000000000000000000000000000030
:10607000cd22a900d422a9000000000000000000e9
:106080000000000000000000000000000000000010
:106090000000000000000000000000000000000000
:1060a00000000000000000000000000000000000f0
:1060b00000000000000000000000000000000000e0
:1060c00000000000000000000000000000000000d0
:1060d00000000000000000000000000000000000c0
:1060e00000000000000000000000000000000000b0
:1060f00000000000000000000000000000000000a0
:10610000000000000000000000000000000000008f
:10611000000000000000000000000000000000007f
:10612000000000000000000000000000000000006f
:106130000000000000000000cd22a800d422a8002a
:10614000cca2a800ccc2a800000000000000000003
:10615000000000000000000000000000000000003f
:10616000000000000000000000000000000000002f
:10617000000000000000000000000000000000001f
:10618000000000000000000000000000000000000f
:1061900000000000000000000000000000000000ff
:1061a00000000000000000000000000000000000ef
:1061b00000000000000000000000000000000000df
:1061c00000000000000000000000000000000000cf
:1061d00000000000000000000000000000000000bf
:1061e00000000000000000000000000000000000af
:1061f000000000000000000000000000000000009f
:106200000000000000000000cd22a900d422a90057
:10621000000000000000000000000000000000007e
:10622000000000000000000000000000000000006e
:10623000000000000000000000000000000000005e
:10624000000000000000000000000000000000004e
:10625000000000000000000000000000000000003e
:10626000000000000000000000000000000000002e
:10627000000000000000000000000000000000001e
:10628000000000000000000000000000000000000e
:1062900000000000000000000000000000000000fe
:1062a00000000000000000000000000000000000ee
:1062b00000000000000000000000000000000000de
:1062c00000000000000000000000000000000000ce
:1062d000cd22a800d422a800cca2a800ccc2a8003d
:1062e00000000000000000000000000000000000ae
:1062f000000000000000000000000000000000009e
:10630000000000000000000000000000000000008d
:10631000000000000000000000000000000000007d
:10632000000000000000000000000000000000006d
:10633000000000000000000000000000000000005d
:10634000000000000000000000000000000000004d
:10635000000000000000000000000000000000003d
:10636000000000000000000000000000000000002d
:10637000000000000000000000000000000000001d
:10638000000000000000000000000000000000000d
:1063900000000000000000000000000000000000fd
:1063a000cd22a900d422a9000000000000000000b6
:1063b00000000000000000000000000000000000dd
:1063c00000000000000000000000000000000000cd
:1063d00000000000000000000000000000000000bd
:1063e00000000000000000000000000000000000ad
:1063f000000000000000000000000000000000009d
:10640000000000000000000000000000000000008c
:10641000000000000000000000000000000000007c
:10642000000000000000000000000000000000006c
:10643000000000000000000000000000000000005c
:10644000000000000000000000000000000000004c
:10645000000000000000000000000000000000003c
:106460000000000000000000800020005e10070017
:10647000c902a800cf02a900c8c2a800cec2a900c4
:106480008000200058100700cd22a800d422a800c8
:1064900000000000000000000000000000000000fc
:1064a00000000000000000000000000000000000ec
:1064b00000000000000000000000000000000000dc
:1064c00000000000000000000000000000000000cc
:1064d00000000000000000000000000000000000bc
:1064e00000000000000000000000000000000000ac
:1064f000000000000000000000000000000000009c
:10650000000000000000000000000000000000008b
:10651000000000000000000000000000000000007b
:10652000000000000000000000000000000000006b
:10653000000000000000000000000000000000005b
:10654000000000000000000000000000000000004b
:10655000cd22a900d422a900b92c200099447800aa
:10656000e1c46400a82c2000184478004644de00f2
:106570006104640000000000000000000000000052
:10658000000000000000000000000000000000000b
:1065900000000000000000000000000000000000fb
:1065a00000000000000000000000000000000000eb
:1065b00000000000000000000000000000000000db
:1065c00000000000000000000000000000000000cb
:1065d00000000000000000000000000000000000bb
:1065e00000000000000000000000000000000000ab
:1065f000000000000000000000000000000000009b
:10660000000000000000000000000000000000008a
:10661000000000000000000000000000000000007a
:10662000000000000000000000000000000000006a
:10663000000000008984fb00898444000884fb007a
:1066400008044400cd22a800d422a80000000000c5
:10665000000000000000000000000000000000003a
:10666000000000000000000000000000000000002a
:10667000000000000000000000000000000000001a
:10668000000000000000000000000000000000000a
:1066900000000000000000000000000000000000fa
:1066a00000000000000000000000000000000000ea
:1066b00000000000000000000000000000000000da
:1066c00000000000000000000000000000000000ca
:1066d00000000000000000000000000000000000ba
:1066e00000000000000000000000000000000000aa
:1066f000000000000000000000000000000000009a
:10670000000000000000000000000000cd22a900f1
:10671000d422a900cbc2bf00610060008084740055
:10672000cac2bf004600de006100600000047400c1
:106730000000000000000000000000000000000059
:106740000000000000000000000000000000000049
:106750000000000000000000000000000000000039
:106760000000000000000000000000000000000029
:106770000000000000000000000000000000000019
:106780000000000000000000000000000000000009
:1067900000000000000000000000000000000000f9
:1067a00000000000000000000000000000000000e9
:1067b00000000000000000000000000000000000d9
:1067c00000000000000000000000000000000000c9
:1067d00000000000000000000000000000000000b9
:1067e00000000000000000000000000000000000a9
:1067f0008984440008044400cd22a800d422a800c3
:106800000000000000000000000000000000000088
:106810000000000000000000000000000000000078
:106820000000000000000000000000000000000068
:106830000000000000000000000000000000000058
:106840000000000000000000000000000000000048
:106850000000000000000000000000000000000038
:106860000000000000000000000000000000000028
:106870000000000000000000000000000000000018
:106880000000000000000000000000000000000008
:1068900000000000000000000000000000000000f8
:1068a00000000000000000000000000000000000e8
:1068b00000000000000000000000000000000000d8
:1068c000cd22a900d422a900cbc2bf006100600084
:1068d00080847400cac2bf004600de006100600010
:1068e0000004740000000000000000000000000030
:1068f0000000000000000000000000000000000098
:106900000000000000000000000000000000000087
:106910000000000000000000000000000000000077
:106920000000000000000000000000000000000067
:106930000000000000000000000000000000000057
:106940000000000000000000000000000000000047
:106950000000000000000000000000000000000037
:106960000000000000000000000000000000000027
:106970000000000000000000000000000000000017
:106980000000000000000000000000000000000007
:1069900000000000000000000000000000000000f7
:1069a000000000008984440008044400cd22a800af
:1069b000d422a80000000000000000000000000039
:1069c00000000000000000000000000000000000c7
:1069d00000000000000000000000000000000000b7
:1069e00000000000000000000000000000000000a7
:1069f0000000000000000000000000000000000097
:106a00000000000000000000000000000000000086
:106a10000000000000000000000000000000000076
:106a20000000000000000000000000000000000066
:106a30000000000000000000000000000000000056
:106a40000000000000000000000000000000000046
:106a50000000000000000000000000000000000036
:106a60000000000000000000000000000000000026
:106a700000000000cd22a900d422a900cbc2bf0093
:106a80006100600080847400cac2bf004600de005e
:106a900061006000000474000000000000000000bd
:106aa00000000000000000000000000000000000e6
:106ab00000000000000000000000000000000000d6
:106ac00000000000000000000000000000000000c6
:106ad00000000000000000000000000000000000b6
:106ae00000000000000000000000000000000000a6
:106af0000000000000000000000000000000000096
:106b00000000000000000000000000000000000085
:106b10000000000000000000000000000000000075
:106b20000000000000000000000000000000000065
:106b30000000000000000000000000000000000055
:106b40000000000000000000000000000000000045
:106b50000000000000000000898444000804440094
:106b6000cd22a800d422a8000000000000000000f0
:106b70000000000000000000000000000000000015
:106b80000000000000000000000000000000000005
:106b900000000000000000000000000000000000f5
:106ba00000000000000000000000000000000000e5
:106bb00000000000000000000000000000000000d5
:106bc00000000000000000000000000000000000c5
:106bd00000000000000000000000000000000000b5
:106be00000000000000000000000000000000000a5
:106bf0000000000000000000000000000000000095
:106c00000000000000000000000000000000000084
:106c10000000000000000000000000000000000074
:106c20000000000000000000cd22a900d422a9002d
:106c3000cbc2bf006100600080847400cac2bf0084
:106c40004600de00610060000004740000000000e7
:106c50000000000000000000000000000000000034
:106c60000000000000000000000000000000000024
:106c70000000000000000000000000000000000014
:106c80000000000000000000000000000000000004
:106c900000000000000000000000000000000000f4
:106ca00000000000000000000000000000000000e4
:106cb00000000000000000000000000000000000d4
:106cc00000000000000000000000000000000000c4
:106cd00000000000000000000000000000000000b4
:106ce00000000000000000000000000000000000a4
:106cf0000000000000000000000000000000000094
:106d00000000000000000000000000008984440032
:106d100008044400cd22a800d422a80000000000ee
:106d20000000000000000000000000000000000063
:106d30000000000000000000000000000000000053
:106d40000000000000000000000000000000000043
:106d50000000000000000000000000000000000033
:106d60000000000000000000000000000000000023
:106d70000000000000000000000000000000000013
:106d80000000000000000000000000000000000003
:106d900000000000000000000000000000000000f3
:106da00000000000000000000000000000000000e3
:106db00000000000000000000000000000000000d3
:106dc00000000000000000000000000000000000c3
:106dd000000000000000000000000000cd22a9001b
:106de000d422a900cbc2bf0061006000808474007f
:106df000cac2bf004600de006100600000047400eb
:106e00000000000000000000000000000000000082
:106e10000000000000000000000000000000000072
:106e20000000000000000000000000000000000062
:106e30000000000000000000000000000000000052
:106e40000000000000000000000000000000000042
:106e50000000000000000000000000000000000032
:106e60000000000000000000000000000000000022
:106e70000000000000000000000000000000000012
:106e80000000000000000000000000000000000002
:106e900000000000000000000000000000000000f2
:106ea00000000000000000000000000000000000e2
:106eb00000000000000000000000000000000000d2
:106ec0008984440008044400cd22a800d422a800ec
:106ed00000000000000000000000000000000000b2
:106ee00000000000000000000000000000000000a2
:106ef0000000000000000000000000000000000092
:106f00000000000000000000000000000000000081
:106f10000000000000000000000000000000000071
:106f20000000000000000000000000000000000061
:106f30000000000000000000000000000000000051
:106f40000000000000000000000000000000000041
:106f50000000000000000000000000000000000031
:106f60000000000000000000000000000000000021
:106f70000000000000000000000000000000000011
:106f80000000000000000000000000000000000001
:106f9000cd22a900d422a900cbc2bf0061006000ad
:106fa00080847400cac2bf004600de006100600039
:106fb0000004740000000000000000000000000059
:106fc00000000000000000000000000000000000c1
:106fd00000000000000000000000000000000000b1
:106fe00000000000000000000000000000000000a1
:106ff0000000000000000000000000000000000091
:107000000000000000000000000000000000000080
:107010000000000000000000000000000000000070
:107020000000000000000000000000000000000060
:107030000000000000000000000000000000000050
:107040000000000000000000000000000000000040
:107050000000000000000000000000000000000030
:107060000000000000000000000000000000000020
:10707000000000008984440008044400cd22a800d8
:10708000d422a80000000000000000000000000062
:1070900000000000000000000000000000000000f0
:1070a00000000000000000000000000000000000e0
:1070b00000000000000000000000000000000000d0
:1070c00000000000000000000000000000000000c0
:1070d00000000000000000000000000000000000b0
:1070e00000000000000000000000000000000000a0
:1070f0000000000000000000000000000000000090
:10710000000000000000000000000000000000007f
:10711000000000000000000000000000000000006f
:10712000000000000000000000000000000000005f
:10713000000000000000000000000000000000004f
:1071400000000000cd22a900d422a900cbc2bf00bc
:107150006100600080847400cac2bf004600de0087
:1071600061006000000474000000000000000000e6
:10717000000000000000000000000000000000000f
:1071800000000000000000000000000000000000ff
:1071900000000000000000000000000000000000ef
:1071a00000000000000000000000000000000000df
:1071b00000000000000000000000000000000000cf
:1071c00000000000000000000000000000000000bf
:1071d00000000000000000000000000000000000af
:1071e000000000000000000000000000000000009f
:1071f000000000000000000000000000000000008f
:10720000000000000000000000000000000000007e
:10721000000000000000000000000000000000006e
:1072200000000000000000008984440008044400bd
:10723000d0002000ec0c0700cd22a800d422a8002a
:10724000000000000000000000000000000000003e
:10725000000000000000000000000000000000002e
:10726000000000000000000000000000000000001e
:10727000000000000000000000000000000000000e
:1072800000000000000000000000000000000000fe
:1072900000000000000000000000000000000000ee
:1072a00000000000000000000000000000000000de
:1072b00000000000000000000000000000000000ce
:1072c00000000000000000000000000000000000be
:1072d00000000000000000000000000000000000ae
:1072e000000000000000000000000000000000009e
:1072f000000000000000000000000000000000008e
:10730000cd22a900d422a900cbc2bf006100600039
:1073100080847400cac2bf004600de0061006000c5
:1073200000047400000000000000000000000000e5
:10733000000000000000000000000000000000004d
:10734000000000000000000000000000000000003d
:10735000000000000000000000000000000000002d
:10736000000000000000000000000000000000001d
:10737000000000000000000000000000000000000d
:1073800000000000000000000000000000000000fd
:1073900000000000000000000000000000000000ed
:1073a00000000000000000000000000000000000dd
:1073b00000000000000000000000000000000000cd
:1073c00000000000000000000000000000000000bd
:1073d00000000000000000000000000000000000ad
:1073e000000000008984440008044400cd22a80065
:1073f000d422a800000000000000000000000000ef
:10740000000000000000000000000000000000007c
:10741000000000000000000000000000000000006c
:10742000000000000000000000000000000000005c
:10743000000000000000000000000000000000004c
:10744000000000000000000000000000000000003c
:10745000000000000000000000000000000000002c
:10746000000000000000000000000000000000001c
:10747000000000000000000000000000000000000c
:1074800000000000000000000000000000000000fc
:1074900000000000000000000000000000000000ec
:1074a00000000000000000000000000000000000dc
:1074b00000000000cd22a900d422a900cbc2bf0049
:1074c0006100600080847400cac2bf004600de0014
:1074d0006100600000047400000000000000000073
:1074e000000000000000000000000000000000009c
:1074f000000000000000000000000000000000008c
:10750000000000000000000000000000000000007b
:10751000000000000000000000000000000000006b
:10752000000000000000000000000000000000005b
:10753000000000000000000000000000000000004b
:10754000000000000000000000000000000000003b
:10755000000000000000000000000000000000002b
:10756000000000000000000000000000000000001b
:10757000000000000000000000000000000000000b
:1075800000000000000000000000000000000000fb
:10759000000000000000000089844400080444004a
:1075a000cd22a800d422a8000000000000000000a6
:1075b00000000000000000000000000000000000cb
:1075c00000000000000000000000000000000000bb
:1075d00000000000000000000000000000000000ab
:1075e000000000000000000000000000000000009b
:1075f000000000000000000000000000000000008b
:10760000000000000000000000000000000000007a
:10761000000000000000000000000000000000006a
:10762000000000000000000000000000000000005a
:10763000000000000000000000000000000000004a
:10764000000000000000000000000000000000003a
:10765000000000000000000000000000000000002a
:107660000000000000000000cd22a900d422a900e3
:10767000cbc2bf006100600080847400cac2bf003a
:107680004600de006100600000047400000000009d
:1076900000000000000000000000000000000000ea
:1076a00000000000000000000000000000000000da
:1076b00000000000000000000000000000000000ca
:1076c00000000000000000000000000000000000ba
:1076d00000000000000000000000000000000000aa
:1076e000000000000000000000000000000000009a
:1076f000000000000000000000000000000000008a
:107700000000000000000000000000000000000079
:107710000000000000000000000000000000000069
:107720000000000000000000000000000000000059
:107730000000000000000000000000000000000049
:1077400000000000000000000000000089844400e8
:1077500008044400cd22a800d422a80000000000a4
:107760000000000000000000000000000000000019
:107770000000000000000000000000000000000009
:1077800000000000000000000000000000000000f9
:1077900000000000000000000000000000000000e9
:1077a00000000000000000000000000000000000d9
:1077b00000000000000000000000000000000000c9
:1077c00000000000000000000000000000000000b9
:1077d00000000000000000000000000000000000a9
:1077e0000000000000000000000000000000000099
:1077f0000000000000000000000000000000000089
:107800000000000000000000000000000000000078
:10781000000000000000000000000000cd22a900d0
:10782000d422a900cbc2bf00610060008084740034
:10783000cac2bf004600de006100600000047400a0
:107840000000000000000000000000000000000038
:107850000000000000000000000000000000000028
:107860000000000000000000000000000000000018
:107870000000000000000000000000000000000008
:1078800000000000000000000000000000000000f8
:1078900000000000000000000000000000000000e8
:1078a00000000000000000000000000000000000d8
:1078b00000000000000000000000000000000000c8
:1078c00000000000000000000000000000000000b8
:1078d00000000000000000000000000000000000a8
:1078e0000000000000000000000000000000000098
:1078f0000000000000000000000000000000000088
:107900008984440008044400cd22a800d422a800a1
:107910000000000000000000000000000000000067
:107920000000000000000000000000000000000057
:107930000000000000000000000000000000000047
:107940000000000000000000000000000000000037
:107950000000000000000000000000000000000027
:107960000000000000000000000000000000000017
:107970000000000000000000000000000000000007
:1079800000000000000000000000000000000000f7
:1079900000000000000000000000000000000000e7
:1079a00000000000000000000000000000000000d7
:1079b00000000000000000000000000000000000c7
:1079c00000000000000000000000000000000000b7
:1079d000cd22a900d422a900cbc2bf006100600063
:1079e00080847400cac2bf004600de0061006000ef
:1079f000000474000000000000000000000000000f
:107a00000000000000000000000000000000000076
:107a10000000000000000000000000000000000066
:107a20000000000000000000000000000000000056
:107a30000000000000000000000000000000000046
:107a40000000000000000000000000000000000036
:107a50000000000000000000000000000000000026
:107a60000000000000000000000000000000000016
:107a70000000000000000000000000000000000006
:107a800000000000000000000000000000000000f6
:107a900000000000000000000000000000000000e6
:107aa00000000000000000000000000000000000d6
:107ab000000000008984440008044400cd22a8008e
:107ac000d422a80000000000000000000000000018
:107ad00000000000000000000000000000000000a6
:107ae0000000000000000000000000000000000096
:107af0000000000000000000000000000000000086
:107b00000000000000000000000000000000000075
:107b10000000000000000000000000000000000065
:107b20000000000000000000000000000000000055
:107b30000000000000000000000000000000000045
:107b40000000000000000000000000000000000035
:107b50000000000000000000000000000000000025
:107b60000000000000000000000000000000000015
:107b70000000000000000000000000000000000005
:107b800000000000cd22a900d422a900cbc2bf0072
:107b90006100600080847400cac2bf004600de003d
:107ba000610060000004740000000000000000009c
:107bb00000000000000000000000000000000000c5
:107bc00000000000000000000000000000000000b5
:107bd00000000000000000000000000000000000a5
:107be0000000000000000000000000000000000095
:107bf0000000000000000000000000000000000085
:107c00000000000000000000000000000000000074
:107c10000000000000000000000000000000000064
:107c20000000000000000000000000000000000054
:107c30000000000000000000000000000000000044
:107c40000000000000000000000000000000000034
:107c50000000000000000000000000000000000024
:107c60000000000000000000898444000804440073
:107c7000cd22a800d422a8000000000000000000cf
:107c800000000000000000000000000000000000f4
:107c900000000000000000000000000000000000e4
:107ca00000000000000000000000000000000000d4
:107cb00000000000000000000000000000000000c4
:107cc00000000000000000000000000000000000b4
:107cd00000000000000000000000000000000000a4
:107ce0000000000000000000000000000000000094
:107cf0000000000000000000000000000000000084
:107d00000000000000000000000000000000000073
:107d10000000000000000000000000000000000063
:107d20000000000000000000000000000000000053
:107d30000000000000000000cd22a900d422a9000c
:107d4000cbc2bf006100600080847400cac2bf0063
:107d50004600de00610060000004740000000000c6
:107d60000000000000000000000000000000000013
:107d70000000000000000000000000000000000003
:107d800000000000000000000000000000000000f3
:107d900000000000000000000000000000000000e3
:107da00000000000000000000000000000000000d3
:107db00000000000000000000000000000000000c3
:107dc00000000000000000000000000000000000b3
:107dd00000000000000000000000000000000000a3
:107de0000000000000000000000000000000000093
:107df0000000000000000000000000000000000083
:107e00000000000000000000000000000000000072
:107e10000000000000000000000000008984440011
:107e200008044400cd22a800d422a80000000000cd
:107e30000000000000000000000000000000000042
:107e40000000000000000000000000000000000032
:107e50000000000000000000000000000000000022
:107e60000000000000000000000000000000000012
:107e70000000000000000000000000000000000002
:107e800000000000000000000000000000000000f2
:107e900000000000000000000000000000000000e2
:107ea00000000000000000000000000000000000d2
:107eb00000000000000000000000000000000000c2
:107ec00000000000000000000000000000000000b2
:107ed00000000000000000000000000000000000a2
:107ee000000000000000000000000000cd22a900fa
:107ef000d422a900cbc2bf006100600000817400e1
:107f0000cac2bf004600de006100600000047400c9
:107f10000000000000000000000000000000000061
:107f20000000000000000000000000000000000051
:107f30000000000000000000000000000000000041
:107f40000000000000000000000000000000000031
:10814000cc82a800cc62a800000000000000000063
:10815000000000000000000000000000000000001f
:10816000000000000000000000000000000000000f
:1081700000000000000000000000000000000000ff
:1081800000000000000000000000000000000000ef
:1081900000000000000000000000000000000000df
:1081a00000000000000000000000000000000000cf
:1081b00000000000000000000000000000000000bf
:1081c00000000000000000000000000000000000af
:1081d000000000000000000000000000000000009f
:1081e0000000000000000000cd22a900d422a90058
:1081f000c902a900cf02a800c8c2a900cec2a80027
:1082000063006100e10f50001f00320078eaab000c
:1082100017003a006e2bec0063006400e10f500081
:108220002100320078eaab00250032004240de0037
:10823000f05b8800d05b80008000400022b7200007
:10824000e35b800083307900e4804000f35b8000d2
:10825000833079000000e800e10f50000100340095
:108260000000eb00d05b88004f04be000000060059
:108270004210de00e05b880063006400e10f500004
:10828000e8ff3a0008003700c210de00e0fd2300de
:10829000808f5000ddff3e00e15b880063006400da
:1082a000e10f5000dfff3a00c240de00e0fd230096
:1082b000808f5000dbff3e00f15b8800ddff370060
:1082c000702bec00dbff3700c3c2bf006100600011
:1082d00000000600b20407000000050000000600d0
:1082e0008b0bab0001003a000000060010c0b30089
:1082f0006aebb700325b8000c15a8000c0a1200049
:108300004501070080a72000c1a120002500090029
:108310003158780000000600889fbe000000eb0086
:1083200050f10700905388001000200051f1070021
:1083300080538800100020004af10700a0538800f5
:108340000000eb004bf107002053880020002000c4
:108350008aeb0700305388000000eb0087eb070032
:1083600040538800adef0700505388000000eb0039
:108370006053880037070700705388002855800035
:1083800094ef0700800478009bef07000904740055
:10839000000474000820a000b85388009fef070075
:1083a0000053880030558000105388004f04be00f1
:1083b000000006000800fa00d7ff07008200200036
:1083c000019c200068805700130107004fb89700f8
:1083d000dfb897006fb99700ffb99700c0528800c7
:1083e000d1528800e2528800f3528800019e20009a
:1083f00082a520001f000900b2587800425b80006f
:10840000b15a8000009e2000310107000080fa0070
:10841000000006008540a9009540a9004222ef0017
:1084200042a2a80042c2bf00c1cfb3000140600019
:108430000014a00042e2b70042c2bf0031ceb30038
:10844000014060008041b30042e2b70042c2a80090
:108450004302a9004322a9004342a90040c2a90047
:1084600041e2a800d4c2a800000006000200fa0001
:10847000881f78000040eb00c0ff9f00c803200069
:10848000485b8800385b8800020220008000eb0017
:1084900080a5200032eb0700620220008000eb0084
:1084a00080a720002eeb0700080178008000eb0079
:1084b000c0a120002aeb0700080178008000eb0033
:1084c000009e200026eb0700a62aef00a42aef005a
:1084d000a22aef009e2aef00a02aef008540a90003
:1084e0009540a9004222ef0042a2a80042c2bf006c
:1084f000c1cfb300014060000014a00042e2b70009
:1085000042c2bf0031ceb300014060008041b300e1
:1085100042e2b70042c2a8004302a9004322a900d8
:108520004342a90040c2a90041e2a800d4c2a80069
:108530008200a8008220a8008240a800d4c2a8001f
:108540008400a9001200200001142000648057005c
:10855000050107004ff89700e54f5000f9ff3a007a
:10856000120020005100200040b62000fe0007004d
:108570000000eb00c90107009400a800f803070001
:108580004f0478000080fa00000006003600f80072
:10859000809fbe00829fbe00849fbe00869fbe005b
:1085a0000800fa00d4c2a8008400a9005d000700fa
:1085b000654be200040032006c4be20009003a0017
:1085c0006b4be20015003a000080fa004f03be003a
:1085d0004f02be004f01be004f00be003600f90042
:1085e000004006008b0bab00f5ff320010c0b3005b
:1085f0006aebb700325b8000c15a8000c0a1200046
:108600008500070080a72000c1a1200025000900e7
:10861000315878006b4be200ebff32003eff070061
:1086200082002000019c2000688057007a0007002b
:108630004fb89700dfb897006fb99700ffb9970060
:10864000c0528800d1528800e2528800f35288005c
:10865000019e200082a520001f000900b25878006a
:10866000425b8000b15a8000009e20009800070005
:108670000080fa004f03be004f02be004f01be0053
:108680004f00be003600f90000400600d5ff37005d
:1086900000000500000005000000050000000500c6
:1086a0000000050000000500000005009400a9007e
:1086b000d4c2a9008540a90000042000401288000f
:1086c00085c0bf000028a300fdff320040128000db
:1086d0008aebb7008540a9002007200040128800df
:1086e00085c0bf000028a300fdff320040128000bb
:1086f0008bebb7008540a900f00f200040128800e6
:1087000085c0bf000028a300fdff3200401280009a
:1087100080ebb7008540a900d4c2a8009400a8004f
:1087200000000600d4c2a9008540a9004822ef003d
:1087300085c0bf000028a300fdff3200401280006a
:108740008aebb7008540a900200020004012880075
:1087500085c0bf000028a300fdff3200401280004a
:108760008bebb7008540a900d4c2a800000006002a
:108770004300dd008180fb0081007000d4c2a900ad
:108780008540a9004808de004012880085c0bf006f
:108790000028a300fdff3200401280008aebb700e2
:1087a0008540a9000180fb004012880085c0bf0001
:1087b0000028a300fdff3200401280008bebb700c1
:1087c0008540a900000006004300dd008180fb0019
:1087d00081007000d4c2a9008540a9004808de00cd
:1087e0004012880085c0bf000028a300fdff3200b2
:1087f000401280008540a9000180fb0040128800e3
:1088000085c0bf000028a300fdff32004012800099
:108810008540a9000000060080017800c308dd0043
:108820000110a000d4c2a9008540a9004808de00bc
:108830004012880085c0bf000028a300fdff320061
:10884000401280008540a9000180fb004012880092
:1088500085c0bf000028a300fdff32004012800049
:108860008540a9000200e900e10f4000110032003c
:10887000800078000042eb000081eb000100e00086
:108880000f003a0000c2eb00f00f20008540a90065
:108890004012880085c0bf000028a300fdff320001
:1088a00040128000805978008100e900810f51005a
:1088b000f2ff3a008540a900d4c2a80000000600db
:1088c0000480fb008540a90040128800f1ff3700ba
:1088d00080017800c308dd000120a000d4c2a900f7
:1088e0008540a9004808de004012880085c0bf000e
:1088f0000028a300fdff3200401280008540a9003f
:108900000180fb004012880085c0bf000028a30042
:10891000fdff3200401280008540a9000200e900fe
:10892000e10f40000d00320083007800030040009a
:108930000001e8008540a9001180fb00401288007a
:1089400085c0bf000028a300fdff32004012800058
:108950008100e800810f5100f6ff3a008540a90030
:10896000d4c2a80000000600000278000200e9005e
:10897000e10f40002400320000804000f50f20008d
:108980000001e8009400a900c309dd000310a00065
:10899000d4c2a9008540a9004818de004012880012
:1089a00085c0bf000028a300fdff320040128000f8
:1089b0008aebb7008540a9000380fb0040128800c5
:1089c00085c0bf000028a300fdff320040128000d8
:1089d0008bebb7008540a9004512880085c0bf0019
:1089e0000028a300fdff320040128000005a7800ea
:1089f0009400a800d4c2a8008100e8008540a90026
:108a0000828f5000dfff3a000000060080027800ed
:108a10000200e000250032000002eb009400a900f3
:108a2000c309dd000320a000d4c2a9008540a9002d
:108a30004818de004012880085c0bf000028a3004f
:108a4000fdff3200401280008aebb7008540a9008c
:108a50000380fb004012880085c0bf000028a300ef
:108a6000fdff3200401280008bebb7008540a9006b
:108a70008540a90064c07a000080fb004012880095
:108a800085c0bf000028a300fdff32004012800017
:108a90009400a8008100e8008540a900d4c2a80085
:108aa0000402e800840f5100dcff3a0000000600d9
:108ab0009400a900d4c2a9008540a90000042000a8
:108ac0004012880085c0bf000028a300fdff3200cf
:108ad000401280008aebb7008540a90020072000e3
:108ae0004012880085c0bf000028a300fdff3200af
:108af000401280008bebb7008540a900f00f2000ea
:108b00004012880085c0bf000028a300fdff32008e
:108b10004012800080ebb7008540a900d4c2a800b5
:108b20009400a8008a0bab002c0032000212200037
:108b3000e6a62000f50f2000241220009400a900d2
:108b4000c310dd000110a000d4c2a9008540a90017
:108b50004808de004012880085c0bf000028a3003e
:108b6000fdff320040128000804178008540a9005e
:108b70000180fb004012880085c0bf000028a300d0
:108b8000fdff320040128000804078008540a9003f
:108b90004512880085c0bf000028a300fdff3200f9
:108ba0004012800000717b009400a800d4c2a8008d
:108bb0000201e8008540a900840f5100dfff3a0060
:108bc000010078008bebb700e0ceb30000c061007d
:108bd0008aebb7008ecbbf00fe0207000000060044
:108be0000080fb004300dd0025b82000018020004c
:108bf0000101400073002000f60f20009400a9003e
:108c0000c310dd000110a000d4c2a9008540a90056
:108c10004808de004012880085c0bf000028a3007d
:108c2000fdff320040128000004278008540a9001c
:108c30000180fb004012880085c0bf000028a3000f
:108c4000fdff320040128000804078008540a9007e
:108c50004612880085c0bf000028a300fdff320037
:108c600040128000805a78009400a800d4c2a80066
:108c70000201e8008540a9008301e900e18f41007d
:108c8000deff3a00010078008bebb70004007800ab
:108c90008aebb70020b82000000006000200fa00ae
:108ca000000278008f83e9008701780042202000cd
:108cb000f60f2000652020009400a900c310dd00fd
