:020000040000fa
:080000000018040000000000dc
:020000040000fa
:103000006fad200000ff20000001880000000000dc
:103010000a00070011000700000020000000e00087
:1030200002003200000002000000000068300200d0
:10303000000000000040da000000fe004440a9004b
:10304000000020000000e00003003200000020002b
:10305000a00188004440a80000000600605b230037
:10306000010020001500370062004000e0804800a9
:10307000910188009001ba0062004000e0804800a1
:10308000910188009002ba0062004000e080480090
:103090000002eb006028e10004003a000059eb0058
:1030a0008301e900fdff3e00040037006128e100d4
:1030b000010032000082eb0005000700910188004a
:1030c0001001ba000200e000e7ff3a00000005002e
:1030d000910188008002780062004000e080480092
:1030e0003559ba008301e900080032002559ba00b9
:1030f0008301e900050032000400e000f4ff320023
:1031000015d9ba008301e900f1ff3a00000006007a
:103110008001eb0002003700817178008301e80034
:10312000828f5100fcff3a00000006008001eb0096
:103130000200370061f079008301e800828f5100be
:10314000fcff3a00000006006022b80006022000e2
:103150000000d0008180d2000482d2008582d2009b
:103160000000a0000202520083825a0003003100d6
:103170000202420083824a000000a1000603e90027
:10318000f3ff3a00000006000800fa00300798003c
:103190006000b80010079800210798000000eb00bd
:1031a000000f7800100037003e0090009e0078006d
:1031b0004500dd000100400080004000a098200094
:1031c00000804000100078006101b8001e009000ef
:1031d000ae00900000004100818049001007980077
:1031e000210798001e0fe800f00120009e0f10003c
:1031f000edff34001e009000ae0090004b09dd0092
:103200004500de0000007100c588de000080fa0085
:10321000000006000000fa000000eb00304c8800bf
:103220000000eb00404c88000000eb0060198800b3
:1032300023c3bf007f40600023e3b70025e3a9005c
:10324000513220009140780000ceb30000c06000f1
:10325000a040b30025e3b70010c0b30024e3b700db
:103260003132200091407800c0cfb30000c0600030
:1032700023e3b7002043a8002143a8002063a9004e
:103280002343a800213220009140780030ccb300c5
:1032900000c060000024a00022e3b700013220003b
:1032a0009140780000ceb30000c0700020e3b7006a
:1032b0002223a8003003a8003023a80011322000e8
:1032c00091407800c0cfb30000c0600021e3b70098
:1032d00021e3a80085a0a90095a0a8000080fa001d
:1032e00000000600809fbe00821f78000200fa00e6
:1032f00085a0a90022c3bf0001c8b300014060003f
:103300000004e00005003a0080188000104c88009e
:1033100090188000204c88000400370000188000be
:10332000104c880010188000204c8800304c800021
:10333000224c800080004000a09c200000804000c3
:1033400002087800304c8000124c80008000400061
:10335000a09820000080400002087800304c8000d7
:103360000000e800ff0f500004003c00304c8000db
:103370000000e800000f7800020037000000eb00ba
:10338000000f78001e007800304c88000080fa00a2
:103390004f0178004f00be00004006002200fa00f6
:1033a00030079800410798000000eb0020079800c4
:1033b000be009000600220000088b9008000780004
:1033c000609520000080400010079800be0090002b
:1033d000600220000088b90080007800c0802000d2
:1033e000008f4000be0090000181400080942000ca
:1033f00000004100100078000001e80081804000da
:103400008094200000804000020878001e007800b0
:10341000c00090001e009000410098001e0078003f
:10342000d00090001e009000510098001e0078000f
:10343000e00090001e009000610098001e007800df
:10344000f00090001e009000710098001e007800af
:10345000801090001e009000011098001e0078005f
:10346000f00890001e009000710898003e00900047
:103470008000400080942000008040009000780090
:103480004e009000808f5000c80035003e00900034
:103490008000400080942000808040000000eb000d
:1034a0008008780010002000200798001e0090007f
:1034b000900090001e00780010009000808f500057
:1034c0002a0032001e0090001000900000179800a3
:1034d0001e009000900090001e00780010009000e8
:1034e000008050000000e00003003d000080eb0081
:1034f000700f98000200370011002000710f980033
:103500000e1190007e089000800051001e00900077
:10351000110098001e0090009000900000d027003d
:10352000808f50000a003c001e00900010009000a8
:10353000600f980000302800ee089000808f500047
:1035400005003d0002302800620f9800020037009d
:1035500000d02700600f98001e009000ee08900039
:10356000110098000000eb00200798001e0090005a
:10357000a00090001e00780020009000808f500076
:103580002a0032001e00900020009000500f98008a
:103590001e009000a00090001e0078002000900007
:1035a000008050000000e00003003d000081eb00bf
:1035b000420f98000200370010002000400f9800d2
:1035c0005e0990004e089000800051001e0090009f
:1035d000210098001e009000a000900000d027005d
:1035e000808f50000a003c001e00900020009000d8
:1035f000300f980000302800be089000808f5000e7
:1036000005003d0002302800320f9800020037000c
:1036100000d02700300f98001e009000be089000d8
:10362000210098000000eb00200798001e00900089
:10363000b00090001e00780030009000808f500095
:103640002a0032001e00900030009000200f9800e9
:103650001e009000b00090001e0078003000900026
:10366000008050000000e00003003d000081eb00fe
:10367000120f98000200370010002000100f980071
:103680002e0990001e089000800051001e0090003e
:10369000310098001e009000b000900000d027007c
:1036a000808f50000a003c001e0090003000900007
:1036b000000f9800003028008e089000808f500086
:1036c00005003d0002302800020f9800020037007c
:1036d00000d02700000f98001e0090008e08900078
:1036e000310098000000eb00200798001e009000b9
:1036f000901090001e00780010109000808f5000f5
:103700002a0032001e0090001010900070079800f0
:103710001e009000901090001e0078001010900085
:10372000008050000000e00003003d000081eb003d
:103730006207980002003700100020006007980020
:103740007e0190006e009000800051001e009000ed
:10375000111098001e0090009010900000d02700db
:10376000808f50000a003c001e0090001010900056
:103770005007980000302800de009000808f500035
:1037800005003d0002302800520798000200370073
:1037900000d02700500798001e009000de00900027
:1037a000111098000000eb00200798002e009000f8
:1037b0000080fa00000006001a00fa0030079800a6
:1037c000410798000000eb0020079800be00900021
:1037d000600220000088b900800078006095200019
:1037e0000080400010079800be009000600220009a
:1037f0000088b90080007800c0802000008f400061
:10380000be00900001814000809420000000410033
:10381000100078000001e8008180400080942000c2
:1038200000804000020878001e007800c000900070
:103830001e009000410098001e007800d00090000b
:103840001e009000510098001e007800e0009000db
:103850001e009000610098001e007800e0009000bb
:103860001e009000710098001e00780080109000eb
:103870001e009000011098001e007800f0089000d3
:103880001e009000710898003e00900080004000eb
:103890008094200000804000900078004e0090004e
:1038a000808f5000640035003e0090008000400092
:1038b00080942000808040000000eb0080087800a9
:1038c00010002000200798001e00900010009000bb
:1038d0000000e000130032001e0090001000900075
:1038e000400f98001e009000100090000000e000c3
:1038f00003003d000080eb00300f9800020037000d
:1039000011002000310f98004e099000be08900071
:10391000010051009e009000900098000000eb0014
:10392000200798001e009000200090000000e0009a
:10393000130032001e00900020009000200f98001d
:103940001e009000200090000000e00003003d00f9
:103950000081eb00120f98000200370010002000d9
:10396000100f9800ae0890001e09900002805000d1
:103970009e009000a00098000000eb002007980037
:103980001e009000300090000000e00013003200a4
:103990001e00900030009000000f98001e00900064
:1039a000300090000000e00003003d000080eb00cc
:1039b000700798000200370011002000710798007e
:1039c0000e099000fe009000010051009e00900042
:1039d000b00098000000eb00200798001e00900047
:1039e000101090000000e000130032001e00900054
:1039f00010109000600798001e00900010109000ba
:103a00000000e00003003d000081eb005207980039
:103a1000020037001000200050079800ee009000d0
:103a20005e019000028050009e009000901098006f
:103a30000000eb00200798002e0090000080fa00a4
:103a4000000006000400fa00100798009e00900095
:103a5000600220000088b900800078006095200096
:103a6000008f40009e0078000000eb00900098005e
:103a70009e0078000000eb00a00098009e007800f7
:103a80000000eb00b00098009e0078000000eb0002
:103a9000901098009e0078000000eb00f000980065
:103aa0009e0078000000eb00c00098009e007800a7
:103ab0000000eb00d00098009e0078000000eb00b2
:103ac000e00098009e0078000000eb008010980055
:103ad0001e009000c200dd00e09420000081400044
:103ae0006000b8000089be001e009000c200dd002a
:103af000a0942000008140006000b8000089be0052
:103b00001e0090004600dd008000780060902000dc
:103b100000804000020420008000eb007cfd0700d4
:103b20001e00900080004000209520008080400012
:103b30000000eb00800878001e009000800040002c
:103b400040952000808040000000eb008008780055
:103b50001e00900080004000809420008080400083
:103b60000000eb00800878000080fa0000000600ea
:103b70000200fa000000eb00000f78000900370097
:103b80001e0078008000400060942000808040008b
:103b90000000eb00800878001e007800a9ff0700f5
:103ba0001e0fe8001e00e000f5ff34000080fa0060
:103bb000000006000400fa00000f780011079800ca
:103bc0009e007800600220000088b9008000780024
:103bd000c080200000804000100078004800de0017
:103be000610060000004a2000004e00006003a004a
:103bf0001e0090000000e00003003400cc0007002d
:103c00000000e00012003a009e00780060022000f0
:103c10000088b90080007800c0802000008040004b
:103c2000100078004900de00610060000004a2007e
:103c30000004e00009003a001e0090000000e000cf
:103c400006003d00ad0007000000e0000300320068
:103c50000000eb00910a0700020037001e009000f0
:103c60008e0a07000080fa00000006000800fa0033
:103c70000000eb002007980093003700ae00900092
:103c8000600220000088b900f6004000c0802000db
:103c9000008040009000780011079800ae0090006e
:103ca000600220000088b900f0004000c0802000c1
:103cb00000804000100f78002e009000800040002f
:103cc00060942000008040001000780030079800c9
:103cd0003e009000e20f500038003200be0090001d
:103ce000e28f500007003c003e0090000000e00022
:103cf0000b003200be009000e18f50002100320026
:103d00006a0037003e009000e30f50005700320079
:103d1000be009000e48f5000420032006300370084
:103d2000cd82a9008000eb002e009000a1ff0700cb
:103d30001e009000e10f500006003a002e00900097
:103d4000800040006094200080804000100020002f
:103d5000800878001e009000e20f500006003a0034
:103d60002e00900080004000609420008080400081
:103d700020002000800878002e00900031ff07000e
:103d80004e003700cd82a8009e0078002e009000e3
:103d900088ff07001e009000e10f5000470032002e
:103da0002e00900080004000609420008080400041
:103db0000000eb008008780040003700cd82a800aa
:103dc0001e009000e20f5000070032002e0090000d
:103dd0008000400060942000808040000000eb00e4
:103de0008008780035003700a10f20002e009000d9
:103df0006afd07000000e000060032002e0090007f
:103e0000800040006094200080804000400020003e
:103e1000800878009e0078002e0090002f00070098
:103e200026003700cd82a8001e009000e20f50004f
:103e3000070032002e0090008000400060942000b7
:103e40008080400030002000800878001b00370090
:103e5000a10f20002e00900050fd07009e0078006a
:103e60002e0090001d00070014003700cd82a9002d
:103e7000a10f20002e0090004ffe07000000e00080
:103e8000060032002e009000800040006094200068
:103e9000808040000000eb00800878008000eb008c
:103ea0002e00900043ff070004003700cd82a900d8
:103eb0008000eb002e0090003eff07002e009000d7
:103ec0000000e800200798002e0090000000e000ad
:103ed0006aff34000080fa00000006000e00fa00bd
:103ee0005007980061079800ee0090005e00900077
:103ef00030ff07000080fa00000006000200fa0010
:103f0000cac2bf000042b2000004e00003003a0051
:103f100020002000000f7800020037000000eb00b6
:103f2000000f78001e0078000080fa0000000600f4
:103f30000000fa000000eb000080fa00000006001c
:103f40000000fa00cd82a9000080fa0000000600ff
:103f50000000fa00c2c2bf00704060000004e00030
:103f600002003200c482a90001003700c482a80008
:103f70000080fa00000006000000fa00c3c2bf0083
:103f8000614060000080fb000080fa000000060035
:103f90001200fa000000eb00600798000f013700e4
:103fa0006e0190006e0090007800b90080007800eb
:103fb00040852000008040009001780060022000d1
:103fc0000090b90080007800c08020000080400090
:103fd000030878006e0190006e0090007800b90030
:103fe0008080e8004085200000804000900178003b
:103ff000600220000090b90080007800c08120009d
:1040000000804000030878006e0190006e00900070
:104010007800b900e40040004085200000804000a6
:1040200090017800600220000090b90080007800c4
:104030002082200000804000030878006e0190007c
:104040006e0090007800b900800078004085200064
:104050000080400090017800600220000090b900cc
:1040600080007800c08020000080400003087800b5
:1040700000022000500798005e009000000f98009a
:104080008e089000f08f50000200340000012000e4
:10409000000f98008e089000410798006e00900075
:1040a0007800b900e6004000408520000080400014
:1040b0009000780031079800be0090004e009000fc
:1040c000008040008000e9005e009000808f50007a
:1040d00008003500be0090004e0090008080400037
:1040e0005e009000008050000000e900700798001a
:1040f000050037003e009000ce0090000100400017
:104100000000e900700798007e00900020079800ea
:10411000ae0090003e009000808f50001f003d00d8
:10412000de0090003e0090000080500010079800d4
:10413000ce0090001e009000008f50009e01900065
:104140006e0090007800b900e80040004085200033
:10415000008140003e0090008000780080892000af
:10416000008040008200780003017800effb070028
:104170001e0178006e0090007800b900e800400051
:1041800040852000808040001e009000808040001c
:1041900080892000e5fb07000d003700ce0190006c
:1041a0006e0090007800b900e800400040852000d3
:1041b000008140003e00900080007800808920004f
:1041c000008040008200780003017800d7fb0700e0
:1041d000ee009000c2448000600220000088b90018
:1041e00080007800e0802000008040000208780015
:1041f000ee009000d2448000600220000088b900e8
:1042000080007800008120000080400002087800d3
:10421000ee009000e2448000600220000088b900b7
:104220008000780020812000008040000208780093
:10423000ee009000f2448000600220000088b90087
:104240008000780040812000008040000208780053
:10425000ee00900002458000600220000088b90056
:104260008000780060812000008040000208780013
:10427000ee00900012458000600220000088b90026
:1042800080007800808120000080400002087800d3
:10429000ee00900022458000600220000088b900f6
:1042a00080007800a0812000008040000208780093
:1042b000ee00900032458000600220000088b900c6
:1042c00080007800e0812000008040000208780033
:1042d000ee00900042458000600220000088b90096
:1042e00080007800008220000080400002087800f2
:1042f000ee00900052458000600220000088b90066
:104300008000780040822000008040000208780091
:10431000ee00900062458000600220000088b90035
:104320008000780060822000008040000208780051
:10433000ee00900072458000600220000088b90005
:104340008000780080822000008040000208780011
:10435000ee00900082458000600220000088b900d5
:1043600080007800a08220000080400002087800d1
:10437000ee00900092458000600220000088b900a5
:1043800080007800c0822000008040000208780091
:10439000ee009000a2458000600220000088b90075
:1043a00080007800e0822000008040000208780051
:1043b000ee009000b2458000600220000088b90045
:1043c0008000780000832000008040000208780010
:1043d0006e0090000000e800600798006e009000fa
:1043e0000000e000eefe34000080fa00000006004d
:1043f0001600fa00208320005001be004000be00dd
:10440000c4862000009abe000292be000000eb00ad
:104410006007980006013700e00020005007980070
:104420005e009000200f9800ae089000e88f5000ca
:104430000200340082002000220f98002e08900015
:1044400040079800ee0190006e0090007a00b900dd
:10445000fc00400020832000008040001001780014
:104460007618b90080007800a08720000080400006
:1044700002087800ee0190006e0090007a00b9000a
:10448000fa004000208320000080400010017800e6
:104490007618b900800078008087200000804000f6
:1044a00002087800ee0190006e0090007a00b900da
:1044b000fe004000208320000080400010017800b2
:1044c0007618b90080007800c08720000080400086
:1044d00002087800ee0190006e0090007a00b900aa
:1044e000ea00400020832000008040001001780096
:1044f0007618b900800078004087200000804000d6
:1045000002087800ee0190006e0090007a00b90079
:10451000f800400020832000008040001001780057
:104520007618b90080007800608720000080400085
:1045300002087800ee0190006e0090007a00b90049
:104540000102200080804000208320000080400085
:10455000100178007618b90080007800e08720000c
:104560000080400002087800ee0190006e0090008c
:1045700080004000808b2000008040001001780007
:104580007618b90080007800008820000080400084
:10459000020878006e0090007a00b900e800400040
:1045a00020832000008040001000780050448800e4
:1045b0006e0090007a00b900ec00400020832000db
:1045c0000080400010007800604488006e00900079
:1045d0007a00b900ee0040002083200000804000f7
:1045e00010007800704488006e0090007a00b900d6
:1045f000f000400020832000008040001000780080
:10460000804488006e0090007a00b900f2004000fb
:104610002083200000804000100078009044880033
:104620006e0090007a00b900f40040002083200062
:104630000080400010007800a04488006e009000c8
:104640007a00b900f600400020832000008040007e
:1046500010007800b04488006e0090008000400098
:10466000808b200000804000900078003107980087
:10467000be0090004e009000008040008000e900e5
:104680005e009000808f500008003500be00900052
:104690004e009000808040005e009000008050003e
:1046a0000000e900100f9800050037003e00900060
:1046b000ce009000010040000000e900100f9800bb
:1046c0001e09900022079800ae0090003e00900066
:1046d000808f500020003d00de0090003e009000e2
:1046e0000080500010079800ce0090001e0090003f
:1046f000008f50009e0190003e00900080007800e6
:10470000a0882000008140006e0090007600b90073
:10471000f6004000c0862000008040008200780043
:104720000301780081fa07001e017800a3882000a9
:104730006e0090007600b900f6004000c0862000b0
:10474000808040001e0090000080400083007800c0
:1047500076fa07000d003700ce0190003e00900071
:1047600080007800a0882000008140006e0090004a
:104770007600b900f6004000c086200000804000ae
:10478000820078000301780068fa07006e0090004c
:10479000000f98006e00900080004000808b200089
:1047a00000804000900078004e0090008080400023
:1047b0005e009000808f50000b0035006e0090006e
:1047c00080004000808b2000008040009000780036
:1047d0004e009000808040005e009000808050007d
:1047e00071079800080037006e00900080004000bc
:1047f000808b200000804000900078004e009000e8
:1048000080804000710798000e0990000e0990000a
:1048100082004100808b200000804000fe0090005c
:10482000010878006e0090000000e8006007980022
:104830006e0090000000e000f7fe34000080fa00f7
:10484000000006000000fa001d0607000000eb0053
:104850000080fa00000006000000fa000080fa0064
:10486000000006000000fa00c3cabf000080fb0081
:10487000610060000004e0000c00320010c0b300d2
:1048800092eab700b254800021558000a08b20002e
:10489000c301070040852000a18b200017000900fc
:1048a000315878008001b100b9fd07000080fa009e
:1048b000000006000800fa00150007000e0078004e
:1048c00082002000019c2000b50107003e00be00d0
:1048d0002e01be0024832000009abe000292be007a
:1048e000c3fe0700c0862000818d20001d00090046
:1048f000b0587800e001b100a2548000315580002a
:10490000808d2000cf0107000080fa000000060023
:104910000000fa00881f7800e40707006042880062
:10492000de07070070428800e80707008042880021
:104930000000eb003c070700e04188001000200069
:1049400011fa0700f04188000000eb000efa0700a2
:10495000004288000000eb00104288000000eb00dd
:10496000404288000000eb002f070700304288001b
:104970000000eb00204288000000eb002a0707003f
:104980005042880010408000d041880028408000bc
:1049900067fd070000007400904288009842800084
:1049a00056fd070000007400904288009842800085
:1049b000d507070000007400904288004f0478007b
:1049c0000080fa00000006003600f800809fbe005c
:1049d000829fbe00849fbe00869fbe000800fa0032
:1049e00042c0bf000080fb004500de004047980049
:1049f0009002800010079800ff3ffc002104200077
:104a00009140780000ceb30000c0700042e0b700d3
:104a10001e00900090028800d4c2a8008400a90063
:104a20000501070098cabf000004e0000a00320038
:104a300090cabf000004e0000200320089ff0700b6
:104a40000100370084ff070091cabf000004e000a6
:104a50000100320097ff070090028000000f7800ed
:104a6000ff3ffc004e40900067406000c500dd0045
:104a700042c0bf007f4060000140700042e0b700cc
:104a80001e0078009002880010002000004088007e
:104a90000080fa004f03be004f02be004f01be006f
:104aa0004f00be003600f900004006000400fa0086
:104ab0000040eb0030479800e0012000a05488003f
:104ac000e0012000b0548800208320002202200052
:104ad0008000eb008ef90700c080200062022000f9
:104ae0008000eb008af90700c0862000e201200068
:104af0008000eb0086f9070040852000820120003d
:104b00008000eb0082f9070080892000020220006b
:104b10008000eb007ef90700a08820008040eb00b9
:104b2000014878000000e8008040eb000148780070
:104b30000000e8008040eb00014878000000e80039
:104b40008040eb00014878000000e8008040eb0066
:104b5000014878000000e8008040eb000148780040
:104b60000000e8008040eb00014878000000e80009
:104b70008040eb00014878000000e8008040eb0036
:104b8000014878000000e8008040eb000148780010
:104b90000000e8008040eb00014878000000e800d9
:104ba0008040eb00014878000000e8008040eb0006
:104bb000014878000000e8008040eb0001487800e0
:104bc0000000eb00000f7800070037001e0078009f
:104bd00080004000808b2000808040000000eb00bf
:104be000800878001e0fe8001e00e000f7ff340088
:104bf000a08b2000e20120008000eb0044f90700b8
:104c0000808d2000e20120008000eb0040f90700c9
:104c10000000eb00000f78000d0037001e00780048
:104c20008000400020802000808040000000eb00d9
:104c3000800878001e00780080004000408020003e
:104c4000808040000000eb00800878001e0fe80024
:104c50001e00e000f1ff34000000eb00304088004f
:104c60006000b80040408800514088000000eb0020
:104c700000408800160007008200a8008220a800db
:104c80008240a800d4c2a8008400a90063004700a5
:104c90001200200001142000230107003e40900074
:104ca000e54f5000f9ff3a001200200051002000ab
:104cb00090a920001c0107000000eb00650107001f
:104cc0009400a800e60407000080fa000000060037
:104cd0000000fa008540a9009540a9000000eb0003
:104ce0001012880042a2a8002124200091407800e0
:104cf000c0cfb30000c060000014a00042e2b700c3
:104d0000212420009140780030ceb30000c0600024
:104d10008041b30042e2b70042c2a8004302a900aa
:104d20004322a9004342a90040c2a90041e2a800d1
:104d3000d4c2a8000080fa00000006000000fa00bb
:104d40000000eb000080fa00000006000000fa00fe
:104d50000000eb000080fa00000006000000fa00ee
:104d60000000eb000080fa00000006000000fa00de
:104d70000000eb000080fa00000006000000fa00ce
:104d80000000eb000080fa00000006000000fa00be
:104d90000000eb000080fa00000006000000fa00ae
:104da0000000eb000080fa00000006000000fa009e
:104db0009400a900d4c2a9008540a90000042000e5
:104dc0004012880085c0bf00644060000004e0001d
:104dd000fcff320040128000c2eab7008540a90003
:104de000200720004012880085c0bf00644060009a
:104df0000004e000fcff320040128000c3eab7006c
:104e00008540a900f00f20004012880085c0bf0037
:104e1000644060000004e000fcff320040128000ab
:104e2000ceeab7008540a900d4c2a8009400a8002b
:104e30000080fa00000006000000fa00d4c2a900b9
:104e40008540a9000000eb004012880085c0bf002b
:104e5000644060000004e000fcff3200401280006b
:104e6000c2eab7008540a900200020004012880057
:104e700085c0bf00644060000004e000fcff320019
:104e800040128000c3eab7008540a900d4c2a80040
:104e90000080fa00000006000600fa0010079800e3
:104ea000414798001e009000c300dd004e40900076
:104eb0000080fb0000807000000f7800d4c2a900c1
:104ec0008540a9001e4090000080fb004012880031
:104ed00085c0bf00644060000004e000fcff3200b9
:104ee00040128000c2eab7008540a9001e40780049
:104ef0000080fb004012880085c0bf006440600055
:104f00000004e000fcff320040128000c3eab7005a
:104f10008540a9000080fa00000006000800fa00a1
:104f200020079800614798002e009000c300dd0024
:104f30006e4090000080fb00008070001007980019
:104f4000d4c2a9008540a9003e4090000080fb002b
:104f50004012880085c0bf00644060000004e0008b
:104f6000fcff320040128000004f78008540a9000d
:104f70002e4090000080fb004012880085c0bf00da
:104f8000644060000004e000fcff3200401280003a
:104f9000004f78008540a9000080fa00000006005c
:104fa0000a00fa002007980031079800420798008d
:104fb0004e009000100798000040eb00004f780072
:104fc00021c0b3003e009000d4ff0700130037005b
:104fd0001e0090000000e00002003a0000c0eb005c
:104fe000004f78008540a9001e80fb004012880019
:104ff00085c0bf00644060000004e000fcff320098
:1050000040128000804078002e0090000148780017
:105010002e0090000000e800200798001e0090007d
:105020000000e900100798001e009000e10f40000a
:10503000e7ff3a008540a900d4c2a8000080fa002a
:10504000000006000a00fa002007980031079800c7
:10505000420798004e0090001007980041c0b3002e
:105060003e009000adff07000e0037008540a9000c
:105070002e009000104078000080fb004012880055
:1050800085c0bf00644060000004e000fcff320007
:1050900040128000004f78002e0090000000e800d1
:1050a000200798001e0090000000e90010079800fb
:1050b0001e009000e10f4000ecff3a008540a9007f
:1050c000d4c2a8000080fa00000006000000fa0028
:1050d00036ff0700f05480000000e00000003200be
:1050e000c2cabf000080fb00610060000004e00055
:1050f0000b003200220020000112200000ac200032
:105100000900070021ac200091407800e0ceb300f8
:1051100000c06000c2eab700c0cabf006a02070050
:105120000080fa00000006000800fa00100798004e
:1051300021079800320798003e009000000f780089
:10514000170037009400a90021c0b3002e00900082
:1051500051ff0700f00f20004012880085c0bf00fb
:10516000644060000004e000fcff32004012800058
:10517000804078001e009000014878001e009000da
:105180000000e800100798009400a800d4c2a8000e
:105190002e0090000000e800200798008540a9003c
:1051a0001e0fe9000080eb009e0f1000e5ff3a00a3
:1051b0000080fa00000006000a00fa0020079800ac
:1051c00031079800420798004e00900010079800a1
:1051d000180037009400a90041c0b3003e009000c1
:1051e0002dff07008540a9002e0090001040780098
:1051f0000080fb00401288002e0090000000e800b4
:105200002007980085c0bf00644060000004e000f3
:10521000fcff320040128000004f78009400a8008c
:105220003e0090000000e800300798008540a9008b
:10523000d4c2a8001e0090000000e90010079800ea
:105240001e009000e10f4000e2ff3a000080fa00eb
:10525000000006000400fa00100798000e00780015
:105260002200200041202000afff07009e007800b0
:105270001e00900000806000000f78009400a900dc
:105280001e0078000000e00002003a000040eb0041
:10529000beeab7000e007800220020004120200066
:1052a000c5ff07009400a8000080fa000000060077
:1052b0000400fa00100798000e0078002200200079
:1052c0004120200098ff07009e0078001e009000fb
:1052d00000807000000f78009400a90010c0b30097
:1052e000beeab7000e007800220020004120200016
:1052f000b1ff07009400a8000080fa00000006003b
:105300000400fa0020479800314798002e40900092
:105310000080fb00000f78000e00780022002000c3
:1053200001132000a4ff07003e409000e14f400021
:10533000070032003e4090000080fb00000f780024
:105340000e00780022002000411320009aff070081
:105350000080fa00000006000400fa0020479800d0
:1053600010c0b300004f78002e4090000080fb007a
:10537000c300dd007080200080804000120020000b
:105380000e0078008cff07000080fa000000060085
:105390000400fa00204798000040eb00004f78001e
:1053a0002e4090000080fb00c300dd0070802000d4
:1053b00080804000120020000e0078007eff070071
:1053c0000080fa00000006000200fa00004f78009a
:1053d0001e80fb00c300dd000080200080804000b4
:1053e00060ac2000820020004fff070060ac20006e
:1053f0000080fa00000006000800fa00004f780064
:10540000110798001e80fb00300798003e009000b6
:105410000000e000040032003e009000e10f500068
:1054200056003200a90037001e0090006040900036
:105430008080fb00d00f2000008060000000e000b2
:105440000a003a001e009000100090000000e000ea
:1054500006003a00b05480000000e00003003a006b
:105460000000eb0020079800a80037001e00900005
:10547000604090008080fb00d00f20000080600022
:10548000e10f50003a003a001e009000900090009a
:10549000b0548000808f500035003a001e0090000c
:1054a000404090000080fb006d006000e40f500061
:1054b0002c003a009bcabf00e24f50000a003a009d
:1054c0001e00900090007800f0ff2000808f5000b8
:1054d000050036001e0090009000780000002200b9
:1054e000808f5000080036009bcabf00e24f50007a
:1054f000190032001e0090009000780020558000b6
:10550000808f500014003a001e0090004040900030
:105510000080fb004600de00610060000004e00047
:105520000300320010c0b300a2eab7000200370047
:105530000040eb00a2eab700a05480000000e000a9
:1055400002003a0010c0b30098eab7000000eb0078
:10555000200798006d0037002000200020079800e9
:105560006a003700400020002007980067003700dd
:105570003000200020079800640037001e009000d3
:10558000604090008080fb00d00f20000080600011
:105590000000e0000a003a001e0090001000900099
:1055a0000000e00006003a00a05480000000e00087
:1055b00003003a000000eb0020079800530037007a
:1055c0001e009000604090008080fb00d00f200003
:1055d00000806000e10f500039003a001e0090008a
:1055e00090009000a0548000808f500034003a005a
:1055f0001e009000404090000080fb006d006000a5
:105600000000e0002b003a009bcabf00e24f5000b0
:105610000a003a001e00900090007800f0ff200081
:10562000808f5000050036001e009000900078002a
:1056300000002200808f5000080036009bcabf0087
:10564000e24f5000180032001e00900090007800d9
:1056500030558000808f500013003a00a054800025
:105660000000e0000d0032001e009000404090005d
:105670008080fb00d00220008080600000022000bb
:10568000808f500003003a0010c0b30098eab700c2
:10569000020037000040eb0098eab7000000eb0082
:1056a00020079800190037002000200020079800ec
:1056b0001600370040002000200798001300370034
:1056c0003000200020079800100037001e009000d6
:1056d000604090008080fb00d00f200000806000c0
:1056e0000000e00004003a001e009000100090004e
:1056f0000000e00003003200300020002007980086
:10570000020037000000eb00200798002e009000f8
:105710000080fa00000006000600fa0040479800ea
:105720000040eb00104798000040eb003047980025
:105730001f0037003e409000004f78003e40900030
:105740000004e00003003a0010c0b300004f7800ee
:10575000050037003e409000e14f500002003a0043
:105760000040eb00004f78001e40780016ff070055
:10577000800078001e4078001fff07002047980037
:105780002e4090000004e000060032001e40900011
:105790000004e00003003a001e4078007d40400015
:1057a000104798003e4090000040e80030479800c5
:1057b000be4090004e40900080cf5000ddff390089
:1057c0001e4090000080fb000080fa0000000600f0
:1057d0000800fa000000eb00000f78000040eb002a
:1057e000f9fe0700100798001e00900010007800d6
:1057f0002055880010c0b300f3fe07001007980082
:105800001e0090001000780030558800b0548000d1
:105810006300b9008000780020558000808040003f
:1058200030558000808f50000900360031558000cf
:10583000a05480008080400020558000808f500060
:1058400003003600d001200030079800190037000f
:10585000a05480000000e0000d00320010c0b30032
:10586000cbfe070041fd0700404798004e409000e6
:105870000004e000040032004e4090000080fb0075
:10588000300798000b00370010c0b30091eab70052
:10589000b05480000000e000020032000040eb0045
:1058a000bbfe07001e00780081fe07000000eb0031
:1058b000300798003e0090000080fa0000000600cb
:1058c0000c00fa000040eb004047980066004700db
:1058d000220020000140200013fe07003e0090003f
:1058e0000000e00022003200a2cabf000004e00075
:1058f0001f00320068004700220020000142200003
:1059000009fe07004e0090000000e0001c0032007d
:105910004e00900001002000008fbe003e0090006d
:105920006103b8001e0078000602b8001e0078006f
:105930000780b90005017800000141001e009000b9
:1059400000b0b9000001410082027800048fbe005f
:105950001e00be00821a260003002000faf5070090
:10596000008fbe001e007800f0548800040037004d
:105970000000eb00400798000000eb00f0548800a6
:105980004e0090000000e00006003a00a2cabf00ee
:105990000004e00009003200f001200050079800e8
:1059a00021003700a2cabf000004e00003003a0053
:1059b000f0012000500798001b003700b054800011
:1059c0000000e00009003200f0fc070040479800aa
:1059d0004e4090000004e000040032004e40900071
:1059e0000080fb00500798000f00370010c0b30084
:1059f00090eab700a8cabf000004e00008003a001f
:105a000098cabf000004e00005003200b0548000d6
:105a10000000e000020032000010200024fe070019
:105a20000000eb00500798005e0090000080fa0034
:105a3000000006000200fa000040eb00004f780072
:105a4000f0ef2f0003fe07000040eb0092eab700e2
:105a50000040eb0090eab700b05480000000e00086
:105a600002003200cdfc0700004f78001e80fb00d2
:105a70000080fa00000006000200fa000040eb007f
:105a8000004f78000040eb0033fe070030cf2f00be
:105a9000f0fd07000040eb0098eab7000040eb0083
:105aa000a8eab7000040eb0091eab70010c0b300cd
:105ab00029fe0700b1fc0700004f78001e80fb00a4
:105ac0000080fa00000006000c00fa002047980051
:105ad0000040eb00104798002e4090000080fb0033
:105ae0004400de00610060000004e00005003200b8
:105af0009bcabf00f1ceb300014060009beab70033
:105b00000e0037009bcabf000080fb004400de008f
:105b1000610060000004e000080032002e409000a8
:105b20000080fb00ef0060009bcabf000080fb000c
:105b30006f006000808f500047013c002e409000b5
:105b40006f406000204798009bcabf00004f78005c
:105b50001e4078004400dd00004f78002e40900089
:105b60001e4f40001e407800a3eab7009e80fb0055
:105b700031079800400420003e019000800f510042
:105b80002d00320040042000be019000808f5100a3
:105b90000e003c0020022000be009000808f5000cc
:105ba00028003200200220003e019000800f5100aa
:105bb00001003c002300370040022000be0190009d
:105bc000808f5100170032001e003700200820008f
:105bd000be009000808f50001a0032002008200084
:105be0003e019000800f510005003c008004200021
:105bf000be019000808f51000f003200110037006d
:105c000040082000be009000808f50000a00320043
:105c1000800820003e019000800f510006003200f5
:105c2000080037004dfc0700104798001e40900008
:105c30000004e00003003a0099cabf00b6fe070066
:105c4000104798001e4090000004e000af003a00aa
:105c50001e80fb006101b900f0fe2f00f1ff2f0054
:105c600002014000838148004207980053079800d2
:105c700070072000010020004e019000de0190001e
:105c8000800f5100818f59009d003e004e00900012
:105c9000de0090000060010093003700bb00370079
:105ca00075003700930037009500370094003700e7
:105cb000930037008f0037009100370090003700c5
:105cc0008f0037008e0037008d0037008c003700c2
:105cd0008b0037008a003700ac00370082003700a5
:105ce00084003700670037008500370084003700e4
:105cf000830037007f0037008100370080003700c5
:105d00007f0037007e0037007d0037007c003700c1
:105d10007b0037007a0037007900370078003700c1
:105d200077003700760037007500370074003700c1
:105d300073003700720037007100370070003700c1
:105d40006f0037006e0037006d0037006c003700c1
:105d50006b0037006a0037006000370057003700db
:105d600064003700600037006500370064003700ca
:105d700063003700460037006100370060003700dd
:105d80005f0037005e0037005d0037005c003700c1
:105d90005b0037005a0037005900370058003700c1
:105da00057003700560037005500370054003700c1
:105db00053003700520037005100370050003700c1
:105dc0004f0037004e0037004d0037004c003700c1
:105dd0004b0037004a0037004900370048003700c1
:105de00047003700460037004500370044003700c1
:105df00043003700420037004100370040003700c1
:105e00003f0037003e0037003d0037003c003700c0
:105e10003b0037003a0037003900370038003700c0
:105e200037003700360037003500370034003700c0
:105e300033003700320037003100370030003700c0
:105e40002f0037002e0037002d0037002c003700c0
:105e50002b0037002a0037001b00370012003700e4
:105e6000240037000d0037002500370024003700dc
:105e7000230037001c00370030c1b30010479800e2
:105e80004200370052fe0700104798003f003700dd
:105e90008bfe0700104798003c003700e5fe070026
:105ea0001047980039003700e2fe070010479800bd
:105eb0001e4090000004e00034003a00eefe0700af
:105ec0001047980031003700dafe070010479800ad
:105ed0001e4090000004e0002c003a00e6fe07009f
:105ee0001047980029003700e0cfb3001047980012
:105ef0002600370010c1b300104798002300370078
:105f000020c1b30010479800200037009bcabf0093
:105f10000080fb0020079800ae009000e48f500046
:105f2000080032002e019000e80f510004003200fa
:105f3000ae019000e28f51000c00320013003700d8
:105f4000bcfe07001e409000fd4f500004003200d0
:105f5000c9fe070020c0b3009beab700030037006a
:105f600040c0b3009beab700080037001e40900015
:105f7000f64f500003003a0010c0b3009beab70090
:105f80000200370020c0b3009beab7001e4090001b
:105f9000e14f4000300032002e4090008080fb0036
:105fa0009bcabf000080fb006f006000808f500024
:105fb000260032001e4090000004e000060032007f
:105fc0009bcabf009ceab7009bcabf000044a00068
:105fd0009beab700170037009dcabf000004e0002d
:105fe000080032009dcabf00104798002e40900064
:105ff0009ceab7002e4090000044a0002047980083
:106000000a003700c1a92000914078002e4090007e
:10601000814f500003003e0000c0eb001047980085
:10602000020037000040eb009ceab7002e409000d1
:106030009beab7009bcabf009e409000b0fc0700df
:106040000040eb009deab700030037009bcabf0089
:106050008040eb00aafc07000080fa000000060068
:106060000000fa000040eb00a2eab7000040eb009d
:106070009ceab7000040eb009deab7000040eb004f
:1060800092eab7000040eb0090eab7000040eb0056
:1060900091eab7000040eb00a8eab7000040eb002f
:1060a00098eab70010c0b3009beab7009bcabf00d4
:1060b0008040eb0092fc07000080fa000000060020
:1060c0000000fa0001fc07000080fa000000060052
:1060d0000600fa0010002000000f780055000700ad
:1060e000660007008a0007002200070094f70700f7
:1060f0009ff607007d02070046f407000201070033
:10610000e201070001003700c482a8009af70700e7
:106110000000e000fcff320064fa0700c482a9001e
:10612000140007001e00900012e224001100090074
:106130000200d8008000fd008040eb00414798003d
:106140000000e00002003a0010c0b3004047980091
:106150001e0090000000e80010079800ce4090005c
:106160000104e0000100320079f70700b5f90700eb
:10617000ecff37000000fa00410a2000914078004f
:1061800080cfb30000c060003040b300a4e0b7008f
:10619000210b200091407800f0c8b30000c06000df
:1061a00001c2b30001407000b2e0b700a10a2000b4
:1061b00091407800f0c8b30000c0600001c5b30092
:1061c00001407000aae0b700810a200091407800e9
:1061d00080cfb30000c060000024a000a8e0b7009a
:1061e000110c20009140780080cfb30000c0600007
:1061f0005040b300c1e0b700a10a200091407800f0
:10620000f0c8b30000c0600001c3b30001407000db
:10621000aae0b700810a20009140780080cfb30047
:1062200000c060000024a000a8e0b7000080fa00d1
:10623000000006000000fa00000a2000303a880042
:1062400044c7bf00f043b20044e7b70041742000e8
:106250009140780000ceb30000c060007041b300f0
:1062600044e7b70042c7bf000042b2000004e000ac
:10627000fcff32000080fa00000006000000fa0077
:106280000000eb00101688000000eb00501688009c
:106290000000eb0090168800c082a900c102a8008f
:1062a000c8e2a800c942a800c962a800d062a9003b
:1062b000d082a800d0c2a900d0e2a900d102a900d2
:1062c000d122a800c002a800c022a800c802a800cd
:1062d000c942a900c962a800c982a900c9a2a9002f
:1062e000c9c2a900c9e2a900c8c2a800c862a90021
:1062f000d022a900c902a800c922a800c882a8000b
:10630000d042a900c8a2a8000080fa000000060040
:106310000000fa00217420006204200073052000b0
:10632000824878008348780042c7a900216820008d
:106330009140780000ceb30000c060004041b3003f
:1063400082e6b700816a20009140780000ceb30059
:1063500000c060009041b300a8e6b700616d200066
:106360009140780000ceb30000c060009040b300c0
:10637000d6e6b700716d20009140780000ceb300e2
:1063800000c060000034a000d7e6b700816d200097
:106390009140780000ceb30000c060007040b300b0
:1063a000d8e6b700c16920009140780000ceb30064
:1063b00000c060009040b3009ce6b700d1692000a7
:1063c0009140780000ceb30000c060000024a0001f
:1063d0009de6b700e16920009140780000ceb3004f
:1063e00000c060000034a0009ee6b70021742000c9
:1063f00062042000730520008248780083487800fa
:1064000042c7a8000080fa00000006000600fa005b
:10641000200798000000eb00100798000a003700e2
:106420000000eb00000f7800010037001e0fe800ad
:10643000700020009e0f1000fcff34001e00900032
:106440000000e800100798009e0090002e009000c9
:10645000808f5000f2ff35000080fa000000060037
:106460000600fa00200798000000eb0010079800d3
:106470000a0037000000eb00000f78000100370031
:106480001e0fe800f0f321009e0f1000fcff340007
:106490001e0090000000e800100798009e00900089
:1064a0002e009000808f5000f2ff35000080fa002f
:1064b000000006000600fa00200798000000eb002c
:1064c000100798000a0037000000eb00000f78006a
:1064d000010037001e0fe800f03120009e0f100071
:1064e000fcff34001e0090000000e8001007980038
:1064f0009e0090002e009000808f5000f2ff35002b
:106500000080fa00000006000000fa000000eb0026
:10651000905688000000eb00900888000000eb0017
:10652000500888002111200091407800f0ccb30081
:1065300000c060000044a00012e1b700409c2000b1
:10654000700888008500a90013e1a8009500a80044
:106550000080fa00000006003600f800809fbe00b0
:10656000829fbe00849fbe00869fbe000000fa008e
:106570008500a900d462a800d462a900f100070038
:10658000baf50700905680000000e8009056880099
:106590000080fa004f03be004f02be004f01be0054
:1065a0004f00be003600f900004006000600fa0069
:1065b0006000b80010079800210798000000eb0069
:1065c000000f78000d0037001e00780080004000aa
:1065d000e0a0200000804000100078006101b900b8
:1065e0001e009000ae009000000041008180490034
:1065f00010079800210798001e0fe800f003200004
:106600009e0f1000f0ff34001e009000ae009000be
:106610004a09dd004600de0000007100c688de0089
:106620000080fa00000006000000fa0070548000ac
:106630000080fa00000006000400fa00000f780055
:10664000008020001e0f4000f0ff20009e0f100071
:1066500008003c001e007800100798001e00900003
:106660000000e00005003d000000eb00100798006e
:1066700002003700f0ff2000100798001e00900075
:10668000000f78001e0078004200dd00000f780047
:106690001e0078000080fa00000006001400fa00d6
:1066a000500798005e009000200798005e00900060
:1066b0000000e0003e003200804180000000e00069
:1066c00017003d00ae009000010f98000e089000ea
:1066d0000000e00003003d008e0890008100ea0009
:1066e000010f980080418000700798007e009000a4
:1066f0000000e00003003d00fe0090008100ea0081
:10670000710798000e089000fe009000810f500065
:106710000f003d000000eb00200798000c00370040
:106720002e0090000000e000050034008041800051
:10673000ae00900000804000200798000400370061
:1067400080418000ae00900000805000200798003b
:1067500020418000100f9800008020009e089000cb
:10676000808f50000200340000802000100f98003d
:106770009e08900031079800ae0090003e00900007
:10678000808f5000020034003e00900020079800e7
:106790003e0090008000ea002e009000808f5000a4
:1067a000030034003e0090000000ea00200798003b
:1067b0005050800080004000e0a020000080400099
:1067c000ae00900001087800505080008000e80082
:1067d000f0032000808f500004003c0050508000e7
:1067e0000000e80060079800020037000000eb009e
:1067f00060079800ee009000515088006bff070082
:1068000070548800705480008bff070010079800b8
:10681000cdc2a9000000eb0040079800150037002a
:10682000cde2a8009e00900000002800008f6000cc
:106830001e00e00002003200cda2a80001003700d7
:10684000cda2a9001e009000000040001007980093
:106850000000000000000000cde2a90000000000e0
:1068600000000000000000004e0090000000e80062
:10687000400798004e009000ef0f5000e8ff3400f2
:10688000cdc2a8000080fa00000006000000fa0057
:10689000cde2a9000080fa00000006000000fa0026
:1068a000905580000080fa00000006000000fa0009
:1068b0005055800061558000800078000080eb001a
:1068c000008060000080fa00000006000000fa006e
:1068d00050558000615580004088de00cf80de008a
:1068e000800078000080eb00008060000080fa00eb
:1068f000000006000000fa0050558000615580003d
:106900000080fa00000006000000fa00d055800068
:106910000080fa00000006000000fa000000eb0012
:10692000200f88006000b80050558800615588002d
:106930006000b80070558800815588000080fa001a
:10694000000006000200fa00b05580000000e000e0
:1069500010003a00604080004b00de0061006000e3
:106960000004a2000004e00006003a00a0558000e8
:106970000000e00003003a0010002000000f780043
:10698000020037000000eb00000f78001e007800c6
:10699000b0558800b05580000000e00012003200c1
:1069a00056f507000000e0000f003200c0558000df
:1069b0000000e0000c003a000000eb00200f88000f
:1069c0006000b80050558800615588006000b8002c
:1069d000705588008155880040002000d0558800ff
:1069e0000000eb00b055880044f50700c055880052
:1069f000614080000080200000806000a055880079
:106a0000200f80006101b800705580008155800022
:106a1000020040008380480050558800615588007e
:106a20000080fa0000000600809fbe00829fbe002a
:106a30000000fa00e1c1bf00684060000004e0000f
:106a4000090032007055800081558000020022004c
:106a5000030020000000410081804900705588003b
:106a600081558800080037007055800081558000ee
:106a700002002e00f3ff2f0000004100818049003a
:106a80007055880081558800200f80006101b80092
:106a900070558000815580000200400083804800ce
:106aa0005055880061558800d462a800d462a900be
:106ab000111e20009140780000c8b30000c06000a3
:106ac0000004e00004003200905580000000e8005f
:106ad00090558800e1e1a9008b40a9000080fa00f0
:106ae0004f01be004f00be00004006000000fa004b
:106af0006000b80050558800615588006000b800fb
:106b000070558800815588000000eb009055880082
:106b100010002000c05588000000eb00a055880040
:106b20000000eb00b0558800f0ff2100300f880016
:106b30000000eb00000f88000000eb00200f880031
:106b4000e1e1a900e041a900e1c1bf007040b3004c
:106b5000e1e1b700e0e1a8000000eb00100f8800c1
:0c6b60009b40a8000080fa000000060026
:020000040000fa
:0200000401f009
:04000800ffff0000f6
:020000040000fa
:0200000401f009
:04000c00fbff0000f6
:020000040000fa
:0200000401f009
:040010009cff000051
:020000040000fa
:0200000401f009
:040014007fff00006a
:020000040000fa
:0200000401f009
:04001800e8ff0000fd
:020000040000fa
:0200000401f009
:04001c00feff0000e3
:020000040000fa
:10000800ee350000ee350000ee350000ee3500005c
:10001800ee350000ee350000ee350000ee3500004c
:10002800e4240000ee350000ee350000ee35000057
:10003800ee350000ee350000ee350000ee3500002c
:10004800ac320000ee350000ee350000ee35000061
:10005800ee35000072190000ee350000ee350000a4
:10006800ee350000ee350000ee350000ee350000fc
:10007800ee350000ee350000ee350000ee350000ec
:10008800ee350000ee350000ee350000ee350000dc
:10009800ee350000ee350000ee350000ee350000cc
:1000a800ee350000ee350000ee350000ee350000bc
:1000b800ee350000ee350000ee350000ee350000ac
:1000c800ee350000ee350000ee350000ee3500009c
:1000d800ee350000ee350000ee350000ee3500008c
:1000e800ee350000ee350000ee350000ee3500007c
:1000f800ee350000ee350000ee350000ee3500006c
:10010800ee350000ee35000014350000ee35000035
:10011800ee350000ee350000ee350000ee3500004b
:10012800ee350000ee350000ee350000ee3500003b
:10013800ee350000ee350000ee350000ee3500002b
:10014800ee350000ee350000ee350000ee3500001b
:10015800ee350000ee350000ee350000ee3500000b
:10016800ee350000ee350000ee350000ee350000fb
:10017800ee350000ee350000ee350000ee350000eb
:10018800ee350000ee350000ee350000ee350000db
:10019800ee350000ee350000ee350000ee350000cb
:1001a800ee350000ee350000ee350000ee350000bb
:1001b800ee350000ee350000ee350000ee350000ab
:1001c800ee350000ee350000ee350000ee3500009b
:1001d800ee350000ee350000ee350000ee3500008b
:1001e800ee350000ee350000ee350000ee3500007b
:0801f800ee350000ee350000b9
:020000040000fa
:10020800ee350000ee350000ee350000ee3500005a
:10021800ee350000ee350000ee350000ee3500004a
:10022800e4240000ee350000ee350000ee35000055
:10023800ee350000ee350000ee350000ee3500002a
:10024800ac320000ee350000ee350000ee3500005f
:10025800ee35000072190000ee350000ee350000a2
:10026800ee350000ee350000ee350000ee350000fa
:10027800ee350000ee350000ee350000ee350000ea
:10028800ee350000ee350000ee350000ee350000da
:10029800ee350000ee350000ee350000ee350000ca
:1002a800ee350000ee350000ee350000ee350000ba
:1002b800ee350000ee350000ee350000ee350000aa
:1002c800ee350000ee350000ee350000ee3500009a
:1002d800ee350000ee350000ee350000ee3500008a
:1002e800ee350000ee350000ee350000ee3500007a
:1002f800ee350000ee350000ee350000ee3500006a
:10030800ee350000ee35000014350000ee35000033
:10031800ee350000ee350000ee350000ee35000049
:10032800ee350000ee350000ee350000ee35000039
:10033800ee350000ee350000ee350000ee35000029
:10034800ee350000ee350000ee350000ee35000019
:10035800ee350000ee350000ee350000ee35000009
:10036800ee350000ee350000ee350000ee350000f9
:10037800ee350000ee350000ee350000ee350000e9
:10038800ee350000ee350000ee350000ee350000d9
:10039800ee350000ee350000ee350000ee350000c9
:1003a800ee350000ee350000ee350000ee350000b9
:1003b800ee350000ee350000ee350000ee350000a9
:1003c800ee350000ee350000ee350000ee35000099
:1003d800ee350000ee350000ee350000ee35000089
:1003e800ee350000ee350000ee350000ee35000079
:0803f800ee350000ee350000b7
:020000040000fa
:106b6c00820900008800000000000000f608000008
:106b7c008c0000000000000000080000f60000007f
:106b8c0000000000d40a0000020000000000000019
:106b9c00be0a00001200000000000000900a000075
:106bac001a00000000000000d00a000004000000e1
:106bbc00000000000a0a000086000000000000002f
:106bcc00aa0a0000140000000000000000000000f1
:020000040000fa
:046bdc000000fe00b7
:00000001FF
