:020000040000fa
:080000000018040000000000dc
:020000040000fa
:10300000afb1200000ff2000000188000000000098
:103010000a00070011000700000020000000e00087
:1030200002003200000002000000000082260200c0
:10303000000000000040da000000fe004440a9004b
:10304000000020000000e00003003200000020002b
:10305000a00188004440a80000000600206d240064
:10306000010020001500370062004000e0804800a9
:10307000910188009001ba0062004000e0804800a1
:10308000910188009002ba0062004000e080480090
:103090000002eb006028e10004003a000059eb0058
:1030a0008301e900fdff3e00040037006128e100d4
:1030b000010032000082eb0005000700910188004a
:1030c0001001ba000200e000e7ff3a00000005002e
:1030d000910188008002780062004000e080480092
:1030e0003559ba008301e900080032002559ba00b9
:1030f0008301e900050032000400e000f4ff320023
:1031000015d9ba008301e900f1ff3a00000006007a
:103110008001eb0002003700817178008301e80034
:10312000828f5100fcff3a00000006008001eb0096
:103130000200370061f079008301e800828f5100be
:10314000fcff3a0000000600020ab900001bb900ab
:103150000200b80081004200810043000000060028
:103160006022b800060220000000d0008180d2005a
:103170000482d2008582d2000000a0000202520028
:1031800083825a00030031000202420083824a0017
:103190000000a1000603e900f3ff3a00000006006a
:1031a000800278006011b8000002eb004528dd00c5
:1031b0000400400000004000018220006080780090
:1031c00000014100e08149000402e8000002200003
:1031d000800f5200f5ff3a004b1add004510de006b
:1031e00000007200c598de00000006006011b80003
:1031f0000002eb00040042000180200060807800a3
:1032000000014100e08149000402e800f00f520093
:10321000f8ff3a004c1add004410de000000720096
:10322000c498de00000006000000eb001049880092
:103230000049880060198800f0c1b3002363b6001c
:1032400025e3a90025c3bf0002ceb3000240600001
:10325000a040b30025e3b70011c0b300010078001f
:1032600024e3b70025c3bf0002406000a040b300c4
:1032700025e3b7000100780024e3b700c3cfb30013
:10328000034078002363b6002043a8002143a80030
:103290002063a9002343a80022c3bf0031ccb300a0
:1032a00001406000c040b30022e3b7002c03a90036
:1032b0002c23a9002c43a9002c63a9002c83a9006e
:1032c0002ca3a8002cc3a9002ce3a8002d03a80060
:1032d000024078002063b7002223a8003003a80032
:1032e0003023a8003043a8003063a80003407800d2
:1032f0002163b60021e3a80085a0a90095a0a8003d
:1033000000000600809fbe00829fbe00841f7800e0
:1033100085a0a9002243e200080035008018800043
:10332000204988009418800034498800a018800043
:1033300040498800b418800007003700001880005a
:103340002049880014188000344988002018800023
:103350004049880034188000544988001249800090
:103360005349800082004100008e200083307800a5
:10337000008a2000444980008430780000822000c8
:103380002449800084307800008620003449800081
:1033900084307800044980008400420000802000ce
:1033a000833078000200e800ff0f50000100340075
:1033b0000000eb00104988000400e800ef0f500007
:1033c000010034000000eb00004988004f02780043
:1033d0004f01be004f00be00004006000002780012
:1033e000620220000281b90080a220008001410019
:1033f000009f20008002410004004200a2a520009e
:10340000020040001001e80002087800450090002a
:10341000c001980055009000d00198006500900010
:10342000e001980075009000f001980005109000f0
:103430008011980075089000f00998000000eb00da
:10344000810f510051003500040142008000eb0063
:10345000a0a5200001317800930090001501900094
:1034600010002000828f50000f00320002805000b8
:103470000081eb00010033001200200002805000a8
:103480009001980001d02700810f500003003c00fc
:1034900001302800810f500001003d00010078003c
:1034a000900198000000eb00a3009000250190001f
:1034b000828f50000f003200028050000081eb002c
:1034c000010033001200200002805000a00198008b
:1034d00001d02700810f500003003c00013028007c
:1034e000810f500001003d0001007800a00198000c
:1034f0000000eb00b300900035019000828f500077
:103500000f003200028050000081eb000100330008
:103510001200200002805000b001980001d0270066
:10352000810f500003003c0001302800810f500043
:1035300001003d0001007800b00198000000eb00a0
:103540009310900015119000828f50000f003200f0
:10355000028050000081eb000100330012002000c7
:10356000028050009011980001d02700810f500078
:1035700003003c0001302800810f500001003d0095
:1035800001007800901198000000eb000000060098
:1035900080027800620220000281b90080a220002f
:1035a00080014100009f2000000141000580420091
:1035b000a4a52000040040001002e80004087800e0
:1035c00042009000c001980052009000d001980085
:1035d00062009000e001980062009000f001980005
:1035e000021090008011980072099000f209980072
:1035f0000001eb00810f52002900350005814200d7
:103600008000eb00a0a5200001317800130090009d
:10361000120020000000e000060032008080eb0075
:1036200001003500110020000100500090019800b9
:103630000001eb00230090000000e00006003200d3
:103640008080eb00010035001100200001005000d7
:10365000a00198000001eb00330090000000e000a2
:10366000060032008080eb000100350011002000d0
:1036700001005000b00198000001eb001310900011
:103680000000e000060032008080eb000100350001
:103690001100200001005000901198000001eb0083
:1036a0000200780000000600889fbe0080047800b9
:1036b0006002200000c8b90082a220000001410081
:1036c0000004eb00180198002801980038019800c8
:1036d0001811980078019800480198005801980046
:1036e0006801980008119800c248dd0020a520005c
:1036f000008040006011b8000288be0060a5200074
:10370000808040008288be004648dd00e1a52000a0
:103710000100400002042000880078007cfe0700c1
:103720008980440000a5200000804000080878003f
:10373000e0a420000080400008087800a0a5200038
:1037400000804000080878004f04be00000006001a
:103750000000eb00e0528800d3ff3700cd053700b2
:10376000ea874700889fbe008a9fbe008c9fbe00ec
:103770008e1f7800800578008101780060022000ab
:1037800000d8b90082a2200002054000029f20005c
:10379000020740001e089000808f510004003c008a
:1037a0002e08900083067800808f510001003d00b4
:1037b000800678009e00780062806000030032007e
:1037c0008afe070000067800010037005c4980008f
:1037d0000c815600325188004a0090000090de00b3
:1037e0009a0090000182b900f4b79f0085bf9f0046
:1037f000c258dd00a0aa2000008040000488be005e
:1038000060a5200080804000cf91de0031034100a0
:10381000a18349008688be007a0090006102b90049
:10382000840f5300858f5b0007003c000000ea0016
:10383000cf80de000602be00800f5300818f5b0048
:1038400001003d000002be00425cdd0060a52000da
:10385000000044000488be002a009000cf80de00f3
:10386000da0390008703e900030033008582d1006a
:103870000482d300fbff37000401be0032fe0700c4
:10388000d0b79f00e1b79f0060aa2000000044006d
:103890005fb19700efb197000288be000b8345002f
:1038a000e0a42000e604780020a5200000044400e5
:1038b000455add000902420004024200e7a520004b
:1038c00064817b00cf91de0038001100a8801900d0
:1038d0000001be0005a5200066807a0000005600a9
:1038e00000b27b000cb37a00cf80de000201400002
:1038f00083814800028cbe000902e800ff0f5200dd
:10390000010034000002eb008b804500e0a42000a1
:10391000843078003a009000cf80de000afe070075
:103920006a0190000002be000201e90003003300ba
:103930008582d1000482d300fbff3700c258dd002e
:1039400020aa2000008040000488be00e0a92000da
:10395000008140000009eb003211780000002100d6
:103960001e006000040032001a109000cf80de00bc
:103970000089be000b003700c259dd00e0a920001d
:10398000808141007a089000008056000a11900062
:103990000280de001a1190000280b900cf80de00a4
:1039a0008089be007fb197008fb997005fb3970001
:1039b000efb397000200430083804b0000004200f9
:1039c00081804a004259dd00e3a920000301410043
:1039d00032024000a28248000400be001451880058
:1039e0002551880042c7200003002000820f5200aa
:1039f000838f5a0005003c0082372f00f3ff2f0011
:103a0000820f5200838f5a0001003d000200be0069
:103a10001051880021518800800078000b00780048
:103a20004eff07004f0778004f06be004f05be004f
:103a30004f04be00af00b10000000600889fbe002a
:103a40003850800009508000e0528000e20f5000a2
:103a50001b00320005003c000000e00008003200be
:103a6000e10f500034003a000f003700e30f500020
:103a70002b003200e40f50002f003a001c003700ea
:103a80006000b80035ff0700e10f5400020032006b
:103a9000e20f540001003a00e85288000000eb00f9
:103aa00001ff070026003700890078000000eb00c6
:103ab0002aff0700e10f5400210032000200370006
:103ac000e20f5400020032005c2aef001c003700b5
:103ad000a10f20000000eb0040fe07000000e00006
:103ae0000b00320040002000e05288000800370040
:103af000e20f54000300320030002000e052880042
:103b00000f003700a10f20000000eb0033fe07007c
:103b1000890078000000eb0011ff07000800370063
:103b2000a10f20000000eb0099fe07000000e0005c
:103b3000010032005c2aef006000b80007ff0700b8
:103b40004f04be000000060000000600c2c2bf0015
:103b50000048a30002003200c482a9000000060051
:103b6000c482a80000000600c3c2bf00610060005c
:103b700000000600889fbe008a1f7800b04d8000bc
:103b8000804f8800c14d800001508800d04d8000da
:103b900030508800e14d80006f804000ff0f5000e2
:103ba0000100340071805000810f50000d003d0075
:103bb0000002200001055000e89b2000a99620008b
:103bc000098040000a0178008800780057fd07004e
:103bd00070011500880045000900780053fd0700ba
:103be00006003700a096200000804000e19b2000e6
:103bf0000f000900315878000001b100504b8000df
:103c0000904f8800614b8000a14f8800704b80006e
:103c1000b04f8800814b8000c14f8800904b8000de
:103c2000d04f8800a14b8000e14f8800b04b80004e
:103c3000f04f8800c14b800011508800d04b8000ad
:103c400020508800e14b800041508800f04b8000fc
:103c500050508800014c800061508800104c80005a
:103c600070508800214c800081508800304c8000ca
:103c700090508800414c8000a15088004f0578008a
:103c80004f04be0000000600889fbe008a1f780017
:103c9000e09c20005001be004000be00849920003e
:103ca000009abe000292be00514f8000314d880044
:103cb000424f8000224d8800634f8000434d8800b2
:103cc000c44e8000044d8800304f8000104d8800a5
:103cd000714f8000514d8800414b8000614d88003c
:103ce000b24e8000524c8800d34e8000634c880056
:103cf000e44e8000744c8800f04e8000804c8800b8
:103d0000024f8000924c8800134f8000a34c880023
:103d1000244f8000b44c880067804000ed0f5000b5
:103d20000100340067805000810f50000c003d00fe
:103d3000ee841000a8982000ea9a200088804000b5
:103d4000090178000a007800f8fc07000a804400a6
:103d50006881140088007800f4fc07000600370032
:103d6000a098200000804000e19a20000700090090
:103d7000b05878008000b100414b8000688040005e
:103d8000ed0f50000100340066805000404b880069
:103d90004f0578004f04be0000000600d80307005e
:103da0000000050000000600f30aab000b00320023
:103db00010c0b300e4eab7000257800091568000bb
:103dc000a094200017010700609b2000a194200010
:103dd000170009003158780066ff07000000060050
:103de000881f78001000200010060700604f880030
:103df0001000200011060700404f88000004eb006f
:103e0000d84e880020002000e5fc0700004f880005
:103e100008007800e2fc0700104f88001000200026
:103e2000dffc0700204f880030002000dcfc07008a
:103e3000e04e8800f84e8800ecfc0700c04e880079
:103e400008007800cd030700304f8800f050800054
:103e5000b04e8800e05080000020a000704f880025
:103e60004f047800000006000800fa00dcff07009d
:103e700082002000019c200068805700e9000700b4
:103e80004fb89700dfb897006fb99700ffb9970058
:103e9000e49c2000009abe000292be007aff070058
:103ea000c0922000819920001d000900315878003f
:103eb0001257800081568000c0922000f600070053
:103ec0000080fa00000006003600f800809fbe0067
:103ed000829fbe00849fbe00869fbe00d4c2a80001
:103ee0008400a90092000700df4ae20006003200c9
:103ef000e64ae20001003200abff0700e54ae200bb
:103f000001003200d8ff0700100020000051880097
:103f10004f03be004f02be004f01be004f00be0067
:103f20003600f900004006008540a9009540a90030
:103f30004222ef0042a2a80042c2bf00c1cfb3009c
:103f4000014060000014a00042e2b70042c2bf007e
:103f500031ceb300014060008041b30042e2b700bf
:103f600042c2a8004302a9004322a9004342a9007b
:103f700040c2a90041e2a800d4c2a8000000060087
:103f80000200fa00889fbe000040eb00a0ff9f00e7
:103f9000e9012000195788000957880022022000f3
:103fa0008000eb00e09c200059fc0700620220002a
:103fb0008000eb00009f200055fc070009017800fd
:103fc0008000eb008099200051fc07008201200056
:103fd0008000eb00609b20004dfc070002022000e7
:103fe0008000eb00a096200049fc0700e2002000c2
:103ff0008000eb00a098200045fc07000004eb00c7
:10400000484b88000901780088007800a0942000bf
:104010003ffc07000901780088007800c09220006a
:104020003bfc0700f8508800e8508800d850880012
:10403000162aef00182aef0008518800baff07007f
:104040008200a8008220a8008240a800d4c2a80054
:104050008400a9001200200001142000668057008f
:10406000a40007002ff89700e54f5000f9ff3a0031
:104070001200200051002000e0ad20009d0007004c
:104080000000eb00e00007009400a8000c0307000c
:104090004f04be000080fa0000000600000005008a
:1040a00000000500000005000000050000000500fc
:1040b00000000500000005009400a900d4c2a9007a
:1040c0008540a900000420004012880085c0bf0080
:1040d0000028a300fdff320040128000f2eab70082
:1040e0008540a900200720004012880085c0bf003d
:1040f0000028a300fdff320040128000f3eab70061
:104100008540a900f00f20004012880085c0bf0044
:104110000028a300fdff320040128000e8eab7004b
:104120008540a900d4c2a8009400a80000000600a1
:10413000d4c2a9008540a9004822ef0085c0bf0075
:104140000028a300fdff320040128000f2eab70011
:104150008540a900200020004012880085c0bf00d3
:104160000028a300fdff320040128000f3eab700f0
:104170008540a900d4c2a800000006004300dd006d
:104180008180fb0081007000d4c2a9008540a90095
:104190004808de004012880085c0bf000028a30048
:1041a000fdff320040128000f2eab7008540a9000e
:1041b0000180fb004012880085c0bf000028a300da
:1041c000fdff320040128000f3eab7008540a900ed
:1041d000000006004300dd008180fb0081007000cc
:1041e000d4c2a9008540a9004808de00401288001a
:1041f00085c0bf000028a300fdff320040128000f0
:104200008540a9000180fb004012880085c0bf00e6
:104210000028a300fdff3200401280008540a90065
:1042200000000600889fbe0080047800010078002e
:104230000204780021c0b300e6ff07008800780080
:104240008041eb000001eb000c0037000100e000b2
:1042500001003a0080c1eb008540a9000380fb000b
:104260004012880085c0bf000028a300fdff320077
:1042700040128000807479000201e8008100e900aa
:10428000880f5100f1ff3a008540a900d4c2a80070
:104290004f04be0000000600889fbe008004780026
:1042a000010078000204780041c0b300c9ff070094
:1042b0008000eb00090037008540a90069c0780044
:1042c0000080fb004012880085c0bf000028a300ca
:1042d000fdff3200401280008100e800888f50000e
:1042e000f5ff3a008540a900d4c2a8004f04be00e3
:1042f00000000600889fbe008a9fbe0080057800ef
:1043000001047800020578008004eb0010003700fb
:104310009400a90021c0b3000800780097ff0700af
:10432000f00f20004012880085c0bf000028a300c5
:10433000fdff32004012800080f57c009400a80050
:10434000d4c2a8000804e8008540a9008904e80058
:104350008a8f5400eeff3a004f05be004f04be00a6
:104360000000060054ff0700f20aab00080032000c
:10437000220020000112200060af2000ddff0700b6
:10438000e0ceb300f26ab600f6cabf007f010700b4
:1043900000000600889fbe008a9fbe00800578004e
:1043a00001047800020578008004eb00110037005a
:1043b0009400a90041c0b300080078006fff070017
:1043c0008540a9006bc07c000080fb004012880083
:1043d00085c0bf000028a300fdff3200401280000e
:1043e0009400a8000804e8008540a900d4c2a800f1
:1043f0008904e8008a8f5400edff3a004f05be00a3
:104400004f04be00000006000200fa00881f78007a
:104410000004780022002000412020006480570022
:10442000b4ff0700efb8970001006400e0bf9f00f1
:104430009400a9000000e00001003a00f8eab7008b
:10444000220020004120200064805700d1ff070097
:104450009400a8004f0478000080fa0000000600d5
:104460000200fa00881f7800000478002200200073
:1044700041202000648057009eff07006fb897001e
:1044800000007400e0bf9f009400a90010c0b300ba
:10449000f8eab70022002000412020006480570085
:1044a000bcff07009400a8004f0478000080fa00c9
:1044b000000006000200fa00881f7800014478001e
:1044c0000080fb00e0bf9f002200200001132000bd
:1044d00064805700afff0700e14f44000600320040
:1044e0000880fb00e0bf9f00220020004113200055
:1044f00064805700a7ff07004f0478000080fa008f
:10450000000006000200fa0011c0b300e1ff9f00a6
:104510000080fb004300dd0071802000810040002e
:10452000120020000f80e9009aff07000080fa00c7
:10453000000006000200fa008040eb00e1ff9f004f
:104540000080fb004300dd007180200081004000fe
:10455000120020000f80e9008eff07000080fa00a3
:1045600000000600881f7800a8ae20000080fb0035
:104570004300dd0001802000810040008200200017
:10458000080078005bff0700080078004f047800ff
:1045900000000600010178000004e0000300320082
:1045a000e14f50005a003a002b0037006140900064
:1045b000d00fb20006003a00110090000000e000a9
:1045c0005c003a00e00ae200570032005900370070
:1045d000e10f500057003a00910090000057800012
:1045e000808f500053003a00c24190006d806100fe
:1045f000e40f50004e003a00c0ad200021c0b300cf
:1046000090cf100008003a0092007800f0ff2000e0
:10461000808f50004500360000002200808f50003f
:10462000040036004100370090568000920f1000c1
:104630003e003a000368a3000300320010c0b3003c
:10464000d5eab70001003700d56aef00e20ae200c0
:1046500035003a002900370061409000d00fb200c9
:1046600006003a00110090000000e00031003a001e
:10467000e20ae2002c0032002e003700e10f500069
:104680002c003a001102900010578000800f520059
:1046900028003a00414090008081fb006d8061005d
:1046a00023003a00c0ad200021c0b30090cf10001d
:1046b00008003a0092007800f0ff2000808f500040
:1046c0001a00360000002200808f500004003600df
:1046d0001600370080568000920f100013003a0039
:1046e0000400e0001000320083007800d102b20024
:1046f00000022000808f500003003a0010c0b30079
:10470000dfeab70008003700df6aef000600370075
:1047100061409000d00fb20006003a0011009000f6
:104720000000e00003003a00000005002000050042
:104730004000050030000500889fbe008a9fbe0033
:10474000804578000045eb008004eb001200370044
:1047500018c0b3000004e000040032000044eb0085
:10476000e14f50000100320000447800084078001a
:104770007cff0700800078000840780085ff070074
:104780000004e000030032000a04e00001003a00e7
:104790007d4544008904e800094078008bcf54002f
:1047a000ebff39000a80fb004f05be004f04be003e
:1047b000000006000040eb006aff070010007800d0
:1047c0009056880010c0b30066ff07001001780003
:1047d0008256880093568000005780006300b9001d
:1047e00000804100820f5000050036001057800005
:1047f00000004100d1012000808f510012003900db
:10480000e20ae2000900320010c0b30049ff0700cd
:1048100025fe07000004e000020032008080fb005b
:104820000900370010c0b300e5eab700e00ae20073
:10483000020032000040eb003eff07000000eb00ea
:1048400007ff07008000eb00010078000000060071
:104850000400fa0022002000014020000f80e9003f
:10486000a4fe07007fb897000000e00014003200ab
:10487000d54ae2001200320022002000014220004e
:10488000648057009bfe07006fb897000000e000af
:104890000e003200010020007fb9970003002000c5
:1048a00029fa0700821a2600030020002cfa0700cc
:1048b000c0568800d54ae20006003a0017003700cb
:1048c0000000eb00e0bf9f00c0568800d54ae20020
:1048d00012003a00e00ae20005003200f4fd070091
:1048e0000004e000020032000080fb000e003700f0
:1048f00010c0b300e6eab700ce4ae20009003a0071
:10490000df4ae20007003200e00ae2000500320060
:1049100000102000d2fe070002003700f001200046
:10492000010037000000eb000080fa0000000600e4
:10493000f0ef2f00b4fe07000040eb00e4eab70000
:10494000e6eab700e00ae20001003200d9fd070004
:104950000080fb00000006000040eb00e9fe0700bd
:1049600030cf2f00a8fe07000040eb00dfeab700c1
:10497000ceeab700e5eab70010c0b300e1fe0700d9
:10498000cafd07000080fb0000000600889fbe00f3
:104990008a1f7800004178000248a300020032001c
:1049a000dc8aa90008003700dccabf000080fb00d9
:1049b0000048a30004003200ef0061006f006000b7
:1049c000808f5000bb003c006f456100dccabf0017
:1049d0004400dd000a44400008007800d4eab70033
:1049e00080c4b300804f54001200320005003e0026
:1049f00040c2b300804f54000a00320040c4b300ec
:104a00000400370040c8b300804f54000900320052
:104a1000644040008044eb00804f540008003a009e
:104a2000040037009ffd0700804478000004e00088
:104a30005f003a00decabf003fff070080447800f5
:104a40000904e0005a003a0080c2b300804f5400cd
:104a5000420032001e003e00f84f54003f0032007a
:104a60000c003e00f24f54003e00320003003e00b6
:104a7000f14f54003d003a004b00370039c1b300fc
:104a8000894f540064003200f44f540037003a005c
:104a90003200370020c2b300804f54004200320081
:104aa00004003e000040e900804f54002f003a000f
:104ab0002c00370030c2b300804f54002700320072
:104ac0000040e800804f540028003a0029003700d9
:104ad00080c4b300804f5400280032000d003e0017
:104ae00066405000804f54002d00320004003e000c
:104af0000040e900804f54001c003a0028003700b5
:104b000030c4b300804f5400140032000040e8006d
:104b10000f00370030c8b300804f54000f00320040
:104b200007003e0000c0e900804f5400180032002a
:104b30000040e800804f54000c003a001400370099
:104b400040c8b300804f54000f0032006440400062
:104b5000804f540005003a001300370019c1b3001c
:104b60002d0037008044eb002900370029c1b30035
:104b7000290037000fff07000100370034ff07004e
:104b8000804478002200370069ff0700fcff3700ef
:104b900067ff0700804478000004e0001c003a0032
:104ba0006dff0700f6ff3700e9cfb3001a003700aa
:104bb000dccabf00e44f500006003200e84f50004e
:104bc00003003200e24f500011003a0009003700a4
:104bd00057ff0700fdcf5400040032005eff0700be
:104be00020c0b300dceab7000200370040c0b300c9
:104bf00003003700f6cf540003003a0010c0b300a2
:104c0000dceab7000400370020c0b300dceab700dc
:104c1000e1cf440027003200c2ad200012417800ed
:104c20008a80fb006f006100808f50001e00320000
:104c30000904e0000600320002007800dbeab70059
:104c4000024078000044a000dceab7001100370001
:104c5000a9ad2000994478000904e0000400320066
:104c60000a007800dbeab7000a44a000070037001a
:104c700080c4eb00dbcabf000054e1000300360033
:104c80000040eb00dbeab700804478000a007800bf
:104c9000dceab700dccabf008940780005fe0700e7
:104ca000da6aef00030037008040eb000240780032
:104cb00000fe07004f0578004f04be00000006000c
:104cc0008040eb008000fd00d5eab700dbeab700ca
:104cd000daeab700e4eab700e6eab7008000fd00d0
:104ce0008000fd00e5eab700ceeab700dfeab700d2
:104cf0008000fd0010c0b300dceab700edfd370016
:104d000098fd3700881f7800ff0007000a010700a0
:104d10002e010700dc0007008bfb07009f00070047
:104d20008bfa070040f9070071010700fe01070038
:104d30006a02070001003700c482a8008afb07004e
:104d40000000e000fcff32008dfc0700c482a900d7
:104d5000cd00070012e22400110009000204d8006f
:104d6000010078000804e8000000e00001003a00bb
:104d700076fb070009fc0700f6ff37000000400043
:104d8000e1b0200060807800000006000001be0055
:104d90000100e0000d003200600220000090b90028
:104da0004002b000029f2000600079000000e00097
:104db00004003d000000ea00808f51000300350030
:104dc0000300370080814100010037008001eb00c3
:104dd0000300780000000600000178006002200057
:104de0000091b90078014100009f20006200780026
:104df00052002000e40f500005003400000178004c
:104e000040c72000800f51000100340000017800ed
:104e100040c720008100500065005000808f500086
:104e200006003c0040c7200002015000010078004d
:104e3000828f500001003d00020078000000060053
:104e400000017800600220000091b9007801410063
:104e5000009f20006201780050002000e40f510004
:104e6000050034000200780042c72000820f500085
:104e70000100340002007800808f500004003c00e4
:104e800001007800e58f500001003d005000200037
:104e900000000600889fbe008a1f7800800478000a
:104ea000010278008082eb000100e0000100350083
:104eb00015002000840178000400e00001003d009e
:104ec0008401ea006002200000c8b90078004000b8
:104ed000029f20006004790089804400e0b0200037
:104ee0000081400003007800888f510001003400e9
:104ef0000800780000a8b900000978000085eb00e0
:104f00000400e000010035001a0020008300780052
:104f1000090078009dff0700800078000081eb0009
:104f20000000e000010035001200200001007800c0
:104f30000100e00001003d000100ea00880f500080
:104f400001003400080078000091b9000984440091
:104f5000e0b0200002347800e0a1200002347800a4
:104f6000090078009cff0700c1b0200000b4780061
:104f7000b00e8800c00e8800d00e88000000eb0044
:104f80000a00e0000100340010002000f8000700d3
:104f90004f0578004f04be00000006000001eb0042
:104fa0007258880062588800c1e1a900020e88008a
:104fb000f0c0b300c061b60030cfb300c061b6002e
:104fc000f0632000200e8800c0cfb300c061b6009f
:104fd000120e8800420e8800c901a900c921a9004b
:104fe000c941a900c881a800c801a800c8a1a8009b
:104ff000c821a800520e880000cfb300cb61b600d4
:10500000ca41a800300e80000100280001006000a5
:105010004006b300300e8800620e8800ccc1bf008d
:1050200001ccb300014060006040b300cce1b700a8
:10503000cdc1bf00014060006040b300cde1b700ca
:10504000720e8800ce21a900ce01a800ce61a90071
:10505000ce41a800b20e8800c20e8800c941a90046
:10506000c8c1a800c841a800cea1a900ce81a8004f
:10507000d20e8800ca21a900820e88008b20a900c8
:10508000c1e1a80000000600a4c0bf0083cfb300a8
:10509000034060003040b300a4e0b700b2c0bf00de
:1050a000f2c8b300024060000054a000b2e0b700b4
:1050b000aac0bf00024060000043b300aae0b700ee
:1050c000a8c0bf00034060005040b300a8e0b70094
:1050d000a4c0bf000240600001c4b30001407000e2
:1050e000a4e0b700a6c0bf0002406000014070000d
:1050f000a6e0b700afc0bf00034060000024a000de
:10510000afe0b70000000600000a2000303a880037
:10511000f0c3b3004467b60044c7bf000034a10029
:105120007041b30044e7b70042c7bf000058a30076
:10513000fdff3200000006000000eb0010168800a2
:105140005016880090168800c082a900c102a800ed
:10515000c8e2a800c942a800c962a800d062a9009c
:10516000d082a800d0c2a900d0e2a900d102a90033
:10517000d122a800c002a800c022a800c802a8002e
:10518000c822a800c842a800c8a2a800d042a9000e
:10519000d002a900c8c2a800c862a900d022a900f4
:1051a000d002a800c882a800c922a800c902a8008d
:1051b000c942a900c962a900c982a900c9a2a9005f
:1051c000c9c2a900c9e2a90000000600217420009c
:1051d000620420007305200082487800834878002c
:1051e00042c7a90082c6bf0001ceb30001406000e3
:1051f0004041b30082e6b700a8c6bf00014060008e
:105200009041b300a8e6b700d6c6bf0001406000d9
:105210009040b300d6e6b700d7c6bf00014060009b
:105220000034a000d7e6b700d8c6bf000140600038
:105230007040b300d8e6b7008ec6bf0001406000e2
:105240000024a0008ee6b7008fc6bf0001406000ba
:105250009040b3008fe6b70094c6bf0001406000e5
:105260000034a00094e6b7002174200062042000fe
:1052700073052000824878008348780042c7a80060
:10528000000006000001eb00040037008100200050
:105290008100e900feff3a000201e800800f5100a2
:1052a000faff3500000006000001eb0004003700a3
:1052b00001f421008100e900feff3a000201e8004c
:1052c000800f5100faff3500000006000001eb00de
:1052d00004003700013220008100e900feff3a009f
:1052e0000201e800800f5100faff350000000600bf
:1052f0000000eb0080588800900888005008880063
:1053000012c1bf00f1ccb300014060000044a00016
:1053100012e1b700409c2000700888008500a900b9
:1053200013e1a8009500a800000006003600f80070
:10533000809fbe00829fbe00849fbe00869fbe00ed
:105340008500a900d462a800d462a900f400070077
:10535000baf90700102bec004f03be004f02be004d
:105360004f01be004f00be003600f90000400600ad
:10537000a0588800b12c200091407800b32c200068
:1053800093417800a22c2000124178004411de00e5
:10539000e1806000c208dd00e2816100838070006e
:1053a0006101610082807000b15888000000e00057
:1053b0000300320081804000e0ab20000200370093
:1053c00081804000e0aa200061007800a00e8800e3
:1053d00000000600809fbe00821f78008420a90084
:1053e000cbc2bf00b22c200012417800a12c2000bb
:1053f00091407800c408de00610060004200dd00da
:105400006201610002007000e18060000100700034
:10541000b0588800140be200030032008000400006
:10542000e0ab20000200370080004000e0aa20002e
:1054300061007800a00e88004f0178004f00be0088
:1054400000400600809fbe00821f780084a0a90053
:10545000cbc2bf00b22c200012417800a12c20004a
:1054600091407800c408de00610060004200dd0069
:105470006201610002007000e180600001007000c4
:10548000b0588800140be200030032008000400096
:10549000e0ab20000200370080004000e0aa2000be
:1054a00061007800a00e88004f0178004f00be0018
:1054b00000400600809fbe00821f780086c0a900c1
:1054c000cbc2bf00b22c200012417800a12c2000da
:1054d00091407800c408de00610060004200dd00f9
:1054e0006201610002007000e18060000100700054
:1054f000b0588800f0508800140be200030032001e
:1055000080004000e0ab2000020037008000400037
:10551000e0aa200061007800a00e88004f0178000a
:105520004f00be00004006008001eb00a358880039
:10553000cbc2bf00b22c200012417800a12c200069
:1055400091407800c408de00610060004200dd0088
:105550006201610002007000e180600001007000e3
:10556000b058880000004000e1aa2000e0807800e8
:10557000a10e8800830888003308880010c1bf008e
:10558000f1ccb300014060000044a00010e1b7007e
:10559000801a26006008880011e1a80081cfb300be
:1055a000014078004261b60042e1a800f2c9b300b0
:1055b000024078004261b60042c1bf000140600075
:1055c0000004a00042e1b7008420a9009420a800b4
:1055d000014078004661b60046e1a800024078002c
:1055e0004661b60046c1bf00014060000004a00053
:1055f00046e1b70084a0a90094a0a800014078006b
:105600005a61b6005ae1a800024078005a61b6001b
:105610005ac1bf00014060000004a0005ae1b70079
:1056200086c0a90096c0a800000006000000400047
:10563000a1af2000608078000000060080027800a2
:105640006011b8000002eb00058042000400400039
:1056500000004000e1af20006080780000014100c0
:10566000e08149000402e800e20f5200f6ff3a0030
:105670008380d1000280d300000006000001780082
:1056800063806000e10f500004003a00c209de00b0
:10569000e0fd2300808f51000c003600f0e9ab00e4
:1056a0000500320002014100c208de0080b0200087
:1056b000013178000000060002004100a1af200087
:1056c000010040001008e8000000060082004100d0
:1056d00080b020008330780000000600cc62a80073
:1056e0008001eb0084b020000000eb00001a78007d
:1056f00083804100a2af20008280400080087800b3
:105700008301e800e28f5100f7ff3a000000060035
:105710000000400081b0200060807800000006009a
:10572000881f7800c8c2a900cec2a800cc62a90018
:10573000d422a900000000000000000000000000ca
:105740000000000000000000000000000000000059
:105750000000000000000000000000000000000049
:105760000000000000000000000000000000000039
:105770000000000000000000000000000000000029
:105780000000000000000000000000000000000019
:105790000000000000000000000000000000000009
:1057a00000000000000000000000000000000000f9
:1057b00000000000000000000000000000000000e9
:1057c00000000000000000000000000000000000d9
:1057d00000000000000000000000000000000000c9
:1057e00000000000000000000000000000000000b9
:1057f00000000000000000000000000000000000a9
:105800000000000000000000000000000000000098
:105810000000000000000000000000000000000088
:105820000000000000000000000000000000000078
:105830000000000000000000000000000000000068
:105840000000000000000000000000000000000058
:105850000000000000000000000000000000000048
:105860000000000000000000000000000000000038
:105870000000000000000000000000000000000028
:105880000000000000000000000000000000000018
:105890000000000000000000000000000000000008
:1058a00000000000d422a800ccc2a8000000000024
:1058b00000000000000000000000000000000000e8
:1058c00000000000000000000000000000000000d8
:1058d00000000000000000000000000000000000c8
:1058e00000000000000000000000000000000000b8
:1058f00000000000000000000000000000000000a8
:105900000000000000000000000000000000000097
:105910000000000000000000000000000000000087
:105920000000000000000000000000000000000077
:105930000000000000000000000000000000000067
:105940000000000000000000000000000000000057
:105950000000000000000000000000000000000047
:10596000000000000000000000000000d422a90098
:105970000000000000000000000000000000000027
:105980000000000000000000000000000000000017
:105990000000000000000000000000000000000007
:1059a00000000000000000000000000000000000f7
:1059b00000000000000000000000000000000000e7
:1059c00000000000000000000000000000000000d7
:1059d00000000000000000000000000000000000c7
:1059e00000000000000000000000000000000000b7
:1059f00000000000000000000000000000000000a7
:105a00000000000000000000000000000000000096
:105a10000000000000000000000000000000000086
:105a20000000000000000000000000000000000076
:105a3000d422a800ccc2a900000000000000000091
:105a40000000000000000000000000000000000056
:105a50000000000000000000000000000000000046
:105a60000000000000000000000000000000000036
:105a70000000000000000000000000000000000026
:105a80000000000000000000000000000000000016
:105a90000000000000000000000000000000000006
:105aa00000000000000000000000000000000000f6
:105ab00000000000000000000000000000000000e6
:105ac00000000000000000000000000000000000d6
:105ad00000000000000000000000000000000000c6
:105ae00000000000000000000000000000000000b6
:105af0000000000000000000d422a9000000000007
:105b00000000000000000000000000000000000095
:105b10000000000000000000000000000000000085
:105b20000000000000000000000000000000000075
:105b30000000000000000000000000000000000065
:105b40000000000000000000000000000000000055
:105b50000000000000000000000000000000000045
:105b60000000000000000000000000000000000035
:105b70000000000000000000000000000000000025
:105b80000000000000000000000000000000000015
:105b90000000000000000000000000000000000005
:105ba00000000000000000000000000000000000f5
:105bb000000000000000000000000000d422a80047
:105bc000ccc2a8000000000000000000000000009f
:105bd00000000000000000000000000000000000c5
:105be00000000000000000000000000000000000b5
:105bf00000000000000000000000000000000000a5
:105c00000000000000000000000000000000000094
:105c10000000000000000000000000000000000084
:105c20000000000000000000000000000000000074
:105c30000000000000000000000000000000000064
:105c40000000000000000000000000000000000054
:105c50000000000000000000000000000000000044
:105c60000000000000000000000000000000000034
:105c70000000000000000000000000000000000024
:105c800000000000d422a900000000000000000075
:105c90000000000000000000000000000000000004
:105ca00000000000000000000000000000000000f4
:105cb00000000000000000000000000000000000e4
:105cc00000000000000000000000000000000000d4
:105cd00000000000000000000000000000000000c4
:105ce00000000000000000000000000000000000b4
:105cf00000000000000000000000000000000000a4
:105d00000000000000000000000000000000000093
:105d10000000000000000000000000000000000083
:105d20000000000000000000000000000000000073
:105d30000000000000000000000000000000000063
:105d40000000000000000000d422a800ccc2a9007e
:105d50000000000000000000000000000000000043
:105d60000000000000000000000000000000000033
:105d70000000000000000000000000000000000023
:105d80000000000000000000000000000000000013
:105d90000000000000000000000000000000000003
:105da00000000000000000000000000000000000f3
:105db00000000000000000000000000000000000e3
:105dc00000000000000000000000000000000000d3
:105dd00000000000000000000000000000000000c3
:105de00000000000000000000000000000000000b3
:105df00000000000000000000000000000000000a3
:105e00000000000000000000000000000000000092
:105e1000d422a900000000000000000000000000e3
:105e20000000000000000000000000000000000072
:105e30000000000000000000000000000000000062
:105e40000000000000000000000000000000000052
:105e50000000000000000000000000000000000042
:105e60000000000000000000000000000000000032
:105e70000000000000000000000000000000000022
:105e80000000000000000000000000000000000012
:105e90000000000000000000000000000000000002
:105ea00000000000000000000000000000000000f2
:105eb00000000000000000000000000000000000e2
:105ec00000000000000000000000000000000000d2
:105ed00000000000d422a800ccc2a80000000000ee
:105ee00000000000000000000000000000000000b2
:105ef00000000000000000000000000000000000a2
:105f00000000000000000000000000000000000091
:105f10000000000000000000000000000000000081
:105f20000000000000000000000000000000000071
:105f30000000000000000000000000000000000061
:105f40000000000000000000000000000000000051
:105f50000000000000000000000000000000000041
:105f60000000000000000000000000000000000031
:105f70000000000000000000000000000000000021
:105f80000000000000000000000000000000000011
:105f9000000000000000000000000000d422a90062
:105fa00000000000000000000000000000000000f1
:105fb00000000000000000000000000000000000e1
:105fc00000000000000000000000000000000000d1
:105fd00000000000000000000000000000000000c1
:105fe00000000000000000000000000000000000b1
:105ff00000000000000000000000000000000000a1
:106000000000000000000000000000000000000090
:106010000000000000000000000000000000000080
:106020000000000000000000000000000000000070
:106030000000000000000000000000000000000060
:106040000000000000000000000000000000000050
:106050000000000000000000000000000000000040
:10606000d422a800ccc2a90000000000000000005b
:106070000000000000000000000000000000000020
:106080000000000000000000000000000000000010
:106090000000000000000000000000000000000000
:1060a00000000000000000000000000000000000f0
:1060b00000000000000000000000000000000000e0
:1060c00000000000000000000000000000000000d0
:1060d00000000000000000000000000000000000c0
:1060e00000000000000000000000000000000000b0
:1060f00000000000000000000000000000000000a0
:10610000000000000000000000000000000000008f
:10611000000000000000000000000000000000007f
:106120000000000000000000d422a90000000000d0
:10613000000000000000000000000000000000005f
:10614000000000000000000000000000000000004f
:10615000000000000000000000000000000000003f
:10616000000000000000000000000000000000002f
:10617000000000000000000000000000000000001f
:10618000000000000000000000000000000000000f
:1061900000000000000000000000000000000000ff
:1061a00000000000000000000000000000000000ef
:1061b00000000000000000000000000000000000df
:1061c00000000000000000000000000000000000cf
:1061d00000000000000000000000000000000000bf
:1061e000000000000000000000000000d422a80011
:1061f000ccc2a80000000000000000000000000069
:10620000000000000000000000000000000000008e
:10621000000000000000000000000000000000007e
:10622000000000000000000000000000000000006e
:10623000000000000000000000000000000000005e
:10624000000000000000000000000000000000004e
:10625000000000000000000000000000000000003e
:10626000000000000000000000000000000000002e
:10627000000000000000000000000000000000001e
:10628000000000000000000000000000000000000e
:1062900000000000000000000000000000000000fe
:1062a00000000000000000000000000000000000ee
:1062b00000000000d422a90000000000000000003f
:1062c00000000000000000000000000000000000ce
:1062d00000000000000000000000000000000000be
:1062e00000000000000000000000000000000000ae
:1062f000000000000000000000000000000000009e
:10630000000000000000000000000000000000008d
:10631000000000000000000000000000000000007d
:10632000000000000000000000000000000000006d
:10633000000000000000000000000000000000005d
:10634000000000000000000000000000000000004d
:10635000000000000000000000000000000000003d
:10636000000000000000000000000000000000002d
:106370000000000000000000d422a800ccc2a90048
:10638000000000000000000000000000000000000d
:1063900000000000000000000000000000000000fd
:1063a00000000000000000000000000000000000ed
:1063b00000000000000000000000000000000000dd
:1063c00000000000000000000000000000000000cd
:1063d00000000000000000000000000000000000bd
:1063e00000000000000000000000000000000000ad
:1063f000000000000000000000000000000000009d
:10640000000000000000000000000000000000008c
:10641000000000000000000000000000000000007c
:10642000000000000000000000000000000000006c
:10643000000000000000000000000000000000005c
:10644000d422a900000000000000000000000000ad
:10645000000000000000000000000000000000003c
:10646000000000000000000000000000000000002c
:10647000000000000000000000000000000000001c
:10648000000000000000000000000000000000000c
:1064900000000000000000000000000000000000fc
:1064a00000000000000000000000000000000000ec
:1064b00000000000000000000000000000000000dc
:1064c00000000000000000000000000000000000cc
:1064d00000000000000000000000000000000000bc
:1064e00000000000000000000000000000000000ac
:1064f000000000000000000000000000000000009c
:1065000000000000d00020005efb0700d422a8009d
:10651000ccc2a80000000000000000000000000045
:10652000000000000000000000000000000000006b
:10653000000000000000000000000000000000005b
:10654000000000000000000000000000000000004b
:10655000000000000000000000000000000000003b
:10656000000000000000000000000000000000002b
:10657000000000000000000000000000000000001b
:10658000000000000000000000000000000000000b
:1065900000000000000000000000000000000000fb
:1065a00000000000000000000000000000000000eb
:1065b00000000000000000000000000000000000db
:1065c00000000000000000000000000000000000cb
:1065d00000000000d422a90000000000000000001c
:1065e00000000000000000000000000000000000ab
:1065f000000000000000000000000000000000009b
:10660000000000000000000000000000000000008a
:10661000000000000000000000000000000000007a
:10662000000000000000000000000000000000006a
:10663000000000000000000000000000000000005a
:10664000000000000000000000000000000000004a
:10665000000000000000000000000000000000003a
:10666000000000000000000000000000000000002a
:10667000000000000000000000000000000000001a
:10668000000000000000000000000000000000000a
:106690000000000000000000d422a800ccc2a80026
:1066a00000000000000000000000000000000000ea
:1066b00000000000000000000000000000000000da
:1066c00000000000000000000000000000000000ca
:1066d00000000000000000000000000000000000ba
:1066e00000000000000000000000000000000000aa
:1066f000000000000000000000000000000000009a
:106700000000000000000000000000000000000089
:106710000000000000000000000000000000000079
:106720000000000000000000000000000000000069
:106730000000000000000000000000000000000059
:106740000000000000000000000000000000000049
:106750000000000000000000000000000000000039
:10676000d422a9000000000000000000000000008a
:106770000000000000000000000000000000000019
:106780000000000000000000000000000000000009
:1067900000000000000000000000000000000000f9
:1067a00000000000000000000000000000000000e9
:1067b00000000000000000000000000000000000d9
:1067c00000000000000000000000000000000000c9
:1067d00000000000000000000000000000000000b9
:1067e00000000000000000000000000000000000a9
:1067f0000000000000000000000000000000000099
:106800000000000000000000000000000000000088
:106810000000000000000000000000000000000078
:1068200000000000d422a800ccc2a8000000000094
:106830000000000000000000000000000000000058
:106840000000000000000000000000000000000048
:106850000000000000000000000000000000000038
:106860000000000000000000000000000000000028
:106870000000000000000000000000000000000018
:106880000000000000000000000000000000000008
:1068900000000000000000000000000000000000f8
:1068a00000000000000000000000000000000000e8
:1068b00000000000000000000000000000000000d8
:1068c00000000000000000000000000000000000c8
:1068d00000000000000000000000000000000000b8
:1068e000000000000000000000000000d422a90009
:1068f0000000000000000000000000000000000098
:106900000000000000000000000000000000000087
:106910000000000000000000000000000000000077
:106920000000000000000000000000000000000067
:106930000000000000000000000000000000000057
:106940000000000000000000000000000000000047
:106950000000000000000000000000000000000037
:106960000000000000000000000000000000000027
:106970000000000000000000000000000000000017
:106980000000000000000000000000000000000007
:1069900000000000000000000000000000000000f7
:1069a00000000000000000000000000000000000e7
:1069b000d422a800ccc2a800000000000000000003
:1069c00000000000000000000000000000000000c7
:1069d00000000000000000000000000000000000b7
:1069e00000000000000000000000000000000000a7
:1069f0000000000000000000000000000000000097
:106a00000000000000000000000000000000000086
:106a10000000000000000000000000000000000076
:106a20000000000000000000000000000000000066
:106a30000000000000000000000000000000000056
:106a40000000000000000000000000000000000046
:106a50000000000000000000000000000000000036
:106a60000000000000000000000000000000000026
:106a70000000000000000000d422a9000000000077
:106a80000000000000000000000000000000000006
:106a900000000000000000000000000000000000f6
:106aa00000000000000000000000000000000000e6
:106ab00000000000000000000000000000000000d6
:106ac00000000000000000000000000000000000c6
:106ad00000000000000000000000000000000000b6
:106ae00000000000000000000000000000000000a6
:106af0000000000000000000000000000000000096
:106b00000000000000000000000000000000000085
:106b10000000000000000000000000000000000075
:106b20000000000000000000000000000000000065
:106b3000000000000000000000000000d422a800b7
:106b4000ccc2a8000000000000000000000000000f
:106b50000000000000000000000000000000000035
:106b60000000000000000000000000000000000025
:106b70000000000000000000000000000000000015
:106b80000000000000000000000000000000000005
:106b900000000000000000000000000000000000f5
:106ba00000000000000000000000000000000000e5
:106bb00000000000000000000000000000000000d5
:106bc00000000000000000000000000000000000c5
:106bd00000000000000000000000000000000000b5
:106be00000000000000000000000000000000000a5
:106bf0000000000000000000000000000000000095
:106c000000000000d422a9000000000000000000e5
:106c10000000000000000000000000000000000074
:106c20000000000000000000000000000000000064
:106c30000000000000000000000000000000000054
:106c40000000000000000000000000000000000044
:106c50000000000000000000000000000000000034
:106c60000000000000000000000000000000000024
:106c70000000000000000000000000000000000014
:106c80000000000000000000000000000000000004
:106c900000000000000000000000000000000000f4
:106ca00000000000000000000000000000000000e4
:106cb00000000000000000000000000000000000d4
:106cc0000000000000000000d422a800ccc2a800f0
:106cd00000000000000000000000000000000000b4
:106ce00000000000000000000000000000000000a4
:106cf0000000000000000000000000000000000094
:106d00000000000000000000000000000000000083
:106d10000000000000000000000000000000000073
:106d20000000000000000000000000000000000063
:106d30000000000000000000000000000000000053
:106d40000000000000000000000000000000000043
:106d50000000000000000000000000000000000033
:106d60000000000000000000000000000000000023
:106d70000000000000000000000000000000000013
:106d80000000000000000000000000000000000003
:106d9000d422a90000000000000000000000000054
:106da00000000000000000000000000000000000e3
:106db00000000000000000000000000000000000d3
:106dc00000000000000000000000000000000000c3
:106dd00000000000000000000000000000000000b3
:106de00000000000000000000000000000000000a3
:106df0000000000000000000000000000000000093
:106e00000000000000000000000000000000000082
:106e10000000000000000000000000000000000072
:106e20000000000000000000000000000000000062
:106e30000000000000000000000000000000000052
:106e40000000000000000000000000000000000042
:106e500000000000d422a800ccc2a800000000005e
:106e60000000000000000000000000000000000022
:106e70000000000000000000000000000000000012
:106e80000000000000000000000000000000000002
:106e900000000000000000000000000000000000f2
:106ea00000000000000000000000000000000000e2
:106eb00000000000000000000000000000000000d2
:106ec00000000000000000000000000000000000c2
:106ed00000000000000000000000000000000000b2
:106ee00000000000000000000000000000000000a2
:106ef0000000000000000000000000000000000092
:106f00000000000000000000000000000000000081
:106f1000000000000000000000000000d422a900d2
:106f20000000000000000000000000000000000061
:106f30000000000000000000000000000000000051
:106f40000000000000000000000000000000000041
:106f50000000000000000000000000000000000031
:106f60000000000000000000000000000000000021
:106f70000000000000000000000000000000000011
:106f80000000000000000000000000000000000001
:106f900000000000000000000000000000000000f1
:106fa00000000000000000000000000000000000e1
:106fb00000000000000000000000000000000000d1
:106fc00000000000000000000000000000000000c1
:106fd00000000000000000000000000000000000b1
:106fe000d422a800ccc2a8000000000000000000cd
:106ff0000000000000000000000000000000000091
:107000000000000000000000000000000000000080
:107010000000000000000000000000000000000070
:107020000000000000000000000000000000000060
:107030000000000000000000000000000000000050
:107040000000000000000000000000000000000040
:107050000000000000000000000000000000000030
:107060000000000000000000000000000000000020
:107070000000000000000000000000000000000010
:107080000000000000000000000000000000000000
:1070900000000000000000000000000000000000f0
:1070a0000000000000000000d422a9000000000041
:1070b00000000000000000000000000000000000d0
:1070c00000000000000000000000000000000000c0
:1070d00000000000000000000000000000000000b0
:1070e00000000000000000000000000000000000a0
:1070f0000000000000000000000000000000000090
:10710000000000000000000000000000000000007f
:10711000000000000000000000000000000000006f
:10712000000000000000000000000000000000005f
:10713000000000000000000000000000000000004f
:10714000000000000000000000000000000000003f
:10715000000000000000000000000000000000002f
:10716000000000000000000000000000800020007f
:1071700044f80700c8c2a800cec2a90080002000c1
:1071800040f80700d422a800000000000000000022
:1071900000000000000000000000000000000000ef
:1071a00000000000000000000000000000000000df
:1071b00000000000000000000000000000000000cf
:1071c00000000000000000000000000000000000bf
:1071d00000000000000000000000000000000000af
:1071e000000000000000000000000000000000009f
:1071f000000000000000000000000000000000008f
:10720000000000000000000000000000000000007e
:10721000000000000000000000000000000000006e
:10722000000000000000000000000000000000005e
:10723000000000000000000000000000000000004e
:107240000000000000000000d422a900cac2bf0054
:107250004600de0061006000000000000000000049
:10726000000000000000000000000000000000001e
:10727000000000000000000000000000000000000e
:1072800000000000000000000000000000000000fe
:1072900000000000000000000000000000000000ee
:1072a00000000000000000000000000000000000de
:1072b00000000000000000000000000000000000ce
:1072c00000000000000000000000000000000000be
:1072d00000000000000000000000000000000000ae
:1072e000000000000000000000000000000000009e
:1072f000000000000000000000000000000000008e
:10730000000000000000000000000000000000007d
:1073100000000000000000000080fb008000400032
:10732000d422a800000000000000000000000000bf
:10733000000000000000000000000000000000004d
:10734000000000000000000000000000000000003d
:10735000000000000000000000000000000000002d
:10736000000000000000000000000000000000001d
:10737000000000000000000000000000000000000d
:1073800000000000000000000000000000000000fd
:1073900000000000000000000000000000000000ed
:1073a00000000000000000000000000000000000dd
:1073b00000000000000000000000000000000000cd
:1073c00000000000000000000000000000000000bd
:1073d00000000000000000000000000000000000ad
:1073e00000000000d422a900cac2bf004600de008f
:1073f00061006000008070000000000000000000dc
:10740000000000000000000000000000000000007c
:10741000000000000000000000000000000000006c
:10742000000000000000000000000000000000005c
:10743000000000000000000000000000000000004c
:10744000000000000000000000000000000000003c
:10745000000000000000000000000000000000002c
:10746000000000000000000000000000000000001c
:10747000000000000000000000000000000000000c
:1074800000000000000000000000000000000000fc
:1074900000000000000000000000000000000000ec
:1074a00000000000000000000000000000000000dc
:1074b000000000000000000080004000d422a8006e
:1074c00000000000000000000000000000000000bc
:1074d00000000000000000000000000000000000ac
:1074e000000000000000000000000000000000009c
:1074f000000000000000000000000000000000008c
:10750000000000000000000000000000000000007b
:10751000000000000000000000000000000000006b
:10752000000000000000000000000000000000005b
:10753000000000000000000000000000000000004b
:10754000000000000000000000000000000000003b
:10755000000000000000000000000000000000002b
:10756000000000000000000000000000000000001b
:10757000000000000000000000000000000000000b
:10758000d422a900cac2bf004600de00610060002c
:1075900000807000000000000000000000000000fb
:1075a00000000000000000000000000000000000db
:1075b00000000000000000000000000000000000cb
:1075c00000000000000000000000000000000000bb
:1075d00000000000000000000000000000000000ab
:1075e000000000000000000000000000000000009b
:1075f000000000000000000000000000000000008b
:10760000000000000000000000000000000000007a
:10761000000000000000000000000000000000006a
:10762000000000000000000000000000000000005a
:10763000000000000000000000000000000000004a
:10764000000000000000000000000000000000003a
:107650000000000080004000d422a80000000000cc
:10766000000000000000000000000000000000001a
:10767000000000000000000000000000000000000a
:1076800000000000000000000000000000000000fa
:1076900000000000000000000000000000000000ea
:1076a00000000000000000000000000000000000da
:1076b00000000000000000000000000000000000ca
:1076c00000000000000000000000000000000000ba
:1076d00000000000000000000000000000000000aa
:1076e000000000000000000000000000000000009a
:1076f000000000000000000000000000000000008a
:107700000000000000000000000000000000000079
:10771000000000000000000000000000d422a900ca
:10772000cac2bf004600de00610060000080700039
:107730000000000000000000000000000000000049
:107740000000000000000000000000000000000039
:107750000000000000000000000000000000000029
:107760000000000000000000000000000000000019
:107770000000000000000000000000000000000009
:1077800000000000000000000000000000000000f9
:1077900000000000000000000000000000000000e9
:1077a00000000000000000000000000000000000d9
:1077b00000000000000000000000000000000000c9
:1077c00000000000000000000000000000000000b9
:1077d00000000000000000000000000000000000a9
:1077e0000000000000000000000000000000000099
:1077f00080004000d422a80000000000000000002b
:107800000000000000000000000000000000000078
:107810000000000000000000000000000000000068
:107820000000000000000000000000000000000058
:107830000000000000000000000000000000000048
:107840000000000000000000000000000000000038
:107850000000000000000000000000000000000028
:107860000000000000000000000000000000000018
:107870000000000000000000000000000000000008
:1078800000000000000000000000000000000000f8
:1078900000000000000000000000000000000000e8
:1078a00000000000000000000000000000000000d8
:1078b0000000000000000000d422a900cac2bf00de
:1078c0004600de00610060000080700000000000e3
:1078d00000000000000000000000000000000000a8
:1078e0000000000000000000000000000000000098
:1078f0000000000000000000000000000000000088
:107900000000000000000000000000000000000077
:107910000000000000000000000000000000000067
:107920000000000000000000000000000000000057
:107930000000000000000000000000000000000047
:107940000000000000000000000000000000000037
:107950000000000000000000000000000000000027
:107960000000000000000000000000000000000017
:107970000000000000000000000000000000000007
:107980000000000000000000000000008000400037
:10799000d422a80000000000000000000000000049
:1079a00000000000000000000000000000000000d7
:1079b00000000000000000000000000000000000c7
:1079c00000000000000000000000000000000000b7
:1079d00000000000000000000000000000000000a7
:1079e0000000000000000000000000000000000097
:1079f0000000000000000000000000000000000087
:107a00000000000000000000000000000000000076
:107a10000000000000000000000000000000000066
:107a20000000000000000000000000000000000056
:107a30000000000000000000000000000000000046
:107a40000000000000000000000000000000000036
:107a500000000000d422a900cac2bf004600de0018
:107a60006100600000807000000000000000000065
:107a70000000000000000000000000000000000006
:107a800000000000000000000000000000000000f6
:107a900000000000000000000000000000000000e6
:107aa00000000000000000000000000000000000d6
:107ab00000000000000000000000000000000000c6
:107ac00000000000000000000000000000000000b6
:107ad00000000000000000000000000000000000a6
:107ae0000000000000000000000000000000000096
:107af0000000000000000000000000000000000086
:107b00000000000000000000000000000000000075
:107b10000000000000000000000000000000000065
:107b2000000000000000000080004000d422a800f7
:107b30000000000000000000000000000000000045
:107b40000000000000000000000000000000000035
:107b50000000000000000000000000000000000025
:107b60000000000000000000000000000000000015
:107b70000000000000000000000000000000000005
:107b800000000000000000000000000000000000f5
:107b900000000000000000000000000000000000e5
:107ba00000000000000000000000000000000000d5
:107bb00000000000000000000000000000000000c5
:107bc00000000000000000000000000000000000b5
:107bd00000000000000000000000000000000000a5
:107be0000000000000000000000000000000000095
:107bf000d422a900cac2bf004600de0061006000b6
:107c00000080700000000000000000000000000084
:107c10000000000000000000000000000000000064
:107c20000000000000000000000000000000000054
:107c30000000000000000000000000000000000044
:107c40000000000000000000000000000000000034
:107c50000000000000000000000000000000000024
:107c60000000000000000000000000000000000014
:107c70000000000000000000000000000000000004
:107c800000000000000000000000000000000000f4
:107c900000000000000000000000000000000000e4
:107ca00000000000000000000000000000000000d4
:107cb00000000000000000000000000000000000c4
:107cc0000000000080004000d422a8000000000056
:107cd00000000000000000000000000000000000a4
:107ce0000000000000000000000000000000000094
:107cf0000000000000000000000000000000000084
:107d00000000000000000000000000000000000073
:107d10000000000000000000000000000000000063
:107d20000000000000000000000000000000000053
:107d30000000000000000000000000000000000043
:107d40000000000000000000000000000000000033
:107d50000000000000000000000000000000000023
:107d60000000000000000000000000000000000013
:107d70000000000000000000000000000000000003
:107d8000000000000000000000000000d422a90054
:107d9000cac2bf004600de006100600000807000c3
:107da00000000000000000000000000000000000d3
:107db00000000000000000000000000000000000c3
:107dc00000000000000000000000000000000000b3
:107dd00000000000000000000000000000000000a3
:107de0000000000000000000000000000000000093
:107df0000000000000000000000000000000000083
:107e00000000000000000000000000000000000072
:107e10000000000000000000000000000000000062
:107e20000000000000000000000000000000000052
:107e30000000000000000000000000000000000042
:107e40000000000000000000000000000000000032
:107e50000000000000000000000000000000000022
:107e600000044000d000200006f50700d422a8003e
:107e70000000000000000000000000000000000002
:107e800000000000000000000000000000000000f2
:107e900000000000000000000000000000000000e2
:107ea00000000000000000000000000000000000d2
:107eb00000000000000000000000000000000000c2
:107ec00000000000000000000000000000000000b2
:107ed00000000000000000000000000000000000a2
:107ee0000000000000000000000000000000000092
:107ef0000000000000000000000000000000000082
:107f00000000000000000000000000000000000071
:107f10000000000000000000000000000000000061
:107f20000000000000000000000000000000000051
:107f3000d422a900cac2bf004600de006100600072
:107f400000007400000000000000000000000000bd
:107f50000000000000000000000000000000000021
:107f60000000000000000000000000000000000011
:107f70000000000000000000000000000000000001
:107f800000000000000000000000000000000000f1
:107f900000000000000000000000000000000000e1
:107fa00000000000000000000000000000000000d1
:107fb00000000000000000000000000000000000c1
:107fc00000000000000000000000000000000000b1
:107fd00000000000000000000000000000000000a1
:107fe0000000000000000000000000000000000091
:107ff0000000000000000000000000000000000081
:108000000000000080004000d422a8000000000012
:108010000000000000000000000000000000000060
:108020000000000000000000000000000000000050
:108030000000000000000000000000000000000040
:108040000000000000000000000000000000000030
:108050000000000000000000000000000000000020
:108060000000000000000000000000000000000010
:108070000000000000000000000000000000000000
:1080800000000000000000000000000000000000f0
:1080900000000000000000000000000000000000e0
:1080a00000000000000000000000000000000000d0
:1080b00000000000000000000000000000000000c0
:1080c000000000000000000000000000d422a90011
:1080d000cac2bf004600de00610060000080700080
:1080e0000000000000000000000000000000000090
:1080f0000000000000000000000000000000000080
:10810000000000000000000000000000000000006f
:10811000000000000000000000000000000000005f
:10812000000000000000000000000000000000004f
:10813000000000000000000000000000000000003f
:10814000000000000000000000000000000000002f
:10815000000000000000000000000000000000001f
:10816000000000000000000000000000000000000f
:1081700000000000000000000000000000000000ff
:1081800000000000000000000000000000000000ef
:1081900000000000000000000000000000000000df
:1081a00080004000d422a800000000000000000071
:1081b00000000000000000000000000000000000bf
:1081c00000000000000000000000000000000000af
:1081d000000000000000000000000000000000009f
:1081e000000000000000000000000000000000008f
:1081f000000000000000000000000000000000007f
:10820000000000000000000000000000000000006e
:10821000000000000000000000000000000000005e
:10822000000000000000000000000000000000004e
:10823000000000000000000000000000000000003e
:10824000000000000000000000000000000000002e
:10825000000000000000000000000000000000001e
:108260000000000000000000d422a900cac2bf0024
:108270004600de0061006000008070000000000029
:1082800000000000000000000000000000000000ee
:1082900000000000000000000000000000000000de
:1082a00000000000000000000000000000000000ce
:1082b00000000000000000000000000000000000be
:1082c00000000000000000000000000000000000ae
:1082d000000000000000000000000000000000009e
:1082e000000000000000000000000000000000008e
:1082f000000000000000000000000000000000007e
:10830000000000000000000000000000000000006d
:10831000000000000000000000000000000000005d
:10832000000000000000000000000000000000004d
:10833000000000000000000000000000800040007d
:10834000d422a8000000000000000000000000008f
:10835000000000000000000000000000000000001d
:10836000000000000000000000000000000000000d
:1083700000000000000000000000000000000000fd
:1083800000000000000000000000000000000000ed
:1083900000000000000000000000000000000000dd
:1083a00000000000000000000000000000000000cd
:1083b00000000000000000000000000000000000bd
:1083c00000000000000000000000000000000000ad
:1083d000000000000000000000000000000000009d
:1083e000000000000000000000000000000000008d
:1083f000000000000000000000000000000000007d
:1084000000000000d422a900cac2bf004600de005e
:1084100061006000008070000000000000000000ab
:10842000000000000000000000000000000000004c
:10843000000000000000000000000000000000003c
:10844000000000000000000000000000000000002c
:10845000000000000000000000000000000000001c
:10846000000000000000000000000000000000000c
:1084700000000000000000000000000000000000fc
:1084800000000000000000000000000000000000ec
:1084900000000000000000000000000000000000dc
:1084a00000000000000000000000000000000000cc
:1084b00000000000000000000000000000000000bc
:1084c00000000000000000000000000000000000ac
:1084d000000000000000000080004000d422a8003e
:1084e000000000000000000000000000000000008c
:1084f000000000000000000000000000000000007c
:10850000000000000000000000000000000000006b
:10851000000000000000000000000000000000005b
:10852000000000000000000000000000000000004b
:10853000000000000000000000000000000000003b
:10854000000000000000000000000000000000002b
:10855000000000000000000000000000000000001b
:10856000000000000000000000000000000000000b
:1085700000000000000000000000000000000000fb
:1085800000000000000000000000000000000000eb
:1085900000000000000000000000000000000000db
:1085a000d422a900cac2bf004600de0061006000fc
:1085b00000807000000000000000000000000000cb
:1085c00000000000000000000000000000000000ab
:1085d000000000000000000000000000000000009b
:1085e000000000000000000000000000000000008b
:1085f000000000000000000000000000000000007b
:10860000000000000000000000000000000000006a
:10861000000000000000000000000000000000005a
:10862000000000000000000000000000000000004a
:10863000000000000000000000000000000000003a
:10864000000000000000000000000000000000002a
:10865000000000000000000000000000000000001a
:10866000000000000000000000000000000000000a
:108670000000000080004000d422a800000000009c
:1086800000000000000000000000000000000000ea
:1086900000000000000000000000000000000000da
:1086a00000000000000000000000000000000000ca
:1086b00000000000000000000000000000000000ba
:1086c00000000000000000000000000000000000aa
:1086d000000000000000000000000000000000009a
:1086e000000000000000000000000000000000008a
:1086f000000000000000000000000000000000007a
:108700000000000000000000000000000000000069
:108710000000000000000000000000000000000059
:108720000000000000000000000000000000000049
:10873000000000000000000000000000d422a9009a
:10874000cac2bf004600de00610060000080700009
:108750000000000000000000000000000000000019
:108760000000000000000000000000000000000009
:1087700000000000000000000000000000000000f9
:1087800000000000000000000000000000000000e9
:1087900000000000000000000000000000000000d9
:1087a00000000000000000000000000000000000c9
:1087b00000000000000000000000000000000000b9
:1087c00000000000000000000000000000000000a9
:1087d0000000000000000000000000000000000099
:1087e0000000000000000000000000000000000089
:1087f0000000000000000000000000000000000079
:108800000000000000000000000000000000000068
:1088100080004000d422a8000000000000000000fa
:108820000000000000000000000000000000000048
:108830000000000000000000000000000000000038
:108840000000000000000000000000000000000028
:108850000000000000000000000000000000000018
:108860000000000000000000000000000000000008
:1088700000000000000000000000000000000000f8
:1088800000000000000000000000000000000000e8
:1088900000000000000000000000000000000000d8
:1088a00000000000000000000000000000000000c8
:1088b00000000000000000000000000000000000b8
:1088c00000000000000000000000000000000000a8
:1088d0000000000000000000d422a900cac2bf00ae
:1088e0004600de00610060000080700000000000b3
:1088f0000000000000000000000000000000000078
:108900000000000000000000000000000000000067
:108910000000000000000000000000000000000057
:108920000000000000000000000000000000000047
:108930000000000000000000000000000000000037
:108940000000000000000000000000000000000027
:108950000000000000000000000000000000000017
:108960000000000000000000000000000000000007
:1089700000000000000000000000000000000000f7
:1089800000000000000000000000000000000000e7
:1089900000000000000000000000000000000000d7
:1089a0000000000000000000000000008000400007
:1089b000d422a80000000000000000000000000019
:1089c00000000000000000000000000000000000a7
:1089d0000000000000000000000000000000000097
:1089e0000000000000000000000000000000000087
:1089f0000000000000000000000000000000000077
:108a00000000000000000000000000000000000066
:108a10000000000000000000000000000000000056
:108a20000000000000000000000000000000000046
:108a30000000000000000000000000000000000036
:108a40000000000000000000000000000000000026
:108a50000000000000000000000000000000000016
:108a60000000000000000000000000000000000006
:108a700000000000d422a900cac2bf004600de00e8
:108a80006100600000000000000000000000000025
:108a900000000000000000000000000000000000d6
:108aa00000000000000000000000000000000000c6
:108ab00000000000000000000000000000000000b6
:108ac00000000000000000000000000000000000a6
