:020000040000fa
:080000000018040000000000dc
:020000040000fa
:103000006fbe200000ff20000001880000000000cb
:103010000a00070011000700000020000000e00087
:10302000020032000000020000000000862e0200b4
:10303000000000000040da000000fe004440a9004b
:10304000000020000000e00003003200000020002b
:10305000a00188004440a80000000600a0832300cf
:10306000010020001500370062004000e0804800a9
:10307000910188009001ba0062004000e0804800a1
:10308000910188009002ba0062004000e080480090
:103090000002eb006028e10004003a000059eb0058
:1030a0008301e900fdff3e00040037006128e100d4
:1030b000010032000082eb0005000700910188004a
:1030c0001001ba000200e000e7ff3a00000005002e
:1030d000910188008002780062004000e080480092
:1030e0003559ba008301e900080032002559ba00b9
:1030f0008301e900050032000400e000f4ff320023
:1031000015d9ba008301e900f1ff3a00000006007a
:103110008001eb0002003700817178008301e80034
:10312000828f5100fcff3a00000006006022b800c8
:10313000060220000000d0008180d2000482d2006c
:103140008582d2000000a0000202520083825a0051
:10315000030031000202420083824a000000a10005
:103160000603e900f3ff3a0000000600839f6800b1
:103170000100e00002003d0060001000e080180047
:103180000300e00002003d0060011100e081190031
:10319000e6ff07004f00e00002003b006000100067
:1031a000e0801800000006000800fa0030079800d0
:1031b0006000b80010079800210798000000eb009d
:1031c000000f7800100037003e0090009e0078004d
:1031d0004400dd00010040008000400060812000cc
:1031e00000804000100078006101b8001e009000cf
:1031f000ae00900000004100818049001007980057
:10320000210798001e0fe800f00020009e0f10001c
:10321000edff34001e009000ae0090004c09dd0070
:103220004400de0000007100c488de000080fa0067
:10323000000006000000fa000000eb00904088004b
:103240000000eb00a04088000000eb00601988003f
:1032500023c3bf007f40600023e3b70025e3a9003c
:10326000513220009140780000ceb30000c06000d1
:103270006040b30025e3b700c0c0b30024e3b7004b
:103280003132200091407800c0cfb30000c0600010
:1032900023e3b7002043a8002143a8002063a9002e
:1032a0002343a800213220009140780030ccb300a5
:1032b00000c0600001c2b3000140700022e3b7000b
:1032c000013220009140780000ceb30000c07000b1
:1032d00020e3b7002223a9003003a8003023a80070
:1032e0003043a8003063a8003083a80030a3a800b2
:1032f00030c3a80030e3a8003103a8001132200039
:1033000091407800c0cfb30000c0600021e3b70057
:1033100021e3a80085a0a90095a0a8000080fa00dc
:1033200000000600809fbe00821f78000200fa00a5
:1033300085a0a900001880000040880010188000b7
:10334000104088002018800020408800301880003d
:1033500030408800401880004040880050188000ad
:10336000504088006018800060408800701880001d
:103370007040880080188000804088009040800065
:1033800012408000800040006083200000804000e8
:1033900002087800904080000240800080004000d9
:1033a000608120000080400002087800904080008a
:1033b0004240800080004000608920000080400082
:1033c0000208780090408000324080008000400079
:1033d0006087200000804000020878009040800054
:1033e0002240800080004000608520000080400076
:1033f0000208780090408000524080008000400029
:10340000608b20000080400002087800904080001f
:103410006240800080004000608d200000804000fd
:1034200002087800904080007240800080004000d8
:10343000608f2000008040000208780090408000eb
:1034400082408000800040006091200000804000a9
:1034500002087800904080000000e800ef0f500064
:1034600004003c00904080000000e800000f78005d
:10347000020037000000eb00000f78001e0078000b
:10348000904088000080fa004f0178004f00be0095
:10349000004006002200fa0030079800410798001b
:1034a0000000eb0020079800be00900060022000a2
:1034b0000088b9008000780040b220000080400001
:1034c00010079800be009000600220000088b9003c
:1034d0008000780060942000008f4000be009000c3
:1034e0000181400080a82000000041001000780009
:1034f0000001e8008180400080a82000008040009a
:10350000020878001e007800c00090001e009000a5
:10351000410098001e007800d00090001e0090002e
:10352000510098001e007800e00090001e009000fe
:10353000610098001e007800f00090001e009000ce
:10354000710098001e007800801090001e0090000e
:10355000011098001e007800f00890001e009000f6
:10356000710898003e0090008000400080a8200074
:1035700000804000900078004e009000808f500046
:10358000c80035003e0090008000400080a8200068
:10359000808040000000eb008008780010002000d0
:1035a000200798001e009000900090001e007800f8
:1035b00010009000808f50002a0032001e00900002
:1035c00010009000001798001e00900090009000de
:1035d0001e00780010009000008050000000e00005
:1035e00003003d000080eb00700f980002003700e0
:1035f00011002000710f98000e1190007e089000bd
:10360000800051001e009000110098001e009000e4
:103610009000900000d02700808f50000a003c00ee
:103620001e00900010009000600f980000302800ed
:10363000ee089000808f500005003d000230280009
:10364000620f98000200370000d02700600f98003a
:103650001e009000ee089000110098000000eb00a2
:10366000200798001e009000a00090001e00780027
:1036700020009000808f50002a0032001e00900031
:1036800020009000500f98001e009000a0009000b5
:103690001e00780020009000008050000000e00034
:1036a00003003d000081eb00420f9800020037004c
:1036b00010002000400f98005e0990004e08900016
:1036c000800051001e009000210098001e00900014
:1036d000a000900000d02700808f50000a003c001e
:1036e0001e00900020009000300f9800003028004d
:1036f000be089000808f500005003d000230280079
:10370000320f98000200370000d02700300f9800d9
:103710001e009000be089000210098000000eb0001
:10372000200798001e009000b00090001e00780056
:1037300030009000808f50002a0032001e00900060
:1037400030009000200f98001e009000b000900004
:103750001e00780030009000008050000000e00063
:1037600003003d000081eb00120f980002003700bb
:1037700010002000100f98002e0990001e089000e5
:10378000800051001e009000310098001e00900043
:10379000b000900000d02700808f50000a003c004d
:1037a0001e00900030009000000f980000302800ac
:1037b0008e089000808f500005003d0002302800e8
:1037c000020f98000200370000d02700000f980079
:1037d0001e0090008e089000310098000000eb0061
:1037e000200798001e009000901090001e007800a6
:1037f00010109000808f50002a0032001e009000b0
:1038000010109000700798001e009000901090001b
:103810001e00780010109000008050000000e000b2
:1038200003003d000081eb006207980002003700b2
:1038300010002000600798007e0190006e0090004c
:10384000800051001e009000111098001e00900092
:103850009010900000d02700808f50000a003c009c
:103860001e009000101090005007980000302800b3
:10387000de009000808f500005003d0002302800df
:10388000520798000200370000d027005007980028
:103890001e009000de009000111098000000eb0068
:1038a000200798002e0090000080fa00000006001b
:1038b0001a00fa0030079800410798000000eb005a
:1038c00020079800be009000600220000088b90028
:1038d0008000780040b2200000804000100798006f
:1038e000be009000600220000088b90080007800cf
:1038f00060942000008f4000be00900001814000d5
:1039000080a8200000004100100078000001e800bd
:103910008180400080a820000080400002087800dc
:103920001e007800c00090001e009000410098002a
:103930001e007800d00090001e00900051009800fa
:103940001e007800e00090001e00900061009800ca
:103950001e007800e00090001e00900071009800aa
:103960001e007800801090001e009000011098004a
:103970001e007800f00890001e009000710898006a
:103980003e0090008000400080a8200000804000a1
:10399000900078004e009000808f50006400350049
:1039a0003e0090008000400080a820008080400001
:1039b0000000eb008008780010002000200798002d
:1039c0001e009000100090000000e0001300320084
:1039d0001e00900010009000400f98001e00900004
:1039e000100090000000e00003003d000080eb00ac
:1039f000300f98000200370011002000310f9800ae
:103a00004e099000be089000010051009e009000f9
:103a1000900098000000eb00200798001e00900026
:103a2000200090000000e000130032001e00900013
:103a300020009000200f98001e00900020009000b1
:103a40000000e00003003d000081eb00120f980031
:103a50000200370010002000100f9800ae08900000
:103a60001e099000028050009e009000a000980067
:103a70000000eb00200798001e009000300090002e
:103a80000000e000130032001e00900030009000a3
:103a9000000f98001e009000300090000000e00031
:103aa00003003d000080eb00700798000200370023
:103ab00011002000710798000e099000fe00900090
:103ac000010051009e009000b00098000000eb0043
:103ad000200798001e009000101090000000e000e9
:103ae000130032001e009000101090006007980034
:103af0001e009000101090000000e00003003d0048
:103b00000081eb00520798000200370010002000ef
:103b100050079800ee0090005e0190000280500077
:103b20009e009000901098000000eb002007980085
:103b30002e0090000080fa00000006000400fa0049
:103b4000100798009e009000600220000088b900d5
:103b50008000780040b22000008f40009e00780076
:103b60000000eb00900098009e0078000000eb0041
:103b7000a00098009e0078000000eb00b0009800c4
:103b80009e0078000000eb00901098009e007800e6
:103b90000000eb00f00098009e0078000000eb00b1
:103ba000c00098009e0078000000eb00d000980054
:103bb0009e0078000000eb00e00098009e00780076
:103bc0000000eb00801098001e00900041a920002a
:103bd0004200dd00010140006000b8000089be0025
:103be0001e009000c1a820004200dd00010140003d
:103bf0006000b8000089be001e0090004600dd0095
:103c000080007800c0a9200000804000020420004d
:103c10008000eb003efd07001e0090008000400089
:103c2000c0b12000808040000000eb0080087800d8
:103c30001e0090008000400000b220008080400004
:103c40000000eb00800878001e009000800040001b
:103c500080a82000808040000000eb0080087800f1
:103c60000080fa00000006000200fa000000eb00ed
:103c7000000f7800090037001e0078008000400027
:103c800040a82000808040000000eb008008780001
:103c90001e007800a9ff07001e0fe800100020009a
:103ca0009e0f1000f4ff34000080fa0000000600b0
:103cb0000400fa00000f7800110798009e009000a1
:103cc0001e0078004c0807000080fa000000060083
:103cd0000800fa000000eb00200798008d00370074
:103ce000ae009000600220000088b900f60040009d
:103cf0006094200000804000900078001107980038
:103d0000ae009000600220000088b900f000400082
:103d10006094200000804000100f78002e0090007a
:103d20008000400040a82000008040001000780083
:103d3000300798003e009000e20f5000360032003d
:103d4000be009000e28f500007003c003e00900053
:103d50000000e0000b003200be009000e18f500038
:103d600020003200650037003e009000e30f500055
:103d700053003200be009000e48f50003f0032003c
:103d80005e0037008000eb002e009000c8ff0700a7
:103d90001e009000e10f500006003a002e00900037
:103da0008000400040a820008080400010002000db
:103db000800878001e009000e20f500006003a00d4
:103dc0002e0090008000400040a82000808040002d
:103dd00020002000800878002e00900057ff070088
:103de000490037009e0078002e009000b0ff0700c9
:103df0001e009000e10f5000430032002e009000a2
:103e00008000400040a82000808040000000eb00bf
:103e1000800878003c0037001e009000e20f500040
:103e2000070032002e0090008000400040a82000d3
:103e3000808040000000eb008008780032003700ee
:103e4000a10f20002e00900092fd07000000e0006e
:103e5000060032002e0090008000400040a82000a4
:103e60008080400040002000800878009e0078009c
:103e70002e0090002c000700230037001e00900049
:103e8000e20f5000070032002e009000800040003a
:103e900040a820008080400030002000800878008a
:103ea00019003700a10f20002e00900079fd0700b7
:103eb0009e0078002e0090001b00070012003700c3
:103ec000a10f20002e00900079fe07000000e00006
:103ed000060032002e0090008000400040a8200024
:103ee000808040000000eb00800878008000eb003c
:103ef0002e0090006eff0700030037008000eb00eb
:103f00002e0090006aff07002e0090000000e800dd
:103f1000200798002e009000e10f500070ff340041
:103f20000080fa00000006002400fa00889fbe000e
:103f30005007980061079800de00900060022000a2
:103f40000088b9008000780040b220000080400066
:103f500040079800de009000600220000088b90051
:103f600080007800609420000080400030079800b6
:103f70003e009000900890006e009000808f5000ee
:103f800004003d003e0090001008900000179800cb
:103f90000b0037003e00900020089000ee009000db
:103fa00011179800001798000e1190009e119000b4
:103fb000830f510002003d001e129000041798006c
:103fc0008e129000250798005e0090000000e0002f
:103fd00003003a00104080001007980002003700ec
:103fe00000408000100798005e0090000000e00094
:103ff0000c003a003e009000100078000000d10054
:10400000610060000004e0000400320010002000a5
:1040100065fc070010079800020037001040800080
:10402000100798005e009000e10f50000c003a006d
:104030003e009000100078000000d1006100600098
:104040000004e000040032000000eb0056fc070012
:104050001007980002003700004080001007980009
:10406000ae0090001e00900000805000805b880031
:10407000de0290004e009000100090006104b90034
:10408000815b80004e009000400090000088de00c0
:104090006101b9000243b80003c0b900070278000b
:1040a000000242000990b900000242008403780037
:1040b000c228dd0040a62000008040000688be0027
:1040c0005e0290005e009000c1a820004200dd006a
:1040d000010040001001be00805b8000cf80de0048
:1040e0000201400083814800c1a820004220dd0079
:1040f000010040000288be005e009000700f980032
:104100005e009000c1a820004200dd0001004000d8
:104110001001be004e00900070009000cf80de00c5
:10412000800f5100818f5900060034004e0090002e
:10413000700090006101b900520f9800630f980061
:10414000180037005e009000c1a820004200dd008a
:10415000010040001001be004e0090007000900071
:104160000000ea006102b900340f9800450f980082
:10417000520f9800630f98005e089000ee089000c0
:104180003e099000ce099000820f5000838f5800a6
:1041900004003d003e0a9000ce0a9000540f9800a3
:1041a000650f9800c1a82000fe0a90004228dd009b
:1041b000010040005e099000ee0990000288be00f8
:1041c000de0290004e009000200090006104b900d3
:1041d0005e009000c1a820004200dd000100400008
:1041e0001001be004e0090005000900000027800c8
:1041f0000402e900030033008381d1000281d3006f
:10420000fbff37000243b80003c0b9000702780083
:10421000000242000990b9000002420084037800c5
:10422000c228dd00c0a62000008040000688be0035
:104230005e0090008000400000b22000008040003e
:10424000100f78005e0290005e00900041a92000ef
:104250004200dd00010040001001be005e00900041
:104260009e0078004500dd00010040008000400015
:10427000c0a920000080400010007800cf80de0040
:10428000000151008181590041a920004220dd0038
:10429000010040000288be005e0190009e0178008f
:1042a0005e00900080004000c0b12000008040000f
:1042b000900078001e009000010250004510dd00c3
:1042c0000300400080004000c0a9200000804000a2
:1042d000040878005e00900080004000c0b120001b
:1042e000008040009e029000050878005e02900069
:1042f0005e00900041a920004200dd000100400066
:104300001001be005e0090009e0078004500dd00b8
:104310000100400080004000c0a920000080400053
:1043200010007800cf80de00020140008381480049
:1043300041a920004220dd00010040000288be00ab
:104340005e009000200f98001e00e800ff0f500054
:1043500003003c009e00e800110f980002003700a7
:104360000001eb00120f9800ae099000ae0990001a
:104370008380410000b22000008040001e0a9000af
:1043800004087800de0290004e009000300090009b
:104390006104b9005e00900041a920004200dd00e8
:1043a000010040001001be000243b80003c0b90084
:1043b00007027800000242000990b90000024200a2
:1043c000840378004e009000600090000601be005b
:1043d000800078008100e900030033008381d10070
:1043e0000281d300fbff3700c228dd0040a7200078
:1043f000008040000288be005e0190005e009000d8
:10440000c200dd0040a72000008040001000be0078
:1044100080017800820041008093200000804000ed
:10442000030878005e0290004e009000101190008a
:104430004e009000f00890002e0090008100500087
:104440004e009000001090000088de000090b9003f
:104450006101b900c220dd00c0a72000008040003b
:104460000288be005e009000c200dd0040a6200071
:10447000008040001001be005e009000c200dd0020
:10448000c0a62000008040001000be0002014000d5
:10449000838148005e009000c200dd0040a720003c
:1044a000008040001000be000201400083814800ef
:1044b0005e009000c200dd00c0a720000080400028
:1044c0001000be000200400083804800905b88001e
:1044d000a15b8800925b8000a35b8000e0c72000a6
:1044e00001002000800f5100818f590010003c0016
:1044f000905b8000a15b800070079800010f98001e
:1045000020382f00f1ff2f007e0190008e099000cf
:10451000800f5100818f590009003d0024382f0081
:10452000f5ff2f0074079800050f9800040037006e
:10453000e0c720000100200070079800010f9800dc
:104540007e0190008e099000925b8800a35b88003a
:10455000905b8000a15b8000800078005e0090008e
:10456000d3fd07004f04be000080fa0000000600e3
:104570000000fa000080fa00000006000000fa00c7
:10458000c2c2bf00704060000004e00002003200c0
:10459000c482a90001003700c482a8000080fa008c
:1045a000000006000000fa00c3c2bf0061406000c6
:1045b0000080fb000080fa00000006000000fa0006
:1045c000ce0507000000eb000080fa0000000600a6
:1045d0000000fa000080fa00000006000000fa0067
:1045e000cdcbbf000080fb00610060000004e00054
:1045f0000b00320010c0b300b0ebb700a25d80002a
:10460000115e8000e09c200074010700609420008f
:10461000e19c20004b00090031587800c004b10033
:104620000080fa00000006000800fa0010000700f1
:10463000249920006000b8006011b800009abe0004
:104640000292be002099200081a220003b000900b8
:10465000b0587800c003b100925d8000215e8000f8
:1046600080a22000860107000080fa0000000600fa
:104670000000fa000000eb00f5070700704d88000d
:1046800010002000f2070700404e88000000eb00f9
:10469000e6070700604d880010002000e3070700d0
:1046a000304e88000000eb00ea080700804d8800cb
:1046b00010002000e7080700504e8800100020007e
:1046c000b9fa0700e04c88000000eb00b6fa0700da
:1046d000b04d880020002000b3fa0700204d88006c
:1046e000204d8000f04d880040002000aefa070009
:1046f000f04c880030002000abfa0700c04d880065
:1047000050002000a8fa0700004d8800700020002b
:10471000a5fa0700004d880060002000a2fa0700fb
:10472000e04d8800800020009ffa0700e04d8800df
:104730000000eb009e050700504d8800100020008f
:104740009b050700204e8800c0498000d04c88009f
:10475000d0498000a04d8800e0498000904d88003d
:10476000f0498000604e88000080fa0000000600da
:104770003600f800809fbe00829fbe00849fbe006e
:10478000869fbe000200fa00d4c2a8008400a900df
:10479000b8000700b6cbbf000004e0000a003200fa
:1047a000aecbbf000004e000020032008bff070028
:1047b0000100370086ff0700afcbbf000004e00018
:1047c0000100320098ff070010002000b049880067
:1047d0000080fa004f03be004f02be004f01be0032
:1047e0004f00be003600f900004006000400fa0049
:1047f0000040eb0030479800c0032000905d880027
:10480000a0052000a05d880020992000c2032000a0
:104810008000eb003efa070060942000c2042000f4
:104820008000eb003afa0700e09c2000a20520007f
:104830008000eb0036fa070080a22000c2032000af
:104840008000eb0032fa07000000eb00000f780058
:104850000d0037001e00780080004000809320008b
:10486000808040000000eb00800878001e00780087
:1048700080004000c0932000808040000000eb00da
:10488000800878001e0fe800100020009e0f100026
:10489000f0ff34000000eb00004a88006000b80020
:1048a000104a8800214a88000000eb00b0498800c7
:1048b000160007008200a8008220a8008240a800fd
:1048c000d4c2a8008400a9006300470012002000a1
:1048d00001142000230107003e409000e54f5000e6
:1048e000f9ff3a00120020005100200070bb2000a8
:1048f0001c0107000000eb00650107009400a80000
:10490000e60407000080fa00000006000000fa003c
:104910008540a9009540a9000000eb001012880016
:1049200042a2a8002124200091407800c0cfb3000b
:1049300000c060000014a00042e2b7002124200063
:104940009140780030ceb30000c060008041b300d9
:1049500042e2b70042c2a8004302a9004322a900d4
:104960004342a90040c2a90041e2a800d4c2a80065
:104970000080fa00000006000000fa000000eb00d2
:104980000080fa00000006000000fa000000eb00c2
:104990000080fa00000006000000fa000000eb00b2
:1049a0000080fa00000006000000fa000000eb00a2
:1049b0000080fa00000006000000fa000000eb0092
:1049c0000080fa00000006000000fa000000eb0082
:1049d0000080fa00000006000000fa000000eb0072
:1049e0000080fa00000006000000fa009400a90010
:1049f000d4c2a9008540a90000042000401288000c
:104a000085c0bf00644060000004e000fcff32008d
:104a100040128000ccebb7008540a90020072000a1
:104a20004012880085c0bf00644060000004e000c0
:104a3000fcff320040128000cdebb7008540a9009a
:104a4000f00f20004012880085c0bf006440600065
:104a50000004e000fcff320040128000d8ebb700f9
:104a60008540a900d4c2a8009400a8000080fa00e4
:104a7000000006000000fa00d4c2a9008540a90089
:104a80000000eb004012880085c0bf006440600059
:104a90000004e000fcff320040128000ccebb700c5
:104aa0008540a900200020004012880085c0bf007a
:104ab000644060000004e000fcff3200401280000f
:104ac000cdebb7008540a900d4c2a8000080fa0051
:104ad000000006000600fa00100798004147980001
:104ae0001e009000c300dd004e4090000080fb00df
:104af00000807000000f7800d4c2a9008540a90092
:104b00001e4090000080fb004012880085c0bf005e
:104b1000644060000004e000fcff320040128000ae
:104b2000ccebb7008540a9001e4078000080fb0058
:104b30004012880085c0bf00644060000004e000af
:104b4000fcff320040128000cdebb7008540a90089
:104b50000080fa00000006000800fa002007980014
:104b6000614798002e009000c300dd006e40900069
:104b70000080fb000080700010079800d4c2a900dc
:104b80008540a9003e4090000080fb004012880054
:104b900085c0bf00644060000004e000fcff3200fc
:104ba00040128000004f78008540a9002e40900000
:104bb0000080fb004012880085c0bf006440600098
:104bc0000004e000fcff320040128000004f78003b
:104bd0008540a9000080fa00000006000a00fa00e3
:104be0002007980031079800420798004e00900077
:104bf000100798000040eb00004f780021c0b30080
:104c00003e009000d4ff0700130037001e00900004
:104c10000000e00002003a0000c0eb00004f780006
:104c20008540a9001e80fb004012880085c0bf009f
:104c3000644060000004e000fcff3200401280008d
:104c4000804078002e009000014878002e009000ef
:104c50000000e800200798001e0090000000e90016
:104c6000100798001e009000e10f4000e7ff3a0097
:104c70008540a900d4c2a8000080fa000000060008
:104c80000a00fa00200798003107980042079800b0
:104c90004e0090001007980041c0b3003e00900005
:104ca000adff07000e0037008540a9002e009000e0
:104cb000104078000080fb004012880085c0bf00d3
:104cc000644060000004e000fcff320040128000fd
:104cd000004f78002e0090000000e80020079800a8
:104ce0001e0090000000e900100798001e009000d0
:104cf000e10f4000ecff3a008540a900d4c2a800b3
:104d00000080fa00000006000000fa0036ff0700ed
:104d1000e05d80000000e00000003200cccbbf006e
:104d20000080fb00610060000004e0000b00320026
:104d30002200200001122000a0bc20000900070072
:104d4000c1bc200091407800e0ceb30000c06000fc
:104d5000ccebb700cacbbf006a0207000080fa00a4
:104d6000000006000800fa001007980021079800cc
:104d7000320798003e009000000f780017003700bf
:104d80009400a90021c0b3002e00900051ff07003d
:104d9000f00f20004012880085c0bf006440600012
:104da0000004e000fcff32004012800080407800e8
:104db0001e009000014878001e0090000000e800ee
:104dc000100798009400a800d4c2a8002e009000fc
:104dd0000000e800200798008540a9001e0fe900a8
:104de0000080eb009e0f1000e5ff3a000080fa0003
:104df000000006000a00fa0020079800310798001a
:104e0000420798004e0090001007980018003700e5
:104e10009400a90041c0b3003e0090002dff0700a0
:104e20008540a9002e009000104078000080fb0013
:104e3000401288002e0090000000e8002007980033
:104e400085c0bf00644060000004e000fcff320049
:104e500040128000004f78009400a8003e009000af
:104e60000000e800300798008540a900d4c2a800df
:104e70001e0090000000e900100798001e0090003e
:104e8000e10f4000e2ff3a000080fa000000060057
:104e90000400fa00100798000e007800220020009d
:104ea00041202000afff07009e0078001e00900008
:104eb00000806000000f78009400a9001e007800b8
:104ec0000000e00002003a000040eb00c8ebb70031
:104ed0000e0078002200200041202000c5ff0700be
:104ee0009400a8000080fa00000006000400fa0008
:104ef000100798000e0078002200200041202000ba
:104f000098ff07009e0078001e009000008070004f
:104f1000000f78009400a90010c0b300c8ebb700e0
:104f20000e0078002200200041202000b1ff070081
:104f30009400a8000080fa00000006000400fa00b7
:104f400020479800314798002e4090000080fb00d9
:104f5000000f78000e0078002200200001132000ce
:104f6000a4ff07003e409000e14f400007003200e0
:104f70003e4090000080fb00000f78000e0078009b
:104f800022002000411320009aff07000080fa0051
:104f9000000006000400fa002047980010c0b3008b
:104fa000004f78002e4090000080fb00c300dd0021
:104fb0007080200080804000120020000e007800e9
:104fc0008cff07000080fa00000006000400fa00d1
:104fd000204798000040eb00004f78002e409000e2
:104fe0000080fb00c300dd00708020008080400056
:104ff000120020000e0078007eff07000080fa00fb
:10500000000006000200fa00004f78001e80fb003e
:10501000c300dd00008020008080400000bd200033
:10502000820020004fff070000bd20000080fa0032
:10503000000006000800fa00004f780011079800f1
:105040001e80fb00300798003e0090000000e0004a
:10505000040032003e009000e10f50005600320084
:10506000a90037001e009000604090008080fb0087
:10507000d00f2000008060000000e0000a003a002d
:105080001e009000100090000000e00006003a00b2
:10509000a05d80000000e00003003a000000eb008b
:1050a00020079800a80037001e0090006040900084
:1050b0008080fb00d00f200000806000e10f5000d6
:1050c0003a003a001e00900090009000a05d800021
:1050d000808f500035003a001e0090004040900044
:1050e0000080fb006d006000e40f50002c003a00cf
:1050f000b9cbbf00e24f50000a003a001e009000fa
:1051000090007800f0ff2000808f500005003600ee
:105110001e0090009000780000002200808f500058
:1051200008003600b9cbbf00e24f50001900320032
:105130001e00900090007800105e8000808f50006c
:1051400014003a001e009000404090000080fb00d8
:105150004600de00610060000004e0000300320051
:1051600010c0b300c0ebb700020037000040eb00f6
:10517000c0ebb700905d80000000e00002003a0044
:1051800010c0b300b6ebb7000000eb00200798009a
:105190006d00370020002000200798006a003700cb
:1051a00040002000200798006700370030002000f2
:1051b00020079800640037001e00900060409000b7
:1051c0008080fb00d00f2000008060000000e00025
:1051d0000a003a001e009000100090000000e0005d
:1051e00006003a00905d80000000e00003003a00f5
:1051f0000000eb0020079800530037001e009000cd
:10520000604090008080fb00d00f20000080600094
:10521000e10f500039003a001e009000900090000d
:10522000905d8000808f500034003a001e00900096
:10523000404090000080fb006d0060000000e00036
:105240002b003a00b9cbbf00e24f50000a003a00f1
:105250001e00900090007800f0ff2000808f50002a
:10526000050036001e00900090007800000022002b
:10527000808f500008003600b9cbbf00e24f5000cd
:10528000180032001e00900090007800205e800020
:10529000808f500013003a00905d80000000e00015
:1052a0000d0032001e009000404090008080fb0006
:1052b000d00220008080600000022000808f50001b
:1052c00003003a0010c0b300b6ebb700020037008d
:1052d0000040eb00b6ebb7000000eb0020079800a1
:1052e0001900370020002000200798001600370022
:1052f00040002000200798001300370030002000f5
:1053000020079800100037001e00900060409000b9
:105310008080fb00d00f2000008060000000e000d3
:1053200004003a001e009000100090000000e00011
:1053300003003200300020002007980002003700f0
:105340000000eb00200798002e0090000080fa007b
:10535000000006000600fa00404798000040eb00fd
:10536000104798000040eb00304798001f003700be
:105370003e409000004f78003e4090000004e00066
:1053800003003a0010c0b300004f7800050037005a
:105390003e409000e14f500002003a000040eb0018
:1053a000004f78001e40780016ff0700800078004c
:1053b0001e4078001fff0700204798002e409000f5
:1053c0000004e000060032001e4090000004e000ef
:1053d00003003a001e4078007d40400010479800ce
:1053e0003e4090000040e80030479800be409000ea
:1053f0004e40900080cf5000ddff39001e409000ed
:105400000080fb000080fa00000006000800fa009f
:105410000000eb00000f78000040eb00f9fe0700f1
:10542000100798001e00900010007800105e8800a1
:1054300010c0b300f3fe0700100798001e00900094
:1054400010007800205e8800a05d80006300b90035
:1054500080007800105e800080804000205e800028
:10546000808f500009003600215e8000905d800032
:1054700080804000105e8000808f50000300360066
:10548000d00120003007980019003700905d80009f
:105490000000e0000d00320010c0b300cbfe07009a
:1054a00041fd0700404798004e4090000004e00096
:1054b000040032004e4090000080fb00300798004e
:1054c0000b00370010c0b300afebb700a05d800049
:1054d0000000e000020032000040eb00bbfe0700cd
:1054e0001e00780081fe07000000eb0030079800e6
:1054f0003e0090000080fa00000006000c00fa0058
:105500000040eb0040479800660047002200200062
:105510000140200013fe07003e0090000000e00064
:1055200022003200c0cbbf000004e0001f003200a8
:1055300068004700220020000142200009fe070009
:105540004e0090000000e0001c0032004e00900071
:1055500001002000008fbe003e0090006103b800f3
:105560001e0078000602b8001e0078000780b9000f
:1055700005017800000141001e00900000b0b90054
:105580000001410082027800048fbe001e00be00b0
:10559000821a260003002000e4f60700008fbe00f8
:1055a0001e007800e05d8800040037000000eb007a
:1055b000400798000000eb00e05d88004e0090007e
:1055c0000000e00006003a00c0cbbf000004e0008d
:1055d00009003200f0012000500798002100370038
:1055e000c0cbbf000004e00003003a00f00120003f
:1055f000500798001b003700a05d80000000e0000d
:1056000009003200f0fc0700404798004e4090002f
:105610000004e000040032004e4090000080fb00d7
:10562000500798000f00370010c0b300aeebb70072
:10563000c6cbbf000004e00008003a00b6cbbf00b4
:105640000004e00005003200a05d80000000e000e2
:10565000020032000010200024fe07000000eb00d2
:10566000500798005e0090000080fa0000000600dd
:105670000200fa000040eb00004f7800f0ef2f002e
:1056800003fe07000040eb00b0ebb7000040eb006a
:10569000aeebb700a05d80000000e0000200320029
:1056a000cdfc0700004f78001e80fb000080fa0050
:1056b000000006000200fa000040eb00004f7800f6
:1056c0000040eb0033fe070030cf2f00f0fd070055
:1056d0000040eb00b6ebb7000040eb00c6ebb700b4
:1056e0000040eb00afebb70010c0b30029fe07008d
:1056f000b1fc0700004f78001e80fb000080fa001c
:10570000000006000c00fa00204798000040eb0063
:10571000104798002e4090000080fb004400de00ff
:10572000610060000004e00005003200b9cbbf005a
:10573000f1ceb30001406000b9ebb7000e003700b6
:10574000b9cbbf000080fb004400de0061006000b8
:105750000004e000080032002e4090000080fb00b2
:10576000ef006000b9cbbf000080fb006f0060005d
:10577000808f500047013c002e4090006f40600039
:1057800020479800b9cbbf00004f78001e4078003a
:105790004400dd00004f78002e4090001e4f400076
:1057a0001e407800c1ebb7009e80fb0031079800d7
:1057b000400420003e019000800f51002d00320077
:1057c00040042000be019000808f51000e003c007c
:1057d00020022000be009000808f50002800320080
:1057e000200220003e019000800f510001003c008b
:1057f0002300370040022000be019000808f51003e
:10580000170032001e00370020082000be00900064
:10581000808f50001a003200200820003e019000c6
:10582000800f510005003c0080042000be01900064
:10583000808f51000f003200110037004008200017
:10584000be009000808f50000a00320080082000c7
:105850003e019000800f5100060032000800370022
:105860004dfc0700104798001e4090000004e00027
:1058700003003a00b7cbbf00b6fe07001047980000
:105880001e4090000004e000af003a001e80fb00c4
:105890006101b900f0fe2f00f1ff2f00020140006e
:1058a0008381480042079800530798007007200042
:1058b000010020004e019000de019000800f510099
:1058c000818f59009d003e004e009000de00900048
:1058d0000060010093003700bb00370075003700ff
:1058e000930037009500370094003700930037008d
:1058f0008f00370091003700900037008f0037008d
:105900008e0037008d0037008c0037008b00370089
:105910008a003700ac00370082003700840037006f
:1059200067003700850037008400370083003700a8
:105930007f00370081003700800037007f0037008c
:105940007e0037007d0037007c0037007b00370089
:105950007a00370079003700780037007700370089
:105960007600370075003700740037007300370089
:105970007200370071003700700037006f00370089
:105980006e0037006d0037006c0037006b00370089
:105990006a003700600037005700370064003700a6
:1059a000600037006500370064003700630037008f
:1059b0004600370061003700600037005f003700a5
:1059c0005e0037005d0037005c0037005b00370089
:1059d0005a00370059003700580037005700370089
:1059e0005600370055003700540037005300370089
:1059f0005200370051003700500037004f00370089
:105a00004e0037004d0037004c0037004b00370088
:105a10004a00370049003700480037004700370088
:105a20004600370045003700440037004300370088
:105a30004200370041003700400037003f00370088
:105a40003e0037003d0037003c0037003b00370088
:105a50003a00370039003700380037003700370088
:105a60003600370035003700340037003300370088
:105a70003200370031003700300037002f00370088
:105a80002e0037002d0037002c0037002b00370088
:105a90002a0037001b0037001200370024003700af
:105aa0000d003700250037002400370023003700a1
:105ab0001c00370030c1b300104798004200370087
:105ac00052fe0700104798003f0037008bfe07008a
:105ad000104798003c003700e5fe0700104798008b
:105ae00039003700e2fe0700104798001e40900082
:105af0000004e00034003a00eefe07001047980072
:105b000031003700dafe0700104798001e40900071
:105b10000004e0002c003a00e6fe07001047980061
:105b200029003700e0cfb300104798002600370067
:105b300010c1b300104798002300370020c1b30004
:105b40001047980020003700b9cbbf000080fb0051
:105b500020079800ae009000e48f5000080032004b
:105b60002e019000e80f510004003200ae019000b9
:105b7000e28f51000c00320013003700bcfe07001a
:105b80001e409000fd4f500004003200c9fe070087
:105b900020c0b300b9ebb7000300370040c0b3002a
:105ba000b9ebb700080037001e409000f64f5000d8
:105bb00003003a0010c0b300b9ebb7000200370091
:105bc00020c0b300b9ebb7001e409000e14f400089
:105bd000300032002e4090008080fb00b9cbbf0027
:105be0000080fb006f006000808f500026003200b4
:105bf0001e4090000004e00006003200b9cbbf0058
:105c0000baebb700b9cbbf000044a000b9ebb700b6
:105c100017003700bbcbbf000004e00008003200d3
:105c2000bbcbbf00104798002e409000baebb700e6
:105c30002e4090000044a000204798000a00370042
:105c4000a1bb2000914078002e409000814f500071
:105c500003003e0000c0eb00104798000200370030
:105c60000040eb00baebb7002e409000b9ebb70054
:105c7000b9cbbf009e409000b0fc07000040eb0095
:105c8000bbebb70003003700b9cbbf008040eb008f
:105c9000aafc07000080fa00000006000000fa00dd
:105ca0000040eb00c0ebb7000040eb00baebb700e0
:105cb0000040eb00bbebb7000040eb00b0ebb700df
:105cc0000040eb00aeebb7000040eb00afebb700dd
:105cd0000040eb00c6ebb7000040eb00b6ebb700ae
:105ce00010c0b300b9ebb700b9cbbf008040eb00e8
:105cf00092fc07000080fa00000006000000fa0095
:105d000001fc07000080fa00000006000600fa000f
:105d100010002000000f78007101070082010700c9
:105d2000a40107003601070011fa0700d40007009c
:105d3000cdf707003e0407003ef5070015020700f7
:105d400001003700c482a80016fa07000000e00036
:105d5000fcff3200a5fa0700c482a900000037004a
:105d600016fa07001e00900002e22400110009004c
:105d70000200d8008000fd008040eb004147980001
:105d80000000e00002003a0010c0b3004047980055
:105d90001e0090000000e80010079800ce40900020
:105da0000104e000eeff3200f4f90700ecff3700d9
:105db0000200fa00000f78001e007800800040000a
:105dc000a0bd200000804000100078000080fa0094
:105dd000000006000200fa00000f78001e007800a4
:105de00080004000e0bd20000080400010007800ee
:105df0000080fa00000006002000fa00200798004a
:105e0000310798003e0090000000e00003003d00d4
:105e10000080eb00500f98000200370011002000b6
:105e2000510f98005e09900012079800ae00900094
:105e3000600220000088b900f80040006094200053
:105e40000080400010007800400f9800ce099000bc
:105e50000300e00003003d004e0890000000ea004f
:105e6000400f9800ce089000610f9800e0c7200016
:105e70006e099000800f510002003400e3c720003b
:105e8000630f98006e089000000f7800ae0090003d
:105e9000310f98003e019000220f9800ae0990004b
:105ea0000300e00003003d002e0890000000ea001f
:105eb000200f98009e007800710f98002e09900026
:105ec000120f98009e0990007e089000808f51006c
:105ed00002003400fe089000110f98001e00900090
:105ee0001e0990000090b90000017800be099000e2
:105ef000be09900083804100a0bd200000804000ca
:105f0000020878001e0090000000e00032003d0012
:105f10002e009000000f9800be009000e0c7200007
:105f200080804000e0c72000808f50000e003c00c1
:105f3000be009000e0c7200080804000e0c7200045
:105f40001e0050006007980071079800fe00900046
:105f50006e019000828f500005003d00ee01900020
:105f60007307980002003700e0c720007007980010
:105f70000e0990000e09900082004100e0bd200053
:105f800000804000fe019000030878002e00900081
:105f90000000e00008003a002e0090008000400061
:105fa000e0bd20000080400010007800c00e880096
:105fb000cde2a80030003700cda2a8002e0090004e
:105fc00080004000e0bd200000804000100078000c
:105fd000b00e8800280037002e009000500798006f
:105fe0003e0090009e0f500008003c00be00900054
:105ff000410798004e0190000200e00005003d00be
:106000008001eb0043079800020037001e00780073
:10601000400798005e0190005e0190008200410000
:10602000e0bd200000804000ce0190000308780011
:106030002e0090000000e00008003a002e009000c2
:1060400080004000e0bd200000804000100078008b
:10605000c00e8800cde2a90007003700cda2a9003c
:106060002e00900080004000e0bd20000080400035
:1060700010007800b00e88000080fa0000000600d2
:106080000200fa000000eb00000f78000d0037005e
:106090001e00780080004000a0bd200080804000ed
:1060a0000000eb00800878001e00780080004000af
:1060b000e0bd2000808040000000eb0080087800f8
:1060c0001e0fe800100020009e0f1000f0ff3400ab
:1060d000c1e1a9000000eb00000e8800c0c1bf00b4
:1060e0006f406000c0e1b700011c200091407800c3
:1060f00030cfb30000c06000c0e1b700f063200003
:10610000200e8800011c200091407800c0cfb30011
:1061100000c06000c0e1b7000000eb00100e880076
:106120000000eb00400e8800c901a800c921a800aa
:10613000c881a800c801a900c8a1a800c821a90059
:106140000000eb00b00e88000000eb00c00e8800dd
:106150000000eb00500e8800b11c20009140780038
:1061600000cfb30000c06000cbe1b700ca41a80077
:10617000310e80000000280000806000a10f200088
:1061800001007000300e8800c901a800c921a800d4
:10619000c881a800c801a900c8a1a800c821a900f9
:1061a0000000eb00b00e88000000eb00c00e88007d
:1061b0000000eb00500e8800b11c200091407800d8
:1061c00000cfb30000c06000cbe1b700ca41a80017
:1061d000310e80000000280000806000a10f200028
:1061e00001007000300e88000000eb00800e880077
:1061f0008b20a900c1e1a8000080fa000000060081
:106200000000fa00410a20009140780080cfb300de
:1062100000c060003040b300a4e0b700210b2000b4
:1062200091407800f0c8b30000c0600001c2b30024
:1062300001407000b2e0b700a10a20009140780050
:10624000f0c8b30000c0600001c5b3000140700099
:10625000aae0b700810a20009140780080cfb30007
:1062600000c060000024a000a8e0b700410a2000a0
:1062700091407800f0c8b30000c0600001c3b300d3
:1062800001407000a4e0b700610a2000914078004e
:10629000f0c8b30000c0600001c4b300014070004a
:1062a000a6e0b700910a200091407800f0c8b30042
:1062b00000c0600001c3b30001407000a9e0b70056
:1062c000a10a20009140780080cfb30000c0600098
:1062d0003040b300aae0b7000080fa0000000600da
:1062e0000000fa00000a2000303a880044c7bf00ce
:1062f000f043b20044e7b7004174200091407800b9
:1063000000ceb30000c060007041b30044e7b700a6
:1063100042c7bf000042b2000004e000fcff3200b0
:106320000080fa00000006000000fa000000eb0008
:10633000101688000000eb00501688000000eb00eb
:1063400090168800c082a900c102a800c8e2a80077
:10635000c942a800c962a800d062a900d082a800e2
:10636000d0c2a900d0e2a900d102a900d122a80080
:10637000c002a800c022a800c802a800c822a80025
:10638000c842a800c862a800d002a800d022a80075
:10639000d042a800c8a2a800c8c2a800c982a9000b
:1063a000c9a2a900c9c2a900c9e2a9000080fa00d7
:1063b000000006000000fa002174200062042000a2
:1063c00073052000824878008348780042c7a900fe
:1063d000216820009140780000ceb30000c060002a
:1063e0004041b30082e6b700816a20009140780006
:1063f00000ceb30000c060009041b300a8e6b70033
:10640000616d20009140780000ceb30000c06000b4
:106410009040b300d6e6b700716d2000914078003f
:1064200000ceb30000c060000034a000d7e6b70083
:10643000816d20009140780000ceb30000c0600064
:106440007040b300d8e6b700e168200091407800c2
:1064500000ceb30000c060005040b3008ee6b7002d
:10646000f16820009140780000ceb30000c06000c9
:106470006040b3008fe6b700217420006204200062
:1064800073052000824878008348780042c7a8003e
:106490000080fa00000006000600fa0020079800bd
:1064a0000000eb00100798000a0037000000eb0026
:1064b000000f7800010037001e0fe8007000200078
:1064c0009e0f1000fcff34001e0090000000e8004a
:1064d000100798009e0090002e009000808f5000c2
:1064e000f2ff35000080fa00000006000600fa0006
:1064f000200798000000eb00100798000a00370002
:106500000000eb00000f7800010037001e0fe800cc
:10651000f0f321009e0f1000fcff34001e009000dd
:106520000000e800100798009e0090002e009000e8
:10653000808f5000f2ff35000080fa000000060056
:106540000600fa00200798000000eb0010079800f2
:106550000a0037000000eb00000f78000100370050
:106560001e0fe800f03120009e0f1000fcff3400e9
:106570001e0090000000e800100798009e009000a8
:106580002e009000808f5000f2ff35000080fa004e
:10659000000006000000fa000000eb00205f880009
:1065a0000000eb00900888000000eb005008880015
:1065b0002111200091407800f0ccb30000c06000b1
:1065c0000044a00012e1b700409c20007008880041
:1065d0008500a90013e1a8009500a8000080fa003a
:1065e000000006003600f800809fbe00829fbe00bb
:1065f000849fbe00869fbe000000fa008500a900af
:10660000b3f50700205f80000000e800205f8800ed
:106610000080fa004f03be004f02be004f01be00d3
:106620004f00be003600f900004006000200fa00ec
:10663000000f78001e0078008000400020b9200084
:1066400000804000100078000080fa000000060082
:106650000200fa00000f78001e0078008000400061
:1066600060b9200000804000100078000080fa002f
:10667000000006000c00fa00100798001e009000b1
:1066800080004000a0b92000008040001000780089
:106690000000e0001d0032009e009000600220001b
:1066a0000088b900fc004000609420000080400099
:1066b0009000780050002500808f50000e003c00b4
:1066c0009e009000600220000088b900fc0040009d
:1066d000609420000080400010007800500798006f
:1066e0005e0090000000e00005003d008000eb002f
:1066f0005107980002003700520025005207980009
:106700005e009000000f78001c0037009e00900093
:10671000600220000088b900fc0040006094200066
:10672000008040009000780050002500808f5000cd
:106730000e003c009e009000600220000088b9001e
:10674000fc004000609420000080400010007800b1
:1067500040079800ce0090000100e00005003d00d9
:106760000001eb00420798000200370050002500ae
:1067700040079800ce009000010f78001e019000a5
:10678000320798009e009000600220000088b90047
:1067900080007800609420000080400010007800a5
:1067a0004400de00610060000004a2000004e0007c
:1067b0000a003a001e0090008000400020b920002e
:1067c00000804000100078009e0f500003003d0044
:1067d0001000200020079800020037008000eb0026
:1067e000210798003e0190003e0190008200410088
:1067f000a0b9200000804000ae00900001087800a1
:106800001e00900080004000a0b9200000804000e1
:10681000100078000080fa00000006000c00fa006a
:10682000100798001e00900080004000e0b9200092
:1068300000804000100078000000e0001d003200e1
:106840009e009000600220000088b900fa0040001d
:1068500060942000008040009000780050002500e7
:10686000808f50000e003c009e00900060022000cf
:106870000088b900fa0040006094200000804000c9
:1068800010007800500798005e0090000000e000c3
:1068900005003d008000eb00510798000200370022
:1068a00052002500520798005e009000000f78000b
:1068b0001c0037009e009000600220000088b90094
:1068c000fa004000609420000080400090007800b2
:1068d00050002500808f50000e003c009e0090006c
:1068e000600220000088b900fa0040006094200097
:1068f000008040001000780040079800ce00900013
:106900000100e00005003d000001eb004207980097
:10691000020037005000250040079800ce0090008c
:10692000010f78001e019000320798009e00900031
:10693000600220000088b900800078006094200088
:1069400000804000100078004400de00610060001c
:106950000004a2000004e0000a003a001e009000bb
:106960008000400020b92000008040001000780026
:106970009e0f5000030034001000200020079800f4
:10698000020037008000eb00210798003e019000d4
:106990003e01900082004100e0b9200000804000ec
:1069a000ae009000010878001e00900080004000ba
:1069b000e0b9200000804000100078000080fa005c
:1069c000000006000600fa00200798002e00900044
:1069d0008000400020b92000008040009000780036
:1069e000100021000088b9000000e800cf80de0020
:1069f000008fbe002e0090008000400060b9200093
:106a000000804000100078006101b9001e00be0047
:106a1000d6f10700008fbe002e00900080004000dd
:106a200060b9200000804000100078006101b900ca
:106a30001e00be00cdf107000081eb008081eb005d
:106a4000021f4000039748001e0078000080fa00f3
:106a5000000006000200fa00000f78001e00780017
:106a60008000400020ba2000008040001000780024
:106a70000080fa0000000600809fbe000200fa00bd
:106a8000505c80000000e000450032000400370048
:106a9000f05b8000105c8800000a8000f05b8800da
:106aa00042c1bf00684060000004e000f8ff3a0007
:106ab0000000eb00505c8800211420009140780019
:106ac00080cfb30000c0600042e1b7002114200075
:106ad0009140780080cfb30000c060000004a000a7
:106ae00042e1b7000000eb00705c88003000370026
:106af000705c80000000e00025003200f05b800048
:106b0000105c8800000a8000f05b88000000eb0049
:106b1000705c8800f15b8000105c8000808f50000a
:106b200005003400f05b8000115c80000100500023
:106b3000d05b88000600370061088000105c800090
:106b400080805000f05b800000804000d05b8800b7
:106b5000115c8000305c8000808f500005003d009b
:106b6000305c8000115c800001005000b05b880048
:106b70000b00370061088000105c800080805000ae
:106b8000305c800000804000b05b8800040037006b
:106b9000000a8000305c880010002000705c8800d3
:106ba00042c1bf00684060000004e000d0ff3a002e
:106bb000505d80000000e00004003400505d800063
:106bc0000000e900505d88001a003700b15b8000ca
:106bd000905c800000805000305d8800305d800057
:106be000000f78001e0078000000e00003003d0068
:106bf0009e0078008100ea00010f7800d0c12400d7
:106c00009e007800808f50000a003400305d8000c4
:106c10000000e00004003d00105d80000000e8007e
:106c2000105d880003003700105d80000000e9005f
:106c3000105d8800b05b8000905c8800d05b8000b5
:106c4000b05c88008420a9000080fa004f00be00dc
:106c500000400600809fbe000200fa00605c8000d9
:106c60000000e0004500320004003700005c8000b6
:106c7000205c8800200a8000005c880046c1bf00bc
:106c8000684060000004e000f8ff3a000000eb00fc
:106c9000605c8800611420009140780080cfb300d0
:106ca00000c0600046e1b700611420009140780008
:106cb00080cfb30000c060000004a00046e1b70030
:106cc0000000eb00805c880030003700805c8000b2
:106cd0000000e00025003200005c8000205c88009d
:106ce000200a8000005c88000000eb00805c8800c7
:106cf000015c8000205c8000808f50000500340023
:106d0000005c8000215c800001005000e05b880096
:106d10000600370061088000205c80008080500001
:106d2000005c800000804000e05b8800215c800007
:106d3000405c8000808f500005003d00405c80007a
:106d4000215c800001005000c05b88000b00370010
:106d500061088000205c800080805000405c8000e2
:106d600000804000c05b880004003700200a8000db
:106d7000405c880010002000805c880046c1bf0095
:106d8000684060000004e000d0ff3a00605d8000d1
:106d90000000e00004003400605d80000000e900b5
:106da000605d88001a003700c15b8000a05c800035
:106db00000805000405d8800405d8000000f78003a
:106dc0001e0078000000e00003003d009e007800f7
:106dd0008100ea00010f7800d0c124009e007800f5
:106de000808f50000a003400405d80000000e00009
:106df00004003d00205d80000000e800205d880068
:106e000003003700205d80000000e900205d88005d
:106e1000c05b8000a05c8800e05b8000c05c8800f4
:106e200084a0a9000080fa004f00be0000400600c8
:106e30000200fa000000eb00000f78005500370058
:106e40001e00780080004000a0b820008080400034
:106e500010002000800878001e00780080004000ac
:106e6000e0b82000808040000000eb00800878003f
:106e70001e00780080004000e0b7200080804000c5
:106e80000000eb00800878001e00780080004000c1
:106e900020b82000808040000000eb0080087800cf
:106ea0001e0078008000400060b820008080400014
:106eb0000000eb00800878001e0078008000400091
:106ec00060b72000808040000000eb008008780060
:106ed0001e00780080004000a0b7200080804000a5
:106ee0000000eb00800878001e0078008000400061
:106ef00020b92000808040000000eb00800878006e
:106f00001e0078008000400060b9200080804000b2
:106f10000000eb00800878001e0078008000400030
:106f2000a0b92000808040000000eb0080087800bd
:106f30001e00780080004000e0b920008080400002
:106f40000000eb00800878001e0078008000400000
:106f500060ba2000808040000000eb0080087800cc
:106f60001e0078008000400020ba20008080400091
:106f70000000eb00800878001e00780080004000d0
:106f8000a0ba200080804000a00020008008780087
:106f90001e0fe800100020009e0f1000a8ff340014
:106fa0000000eb00800888000000eb00300888003b
:106fb0000111200091407800f0ccb30000c06000c7
:106fc0000044a00010e1b700801a26006008880085
:106fd00011e1a800211420009140780080cfb30077
:106fe00000c0600042e1b70042e1a8002114200087
:106ff00091407800f0c9b30000c0600042e1b700e2
:10700000211420009140780080cfb30000c06000c0
:107010003040b30042e1b7008420a9009420a800ca
:10702000611420009140780080cfb30000c0600060
:1070300046e1b70046e1a8006114200091407800c5
:10704000f0c9b30000c0600046e1b7006114200041
:107050009140780080cfb30000c060003040b300a2
:1070600046e1b70084a0a90094a0a8000080fa001f
:047070000000060016
:020000040000fa
:0200000401f009
:04000800ffff0000f6
:020000040000fa
:0200000401f009
:04000c00fbff0000f6
:020000040000fa
:0200000401f009
:040010009cff000051
:020000040000fa
:0200000401f009
:040014007fff00006a
:020000040000fa
:0200000401f009
:04001800f8ff0000ed
:020000040000fa
:100008007238000072380000723800007238000040
:100018007238000072380000723800007238000030
:10002800b82300003c350000723800007238000028
:10003800723800002a36000072380000723800005a
:10004800f232000072380000723800007238000086
:1000580072380000921900007238000072380000ef
:1000680072380000723800007238000072380000e0
:1000780072380000723800007238000072380000d0
:1000880072380000723800007238000072380000c0
:1000980072380000723800007238000072380000b0
:1000a80072380000723800007238000072380000a0
:1000b8007238000072380000723800007238000090
:1000c8007238000072380000723800007238000080
:1000d8007238000072380000723800007238000070
:1000e8007238000072380000723800007238000060
:1000f8007238000072380000723800007238000050
:10010800723800007238000072380000723800003f
:10011800723800007238000072380000723800002f
:10012800723800007238000072380000723800001f
:10013800723800007238000072380000723800000f
:1001480072380000723800007238000072380000ff
:1001580072380000723800007238000072380000ef
:1001680072380000723800007238000072380000df
:1001780072380000723800007238000072380000cf
:1001880072380000723800007238000072380000bf
:1001980072380000723800007238000072380000af
:1001a800723800007238000072380000723800009f
:1001b800723800007238000072380000723800008f
:1001c800723800007238000072380000723800007f
:1001d800723800007238000072380000723800006f
:1001e800723800007238000072380000723800005f
:0801f8007238000072380000ab
:020000040000fa
:10020800723800007238000072380000723800003e
:10021800723800007238000072380000723800002e
:10022800b82300003c350000723800007238000026
:10023800723800002a360000723800007238000058
:10024800f232000072380000723800007238000084
:1002580072380000921900007238000072380000ed
:1002680072380000723800007238000072380000de
:1002780072380000723800007238000072380000ce
:1002880072380000723800007238000072380000be
:1002980072380000723800007238000072380000ae
:1002a800723800007238000072380000723800009e
:1002b800723800007238000072380000723800008e
:1002c800723800007238000072380000723800007e
:1002d800723800007238000072380000723800006e
:1002e800723800007238000072380000723800005e
:1002f800723800007238000072380000723800004e
:10030800723800007238000072380000723800003d
:10031800723800007238000072380000723800002d
:10032800723800007238000072380000723800001d
:10033800723800007238000072380000723800000d
:1003480072380000723800007238000072380000fd
:1003580072380000723800007238000072380000ed
:1003680072380000723800007238000072380000dd
:1003780072380000723800007238000072380000cd
:1003880072380000723800007238000072380000bd
:1003980072380000723800007238000072380000ad
:1003a800723800007238000072380000723800009d
:1003b800723800007238000072380000723800008d
:1003c800723800007238000072380000723800007d
:1003d800723800007238000072380000723800006d
:1003e800723800007238000072380000723800005d
:0803f8007238000072380000a9
:020000040000fa
:10707400000800003601000000000000640a00005f
:107084001201000000000000360900002e0100007b
:1070940000000000e20b00000200000000000000fd
:1070a400c80b00001200000000000000ae0b00003e
:1070b4001a00000000000000da0b000008000000c5
:1070c40000000000e40b00000200000000000000cb
:1070d400760b0000380000000000000000000000f3
:020000040000fa
:0470e4000000fe00aa
:00000001FF
