:020000040000fa
:080000000018040000000000dc
:020000040000fa
:103000000fbc20000eff20000e0188000000000011
:103010000c0007006095240001002000110007004b
:10302000000020000000e00002003200000002006a
:10303000000000006e460200000000000040da00c0
:103040000000fe004440a900000020000000e00055
:103050000300320000002000a00188004440a800c6
:103060000000060091018800800078000000eb005d
:1030700015003700e280400032a0b4009101ba0090
:10308000e280400032a0b4009102ba00e280400029
:1030900032a0b4000002eb00472bde00f507b200bf
:1030a000602ce10004003a000059eb008301e900c4
:1030b000fdff3e00040037006128e10001003200fe
:1030c0000082eb00040007001101ba000200e000da
:1030d000e8ff3a00000006003159ba008301e90018
:1030e0000c0032002159ba008301e90008003200c7
:1030f0000400e00003003a00e280400032a0b40087
:10310000f5ff370011d9ba008301e900faff3a0050
:103110008100e800e180400032a0b4000000060019
:103120006022b800060220000000d0008180d2009a
:103130000482d2008582d2000000a0000202520068
:1031400083825a00030031000202420083824a0057
:103150000000a1000603e900f3ff3a0000000600aa
:103160008001eb0002003700817178008301e800e4
:10317000828f5100fcff3a00000006006022b80078
:103180000001eb00c500dd00e68020000302200006
:10319000028040000000400060007b00000242000e
:1031a000e0824a000201e800830f5100f8ff3a0074
:1031b0004b29dd004520de0000007100c5a8de00bf
:1031c000000006006022b8000001eb00e190200042
:1031d000020041006080780000024200e0824a0064
:1031e0000201e800f00f5100f9ff3a004c29dd0020
:1031f0004420de0000007100c4a8de0000000600cc
:103200000001eb00524088006240880021e3a900e1
:1032100025c3bf0001ceb300014060005040b300a1
:1032200025e3b70010c0b30024e3b70023c3bf00f9
:103230007f40600023e3b70025e3a90020c3bf005f
:103240007f4060000046b30020e3b70023c3bf0007
:10325000c3cfb3000340600023e3b7002043a800be
:103260002143a8002223a8002063a9002343a8002b
:1032700022c3bf00fdc0500001406000c040b30049
:1032800022e3b7003003a8003023a8003043a80091
:103290003063a8002c63a900621988002c03a900e0
:1032a0002c23a9002c43a9002c83a8002ca3a80040
:1032b0002cc3a8002ce3a8002d03a80021c3bf0045
:1032c0000340600021e3b70021e3a80085a0a90026
:1032d00095a0a800000006003600f800809fbe0000
:1032e000829fbe00849fbe00869fbe00881f78001c
:1032f00085a0a9002243e200090035008018800063
:10330000104088009418800024408800a018800095
:1033100030408800b418800044408800080037001e
:103320000018800010408800141880002440880095
:103330002018800030408800341880004440880005
:103340005340800083804100000c200001004000b9
:10335000e280200044408000043079000008200012
:1033600001004000344080000430790010408000ab
:10337000803079000104b00024408000843079005e
:103380000300e800ff0f5000010034000000eb00d4
:1033900050408800084080000804e800e40f540012
:1033a000010036000004eb00084088000800e0003f
:1033b00018003a00d462a800d462a900ba0307003a
:1033c0006b020700020107002e29ec00a25d8000bd
:1033d0000201e800a25d8800605180000100240025
:1033e00081006000b05d8000808f500003003200db
:1033f000a85d88008849880005003700401f20002c
:10340000800f510002003600100020008049880023
:10341000b15d88004f0478004f03be004f02be002c
:103420004f01be004f00be003600f900004006000c
:1034300080027800620220000281b90000b0200002
:1034400000024100c0a2200000034100858142002b
:1034500080b62000630178000201e8008231780024
:1034600046009000400298005600900050029800dc
:10347000660090006002980076009000700298004c
:10348000061090000012980076089000700a9800cc
:103490000000eb00810f510059003500058142000a
:1034a0008000eb0080b6200001317800940090008d
:1034b0001601900010002000828f50001100320091
:1034c000028050000081eb00010033001200200058
:1034d000028050001002980001d02700810f500098
:1034e0000200340001007800040037000130280099
:1034f000810f500001003d0001007800100298008b
:103500000000eb00a400900026019000828f500084
:1035100011003200028050000081eb0001003300f6
:1035200012002000028050002002980001d02700e5
:10353000810f5000020034000100780004003700c1
:1035400001302800810f500001003d00010078008b
:10355000200298000000eb00b400900036019000bb
:10356000828f500011003200028050000081eb0079
:103570000100330012002000028050003002980049
:1035800001d02700810f50000200340001007800b4
:103590000400370001302800810f500001003d0079
:1035a00001007800300298000000eb0094109000b9
:1035b00016119000828f50001100320002805000de
:1035c0000081eb0001003300120020000280500057
:1035d0001012980001d02700810f50000200340023
:1035e000010078000400370001302800810f5000ee
:1035f00001003d0001007800101298000000eb006f
:103600000000060000037800620220000281b90079
:1036100000b0200080014100c0a220000001410054
:103620008602430080b62000650278000402e800ac
:103630008432780042009000c0019800520090004f
:10364000d001980062009000e001980062009000b4
:10365000f00198000210900080119800720990000b
:10366000f20998000001eb00810f5200290035009b
:10367000060143008000eb0080b620000131780095
:1036800013009000120020000000e000060032004d
:103690008080eb0001003500110020000100500087
:1036a000900198000001eb00230090000000e00072
:1036b000060032008080eb00010035001100200080
:1036c00001005000a00198000001eb0033009000c1
:1036d0000000e000060032008080eb0001003500b1
:1036e0001100200001005000b00198000001eb0023
:1036f000131090000000e000060032008080eb0014
:1037000001003500110020000100500090119800c8
:103710000001eb000200780000000600889fbe0058
:10372000800478006002200000c8b90002b02000c8
:10373000000141000004eb001801980028019800e6
:1037400038019800181198007801980048019800f5
:10375000580198006801980008119800c248dd00df
:10376000e0b62000008040006011b8000288be0072
:10377000a0b62000808040008288be004648dd0060
:1037800061b220000100400002042000880078009f
:1037900073fe07008980440020b72000883078003d
:1037a00040b720008830780080b62000883078004c
:1037b0004f04be00000006000000eb00305b8800f4
:1037c000d6ff070000000600a8150700000006004d
:1037d000889fbe003009e20001003200662bef0036
:1037e000105280000084fb00e9518000305b8000b3
:1037f000e20f50002600320005003c000000e0000f
:1038000009003200e10f50004c003a001900370067
:10381000e40f50002d00320038003500e60f500054
:1038200046003a003e0037006000b800e6ff07009f
:10383000e10f540002003a00385b88004100370075
:10384000e20f540004003a00385b88000000eb00ef
:10385000b2ff07003b003700e30f540039003a0085
:1038600060002000305b88000000eb00abff070029
:1038700034003700890078000000eb00d2ff070019
:10388000e10f54002f003200662bef002d003700af
:10389000e20f540002003200662bef0029003700cf
:1038a000a10f20000000eb00e1fe07000000e00097
:1038b0000200320040002000305b88008900780060
:1038c0000000eb00210007001e003700e20f54004b
:1038d0000300320030002000305b88001900370000
:1038e000a10f20000000eb00d1fe07008900780046
:1038f0000000eb001500070012003700a10f2000a8
:103900000000eb003fff07000000e0000100320074
:10391000662bef006000b800abff0700090037001e
:10392000e30f540002003200662bef000500370061
:103930006000b800a4ff0700020037006000b80074
:10394000a1ff07004f04be0000000600ea87470001
:10395000889fbe008a9fbe008c9fbe008e1f78008d
:1039600080067800810178006002200000e8b9003c
:1039700002b0200002064000c2a220000200400067
:10398000e0b79f0010089000d0b79f00830f500051
:1039900006003500efb0970021089000d3b79f00d4
:1039a000808f510001003d00d0b79f006fb197009c
:1039b0001201780062006100040032000000eb0098
:1039c0000302070000077800030037000000eb0047
:1039d0003102070000077800dfb197000e81510027
:1039e000d25788004c0090000090de009c009000b0
:1039f0000182b900f4b79f0085bf9f00c268dd0057
:103a0000a0ae2000008040000488be00a0b62000c8
:103a100080804000cf91de0031024100a182490048
:103a20008488be007c0090006103b900860f5200bc
:103a3000878f5a0007003c000000ea00cf80de00bc
:103a40000403be00800f5200818f5a0001003d0028
:103a50000003be00426cdd00a0b620000000440060
:103a60000688be002c029000cfa2de005c00900011
:103a70000601be000000e900030033008381d1008d
:103a80000281d300fbff37000415b80003a0b90082
:103a90000b0040000591b90082054000e0ae200017
:103aa000000044000a88be000d83460040b7200095
:103ab000e6047800e0b6200000044400456add001a
:103ac000090242000402420067b2200064817b00c8
:103ad000cf91de0038001100a88019000001be005f
:103ae00025b7200066807a000000570000b27b00f6
:103af0000eb37a00cf80de000203400083834800cb
:103b0000068cbe000901e800ff0f510001003400df
:103b10000001eb008d80460040b720008230780025
:103b20003c009000cf80de000602b80001b1b90071
:103b3000050141000780b900800241006c0090003f
:103b40000000e900030033008582d1000482d30025
:103b5000fbff3700c268dd0020af2000008040007e
:103b60000488be0060af2000008140000009eb0027
:103b70003211780000002100efb0970011006000c2
:103b8000040032001c109000cf80de000089be00cf
:103b90000c003700c269dd0060af20008081410069
:103ba0007c0890005fb19700000051000c1190005c
:103bb0000280de001c1190000280b900cf80de0080
:103bc0008089be007fb197008fb997000200450041
:103bd00083804d0004004000858048004269dd007c
:103be00063af20000301410032024000a28248007e
:103bf000e4578800f5578800e0578000f1578000af
:103c0000c27d200003002000820f5000838f5800e7
:103c1000020034000200be000b003700e0578000b5
:103c2000f157800002812f00f3ff2f00820f500018
:103c3000838f580002003d000200be0002003700e2
:103c4000e0578000f1578000e0578800f157880066
:103c5000e0578000f1578000800078000d00780068
:103c6000d9fe07004f0778004f06be004f05be0083
:103c70004f04be00af00b1000000060000000600c7
:103c8000015180000100ea00010070004f00de00d9
:103c90004500dd0000000600f15080000100ea0050
:103ca000010070004f00de004400dd00000006004f
:103cb000a0498000000006002050800031508000a4
:103cc0000000060000508000115080000000060037
:103cd000e0508000000006008001780002027800b9
:103ce0000000e000080032004308dd001100090078
:103cf0000380d8000020b8004d09dd004300de003d
:103d000000007100c308de0000000600881f780074
:103d10000004eb00d85088006000b800a050880074
:103d2000b1508800005088001150880078508800f9
:103d3000c85088008050880091508800205088002a
:103d40003150880068508800020420008800780004
:103d5000c093200002fd07000208200088007800c0
:103d6000c0972000fefc07004f047800000006000a
:103d7000d0498000f00f50001f003c003a09e200db
:103d80001d003400e05080000000e0001a003a00fe
:103d9000fafc0700fc29b40010002000f7fc070023
:103da000fe29b400d1498000e18f500012003a0092
:103db000e04f80004400de00b0498800f04f8000f2
:103dc0004400de00c0498800c0498000f80f500060
:103dd00003003e00e150880091498800060037004a
:103de0000000eb00e0508800e04f8800f04f8800b2
:103df00040062000d04988003a09ed008000eb0021
:103e000002003300d14980008100e900d1498800d7
:103e1000305b80000000e00002003200e50f50003f
:103e200004003a003209e2000200320040002000a3
:103e3000e0508800e0508000e40f50000e003a008f
:103e40000000eb00cdfc0700b04988001000200006
:103e5000cafc0700c0498800c0498000f80f500024
:103e600003003e0010002000e050880002003700f0
:103e700040002000e0508800e0508000e10f50003a
:103e80009e003a00bdfc070080007800c049800019
:103e90000001eb00808f500002003400c049800018
:103ea000008150006711b900f05d8000017d2000a5
:103eb00089ff0700a0498800305b80000000e00017
:103ec00002003200e50f500001003a003429ef00f3
:103ed000615080008100e8000001eb00700f2000bd
:103ee000808f500002003c00625080000201e80018
:103ef00062508800615080000100e0003d003a00ff
:103f0000180aec00ef0f50000200340001007800a6
:103f100001003700180aec00c0508800c350800030
:103f2000a0498000a24980000280b900c219dd00ca
:103f3000c2932000828141008089be00102aef00d8
:103f4000122aef000002eb00820278004220dd001e
:103f5000050040001001be0080508000915080009c
:103f60000200400083804800805088009150880003
:103f70000402e800f00f5200f4ff3a008050800085
:103f8000915080004c09dd004400de00000071000b
:103f9000c488de002050880031508800200ae200ea
:103fa00014003a0022508000335080000040280066
:103fb000717d2100800f5100818f59000d00340068
:103fc000a149800000e22400808f500004003c00e2
:103fd000a1498000001e2b00808f500005003d008d
:103fe00020002000e05088001000200000518800d0
:103ff00046ff0700715080008100e8000001eb00df
:10400000f0262000808f500002003c00725080009b
:104010000201e80072508800715080000100e00049
:1040200028003a001a0aec00ff0f5000020034008a
:1040300001007800010037001a0aec00d050880017
:10404000d3508000a0498000a24980000280b900be
:10405000c219dd00c2972000828141008089be0024
:10406000142aef00162aef000002eb00020378008a
:10407000050220004220dd00060040001001be00c5
:10408000a0508000b15080000200400083804800b2
:10409000a0508800b15088000402e800850f52004b
:1040a000f4ff3a00a0508000b15080004b09dd00c1
:1040b0004500de0000007100c588de000050880069
:1040c000115088001e0ae2000c003a0002508000e5
:1040d0001350800000292700e1442000800f510088
:1040e000818f59000500340030002000e050880026
:1040f00010002000f050880004ff070000000600b8
:10410000881f78000004eb00a8498800b84988009f
:10411000c8498800a00f2000d0498800e84f8800d7
:10412000f84f8800d85088006000b800a050880080
:10413000b1508800005088001150880078508800e5
:10414000f850880008518800c850880080508800c6
:1041500091508800205088003150880068508800b5
:10416000e85088000204200088007800c0932000f6
:10417000fbfb07000208200088007800c0972000a1
:10418000f7fb07004f04780000000600000006005f
:10419000c4c2bf004400de00610060000004a20051
:1041a0004400dd00412c2000914078000144a10032
:1041b00080c0700001007800c4e2b7000000060073
:1041c00000004000e1b92000608078000000060097
:1041d0004200dd0061b92000010240006011b8001a
:1041e0008000eb003400780000014100e0814900cc
:1041f0008100e800e28f5000faff3a008380d1008e
:104200000280d30000000600000178006380600097
:10421000e10f500004003a00c209de00e0fd230077
:10422000808f51000c0036002ceaab0005003200f4
:1042300002014100c208de0000b92000013178000f
:104240000800370002004100e1b9200001004000f1
:104250001008e800030037008200410000b9200088
:104260008330780000000600d442a800cc62a80089
:104270000000eb0003b920008000eb00e2b9200051
:1042800001b07900013079000080e800e40f5000af
:10429000fbff3a00000006000000400001b92000ca
:1042a0006080780000000600889fbe00c8a2a900b8
:1042b000cea2a800c8c2a900cec2a800d442a900bc
:1042c000cc62a900d402a900d422a90000000000f9
:1042d00000000000000000000000000000000000de
:1042e00000000000000000000000000000000000ce
:1042f00000000000000000000000000000000000be
:1043000000000000000000000000000000000000ad
:10431000000000000000000000000000000000009d
:10432000000000000000000000000000000000008d
:10433000000000000000000000000000000000007d
:10434000000000000000000000000000000000006d
:10435000000000000000000000000000000000005d
:10436000000000000000000000000000000000004d
:10437000000000000000000000000000000000003d
:10438000000000000000000000000000000000002d
:10439000000000000000000000000000000000001d
:1043a000000000000000000000000000000000000d
:1043b00000000000000000000000000000000000fd
:1043c00000000000000000000000000000000000ed
:1043d00000000000000000000000000000000000dd
:1043e00000000000000000000000000000000000cd
:1043f00000000000000000000000000000000000bd
:1044000000000000000000000000000000000000ac
:10441000000000000000000000000000000000009c
:10442000000000000000000000000000000000008c
:10443000000000000000000000000000d402a800fe
:10444000d422a800cca2a800ccc2a8000000000082
:10445000000000000000000000000000000000005c
:10446000000000000000000000000000000000004c
:10447000000000000000000000000000000000003c
:10448000000000000000000000000000000000002c
:10449000000000000000000000000000000000001c
:1044a000000000000000000000000000000000000c
:1044b00000000000000000000000000000000000fc
:1044c00000000000000000000000000000000000ec
:1044d00000000000000000000000000000000000dc
:1044e00000000000000000000000000000000000cc
:1044f00000000000000000000000000000000000bc
:10450000000000000000000000000000d402a9002c
:10451000d422a900000000000000000000000000fc
:10452000000000000000000000000000000000008b
:10453000000000000000000000000000000000007b
:10454000000000000000000000000000000000006b
:10455000000000000000000000000000000000005b
:10456000000000000000000000000000000000004b
:10457000000000000000000000000000000000003b
:10458000000000000000000000000000000000002b
:10459000000000000000000000000000000000001b
:1045a000000000000000000000000000000000000b
:1045b00000000000000000000000000000000000fb
:1045c00000000000000000000000000000000000eb
:1045d00000000000d402a800d422a800cca2a900a8
:1045e000ccc2a90000000000000000000000000094
:1045f00000000000000000000000000000000000bb
:1046000000000000000000000000000000000000aa
:10461000000000000000000000000000000000009a
:10462000000000000000000000000000000000008a
:10463000000000000000000000000000000000007a
:10464000000000000000000000000000000000006a
:10465000000000000000000000000000000000005a
:10466000000000000000000000000000000000004a
:10467000000000000000000000000000000000003a
:10468000000000000000000000000000000000002a
:10469000000000000000000000000000000000001a
:1046a00000000000d402a900d422a90000000000ec
:1046b00000000000000000000000000000000000fa
:1046c00000000000000000000000000000000000ea
:1046d00000000000000000000000000000000000da
:1046e00000000000000000000000000000000000ca
:1046f00000000000000000000000000000000000ba
:1047000000000000000000000000000000000000a9
:104710000000000000000000000000000000000099
:104720000000000000000000000000000000000089
:104730000000000000000000000000000000000079
:104740000000000000000000000000000000000069
:104750000000000000000000000000000000000059
:10476000000000000000000000000000d402a800cb
:10477000d422a800cca2a800ccc2a800000000004f
:104780000000000000000000000000000000000029
:104790000000000000000000000000000000000019
:1047a0000000000000000000000000000000000009
:1047b00000000000000000000000000000000000f9
:1047c00000000000000000000000000000000000e9
:1047d00000000000000000000000000000000000d9
:1047e00000000000000000000000000000000000c9
:1047f00000000000000000000000000000000000b9
:1048000000000000000000000000000000000000a8
:104810000000000000000000000000000000000098
:104820000000000000000000000000000000000088
:10483000000000000000000000000000d402a900f9
:10484000d422a900000000000000000000000000c9
:104850000000000000000000000000000000000058
:104860000000000000000000000000000000000048
:104870000000000000000000000000000000000038
:104880000000000000000000000000000000000028
:104890000000000000000000000000000000000018
:1048a0000000000000000000000000000000000008
:1048b00000000000000000000000000000000000f8
:1048c00000000000000000000000000000000000e8
:1048d00000000000000000000000000000000000d8
:1048e00000000000000000000000000000000000c8
:1048f00000000000000000000000000000000000b8
:1049000000000000d402a800d422a800cca2a90074
:10491000ccc2a90000000000000000000000000060
:104920000000000000000000000000000000000087
:104930000000000000000000000000000000000077
:104940000000000000000000000000000000000067
:104950000000000000000000000000000000000057
:104960000000000000000000000000000000000047
:104970000000000000000000000000000000000037
:104980000000000000000000000000000000000027
:104990000000000000000000000000000000000017
:1049a0000000000000000000000000000000000007
:1049b00000000000000000000000000000000000f7
:1049c00000000000000000000000000000000000e7
:1049d00000000000d402a900d422a90000000000b9
:1049e00000000000000000000000000000000000c7
:1049f00000000000000000000000000000000000b7
:104a000000000000000000000000000000000000a6
:104a10000000000000000000000000000000000096
:104a20000000000000000000000000000000000086
:104a30000000000000000000000000000000000076
:104a40000000000000000000000000000000000066
:104a50000000000000000000000000000000000056
:104a60000000000000000000000000000000000046
:104a70000000000000000000000000000000000036
:104a80000000000000000000000000000000000026
:104a9000000000000000000000000000d402a80098
:104aa000d422a800cca2a800ccc2a800000000001c
:104ab00000000000000000000000000000000000f6
:104ac00000000000000000000000000000000000e6
:104ad00000000000000000000000000000000000d6
:104ae00000000000000000000000000000000000c6
:104af00000000000000000000000000000000000b6
:104b000000000000000000000000000000000000a5
:104b10000000000000000000000000000000000095
:104b20000000000000000000000000000000000085
:104b30000000000000000000000000000000000075
:104b40000000000000000000000000000000000065
:104b50000000000000000000000000000000000055
:104b6000000000000000000000000000d402a900c6
:104b7000d422a90000000000000000000000000096
:104b80000000000000000000000000000000000025
:104b90000000000000000000000000000000000015
:104ba0000000000000000000000000000000000005
:104bb00000000000000000000000000000000000f5
:104bc00000000000000000000000000000000000e5
:104bd00000000000000000000000000000000000d5
:104be00000000000000000000000000000000000c5
:104bf00000000000000000000000000000000000b5
:104c000000000000000000000000000000000000a4
:104c10000000000000000000000000000000000094
:104c20000000000000000000000000000000000084
:104c300000000000d402a800d422a800cca2a90041
:104c4000ccc2a9000000000000000000000000002d
:104c50000000000000000000000000000000000054
:104c60000000000000000000000000000000000044
:104c70000000000000000000000000000000000034
:104c80000000000000000000000000000000000024
:104c90000000000000000000000000000000000014
:104ca0000000000000000000000000000000000004
:104cb00000000000000000000000000000000000f4
:104cc00000000000000000000000000000000000e4
:104cd00000000000000000000000000000000000d4
:104ce00000000000000000000000000000000000c4
:104cf00000000000000000000000000000000000b4
:104d000000000000d402a900d422a9000000000085
:104d10000000000000000000000000000000000093
:104d20000000000000000000000000000000000083
:104d30000000000000000000000000000000000073
:104d40000000000000000000000000000000000063
:104d50000000000000000000000000000000000053
:104d60000000000000000000000000000000000043
:104d70000000000000000000000000000000000033
:104d80000000000000000000000000000000000023
:104d90000000000000000000000000000000000013
:104da0000000000000000000000000000000000003
:104db00000000000000000000000000000000000f3
:104dc000000000000000000000000000d402a80065
:104dd000d422a800cca2a800ccc2a80000000000e9
:104de00000000000000000000000000000000000c3
:104df00000000000000000000000000000000000b3
:104e000000000000000000000000000000000000a2
:104e10000000000000000000000000000000000092
:104e20000000000000000000000000000000000082
:104e30000000000000000000000000000000000072
:104e40000000000000000000000000000000000062
:104e50000000000000000000000000000000000052
:104e60000000000000000000000000000000000042
:104e70000000000000000000000000000000000032
:104e80000000000000000000000000000000000022
:104e9000000000000000000000000000d402a90093
:104ea000d422a90000000000000000000000000063
:104eb00000000000000000000000000000000000f2
:104ec00000000000000000000000000000000000e2
:104ed00000000000000000000000000000000000d2
:104ee00000000000000000000000000000000000c2
:104ef00000000000000000000000000000000000b2
:104f000000000000000000000000000000000000a1
:104f10000000000000000000000000000000000091
:104f20000000000000000000000000000000000081
:104f30000000000000000000000000000000000071
:104f40000000000000000000000000000000000061
:104f50000000000000000000000000000000000051
:104f600000000000d402a800d422a800cca2a9000e
:104f7000ccc2a900000000000000000000000000fa
:104f80000000000000000000000000000000000021
:104f90000000000000000000000000000000000011
:104fa0000000000000000000000000000000000001
:104fb00000000000000000000000000000000000f1
:104fc00000000000000000000000000000000000e1
:104fd00000000000000000000000000000000000d1
:104fe00000000000000000000000000000000000c1
:104ff00000000000000000000000000000000000b1
:1050000000000000000000000000000000000000a0
:105010000000000000000000000000000000000090
:105020000000000000000000000000000000000080
:1050300000000000d402a900d422a9000000000052
:105040000000000000000000000000000000000060
:105050000000000000000000000000000000000050
:105060000000000000000000000000000000000040
:105070000000000000000000000000000000000030
:105080000000000000000000000000000000000020
:105090000000000000000000000000000000000010
:1050a0000000000000000000000000000000000000
:1050b00000000000000000000000000000000000f0
:1050c00000000000000000000000000000000000e0
:1050d00000000000000000000000000000000000d0
:1050e00000000000000000000000000000000000c0
:1050f000000000000000000000000000d0002000c0
:1051000047100700d402a800d422a800cca2a8000f
:10511000ccc2a80000000000000000000000000059
:10512000000000000000000000000000000000007f
:10513000000000000000000000000000000000006f
:10514000000000000000000000000000000000005f
:10515000000000000000000000000000000000004f
:10516000000000000000000000000000000000003f
:10517000000000000000000000000000000000002f
:10518000000000000000000000000000000000001f
:10519000000000000000000000000000000000000f
:1051a00000000000000000000000000000000000ff
:1051b00000000000000000000000000000000000ef
:1051c00000000000000000000000000000000000df
:1051d00000000000d402a900d422a90000000000b1
:1051e00000000000000000000000000000000000bf
:1051f00000000000000000000000000000000000af
:10520000000000000000000000000000000000009e
:10521000000000000000000000000000000000008e
:10522000000000000000000000000000000000007e
:10523000000000000000000000000000000000006e
:10524000000000000000000000000000000000005e
:10525000000000000000000000000000000000004e
:10526000000000000000000000000000000000003e
:10527000000000000000000000000000000000002e
:10528000000000000000000000000000000000001e
:10529000000000000000000000000000d402a80090
:1052a000d422a800cca2a800ccc2a8000000000014
:1052b00000000000000000000000000000000000ee
:1052c00000000000000000000000000000000000de
:1052d00000000000000000000000000000000000ce
:1052e00000000000000000000000000000000000be
:1052f00000000000000000000000000000000000ae
:10530000000000000000000000000000000000009d
:10531000000000000000000000000000000000008d
:10532000000000000000000000000000000000007d
:10533000000000000000000000000000000000006d
:10534000000000000000000000000000000000005d
:10535000000000000000000000000000000000004d
:10536000000000000000000000000000d402a900be
:10537000d422a9000000000000000000000000008e
:10538000000000000000000000000000000000001d
:10539000000000000000000000000000000000000d
:1053a00000000000000000000000000000000000fd
:1053b00000000000000000000000000000000000ed
:1053c00000000000000000000000000000000000dd
:1053d00000000000000000000000000000000000cd
:1053e00000000000000000000000000000000000bd
:1053f00000000000000000000000000000000000ad
:10540000000000000000000000000000000000009c
:10541000000000000000000000000000000000008c
:10542000000000000000000000000000000000007c
:1054300000000000d402a800d422a800cca2a8003a
:10544000ccc2a80000000000000000000000000026
:10545000000000000000000000000000000000004c
:10546000000000000000000000000000000000003c
:10547000000000000000000000000000000000002c
:10548000000000000000000000000000000000001c
:10549000000000000000000000000000000000000c
:1054a00000000000000000000000000000000000fc
:1054b00000000000000000000000000000000000ec
:1054c00000000000000000000000000000000000dc
:1054d00000000000000000000000000000000000cc
:1054e00000000000000000000000000000000000bc
:1054f00000000000000000000000000000000000ac
:1055000000000000d402a900d422a900000000007d
:10551000000000000000000000000000000000008b
:10552000000000000000000000000000000000007b
:10553000000000000000000000000000000000006b
:10554000000000000000000000000000000000005b
:10555000000000000000000000000000000000004b
:10556000000000000000000000000000000000003b
:10557000000000000000000000000000000000002b
:10558000000000000000000000000000000000001b
:10559000000000000000000000000000000000000b
:1055a00000000000000000000000000000000000fb
:1055b00000000000000000000000000000000000eb
:1055c000000000000000000000000000d402a8005d
:1055d000d422a800cca2a800ccc2a80000000000e1
:1055e00000000000000000000000000000000000bb
:1055f00000000000000000000000000000000000ab
:10560000000000000000000000000000000000009a
:10561000000000000000000000000000000000008a
:10562000000000000000000000000000000000007a
:10563000000000000000000000000000000000006a
:10564000000000000000000000000000000000005a
:10565000000000000000000000000000000000004a
:10566000000000000000000000000000000000003a
:10567000000000000000000000000000000000002a
:10568000000000000000000000000000000000001a
:10569000000000000000000000000000d402a9008b
:1056a000d422a9000000000000000000000000005b
:1056b00000000000000000000000000000000000ea
:1056c00000000000000000000000000000000000da
:1056d00000000000000000000000000000000000ca
:1056e00000000000000000000000000000000000ba
:1056f00000000000000000000000000000000000aa
:105700000000000000000000000000000000000099
:105710000000000000000000000000000000000089
:105720000000000000000000000000000000000079
:105730000000000000000000000000000000000069
:105740000000000000000000000000000000000059
:105750000000000000000000000000000000000049
:1057600000000000d402a800d422a800cca2a80007
:10577000ccc2a800000000000000000000000000f3
:105780000000000000000000000000000000000019
:105790000000000000000000000000000000000009
:1057a00000000000000000000000000000000000f9
:1057b00000000000000000000000000000000000e9
:1057c00000000000000000000000000000000000d9
:1057d00000000000000000000000000000000000c9
:1057e00000000000000000000000000000000000b9
:1057f00000000000000000000000000000000000a9
:105800000000000000000000000000000000000098
:105810000000000000000000000000000000000088
:105820000000000000000000000000000000000078
:1058300000000000d402a900d422a900000000004a
:105840000000000000000000000000000000000058
:105850000000000000000000000000000000000048
:105860000000000000000000000000000000000038
:105870000000000000000000000000000000000028
:105880000000000000000000000000000000000018
:105890000000000000000000000000000000000008
:1058a00000000000000000000000000000000000f8
:1058b00000000000000000000000000000000000e8
:1058c00000000000000000000000000000000000d8
:1058d00000000000000000000000000000000000c8
:1058e00000000000000000000000000000000000b8
:1058f000000000000000000000000000d402a8002a
:10590000d422a800cca2a800ccc2a80000000000ad
:105910000000000000000000000000000000000087
:105920000000000000000000000000000000000077
:105930000000000000000000000000000000000067
:105940000000000000000000000000000000000057
:105950000000000000000000000000000000000047
:105960000000000000000000000000000000000037
:105970000000000000000000000000000000000027
:105980000000000000000000000000000000000017
:105990000000000000000000000000000000000007
:1059a00000000000000000000000000000000000f7
:1059b00000000000000000000000000000000000e7
:1059c000000000000000000000000000d402a90058
:1059d000d422a90000000000000000000000000028
:1059e00000000000000000000000000000000000b7
:1059f00000000000000000000000000000000000a7
:105a00000000000000000000000000000000000096
:105a10000000000000000000000000000000000086
:105a20000000000000000000000000000000000076
:105a30000000000000000000000000000000000066
:105a40000000000000000000000000000000000056
:105a50000000000000000000000000000000000046
:105a60000000000000000000000000000000000036
:105a70000000000000000000000000000000000026
:105a80000000000000000000000000000000000016
:105a900000000000d402a800d422a800cca2a800d4
:105aa000ccc2a800000000000000000000000000c0
:105ab00000000000000000000000000000000000e6
:105ac00000000000000000000000000000000000d6
:105ad00000000000000000000000000000000000c6
:105ae00000000000000000000000000000000000b6
:105af00000000000000000000000000000000000a6
:105b00000000000000000000000000000000000095
:105b10000000000000000000000000000000000085
:105b20000000000000000000000000000000000075
:105b30000000000000000000000000000000000065
:105b40000000000000000000000000000000000055
:105b50000000000000000000000000000000000045
:105b600000000000d402a900d422a9000000000017
:105b70000000000000000000000000000000000025
:105b80000000000000000000000000000000000015
:105b90000000000000000000000000000000000005
:105ba00000000000000000000000000000000000f5
:105bb00000000000000000000000000000000000e5
:105bc00000000000000000000000000000000000d5
:105bd00000000000000000000000000000000000c5
:105be00000000000000000000000000000000000b5
:105bf00000000000000000000000000000000000a5
:105c00000000000000000000000000000000000094
:105c10000000000000000000000000000000000084
:105c2000000000000000000000000000d402a800f6
:105c3000d422a800cca2a800ccc2a800000000007a
:105c40000000000000000000000000000000000054
:105c50000000000000000000000000000000000044
:105c60000000000000000000000000000000000034
:105c70000000000000000000000000000000000024
:105c80000000000000000000000000000000000014
:105c90000000000000000000000000000000000004
:105ca00000000000000000000000000000000000f4
:105cb00000000000000000000000000000000000e4
:105cc00000000000000000000000000000000000d4
:105cd00000000000000000000000000000000000c4
:105ce00000000000000000000000000000000000b4
:105cf000000000000000000000000000d402a90025
:105d0000d422a900000000000000000000000000f4
:105d10000000000000000000000000000000000083
:105d20000000000000000000000000000000000073
:105d30000000000000000000000000000000000063
:105d40000000000000000000000000000000000053
:105d50000000000000000000000000000000000043
:105d60000000000000000000000000000000000033
:105d70000000000000000000000000000000000023
:105d80000000000000000000000000000000000013
:105d90000000000000000000000000000000000003
:105da00000000000000000000000000000000000f3
:105db00000000000000000000000000000000000e3
:105dc0000000000080002000150d0700c8a2a800f8
:105dd000cea2a900c8c2a800cec2a900800020009f
:105de0000f0d0700d402a800d422a8000000000074
:105df00000000000000000000000000000000000a3
:105e00000000000000000000000000000000000092
:105e10000000000000000000000000000000000082
:105e20000000000000000000000000000000000072
:105e30000000000000000000000000000000000062
:105e40000000000000000000000000000000000052
:105e50000000000000000000000000000000000042
:105e60000000000000000000000000000000000032
:105e70000000000000000000000000000000000022
:105e80000000000000000000000000000000000012
:105e90000000000000000000000000000000000002
:105ea000000000000000000000000000d402a90073
:105eb000d422a900cac2bf004500de006101600013
:105ec000cac2bf004600de00e10060000000000022
:105ed00000000000000000000000000000000000c2
:105ee00000000000000000000000000000000000b2
:105ef00000000000000000000000000000000000a2
:105f00000000000000000000000000000000000091
:105f10000000000000000000000000000000000081
:105f20000000000000000000000000000000000071
:105f30000000000000000000000000000000000061
:105f40000000000000000000000000000000000051
:105f50000000000000000000000000000000000041
:105f60000000000000000000000000000000000031
:105f70000000000000000000000000000000000021
:105f80000000000000000000000000000280fb0094
:105f9000000140000180fb0080014000d402a80005
:105fa000d422a80000000000000000000000000053
:105fb00000000000000000000000000000000000e1
:105fc00000000000000000000000000000000000d1
:105fd00000000000000000000000000000000000c1
:105fe00000000000000000000000000000000000b1
:105ff00000000000000000000000000000000000a1
:106000000000000000000000000000000000000090
:106010000000000000000000000000000000000080
:106020000000000000000000000000000000000070
:106030000000000000000000000000000000000060
:106040000000000000000000000000000000000050
:106050000000000000000000000000000000000040
:1060600000000000d402a900d422a900cac2bf00c7
:106070004500de006100600080007100cac2bf0000
:106080004600de006100600000807100000000003a
:106090000000000000000000000000000000000000
:1060a00000000000000000000000000000000000f0
:1060b00000000000000000000000000000000000e0
:1060c00000000000000000000000000000000000d0
:1060d00000000000000000000000000000000000c0
:1060e00000000000000000000000000000000000b0
:1060f00000000000000000000000000000000000a0
:10610000000000000000000000000000000000008f
:10611000000000000000000000000000000000007f
:10612000000000000000000000000000000000006f
:10613000000000000000000000000000000000005f
:10614000000000000000000000000000818040000e
:1061500000014000d402a800d422a80000000000e2
:10616000000000000000000000000000000000002f
:10617000000000000000000000000000000000001f
:10618000000000000000000000000000000000000f
:1061900000000000000000000000000000000000ff
:1061a00000000000000000000000000000000000ef
:1061b00000000000000000000000000000000000df
:1061c00000000000000000000000000000000000cf
:1061d00000000000000000000000000000000000bf
:1061e00000000000000000000000000000000000af
:1061f000000000000000000000000000000000009f
:10620000000000000000000000000000000000008e
:10621000000000000000000000000000d402a900ff
:10622000d422a900cac2bf004500de0061006000a0
:1062300080807000cac2bf004600de0061006000be
:1062400000007100000000000000000000000000dd
:10625000000000000000000000000000000000003e
:10626000000000000000000000000000000000002e
:10627000000000000000000000000000000000001e
:10628000000000000000000000000000000000000e
:1062900000000000000000000000000000000000fe
:1062a00000000000000000000000000000000000ee
:1062b00000000000000000000000000000000000de
:1062c00000000000000000000000000000000000ce
:1062d00000000000000000000000000000000000be
:1062e00000000000000000000000000000000000ae
:1062f000000000000000000000000000000000009e
:10630000000000008180400000014000d402a8008d
:10631000d422a800000000000000000000000000df
:10632000000000000000000000000000000000006d
:10633000000000000000000000000000000000005d
:10634000000000000000000000000000000000004d
:10635000000000000000000000000000000000003d
:10636000000000000000000000000000000000002d
:10637000000000000000000000000000000000001d
:10638000000000000000000000000000000000000d
:1063900000000000000000000000000000000000fd
:1063a00000000000000000000000000000000000ed
:1063b00000000000000000000000000000000000dd
:1063c00000000000000000000000000000000000cd
:1063d00000000000d402a900d422a900cac2bf0054
:1063e0004500de006100600080807000cac2bf000e
:1063f0004600de0061006000000071000000000047
:10640000000000000000000000000000000000008c
:10641000000000000000000000000000000000007c
:10642000000000000000000000000000000000006c
:10643000000000000000000000000000000000005c
:10644000000000000000000000000000000000004c
:10645000000000000000000000000000000000003c
:10646000000000000000000000000000000000002c
:10647000000000000000000000000000000000001c
:10648000000000000000000000000000000000000c
:1064900000000000000000000000000000000000fc
:1064a00000000000000000000000000000000000ec
:1064b000000000000000000000000000818040009b
:1064c00000014000d402a800d422a800000000006f
:1064d00000000000000000000000000000000000bc
:1064e00000000000000000000000000000000000ac
:1064f000000000000000000000000000000000009c
:10650000000000000000000000000000000000008b
:10651000000000000000000000000000000000007b
:10652000000000000000000000000000000000006b
:10653000000000000000000000000000000000005b
:10654000000000000000000000000000000000004b
:10655000000000000000000000000000000000003b
:10656000000000000000000000000000000000002b
:10657000000000000000000000000000000000001b
:10658000000000000000000000000000d402a9008c
:10659000d422a900cac2bf004500de00610060002d
:1065a00080807000cac2bf004600de00610060004b
:1065b000000071000000000000000000000000006a
:1065c00000000000000000000000000000000000cb
:1065d00000000000000000000000000000000000bb
:1065e00000000000000000000000000000000000ab
:1065f000000000000000000000000000000000009b
:10660000000000000000000000000000000000008a
:10661000000000000000000000000000000000007a
:10662000000000000000000000000000000000006a
:10663000000000000000000000000000000000005a
:10664000000000000000000000000000000000004a
:10665000000000000000000000000000000000003a
:10666000000000000000000000000000000000002a
:10667000000000008180400000014000d402a8001a
:10668000d422a8000000000000000000000000006c
:1066900000000000000000000000000000000000fa
:1066a00000000000000000000000000000000000ea
:1066b00000000000000000000000000000000000da
:1066c00000000000000000000000000000000000ca
:1066d00000000000000000000000000000000000ba
:1066e00000000000000000000000000000000000aa
:1066f000000000000000000000000000000000009a
:106700000000000000000000000000000000000089
:106710000000000000000000000000000000000079
:106720000000000000000000000000000000000069
:106730000000000000000000000000000000000059
:1067400000000000d402a900d422a900cac2bf00e0
:106750004500de006100600080807000cac2bf009a
:106760004600de00610060000000710000000000d3
:106770000000000000000000000000000000000019
:106780000000000000000000000000000000000009
:1067900000000000000000000000000000000000f9
:1067a00000000000000000000000000000000000e9
:1067b00000000000000000000000000000000000d9
:1067c00000000000000000000000000000000000c9
:1067d00000000000000000000000000000000000b9
:1067e00000000000000000000000000000000000a9
:1067f0000000000000000000000000000000000099
:106800000000000000000000000000000000000088
:106810000000000000000000000000000000000078
:106820000000000000000000000000008180400027
:1068300000014000d402a800d422a80000000000fb
:106840000000000000000000000000000000000048
:106850000000000000000000000000000000000038
:106860000000000000000000000000000000000028
:106870000000000000000000000000000000000018
:106880000000000000000000000000000000000008
:1068900000000000000000000000000000000000f8
:1068a00000000000000000000000000000000000e8
:1068b00000000000000000000000000000000000d8
:1068c00000000000000000000000000000000000c8
:1068d00000000000000000000000000000000000b8
:1068e00000000000000000000000000000000000a8
:1068f000000000000000000000000000d402a90019
:10690000d422a900cac2bf004500de0061006000b9
:1069100080807000cac2bf004600de0061006000d7
:1069200000007100000000000000000000000000f6
:106930000000000000000000000000000000000057
:106940000000000000000000000000000000000047
:106950000000000000000000000000000000000037
:106960000000000000000000000000000000000027
:106970000000000000000000000000000000000017
:106980000000000000000000000000000000000007
:1069900000000000000000000000000000000000f7
:1069a00000000000000000000000000000000000e7
:1069b00000000000000000000000000000000000d7
:1069c00000000000000000000000000000000000c7
:1069d00000000000000000000000000000000000b7
:1069e000000000008180400000014000d402a800a7
:1069f000d422a800000000000000000000000000f9
:106a00000000000000000000000000000000000086
:106a10000000000000000000000000000000000076
:106a20000000000000000000000000000000000066
:106a30000000000000000000000000000000000056
:106a40000000000000000000000000000000000046
:106a50000000000000000000000000000000000036
:106a60000000000000000000000000000000000026
:106a70000000000000000000000000000000000016
:106a80000000000000000000000000000000000006
:106a900000000000000000000000000000000000f6
:106aa00000000000000000000000000000000000e6
:106ab00000000000d402a900d422a900cac2bf006d
:106ac0004500de006100600080807000cac2bf0027
:106ad0004600de0061006000000071000000000060
:106ae00000000000000000000000000000000000a6
:106af0000000000000000000000000000000000096
:106b00000000000000000000000000000000000085
:106b10000000000000000000000000000000000075
:106b20000000000000000000000000000000000065
:106b30000000000000000000000000000000000055
:106b40000000000000000000000000000000000045
:106b50000000000000000000000000000000000035
:106b60000000000000000000000000000000000025
:106b70000000000000000000000000000000000015
:106b80000000000000000000000000000000000005
:106b90000000000000000000000000000184400030
:106ba00080044000d00020009d090700d402a80006
:106bb000d422a80000000000000000000000000037
:106bc00000000000000000000000000000000000c5
:106bd00000000000000000000000000000000000b5
:106be00000000000000000000000000000000000a5
:106bf0000000000000000000000000000000000095
:106c00000000000000000000000000000000000084
:106c10000000000000000000000000000000000074
:106c20000000000000000000000000000000000064
:106c30000000000000000000000000000000000054
:106c40000000000000000000000000000000000044
:106c50000000000000000000000000000000000034
:106c60000000000000000000000000000000000024
:106c700000000000d402a900d422a900cac2bf00ab
:106c80004500de006100600080007400cac2bf00e1
:106c90004600de006100600000807400000000001b
:106ca00000000000000000000000000000000000e4
:106cb00000000000000000000000000000000000d4
:106cc00000000000000000000000000000000000c4
:106cd00000000000000000000000000000000000b4
:106ce00000000000000000000000000000000000a4
:106cf0000000000000000000000000000000000094
:106d00000000000000000000000000000000000083
:106d10000000000000000000000000000000000073
:106d20000000000000000000000000000000000063
:106d30000000000000000000000000000000000053
:106d40000000000000000000000000000000000043
:106d500000000000000000000000000081804000f2
:106d600000014000d402a800d422a80000000000c6
:106d70000000000000000000000000000000000013
:106d80000000000000000000000000000000000003
:106d900000000000000000000000000000000000f3
:106da00000000000000000000000000000000000e3
:106db00000000000000000000000000000000000d3
:106dc00000000000000000000000000000000000c3
:106dd00000000000000000000000000000000000b3
:106de00000000000000000000000000000000000a3
:106df0000000000000000000000000000000000093
:106e00000000000000000000000000000000000082
:106e10000000000000000000000000000000000072
:106e2000000000000000000000000000d402a900e3
:106e3000d422a900cac2bf004500de006100600084
:106e400080807000cac2bf004600de0061006000a2
:106e500000007100000000000000000000000000c1
:106e60000000000000000000000000000000000022
:106e70000000000000000000000000000000000012
:106e80000000000000000000000000000000000002
:106e900000000000000000000000000000000000f2
:106ea00000000000000000000000000000000000e2
:106eb00000000000000000000000000000000000d2
:106ec00000000000000000000000000000000000c2
:106ed00000000000000000000000000000000000b2
:106ee00000000000000000000000000000000000a2
:106ef0000000000000000000000000000000000092
:106f00000000000000000000000000000000000081
:106f1000000000008180400000014000d402a80071
:106f2000d422a800000000000000000000000000c3
:106f30000000000000000000000000000000000051
:106f40000000000000000000000000000000000041
:106f50000000000000000000000000000000000031
:106f60000000000000000000000000000000000021
:106f70000000000000000000000000000000000011
:106f80000000000000000000000000000000000001
:106f900000000000000000000000000000000000f1
:106fa00000000000000000000000000000000000e1
:106fb00000000000000000000000000000000000d1
:106fc00000000000000000000000000000000000c1
:106fd00000000000000000000000000000000000b1
:106fe00000000000d402a900d422a900cac2bf0038
:106ff0004500de006100600080807000cac2bf00f2
:107000004600de006100600000007100000000002a
:107010000000000000000000000000000000000070
:107020000000000000000000000000000000000060
:107030000000000000000000000000000000000050
:107040000000000000000000000000000000000040
:107050000000000000000000000000000000000030
:107060000000000000000000000000000000000020
:107070000000000000000000000000000000000010
:107080000000000000000000000000000000000000
:1070900000000000000000000000000000000000f0
:1070a00000000000000000000000000000000000e0
:1070b00000000000000000000000000000000000d0
:1070c000000000000000000000000000818040007f
:1070d00000014000d402a800d422a8000000000053
:1070e00000000000000000000000000000000000a0
:1070f0000000000000000000000000000000000090
:10710000000000000000000000000000000000007f
:10711000000000000000000000000000000000006f
:10712000000000000000000000000000000000005f
:10713000000000000000000000000000000000004f
:10714000000000000000000000000000000000003f
:10715000000000000000000000000000000000002f
:10716000000000000000000000000000000000001f
:10717000000000000000000000000000000000000f
:1071800000000000000000000000000000000000ff
:10719000000000000000000000000000d402a90070
:1071a000d422a900cac2bf004500de006100600011
:1071b00080807000cac2bf004600de00610060002f
:1071c000000071000000000000000000000000004e
:1071d00000000000000000000000000000000000af
:1071e000000000000000000000000000000000009f
:1071f000000000000000000000000000000000008f
:10720000000000000000000000000000000000007e
:10721000000000000000000000000000000000006e
:10722000000000000000000000000000000000005e
:10723000000000000000000000000000000000004e
:10724000000000000000000000000000000000003e
:10725000000000000000000000000000000000002e
:10726000000000000000000000000000000000001e
:10727000000000000000000000000000000000000e
:10728000000000008180400000014000d402a800fe
:10729000d422a80000000000000000000000000050
:1072a00000000000000000000000000000000000de
:1072b00000000000000000000000000000000000ce
:1072c00000000000000000000000000000000000be
:1072d00000000000000000000000000000000000ae
:1072e000000000000000000000000000000000009e
:1072f000000000000000000000000000000000008e
:10730000000000000000000000000000000000007d
:10731000000000000000000000000000000000006d
:10732000000000000000000000000000000000005d
:10733000000000000000000000000000000000004d
:10734000000000000000000000000000000000003d
:1073500000000000d402a900d422a900cac2bf00c4
:107360004500de006100600080807000cac2bf007e
:107370004600de00610060000000710000000000b7
:1073800000000000000000000000000000000000fd
:1073900000000000000000000000000000000000ed
:1073a00000000000000000000000000000000000dd
:1073b00000000000000000000000000000000000cd
:1073c00000000000000000000000000000000000bd
:1073d00000000000000000000000000000000000ad
:1073e000000000000000000000000000000000009d
:1073f000000000000000000000000000000000008d
:10740000000000000000000000000000000000007c
:10741000000000000000000000000000000000006c
:10742000000000000000000000000000000000005c
:10743000000000000000000000000000818040000b
:1074400000014000d402a800d422a80000000000df
:10745000000000000000000000000000000000002c
:10746000000000000000000000000000000000001c
:10747000000000000000000000000000000000000c
:1074800000000000000000000000000000000000fc
:1074900000000000000000000000000000000000ec
:1074a00000000000000000000000000000000000dc
:1074b00000000000000000000000000000000000cc
:1074c00000000000000000000000000000000000bc
:1074d00000000000000000000000000000000000ac
:1074e000000000000000000000000000000000009c
:1074f000000000000000000000000000000000008c
:10750000000000000000000000000000d402a900fc
:10751000d422a900cac2bf004500de00610060009d
:1075200080807000cac2bf004600de0061006000bb
:1075300000007100000000000000000000000000da
:10754000000000000000000000000000000000003b
:10755000000000000000000000000000000000002b
:10756000000000000000000000000000000000001b
:10757000000000000000000000000000000000000b
:1075800000000000000000000000000000000000fb
:1075900000000000000000000000000000000000eb
:1075a00000000000000000000000000000000000db
:1075b00000000000000000000000000000000000cb
:1075c00000000000000000000000000000000000bb
:1075d00000000000000000000000000000000000ab
:1075e000000000000000000000000000000000009b
:1075f000000000008180400000014000d402a8008b
:10760000d422a800000000000000000000000000dc
:10761000000000000000000000000000000000006a
:10762000000000000000000000000000000000005a
:10763000000000000000000000000000000000004a
:10764000000000000000000000000000000000003a
:10765000000000000000000000000000000000002a
:10766000000000000000000000000000000000001a
:10767000000000000000000000000000000000000a
:1076800000000000000000000000000000000000fa
:1076900000000000000000000000000000000000ea
:1076a00000000000000000000000000000000000da
:1076b00000000000000000000000000000000000ca
:1076c00000000000d402a900d422a900cac2bf0051
:1076d0004500de006100600080807000cac2bf000b
:1076e0004600de0061006000000071000000000044
:1076f000000000000000000000000000000000008a
:107700000000000000000000000000000000000079
:107710000000000000000000000000000000000069
:107720000000000000000000000000000000000059
:107730000000000000000000000000000000000049
:107740000000000000000000000000000000000039
:107750000000000000000000000000000000000029
:107760000000000000000000000000000000000019
:107770000000000000000000000000000000000009
:1077800000000000000000000000000000000000f9
:1077900000000000000000000000000000000000e9
:1077a0000000000000000000000000008180400098
:1077b00080044000d402a800d422a80000000000e9
:1077c00000000000000000000000000000000000b9
:1077d00000000000000000000000000000000000a9
:1077e0000000000000000000000000000000000099
:1077f0000000000000000000000000000000000089
:107800000000000000000000000000000000000078
:107810000000000000000000000000000000000068
:107820000000000000000000000000000000000058
:107830000000000000000000000000000000000048
:107840000000000000000000000000000000000038
:107850000000000000000000000000000000000028
:107860000000000000000000000000000000000018
:10787000000000000000000000000000d402a90089
:10788000d422a900cac2bf004500de00610060002a
:10789000a82c2000184478004644de0061046400ef
:1078a00000000000000000000000000000000000d8
:1078b00000000000000000000000000000000000c8
:1078c00000000000000000000000000000000000b8
:1078d00000000000000000000000000000000000a8
:107ad000d442a800cc62a800000000000000000012
:107ae0000000000000000000000000000000000096
:107af0000000000000000000000000000000000086
:107b00000000000000000000000000000000000075
:107b10000000000000000000000000000000000065
:107b20000000000000000000000000000000000055
:107b30000000000000000000000000000000000045
:107b40000000000000000000000000000000000035
:107b50000000000000000000000000000000000025
:107b60000000000000000000000000000000000015
:107b70000000000000000000d402a900d422a900e7
:107b8000c8a2a900cea2a800c8c2a900cec2a8005f
:107b90000080fb00808070000000eb009af107007d
:107ba0000884fb00888074001000200096f1070014
:107bb000a15c800062b9200001804000835c8000ed
:107bc0000330790064004000935c8000033079004a
:107bd0000100e800e10f5000010034000000eb005c
:107be000a05c88004f04be0000000600c3c2bf00b6
:107bf0006100600000000600360407000000eb0092
:107c00000000060000000600a70bab000a003200cf
:107c100010c0b30078ebb700e25b8000515c8000dd
:107c200020a7200016010700c0a2200021a72000e5
:107c30002500090031587800000006000800fa000d
:107c40001500070082002000019c2000688057007a
:107c50000b0107004fb89700dfb897006fb9970086
:107c6000ffb9970024a52000009abe000292be0032
:107c7000e0aa200021a520001f000900315878004b
:107c8000d25b8000615c8000e0aa20001a0107003e
:107c90000080fa0000000600889fbe00100020004f
:107ca00047f10700705388001000200048f10700da
:107cb000505388000000eb0045f10700f0528800a7
:107cc0000000eb003ef10700605388003000200008
:107cd0002aed0700005388002000200027ed070050
:107ce000105388000000eb0024ed070020538800ab
:107cf0001000200021ed0700305388000000eb0049
:107d0000140407004053880028518000dcef07006e
:107d100080047800e0ef0700090474000004740098
:107d20000820a00088538800e1ef07000000e00071
:107d300003003d00deef07000000ea00010037000d
:107d4000dbef0700d052880010518000e05288001d
:107d50004f04be00000006003600f800809fbe0001
:107d6000829fbe00849fbe00869fbe00d4c2a80032
:107d70008400a900850007007e4be2000600320067
:107d8000764be200010032009fff0700774be200d4
:107d900001003200a9ff07004f03be004f02be00e2
:107da0004f01be004f00be003600f9000040060043
:107db0000200fa00881f78000040eb00c0ff9f001f
:107dc000c8032000d85b8800e85b8800020220001e
:107dd0008000eb0020a52000e1ec070062022000fb
:107de0008000eb00c0a22000ddec07000801780055
:107df0008000eb0020a72000d9ec070008017800e4
:107e00008000eb00e0aa2000d5ec07000000eb00aa
:107e1000105188002051880030518800282aef0036
:107e20002a2aef00170007008200a8008220a8007d
:107e30008240a800d4c2a8008400a900120020003b
:107e40000114200064805700d30007004ff897000a
:107e5000e54f5000f9ff3a001200200051002000c9
:107e6000f0b72000cc0007000000eb000401070081
:107e70009400a800860307004f0478000080fa00f1
:107e8000000006008540a9009540a9004222ef00ad
:107e900042a2a80042c2bf00c1cfb30001406000af
:107ea0000014a00042e2b70042c2bf0031ceb300ce
:107eb000014060008041b30042e2b70042c2a80026
:107ec0004302a9004322a9004342a90040c2a900dd
:107ed00041e2a800d4c2a800000006000000eb00a8
:107ee000000006000000eb00000006000000eb00b0
:107ef000000006000000eb00000006000000eb00a0
:107f0000000006000000eb00000006000000eb008f
:107f1000000006009400a900d4c2a9008540a90071
:107f2000000420004012880085c0bf000028a30084
:107f3000fdff320040128000a6ebb7008540a9008b
:107f4000200720004012880085c0bf000028a30041
:107f5000fdff320040128000a7ebb7008540a9006a
:107f6000f00f20004012880085c0bf000028a30049
:107f7000fdff320040128000b2ebb7008540a9003f
:107f8000d4c2a8009400a80000000600d4c2a90032
:107f90008540a9004822ef0085c0bf000028a3004b
:107fa000fdff320040128000a6ebb7008540a9001b
:107fb000200020004012880085c0bf000028a300d8
:107fc000fdff320040128000a7ebb7008540a900fa
:107fd000d4c2a800000006004300dd008180fb0041
:107fe00081007000d4c2a9008540a9004808de00c5
:107ff0004012880085c0bf000028a300fdff3200aa
:1080000040128000a6ebb7008540a9000180fb006c
:108010004012880085c0bf000028a300fdff320089
:1080200040128000a7ebb7008540a90000000600c1
:108030004300dd008180fb0081007000d4c2a900f4
:108040008540a9004808de004012880085c0bf00b6
:108050000028a300fdff3200401280008540a900e7
:108060000180fb004012880085c0bf000028a300eb
:10807000fdff3200401280008540a900000006008c
:10808000889fbe0080047800010078000204780018
:1080900021c0b300e6ff07000800e900e10f40003f
:1080a00011003200800078000041eb008081eb007d
:1080b0000100e00001003a0000c1eb008540a9008a
:1080c0000280fb004012880085c0bf000028a3008a
:1080d000fdff320040128000805c78008100e900e2
:1080e000818f5100f2ff3a008540a900d4c2a80058
:1080f0004f04be0000000600889fbe008004780088
:10810000010078000204780041c0b300c8ff0700f6
:108110000800e900e10f40000d00320089007800fe
:10812000008044000001e8008540a9001180fb00a8
:108130004012880085c0bf000028a300fdff320068
:10814000401280008100e800828f5000f6ff3a0064
:108150008540a900d4c2a8004f04be00000006005c
:108160006cff0700a60bab000a00320022002000c3
:108170000112200040ba200007000700a6cbbf0074
:10818000e1ceb30001406000a6ebb700a4cbbf0076
:10819000a701070000000600889fbe008a9fbe005e
:1081a000800478000200e900e10f40001400320072
:1081b00001047800fb0f2000008040000005e8006b
:1081c0009400a90021c0b3000800780082ff0700d6
:1081d0004b12880085c0bf000028a300fdff3200bd
:1081e00040128000805c78009400a800d4c2a800ef
:1081f0000804e8008540a9008a0f5400f0ff3a0007
:108200004f05be004f04be0000000600889fbe0060
:108210008a1f7800800478000200e900e10f400026
:108220001400320001047800008040000005e800de
:108230009400a90041c0b3000800780066ff070061
:108240008540a9003980fb004012880085c0bf002e
:108250000028a300fdff3200401280009400a80017
:108260000804e8008540a900d4c2a8008a0f540081
:10827000efff3a004f0578004f04be0000000600f3
:108280000200fa00881f7800000478002200200015
:108290004120200064805700bfff0700efb897001f
:1082a00001006400e0bf9f009400a9000000e0000e
:1082b00001003a00a2ebb70022002000412020007c
:1082c00064805700d1ff07009400a8004f04780095
:1082d0000080fa00000006000200fa00881f780003
:1082e0000004780022002000412020006480570014
:1082f000a9ff07006fb8970000007400e0bf9f005f
:108300009400a90010c0b300a2ebb7002200200027
:108310004120200064805700bcff07009400a800a3
:108320004f0478000080fa00000006000200fa0006
:10833000881f7800014478000080fb00e0bf9f00a8
:10834000220020000113200064805700afff0700c7
:10835000e14f4400060032000880fb00e0bf9f00b0
:10836000220020004113200064805700a7ff07006f
:108370004f0478000080fa00000006000200fa00b6
:1083800011c0b300e1ff9f000080fb004300dd004f
:108390007180200081004000120020000f80e90061
:1083a0009aff07000080fa00000006000200fa00b1
:1083b0008040eb00e1ff9f000080fb004300dd00f8
:1083c0007180200081004000120020000f80e90031
:1083d0008eff07000080fa0000000600881f78006a
:1083e000a8ba20000080fb004300dd0001802000cf
:1083f00081004000820020000800780066ff07002e
:10840000080078004f0478000000060001017800a1
:108410000004e00003003200e14f50005e003a002b
:108420002e00370061409000d00fb20006003a00e5
:10843000110090000000e00063003a007c0be200b5
:108440005b00320060003700e10f50005e003a0030
:1084500091009000e05b8000808f50005a003a004d
:10846000c24190006d806100e40f500054003a005a
:1084700010b8200021c0b30090cf100008003a00cf
:1084800092007800f0ff2000808f50004a003600f4
:1084900000002200808f50000400360046003700a4
:1084a000505c8000920f100043003a000368a30064
:1084b0000300320010c0b30088ebb70001003700a2
:1084c000886bef007a0be20039003a0010c0b3006d
:1084d0007eebb7000000eb003c00370061409000ed
:1084e000d00fb20006003a00110090000000e0003a
:1084f00035003a007a0be2002d00320032003700de
:10850000e10f500030003a0091019000d05b8000f4
:10851000808f51002c003a00414090008080fb0089
:108520006d80600026003a0010b8200024c0b3001f
:10853000904f120008003a0012017800f0ff20006e
:10854000800f51001c00360000002200800f5100f7
:108550000400360018003700605c8000920f1000a5
:1085600015003a000300e00011003200d102b20011
:1085700000022000808f500004003a0010c0b300b9
:108580007eebb7000000eb00100037007e6bef00c1
:108590000000eb000d00370061409000d00fb200ea
:1085a00009003a00110090000000e00006003a00c7
:1085b0000000eb000500370020002000030037001a
:1085c00040002000010037003000200000000600bd
:1085d000889fbe008a9fbe00804478000004e000af
:1085e00002003a0080457800180037001ac0b30036
:1085f0000044eb0088457800070037001ac0b3003c
:108600000804e000040032000045eb00e14f540094
:1086100001003200084578000a4078006fff07002b
:10862000800078000a40780078ff07000004e0002e
:10863000030032000b04e00001003a00fd45450054
:108640000844e80088cf5400ecff3a000b80fb00a0
:108650004f05be004f04be00000006000040eb00c6
:108660005eff070010007800505c880010c0b30067
:108670005aff070010017800625c8800535c80009c
:10868000e05b80006300b90000804100800f510072
:1086900005003100d05b800000004100d1012000c6
:1086a000808f5100120039007a0be200090032007d
:1086b00010c0b3003dff07000efe07000004e000fd
:1086c000020032008080fb000900370010c0b300b8
:1086d00077ebb7007c0be200020032000040eb00b9
:1086e00032ff07000000eb00fbfe07008000eb00fc
:1086f00001007800000006000400fa0022002000bb
:108700000140200064805700a3fe07006fb8970067
:108710000000e00012003200884be200100032003e
:1087200022002000014220000f80e9009afe07008d
:108730007fb897000000e0000c0032006fb997008e
:108740000200b800821a26000300200074ea070025
:10875000205c8800884be20006003a0018003700d1
:108760000000eb00f0bf9f00205c8800884be20017
:1087700013003a007c0be20005003200e1fd070027
:108780000004e000020032000080fb000f00370010
:1087900010c0b30076ebb7008e4be2000a003a003f
:1087a0007e4be200080032007c0be2000600320043
:1087b00000102000c8fe07000000eb000300370097
:1087c000f0012000010037000000eb000080fa00fb
:1087d00000000600f0ef2f00a9fe07000040eb00ac
:1087e00078ebb70076ebb7007c0be20001003200bb
:1087f000c6fd07000080fb00000006000040eb0003
:10880000defe070030cf2f009dfe07000040eb008a
:108810007eebb7008eebb70077ebb70010c0b3006c
:10882000d6fe0700b5fd07000080fb000000060033
:10883000889fbe008a1f7800004178000248a3008c
:1088400002003200818ba9000800370081cbbf00f5
:108850000080fb000048a30004003200ef0061002c
:108860006f006000808f500006013c006f45610082
:1088700081cbbf004400dd000044450008007800c3
:1088800089ebb70080c4b300804f5400140032005d
:1088900007003e0040c2b300804f54000c0032007d
:1088a00040c4b300804f540007003a000c0037006a
:1088b00040c8b300804f54000900320064404000bb
:1088c000804f5400060032008044eb000700370060
:1088d00086fd0700804478000004e000a7003a000d
:1088e0007fcbbf003aff0700804478000904e00016
:1088f000a2003a000880fb00010020007100500037
:10890000e080580072072000820f5000e08f58006e
:108910007d003e00006001009600370078003700bf
:108920007b0037007400370077003700760037008f
:108930007500370070003700730037007200370091
:1089400071003700700037006f0037006e0037008d
:108950006d0037006c003700690037008500370074
:10896000650037006c00370067003700660037008d
:108970006500370060003700630037006200370091
:1089800061003700600037005f0037005e0037008d
:108990005d0037005c0037005b0037005a0037008d
:1089a000590037005800370057003700560037008d
:1089b000550037005400370053003700520037008d
:1089c00051003700500037004f0037004e0037008d
:1089d0004d0037004c003700630037005b00370064
:1089e0004500370063003700470037004600370076
:1089f000450037004b003700430037004200370086
:108a000041003700400037003f0037003e0037008c
:108a10003d0037003c0037003b0037003a0037008c
:108a2000390037003800370037003700360037008c
:108a3000350037003400370033003700320037008c
:108a400031003700300037002f0037002e0037008c
:108a50002d0037002c0037002b0037002a0037008c
:108a6000290037002800370027003700260037008c
:108a7000250037002400370023003700220037008c
:108a800021003700200037001f0037001e0037008c
:108a90001d0037001c0037001b0037001a0037008c
:108aa000190037001800370017003700160037008c
:108ab000150037001400370013003700120037008c
:108ac00011003700100037000f0037000e0037008c
:108ad0000d0037000c0037001f003700170037006b
:108ae0000500370012003700070037000600370086
:108af000050037001f00370019c1b3003a003700e6
:108b00008044eb003600370029c1b300360037003f
:108b100039c1b30034003700d0fe0700804478002c
:108b20002f003700f4fe0700804478002c00370047
:108b300028ff0700804478002900370025ff070040
:108b4000804478000004e00025003a002bff070075
:108b500080447800220037001eff07008044780020
:108b60000004e0001e003a0024ff07008044780063
:108b70001b003700e9cfb3001b00370081cbbf00db
:108b8000e44f500006003200e84f5000030032006e
:108b9000e24f500012003a000a0037000dff0700b4
:108ba000fdcf54000400320014ff070020c0b300c2
:108bb00081ebb7000300370040c0b30081ebb70082
:108bc00009003700f6cf540003003a0010c0b3008c
:108bd00081ebb7000400370020c0b30081ebb70081
:108be000e1cf44002700320012b820001241780083
:108bf0008a80fb006f006100808f50001e003200f1
:108c00000904e000060032000200780082ebb700a1
:108c1000024078000044a00081ebb700110037004b
:108c200039b82000994478000904e00004003200bb
:108c30000a00780082ebb7000a44a0000700370062
:108c400080c4eb0082cbbf000054e100030036007b
:108c50000040eb0082ebb700804478000a00780007
:108c600081ebb70081cbbf0089407800affd0700e2
:108c7000836bef00030037008040eb000240780078
:108c8000aafd07004f0578004f04be000000060053
:108c90008040eb008000fd0088ebb70082ebb7005e
:108ca00083ebb70078ebb70076ebb7008000fd00f0
:108cb0008000fd0077ebb7008eebb7007eebb700ce
