:020000040000fa
:080000000018040000000000dc
:020000040000fa
:103000000f9c200000ff200000018800000000004d
:103010000a00070011000700000020000000e00087
:10302000020032000000020000000000282602001a
:10303000000000000040da000000fe004440a9004b
:10304000000020000000e00003003200000020002b
:10305000a00188004440a8000000060080832200f0
:10306000010020001500370062004000e0804800a9
:10307000910188009001ba0062004000e0804800a1
:10308000910188009002ba0062004000e080480090
:103090000002eb006028e10004003a000059eb0058
:1030a0008301e900fdff3e00040037006128e100d4
:1030b000010032000082eb0005000700910188004a
:1030c0001001ba000200e000e7ff3a00000005002e
:1030d000910188008002780062004000e080480092
:1030e0003559ba008301e900080032002559ba00b9
:1030f0008301e900050032000400e000f4ff320023
:1031000015d9ba008301e900f1ff3a00000006007a
:103110008001eb0002003700817178008301e80034
:10312000828f5100fcff3a00000006006022b800c8
:10313000060220000000d0008180d2000482d2006c
:103140008582d2000000a0000202520083825a0051
:10315000030031000202420083824a000000a10005
:103160000603e900f3ff3a00000006000800fa0039
:10317000300798006000b8001007980021079800f9
:103180000000eb00000f7800100037003e009000b8
:103190009e0078004500dd000100400080004000f6
:1031a000a080200000804000100078006101b8007d
:1031b0001e009000ae009000000041008180490098
:1031c00010079800210798001e0fe800f00120006a
:1031d0009e0f1000edff34001e009000ae00900026
:1031e0004b09dd004500de0000007100c588de00ef
:1031f0000080fa00000006000000fa000000eb006a
:10320000304088000000eb00404088000000eb00e8
:103210006019880023c3bf007f40600023e3b7002c
:1032200025e3a900513220009140780000ceb30080
:1032300000c06000a040b30025e3b70080c2b30027
:1032400024e3b7003132200091407800c0cfb300b2
:1032500000c0600023e3b7002043a8002143a8007a
:103260002063a9002343a800213220009140780068
:1032700030ccb30000c060000034a00022e3b700ef
:10328000013220009140780000ceb30000c07000f1
:1032900020e3b7002223a8003003a8003023a800b1
:1032a0003043a8001132200091407800c0cfb30015
:1032b00000c0600021e3b70021e3a80085a0a900b9
:1032c00095a0a8000080fa0000000600809fbe00c4
:1032d000821f78000200fa0085a0a90022c3bf0067
:1032e00001c8b300014060000004e00007003a009c
:1032f00080188000004088009018800010408800ee
:10330000a0188000204088000600370000188000c8
:1033100000408800101880001040880020188000ad
:103320002040880030408000024080008000400043
:10333000a08020000080400002087800304080001b
:103340001240800080004000a084200000804000e7
:103350000208780030408000224080008000400059
:10336000a0882000008040000208780030408000e3
:103370000000e800ff0f500004003c0030408000d7
:103380000000e800000f7800020037000000eb00aa
:10339000000f78001e007800304088000080fa009e
:1033a0004f0178004f00be00004006000000fa0008
:1033b0000000eb00d04d88000080fa0000000600fd
:1033c0000400fa00c04680000000e0000200320065
:1033d000cd82a80001003700cd82a900cac2bf007b
:1033e0000044b2000004e00002003200cda2a800b8
:1033f00013003700d04d8000100798008040eb008c
:10340000014f7800b00320009e009000808f500094
:103410000200340010c0b300004f78009e009000fe
:103420000100e800d04d88001e4078000004e00054
:10343000030032000000eb00d04d8800350007008b
:103440000080fa00000006000800fa000000eb000f
:10345000000f7800614c8000cac2bf000080fb00f2
:103460004600de00614060000081fb00818040007a
:103470004096200000804000020878000000eb0029
:1034800010079800090037001e00900080004000df
:103490004096200000804000100078001e0f400081
:1034a0001e0090000000e800100798001e00900029
:1034b000f30f5000f4ff3400604c80000000e8007f
:1034c000f30f500004003c00604c80000000e80056
:1034d00030079800020037000000eb00300798002a
:1034e0003e009000604c8800900020009e0f10006d
:1034f000030034001000200020079800020037006d
:103500000000eb00200798002e0090000080fa00d9
:10351000000006000000fa00cbc2bf000042b2006b
:103520000004e00002003200cda2a9000100370033
:10353000cda2a8000080fa00000006000000fa00fa
:10354000cd82a9000000eb00604c88000080fa00ea
:10355000000006000000fa00c2c2bf007040600018
:103560000004e00002003200c482a900010037001c
:10357000c482a8000080fa00000006000000fa00e3
:10358000c3c2bf00614060000080fb000080fa0001
:10359000000006000000fa00a90507000000eb008b
:1035a0000080fa00000006000000fa000080fa0027
:1035b000000006000000fa00adc9bf000080fb005b
:1035c000610060000004e0000b00320010c0b30096
:1035d00090e9b700a24c8000114d8000c08e200001
:1035e0004f010700608d2000c18e200003000900fc
:1035f000315878004000b1000080fa000000060059
:103600000800fa00140007000e0078008200200075
:10361000019c2000420107003e00be002e01be00ba
:10362000a48d2000009abe000292be00a08d200052
:103630008192200011000900b05878002001b100eb
:10364000924c8000214d8000809220005d01070097
:103650000080fa00000006000000fa000000eb0005
:10366000c2fe07002047880010002000bffe0700b0
:103670003047880020002000bcfe0700404788003b
:1036800071ff07001047880070468000504788008f
:103690000080fa00000006003600f800809fbe009f
:1036a000829fbe00849fbe00869fbe000200fa007b
:1036b000d4c2a8008400a900bf00070096c9bf00bb
:1036c0000004e0000a0032008ec9bf000004e000e0
:1036d00002003200b7ff070001003700b2ff070009
:1036e0008fc9bf000004e00001003200c4ff0700e2
:1036f00010002000504688000080fa004f03be00f2
:103700004f02be004f01be004f00be003600f90060
:10371000004006000400fa000040eb00304798002b
:10372000c0032000904c8800c0032000a04c8800fb
:10373000a08d2000220120008000eb0074fe070015
:10374000608d20008040eb00014878000000e80018
:103750008040eb00014878000000e8008040eb006a
:10376000014878000000e8008040eb000148780044
:10377000c08e2000c20320008000eb0064fe070022
:1037800080922000c20320008000eb0060fe070052
:103790000000eb00000f78000d0037001e007800dd
:1037a00080004000c08c2000808040000000eb00c2
:1037b000800878001e00780080004000e08c200027
:1037c000808040000000eb00800878001e0fe800b9
:1037d0001e00e000f1ff34000000eb00804688008e
:1037e0006000b80090468800a14688000000eb0009
:1037f00050468800160007008200a8008220a8001a
:103800008240a800d4c2a8008400a9006300470039
:103810001200200001142000230107003e40900008
:10382000e54f5000f9ff3a0012002000510020003f
:10383000709920001c0107000000eb0065010700e3
:103840009400a800e60407000080fa0000000600cb
:103850000000fa008540a9009540a9000000eb0097
:103860001012880042a2a800212420009140780074
:10387000c0cfb30000c060000014a00042e2b70057
:10388000212420009140780030ceb30000c06000b9
:103890008041b30042e2b70042c2a8004302a9003f
:1038a0004322a9004342a90040c2a90041e2a80066
:1038b000d4c2a8000080fa00000006000000fa0050
:1038c0000000eb000080fa00000006000000fa0093
:1038d0000000eb000080fa00000006000000fa0083
:1038e0000000eb000080fa00000006000000fa0073
:1038f0000000eb000080fa00000006000000fa0063
:103900000000eb000080fa00000006000000fa0052
:103910000000eb000080fa00000006000000fa0042
:103920000000eb000080fa00000006000000fa0032
:103930009400a900d4c2a9008540a9000004200079
:103940004012880085c0bf00644060000004e000b1
:10395000fcff320040128000ace9b7008540a900ae
:10396000200720004012880085c0bf00644060002e
:103970000004e000fcff320040128000ade9b70017
:103980008540a900f00f20004012880085c0bf00cc
:10399000644060000004e000fcff32004012800040
:1039a000b8e9b7008540a900d4c2a8009400a800d7
:1039b0000080fa00000006000000fa00d4c2a9004e
:1039c0008540a9000000eb004012880085c0bf00c0
:1039d000644060000004e000fcff32004012800000
:1039e000ace9b7008540a900200020004012880003
:1039f00085c0bf00644060000004e000fcff3200ae
:103a000040128000ade9b7008540a900d4c2a800eb
:103a10000080fa00000006000600fa001007980077
:103a2000414798001e009000c300dd004e4090000a
:103a30000080fb0000807000000f7800d4c2a90055
:103a40008540a9001e4090000080fb0040128800c5
:103a500085c0bf00644060000004e000fcff32004d
:103a600040128000ace9b7008540a9001e407800f4
:103a70000080fb004012880085c0bf0064406000e9
:103a80000004e000fcff320040128000ade9b70006
:103a90008540a9000080fa00000006000800fa0036
:103aa00020079800614798002e009000c300dd00b9
:103ab0006e4090000080fb000080700010079800ae
:103ac000d4c2a9008540a9003e4090000080fb00c0
:103ad0004012880085c0bf00644060000004e00020
:103ae000fcff320040128000004f78008540a900a2
:103af0002e4090000080fb004012880085c0bf006f
:103b0000644060000004e000fcff320040128000ce
:103b1000004f78008540a9000080fa0000000600f0
:103b20000a00fa0020079800310798004207980021
:103b30004e009000100798000040eb00004f780006
:103b400021c0b3003e009000d4ff070013003700ef
:103b50001e0090000000e00002003a0000c0eb00f0
:103b6000004f78008540a9001e80fb0040128800ad
:103b700085c0bf00644060000004e000fcff32002c
:103b800040128000804078002e00900001487800ac
:103b90002e0090000000e800200798001e00900012
:103ba0000000e900100798001e009000e10f40009f
:103bb000e7ff3a008540a900d4c2a8000080fa00bf
:103bc000000006000a00fa0020079800310798005c
:103bd000420798004e0090001007980041c0b300c3
:103be0003e009000adff07000e0037008540a900a1
:103bf0002e009000104078000080fb0040128800ea
:103c000085c0bf00644060000004e000fcff32009b
:103c100040128000004f78002e0090000000e80065
:103c2000200798001e0090000000e900100798008f
:103c30001e009000e10f4000ecff3a008540a90013
:103c4000d4c2a8000080fa00000006000000fa00bc
:103c500036ff0700e04c80000000e000000032006a
:103c6000acc9bf000080fb00610060000004e00000
:103c70000b0032002200200001122000a09a200038
:103c800009000700c19a200091407800e0ceb300ff
:103c900000c06000ace9b700aac9bf006a02070013
:103ca0000080fa00000006000800fa0010079800e3
:103cb00021079800320798003e009000000f78001e
:103cc000170037009400a90021c0b3002e00900017
:103cd00051ff0700f00f20004012880085c0bf0090
:103ce000644060000004e000fcff320040128000ed
:103cf000804078001e009000014878001e0090006f
:103d00000000e800100798009400a800d4c2a800a2
:103d10002e0090000000e800200798008540a900d0
:103d20001e0fe9000080eb009e0f1000e5ff3a0037
:103d30000080fa00000006000a00fa002007980040
:103d400031079800420798004e0090001007980035
:103d5000180037009400a90041c0b3003e00900055
:103d60002dff07008540a9002e009000104078002c
:103d70000080fb00401288002e0090000000e80048
:103d80002007980085c0bf00644060000004e00088
:103d9000fcff320040128000004f78009400a80021
:103da0003e0090000000e800300798008540a90020
:103db000d4c2a8001e0090000000e900100798007f
:103dc0001e009000e10f4000e2ff3a000080fa0080
:103dd000000006000400fa00100798000e007800aa
:103de0002200200041202000afff07009e00780045
:103df0001e00900000806000000f78009400a90071
:103e00001e0078000000e00002003a000040eb00d5
:103e1000a8e9b7000e007800220020004120200011
:103e2000c5ff07009400a8000080fa00000006000b
:103e30000400fa00100798000e007800220020000d
:103e40004120200098ff07009e0078001e0090008f
:103e500000807000000f78009400a90010c0b3002b
:103e6000a8e9b7000e0078002200200041202000c1
:103e7000b1ff07009400a8000080fa0000000600cf
:103e80000400fa0020479800314798002e40900027
:103e90000080fb00000f78000e0078002200200058
:103ea00001132000a4ff07003e409000e14f4000b6
:103eb000070032003e4090000080fb00000f7800b9
:103ec0000e00780022002000411320009aff070016
:103ed0000080fa00000006000400fa002047980065
:103ee00010c0b300004f78002e4090000080fb000f
:103ef000c300dd00708020008080400012002000a0
:103f00000e0078008cff07000080fa000000060019
:103f10000400fa00204798000040eb00004f7800b2
:103f20002e4090000080fb00c300dd007080200068
:103f300080804000120020000e0078007eff070005
:103f40000080fa00000006000200fa00004f78002e
:103f50001e80fb00c300dd00008020008080400048
:103f6000009b2000820020004fff0700009b2000e4
:103f70000080fa00000006000800fa00004f7800f8
:103f8000110798001e80fb00300798003e0090004b
:103f90000000e000040032003e009000e10f5000fd
:103fa00056003200a90037001e00900060409000cb
:103fb0008080fb00d00f2000008060000000e00047
:103fc0000a003a001e009000100090000000e0007f
:103fd00006003a00a04c80000000e00003003a0018
:103fe0000000eb0020079800a80037001e0090009a
:103ff000604090008080fb00d00f200000806000b7
:10400000e10f50003a003a001e009000900090002e
:10401000a04c8000808f500035003a001e009000b8
:10402000404090000080fb006d006000e40f5000f5
:104030002c003a0099c9bf00e24f50000a003a0034
:104040001e00900090007800f0ff2000808f50004c
:10405000050036001e00900090007800000022004d
:10406000808f50000800360099c9bf00e24f500011
:10407000190032001e00900090007800104d800062
:10408000808f500014003a001e00900040409000c5
:104090000080fb004600de00610060000004e000dc
:1040a0000300320010c0b300a0e9b70002003700df
:1040b0000040eb00a0e9b700904c80000000e00059
:1040c00002003a0010c0b30096e9b7000000eb0010
:1040d000200798006d00370020002000200798007e
:1040e0006a00370040002000200798006700370072
:1040f0003000200020079800640037001e00900068
:10410000604090008080fb00d00f200000806000a5
:104110000000e0000a003a001e009000100090002d
:104120000000e00006003a00904c80000000e00033
:1041300003003a000000eb0020079800530037000e
:104140001e009000604090008080fb00d00f200097
:1041500000806000e10f500039003a001e0090001e
:1041600090009000904c8000808f500034003a0006
:104170001e009000404090000080fb006d00600039
:104180000000e0002b003a0099c9bf00e24f500048
:104190000a003a001e00900090007800f0ff200016
:1041a000808f5000050036001e00900090007800bf
:1041b00000002200808f50000800360099c9bf001f
:1041c000e24f5000180032001e009000900078006e
:1041d000204d8000808f500013003a00904c8000ea
:1041e0000000e0000d0032001e00900040409000f2
:1041f0008080fb00d0022000808060000002200050
:10420000808f500003003a0010c0b30096e9b70059
:10421000020037000040eb0096e9b7000000eb0019
:104220002007980019003700200020002007980080
:1042300016003700400020002007980013003700c8
:104240003000200020079800100037001e0090006a
:10425000604090008080fb00d00f20000080600054
:104260000000e00004003a001e00900010009000e2
:104270000000e0000300320030002000200798001a
:10428000020037000000eb00200798002e0090008d
:104290000080fa00000006000600fa00404798007f
:1042a0000040eb00104798000040eb0030479800ba
:1042b0001f0037003e409000004f78003e409000c5
:1042c0000004e00003003a0010c0b300004f780083
:1042d000050037003e409000e14f500002003a00d8
:1042e0000040eb00004f78001e40780016ff0700ea
:1042f000800078001e4078001fff070020479800cc
:104300002e4090000004e000060032001e409000a5
:104310000004e00003003a001e4078007d404000a9
:10432000104798003e4090000040e8003047980059
:10433000be4090004e40900080cf5000ddff39001d
:104340001e4090000080fb000080fa000000060084
:104350000800fa000000eb00000f78000040eb00be
:10436000f9fe0700100798001e009000100078006a
:10437000104d880010c0b300f3fe0700100798002e
:104380001e00900010007800204d8800a04c800096
:104390006300b90080007800104d800080804000ec
:1043a000204d8000808f500009003600214d800094
:1043b000904c800080804000104d8000808f500025
:1043c00003003600d00120003007980019003700a4
:1043d000904c80000000e0000d00320010c0b300df
:1043e000cbfe070041fd0700404798004e4090007b
:1043f0000004e000040032004e4090000080fb000a
:10440000300798000b00370010c0b3008fe9b700e9
:10441000a04c80000000e000020032000040eb00f1
:10442000bbfe07001e00780081fe07000000eb00c5
:10443000300798003e0090000080fa00000006005f
:104440000c00fa000040eb0040479800660047006f
:10445000220020000140200013fe07003e009000d3
:104460000000e00022003200a0c9bf000004e0000c
:104470001f00320068004700220020000142200097
:1044800009fe07004e0090000000e0001c00320012
:104490004e00900001002000008fbe003e00900002
:1044a0006103b8001e0078000602b8001e00780004
:1044b0000780b90005017800000141001e0090004e
:1044c00000b0b9000001410082027800048fbe00f4
:1044d0001e00be00821a26000300200013fb070006
:1044e000008fbe001e007800e04c880004003700fa
:1044f0000000eb00400798000000eb00e04c880053
:104500004e0090000000e00006003a00a0c9bf0085
:104510000004e00009003200f0012000500798007c
:1045200021003700a0c9bf000004e00003003a00ea
:10453000f0012000500798001b003700a04c8000bd
:104540000000e00009003200f0fc0700404798003e
:104550004e4090000004e000040032004e40900005
:104560000080fb00500798000f00370010c0b30018
:104570008ee9b700a6c9bf000004e00008003a00b9
:1045800096c9bf000004e00005003200a04c800086
:104590000000e000020032000010200024fe0700ae
:1045a0000000eb00500798005e0090000080fa00c9
:1045b000000006000200fa000040eb00004f780007
:1045c000f0ef2f0003fe07000040eb0090e9b7007a
:1045d0000040eb008ee9b700a04c80000000e00036
:1045e00002003200cdfc0700004f78001e80fb0067
:1045f0000080fa00000006000200fa000040eb0014
:10460000004f78000040eb0033fe070030cf2f0052
:10461000f0fd07000040eb0096e9b7000040eb001a
:10462000a6e9b7000040eb008fe9b70010c0b30067
:1046300029fe0700b1fc0700004f78001e80fb0038
:104640000080fa00000006000c00fa0020479800e5
:104650000040eb00104798002e4090000080fb00c7
:104660004400de00610060000004e000050032004c
:1046700099c9bf00f1ceb3000140600099e9b700cd
:104680000e00370099c9bf000080fb004400de0027
:10469000610060000004e000080032002e4090003d
:1046a0000080fb00ef00600099c9bf000080fb00a4
:1046b0006f006000808f500047013c002e4090004a
:1046c0006f4060002047980099c9bf00004f7800f4
:1046d0001e4078004400dd00004f78002e4090001e
:1046e0001e4f40001e407800a1e9b7009e80fb00ed
:1046f00031079800400420003e019000800f5100d7
:104700002d00320040042000be019000808f510037
:104710000e003c0020022000be009000808f500060
:1047200028003200200220003e019000800f51003e
:1047300001003c002300370040022000be01900031
:10474000808f5100170032001e0037002008200023
:10475000be009000808f50001a0032002008200018
:104760003e019000800f510005003c0080042000b5
:10477000be019000808f51000f0032001100370001
:1047800040082000be009000808f50000a003200d8
:10479000800820003e019000800f5100060032008a
:1047a000080037004dfc0700104798001e4090009d
:1047b0000004e00003003a0097c9bf00b6fe0700fe
:1047c000104798001e4090000004e000af003a003f
:1047d0001e80fb006101b900f0fe2f00f1ff2f00e9
:1047e0000201400083814800420798005307980067
:1047f00070072000010020004e019000de019000b3
:10480000800f5100818f59009d003e004e009000a6
:10481000de0090000060010093003700bb0037000d
:10482000750037009300370095003700940037007b
:10483000930037008f003700910037009000370059
:104840008f0037008e0037008d0037008c00370056
:104850008b0037008a003700ac0037008200370039
:104860008400370067003700850037008400370078
:10487000830037007f003700810037008000370059
:104880007f0037007e0037007d0037007c00370056
:104890007b0037007a003700790037007800370056
:1048a0007700370076003700750037007400370056
:1048b0007300370072003700710037007000370056
:1048c0006f0037006e0037006d0037006c00370056
:1048d0006b0037006a003700600037005700370070
:1048e000640037006000370065003700640037005f
:1048f0006300370046003700610037006000370072
:104900005f0037005e0037005d0037005c00370055
:104910005b0037005a003700590037005800370055
:104920005700370056003700550037005400370055
:104930005300370052003700510037005000370055
:104940004f0037004e0037004d0037004c00370055
:104950004b0037004a003700490037004800370055
:104960004700370046003700450037004400370055
:104970004300370042003700410037004000370055
:104980003f0037003e0037003d0037003c00370055
:104990003b0037003a003700390037003800370055
:1049a0003700370036003700350037003400370055
:1049b0003300370032003700310037003000370055
:1049c0002f0037002e0037002d0037002c00370055
:1049d0002b0037002a0037001b0037001200370079
:1049e000240037000d003700250037002400370071
:1049f000230037001c00370030c1b3001047980077
:104a00004200370052fe0700104798003f00370071
:104a10008bfe0700104798003c003700e5fe0700ba
:104a20001047980039003700e2fe07001047980051
:104a30001e4090000004e00034003a00eefe070043
:104a40001047980031003700dafe07001047980041
:104a50001e4090000004e0002c003a00e6fe070033
:104a60001047980029003700e0cfb30010479800a6
:104a70002600370010c1b30010479800230037000c
:104a800020c1b300104798002000370099c9bf002b
:104a90000080fb0020079800ae009000e48f5000db
:104aa000080032002e019000e80f5100040032008f
:104ab000ae019000e28f51000c003200130037006d
:104ac000bcfe07001e409000fd4f50000400320065
:104ad000c9fe070020c0b30099e9b7000300370002
:104ae00040c0b30099e9b700080037001e409000ad
:104af000f64f500003003a0010c0b30099e9b70028
:104b00000200370020c0b30099e9b7001e409000b2
:104b1000e14f4000300032002e4090008080fb00ca
:104b200099c9bf000080fb006f006000808f5000bb
:104b3000260032001e4090000004e0000600320013
:104b400099c9bf009ae9b70099c9bf000044a00005
:104b500099e9b700170037009bc9bf000004e000c7
:104b6000080032009bc9bf00104798002e409000fb
:104b70009ae9b7002e4090000044a000204798001a
:104b80000a003700a1992000914078002e40900043
:104b9000814f500003003e0000c0eb00104798001a
:104ba000020037000040eb009ae9b7002e40900069
:104bb00099e9b70099c9bf009e409000b0fc07007a
:104bc0000040eb009be9b7000300370099c9bf0024
:104bd0008040eb00aafc07000080fa0000000600fd
:104be0000000fa000040eb00a0e9b7000040eb0035
:104bf0009ae9b7000040eb009be9b7000040eb00ea
:104c000090e9b7000040eb008ee9b7000040eb00f0
:104c10008fe9b7000040eb00a6e9b7000040eb00c9
:104c200096e9b70010c0b30099e9b70099c9bf0071
:104c30008040eb0092fc07000080fa0000000600b4
:104c40000000fa0001fc07000080fa0000000600e6
:104c50000800fa0010002000000f78004200070052
:104c6000530007006e0007002200070033fa070018
:104c7000cef9070060f90700d500070001003700f2
:104c8000c482a8003dfa07000000e000fcff3200eb
:104c9000a0fa0700c482a900cd82a9001500070070
:104ca000000037003bfa07001e00900002e22400db
:104cb000110009000200d8008000fd008040eb00d8
:104cc000614798000000e00002003a0010c0b30005
:104cd000604798001e0090000000e8001007980050
:104ce000ee4090000104e000eeff320019fa0700e8
:104cf000ecff37000000fa00410a200091407800e4
:104d000080cfb30000c060003040b300a4e0b70023
:104d1000210b200091407800f0c8b30000c0600073
:104d200001c2b30001407000b2e0b700a10a200048
:104d300091407800f0c8b30000c0600001c5b30026
:104d400001407000aae0b700810a2000914078007d
:104d500080cfb30000c060000024a000a8e0b7002e
:104d60000080fa00000006000000fa00000a20009f
:104d7000303a880044c7bf00f043b20044e7b700b0
:104d8000417420009140780000ceb30000c0600064
:104d90007041b30044e7b70042c7bf000042b20011
:104da0000004e000fcff32000080fa000000060072
:104db0000000fa000000eb00101688000000eb0075
:104dc000501688000000eb0090168800c082a900f1
:104dd000c102a800c8e2a800c942a800c962a80090
:104de000d062a900d082a800d0c2a900d0e2a90058
:104df000d102a900d122a800c002a800c022a800a8
:104e0000c802a800c8a2a800c8c2a800c982a900f8
:104e1000c9a2a900cf82a8000080fa000000060005
:104e20000000fa00217420006204200073052000b5
:104e3000824878008348780042c7a9002168200092
:104e40009140780000ceb30000c060004041b30044
:104e500082e6b700816a20009140780000ceb3005e
:104e600000c060009041b300a8e6b700616d20006b
:104e70009140780000ceb30000c060009040b300c5
:104e8000d6e6b700716d20009140780000ceb300e7
:104e900000c060000034a000d7e6b700816d20009c
:104ea0009140780000ceb30000c060007040b300b5
:104eb000d8e6b700217420006204200073052000aa
:104ec000824878008348780042c7a8000080fa0032
:104ed000000006000600fa00200798000000eb0022
:104ee000100798000a0037000000eb00000f780060
:104ef000010037001e0fe800700020009e0f100018
:104f0000fcff34001e0090000000e800100798002d
:104f10009e0090002e009000808f5000f2ff350020
:104f20000080fa00000006000600fa002007980042
:104f30000000eb00100798000a0037000000eb00ab
:104f4000000f7800010037001e0fe800f0f3210089
:104f50009e0f1000fcff34001e0090000000e800cf
:104f6000100798009e0090002e009000808f500047
:104f7000f2ff35000080fa00000006000600fa008b
:104f8000200798000000eb00100798000a00370087
:104f90000000eb00000f7800010037001e0fe80052
:104fa000f03120009e0f1000fcff34001e00900026
:104fb0000000e800100798009e0090002e0090006e
:104fc000808f5000f2ff35000080fa0000000600dc
:104fd0000000fa000000eb00f04d88000000eb003c
:104fe000900888000000eb00500888002111200084
:104ff00091407800f0ccb30000c060000044a000f5
:1050000012e1b70000352c00700888008500a90067
:1050100013e1a8009500a8000080fa000000060037
:105020003600f800809fbe00829fbe00849fbe00b5
:10503000869fbe000000fa008500a900d462a80087
:10504000dff80700f04d80000000e800f04d880018
:10505000d462a9000080fa004f03be004f02be00d8
:105060004f01be004f00be003600f90000400600b0
:020000040000fa
:0200000401f009
:04000800ffff0000f6
:020000040000fa
:0200000401f009
:04000c00fbff0000f6
:020000040000fa
:0200000401f009
:040010009cff000051
:020000040000fa
:0200000401f009
:040014007fff00006a
:020000040000fa
:0200000401f009
:04001800f8ff0000ed
:020000040000fa
:100008006a2800006a2800006a2800006a280000a0
:100018006a2800006a2800006a2800006a28000090
:100028004c1b00006a2800006a2800006a280000ab
:100038006a2800006a2800006a2800006a28000070
:10004800102800006a2800006a2800006a280000ba
:100058006a280000661900006a2800006a28000063
:100068006a2800006a2800006a2800006a28000040
:100078006a2800006a2800006a2800006a28000030
:100088006a2800006a2800006a2800006a28000020
:100098006a2800006a2800006a2800006a28000010
:1000a8006a2800006a2800006a2800006a28000000
:1000b8006a2800006a2800006a2800006a280000f0
:1000c8006a2800006a2800006a2800006a280000e0
:1000d8006a2800006a2800006a2800006a280000d0
:1000e8006a2800006a2800006a2800006a280000c0
:1000f8006a2800006a2800006a2800006a280000b0
:100108006a2800006a2800006a2800006a2800009f
:100118006a2800006a2800006a2800006a2800008f
:100128006a2800006a2800006a2800006a2800007f
:100138006a2800006a2800006a2800006a2800006f
:100148006a2800006a2800006a2800006a2800005f
:100158006a2800006a2800006a2800006a2800004f
:100168006a2800006a2800006a2800006a2800003f
:100178006a2800006a2800006a2800006a2800002f
:100188006a2800006a2800006a2800006a2800001f
:100198006a2800006a2800006a2800006a2800000f
:1001a8006a2800006a2800006a2800006a280000ff
:1001b8006a2800006a2800006a2800006a280000ef
:1001c8006a2800006a2800006a2800006a280000df
:1001d8006a2800006a2800006a2800006a280000cf
:1001e8006a2800006a2800006a2800006a280000bf
:0801f8006a2800006a280000db
:020000040000fa
:100208006a2800006a2800006a2800006a2800009e
:100218006a2800006a2800006a2800006a2800008e
:100228004c1b00006a2800006a2800006a280000a9
:100238006a2800006a2800006a2800006a2800006e
:10024800102800006a2800006a2800006a280000b8
:100258006a280000661900006a2800006a28000061
:100268006a2800006a2800006a2800006a2800003e
:100278006a2800006a2800006a2800006a2800002e
:100288006a2800006a2800006a2800006a2800001e
:100298006a2800006a2800006a2800006a2800000e
:1002a8006a2800006a2800006a2800006a280000fe
:1002b8006a2800006a2800006a2800006a280000ee
:1002c8006a2800006a2800006a2800006a280000de
:1002d8006a2800006a2800006a2800006a280000ce
:1002e8006a2800006a2800006a2800006a280000be
:1002f8006a2800006a2800006a2800006a280000ae
:100308006a2800006a2800006a2800006a2800009d
:100318006a2800006a2800006a2800006a2800008d
:100328006a2800006a2800006a2800006a2800007d
:100338006a2800006a2800006a2800006a2800006d
:100348006a2800006a2800006a2800006a2800005d
:100358006a2800006a2800006a2800006a2800004d
:100368006a2800006a2800006a2800006a2800003d
:100378006a2800006a2800006a2800006a2800002d
:100388006a2800006a2800006a2800006a2800001d
:100398006a2800006a2800006a2800006a2800000d
:1003a8006a2800006a2800006a2800006a280000fd
:1003b8006a2800006a2800006a2800006a280000ed
:1003c8006a2800006a2800006a2800006a280000dd
:1003d8006a2800006a2800006a2800006a280000cd
:1003e8006a2800006a2800006a2800006a280000bd
:0803f8006a2800006a280000d9
:020000040000fa
:1050700000080000ca00000000000000ba0900009b
:105080000200000000000000640900002a00000087
:1050900000000000ca0800009a00000000000000a4
:1050a000bc0900000200000000000000a809000088
:1050b00012000000000000008e0900001a0000002d
:1050c00000000000be090000020000000000000017
:0450d00000000000dc
:020000040000fa
:0450d4000000fe00da
:00000001FF
