:020000040000fa
:080000000018040000000000dc
:020000040000fa
:10300000efb0200000ff2000000188000000000059
:103010000a00070011000700000020000000e00087
:10302000020032000000020000000000622e0200d8
:10303000000000000040da000000fe004440a9004b
:10304000000020000000e00003003200000020002b
:10305000a00188004440a80000000600202c2500a4
:10306000010020001500370062004000e0804800a9
:10307000910188009001ba0062004000e0804800a1
:10308000910188009002ba0062004000e080480090
:103090000002eb006028e10004003a000059eb0058
:1030a0008301e900fdff3e00040037006128e100d4
:1030b000010032000082eb0005000700910188004a
:1030c0001001ba000200e000e7ff3a00000005002e
:1030d000910188008002780062004000e080480092
:1030e0003559ba008301e900080032002559ba00b9
:1030f0008301e900050032000400e000f4ff320023
:1031000015d9ba008301e900f1ff3a00000006007a
:103110008001eb0002003700817178008301e80034
:10312000828f5100fcff3a00000006006022b800c8
:10313000060220000000d0008180d2000482d2006c
:103140008582d2000000a0000202520083825a0051
:10315000030031000202420083824a000000a10005
:103160000603e900f3ff3a00000006000800fa0039
:10317000300798006000b8001007980021079800f9
:103180000000eb00000f7800100037003e009000b8
:103190009e0078004500dd000100400080004000f6
:1031a000e080200000804000100078006101b8003d
:1031b0001e009000ae009000000041008180490098
:1031c00010079800210798001e0fe800f00120006a
:1031d0009e0f1000edff34001e009000ae00900026
:1031e0004b09dd004500de0000007100c588de00ef
:1031f0000080fa00000006000600fa006000b80037
:10320000008fbe000000eb00200798000b00370085
:103210002e00900080004000e094200000804000dc
:1032200010007800010020001e0f40005e9748004b
:103230002e0090000000e800200798002e0090006b
:10324000ef0f5000f2ff34001e00be004c09dd00fd
:103250004400de0000007100c488de000080fa0037
:10326000000006000000fa000000eb00504088005b
:103270000000eb00604088000000eb00601988004f
:1032800023c3bf007f40600023e3b70025e3a9000c
:10329000513220009140780000ceb30000c06000a1
:1032a000a040b30025e3b70010c0b30024e3b7008b
:1032b0003132200091407800c0cfb30000c06000e0
:1032c00023e3b7002043a8002143a8002063a900fe
:1032d0002343a800213220009140780030ccb30075
:1032e00000c060000044a00022e3b7002c03a90046
:1032f0002c23a9002c43a9002c63a9002c83a9002e
:103300002ca3a8002cc3a8002ce3a8002d03a80020
:1033100020c3bf007f40600001c6b30001407000c1
:1033200020e3b7002223a8003003a8003023a80020
:103330003043a8003063a8003083a8001132200079
:1033400091407800c0cfb30000c0600021e3b70017
:1033500021e3a80085a0a90095a0a8000080fa009c
:1033600000000600809fbe00821f78000200fa0065
:1033700085a0a90022c3bf0001c8b30001406000be
:103380000004e0000b003a00801880000040880034
:103390009018800010408800a0188000204088000d
:1033a000b018800030408800c0188000404088007d
:1033b0000a003700001880000040880010188000c4
:1033c00010408800201880002040880030188000bd
:1033d0003040880040188000404088005040800005
:1033e0003240800080004000e08c200000804000df
:1033f0000208780050408000424080008000400079
:10340000e0902000008040000208780050408000da
:103410002240800080004000e088200000804000c2
:103420000208780050408000024080008000400088
:10343000e0802000008040000208780050408000ba
:103440001240800080004000e084200000804000a6
:1034500002087800504080000000e800ff0f500094
:1034600004003c00504080000000e800000f78009d
:10347000020037000000eb00000f78001e0078000b
:10348000504088000080fa004f0178004f00be00d5
:10349000004006002200fa0030079800410798001b
:1034a0000000eb0020079800be00900060022000a2
:1034b0000088b90080007800a0a9200000804000aa
:1034c00010079800be009000600220000088b9003c
:1034d00080007800a0972000008f4000be00900080
:1034e00001814000c0a820000000410010007800c9
:1034f0000001e80081804000c0a82000008040005a
:10350000020878001e007800c00090001e009000a5
:10351000410098001e007800d00090001e0090002e
:10352000510098001e007800e00090001e009000fe
:10353000610098001e007800f00090001e009000ce
:10354000710098001e007800801090001e0090000e
:10355000011098001e007800f00890001e009000f6
:10356000710898003e00900080004000c0a8200034
:1035700000804000900078004e009000808f500046
:10358000c80035003e00900080004000c0a8200028
:10359000808040000000eb008008780010002000d0
:1035a000200798001e009000900090001e007800f8
:1035b00010009000808f50002a0032001e00900002
:1035c00010009000001798001e00900090009000de
:1035d0001e00780010009000008050000000e00005
:1035e00003003d000080eb00700f980002003700e0
:1035f00011002000710f98000e1190007e089000bd
:10360000800051001e009000110098001e009000e4
:103610009000900000d02700808f50000a003c00ee
:103620001e00900010009000600f980000302800ed
:10363000ee089000808f500005003d000230280009
:10364000620f98000200370000d02700600f98003a
:103650001e009000ee089000110098000000eb00a2
:10366000200798001e009000a00090001e00780027
:1036700020009000808f50002a0032001e00900031
:1036800020009000500f98001e009000a0009000b5
:103690001e00780020009000008050000000e00034
:1036a00003003d000081eb00420f9800020037004c
:1036b00010002000400f98005e0990004e08900016
:1036c000800051001e009000210098001e00900014
:1036d000a000900000d02700808f50000a003c001e
:1036e0001e00900020009000300f9800003028004d
:1036f000be089000808f500005003d000230280079
:10370000320f98000200370000d02700300f9800d9
:103710001e009000be089000210098000000eb0001
:10372000200798001e009000b00090001e00780056
:1037300030009000808f50002a0032001e00900060
:1037400030009000200f98001e009000b000900004
:103750001e00780030009000008050000000e00063
:1037600003003d000081eb00120f980002003700bb
:1037700010002000100f98002e0990001e089000e5
:10378000800051001e009000310098001e00900043
:10379000b000900000d02700808f50000a003c004d
:1037a0001e00900030009000000f980000302800ac
:1037b0008e089000808f500005003d0002302800e8
:1037c000020f98000200370000d02700000f980079
:1037d0001e0090008e089000310098000000eb0061
:1037e000200798001e009000901090001e007800a6
:1037f00010109000808f50002a0032001e009000b0
:1038000010109000700798001e009000901090001b
:103810001e00780010109000008050000000e000b2
:1038200003003d000081eb006207980002003700b2
:1038300010002000600798007e0190006e0090004c
:10384000800051001e009000111098001e00900092
:103850009010900000d02700808f50000a003c009c
:103860001e009000101090005007980000302800b3
:10387000de009000808f500005003d0002302800df
:10388000520798000200370000d027005007980028
:103890001e009000de009000111098000000eb0068
:1038a000200798002e0090000080fa00000006001b
:1038b0001a00fa0030079800410798000000eb005a
:1038c00020079800be009000600220000088b90028
:1038d00080007800a0a92000008040001007980018
:1038e000be009000600220000088b90080007800cf
:1038f000a0972000008f4000be0090000181400092
:10390000c0a8200000004100100078000001e8007d
:1039100081804000c0a8200000804000020878009c
:103920001e007800c00090001e009000410098002a
:103930001e007800d00090001e00900051009800fa
:103940001e007800e00090001e00900061009800ca
:103950001e007800e00090001e00900071009800aa
:103960001e007800801090001e009000011098004a
:103970001e007800f00890001e009000710898006a
:103980003e00900080004000c0a820000080400061
:10399000900078004e009000808f50006400350049
:1039a0003e00900080004000c0a8200080804000c1
:1039b0000000eb008008780010002000200798002d
:1039c0001e009000100090000000e0001300320084
:1039d0001e00900010009000400f98001e00900004
:1039e000100090000000e00003003d000080eb00ac
:1039f000300f98000200370011002000310f9800ae
:103a00004e099000be089000010051009e009000f9
:103a1000900098000000eb00200798001e00900026
:103a2000200090000000e000130032001e00900013
:103a300020009000200f98001e00900020009000b1
:103a40000000e00003003d000081eb00120f980031
:103a50000200370010002000100f9800ae08900000
:103a60001e099000028050009e009000a000980067
:103a70000000eb00200798001e009000300090002e
:103a80000000e000130032001e00900030009000a3
:103a9000000f98001e009000300090000000e00031
:103aa00003003d000080eb00700798000200370023
:103ab00011002000710798000e099000fe00900090
:103ac000010051009e009000b00098000000eb0043
:103ad000200798001e009000101090000000e000e9
:103ae000130032001e009000101090006007980034
:103af0001e009000101090000000e00003003d0048
:103b00000081eb00520798000200370010002000ef
:103b100050079800ee0090005e0190000280500077
:103b20009e009000901098000000eb002007980085
:103b30002e0090000080fa00000006000400fa0049
:103b4000100798009e009000600220000088b900d5
:103b500080007800a0a92000008f40009e0078001f
:103b60000000eb00900098009e0078000000eb0041
:103b7000a00098009e0078000000eb00b0009800c4
:103b80009e0078000000eb00901098009e007800e6
:103b90000000eb00f00098009e0078000000eb00b1
:103ba000c00098009e0078000000eb00d000980054
:103bb0009e0078000000eb00e00098009e00780076
:103bc0000000eb00801098001e009000c200dd0095
:103bd00020a92000008140006000b8000089be00dc
:103be0001e009000c200dd00e0a82000008140001f
:103bf0006000b8000089be001e0090004600dd0095
:103c000080007800a0a42000008040000204200072
:103c10008000eb003efd07001e0090008000400089
:103c200060a92000808040000000eb008008780040
:103c30001e0090008000400080a92000808040008d
:103c40000000eb00800878001e009000800040001b
:103c5000c0a82000808040000000eb0080087800b1
:103c60000080fa00000006000200fa000000eb00ed
:103c7000000f7800090037001e0078008000400027
:103c8000a0a82000808040000000eb0080087800a1
:103c90001e007800a9ff07001e0fe8001e00e000cc
:103ca000f5ff34000080fa00000006000400fa006e
:103cb000000f7800110798009e0090001e00780009
:103cc000ce0807000080fa00000006000800fa0095
:103cd0000000eb00200798008d003700ae00900038
:103ce000600220000088b900f6004000a097200084
:103cf000008040009000780011079800ae0090000e
:103d0000600220000088b900f0004000a097200069
:103d100000804000100f78002e00900080004000ce
:103d2000a0a8200000804000100078003007980014
:103d30003e009000e20f500036003200be009000be
:103d4000e28f500007003c003e0090000000e000c1
:103d50000b003200be009000e18f500020003200c6
:103d6000650037003e009000e30f50005300320022
:103d7000be009000e48f50003f0032005e0037002c
:103d80008000eb002e009000c8ff07001e0090008e
:103d9000e10f500006003a002e0090008000400025
:103da000a0a820008080400010002000800878003b
:103db0001e009000e20f500006003a002e00900016
:103dc00080004000a0a8200080804000200020004b
:103dd000800878002e00900058ff07004900370047
:103de0009e0078002e009000b0ff07001e0090009b
:103df000e10f5000430032002e0090008000400090
:103e0000a0a82000808040000000eb00800878001f
:103e10003c0037001e009000e20f50000700320007
:103e20002e00900080004000a0a82000808040006c
:103e30000000eb008008780032003700a10f20005e
:103e40002e00900093fd07000000e0000600320005
:103e50002e00900080004000a0a82000808040003c
:103e600040002000800878009e0078002e0090001e
:103e70002c000700230037001e009000e20f5000c6
:103e8000070032002e00900080004000a0a8200013
:103e90008080400030002000800878001900370042
:103ea000a10f20002e0090007afd07009e007800f0
:103eb0002e0090001b00070012003700a10f200009
:103ec0002e0090007afe07000000e000060032009d
:103ed0002e00900080004000a0a8200080804000bc
:103ee0000000eb00800878008000eb002e009000be
:103ef0006eff0700030037008000eb002e009000eb
:103f00006aff07002e0090000000e80020079800dc
:103f10002e0090000000e00070ff34000080fa00e6
:103f2000000006002400fa00889fbe005007980099
:103f300061079800de009000600220000088b90050
:103f400080007800a0a92000008040004007980071
:103f5000de009000600220000088b9008000780038
:103f6000a097200000804000300798003e0090009d
:103f7000900890006e009000808f500004003d007b
:103f80003e00900010089000001798000b003700ca
:103f90003e00900020089000ee009000111798005d
:103fa000001798000e1190009e119000830f510091
:103fb00002003d001e129000041798008e1290001f
:103fc000250798000000eb00100798003e009000c5
:103fd000100078000000d100610060000004e000e3
:103fe000040032000000eb00ea0907001007980007
:103ff000030037000000eb005d0a0700100798007f
:10400000ae0090001e009000008050000056880016
:10401000de0290004e009000100090006104b90094
:10402000015680004e009000400090000088de00a5
:104030006101b9000243b80003c0b900070278006b
:10404000000242000990b900000242008403780097
:10405000c228dd00a0a32000008040000688be002a
:104060005e0290005e009000c200dd00e0a820002b
:10407000008040001001be0000568000cf80de00ae
:104080000201400083814800c220dd00e0a820003a
:10409000008040000288be005e009000700f980013
:1040a0005e009000c200dd00e0a82000008040001b
:1040b0001001be004e00900070009000cf80de0026
:1040c000800f5100818f5900060034004e0090008f
:1040d000700090006101b900520f9800630f9800c2
:1040e000180037005e009000c200dd00e0a820004c
:1040f000008040001001be004e0090007000900053
:104100000000ea006102b900340f9800450f9800e2
:10411000520f9800630f98005e089000ee08900020
:104120003e099000ce099000820f5000838f580006
:1041300004003d003e0a9000ce0a9000540f980003
:10414000650f9800fe0a9000c228dd00e0a820005c
:10415000008040005e099000ee0990000288be00d9
:10416000de0290004e009000200090006104b90033
:104170005e009000c200dd00e0a82000008040004a
:104180001001be004e009000500090000002780028
:104190000402e900030033008381d1000281d300cf
:1041a000fbff37000243b80003c0b90007027800e4
:1041b000000242000990b900000242008403780026
:1041c000c228dd00e0a32000008040000688be0079
:1041d0005e0090008000400080a920000080400028
:1041e000100f78005e0290005e009000c200dd00bb
:1041f00020a92000008040001001be005e00900059
:104200009e0078004500dd00010040008000400075
:10421000a0a420000080400010007800cf80de00c5
:104220000001510081815900c220dd0020a9200039
:10423000008040000288be005e0190009e01780070
:104240005e0090008000400060a9200000804000d7
:10425000900078001e009000010250004510dd0023
:104260000300400080004000a0a420000080400027
:10427000040878005e0090008000400060a92000e3
:10428000008040009e029000050878005e029000c9
:104290005e009000c200dd0020a9200000804000e8
:1042a0001001be005e0090009e0078004500dd0019
:1042b0000100400080004000a0a4200000804000d9
:1042c00010007800cf80de000201400083814800aa
:1042d000c220dd0020a92000008040000288be002e
:1042e0005e009000200f98001e00e800ff0f5000b5
:1042f00003003c009e00e800110f98000200370008
:104300000001eb00120f9800ae099000ae0990007a
:104310008380410080a92000008040001e0a900098
:1043200004087800de0290004e00900030009000fb
:104330006104b9005e009000c200dd0020a92000e9
:10434000008040001001be000243b80003c0b90065
:1043500007027800000242000990b9000002420002
:10436000840378004e009000600090000601be00bb
:10437000800078008100e900030033008381d100d0
:104380000281d300fbff3700c228dd0020a42000fb
:10439000008040000288be005e0190005e00900038
:1043a000c200dd0020a42000008040001000be00fc
:1043b00080017800820041000097200000804000ca
:1043c000030878005e009000c200dd0060a42000b9
:1043d000008140006000b8000089be003e009000ef
:1043e000100078004c00de00610060000004e00076
:1043f00009003200de0090004e0090001010900086
:104400006101b900c208dd0060a420000080400006
:104410000288be00100037005e0290004e0090003f
:10442000101190004e009000f00890002e009000b7
:10443000810050004e009000001090000088de00c7
:104440000090b9006101b900c220dd0060a4200025
:10445000008040000288be005e009000c200dd00c7
:10446000a0a32000008040001001be005e0090006c
:10447000c200dd00e0a32000008040001000be006c
:1044800002014000838148005e009000c200dd0010
:1044900020a42000008040001000be000201400067
:1044a000838148005e009000c200dd0060a420000f
:1044b000008040001000be000200400083804800e1
:1044c000105688002156880012568000235680001e
:1044d00040c7200001002000800f5100818f59004b
:1044e00010003c0010568000215680007007980094
:1044f000010f980080372f00f1ff2f007e01900000
:104500008e099000800f5100818f590009003d00f5
:1045100084372f00f5ff2f0074079800050f9800cf
:104520000400370040c720000100200070079800f9
:10453000010f98007e0190008e09900012568800ad
:104540002356880010568000215680008000780095
:104550005e009000d5fd07004f04be000080fa0009
:10456000000006000000fa000080fa0000000600cb
:104570000000fa00c2c2bf00704060000004e0000a
:1045800002003200c482a90001003700c482a800e2
:104590000080fa00000006000000fa00c3c2bf005d
:1045a000614060000080fb000080fa00000006000f
:1045b0000000fa000080fa00000006000000fa0087
:1045c0000080fa00000006000000fa00b9050700ac
:1045d0000000eb000080fa00000006000000fa0076
:1045e0000080fa00000006000000fa00e5cabf00e3
:1045f0000080fb00610060000004e0000b0032005e
:1046000010c0b300c8eab70062568000d1568000df
:10461000209c20005f010700a0972000219c200023
:1046200025000900315878006002b1000080fa00ce
:10463000000006000800fa00140007000e007800d1
:1046400082002000019c2000520107003e00be00b5
:104650002e01be00049a2000009abe000292be0005
:10466000009a2000e19f200021000900b058780046
:104670002002b10052568000e1568000e09f2000e9
:104680006d0107000080fa00000006000000fa003b
:104690001000200036080700f04d880010002000b0
:1046a0003c080700d04d88000000eb0039080700e7
:1046b000504d88000000eb002d080700e04d8800f9
:1046c00030002000a9fa0700604d8800200020007b
:1046d000a6fa0700904d88000000eb00a3fa07003f
:1046e000a04d880010002000a0fa0700b04d8800ff
:1046f000400020009dfa0700704d88000000eb008c
:10470000804d88000000eb0093050700c04d880035
:10471000804b8000404d8800904b80000020a0001e
:10472000004e88000080fa00000006003600f80005
:10473000809fbe00829fbe00849fbe00869fbe00f9
:104740000200fa00d4c2a8008400a900b700070044
:10475000cecabf000004e0000a003200c6cabf0093
:104760000004e000020032009fff07000100370054
:104770009aff0700c7cabf000004e0000100320032
:10478000acff070010002000704b88000080fa008a
:104790004f03be004f02be004f01be004f00be00df
:1047a0003600f900004006000400fa000040eb006b
:1047b00030479800c003200050568800c0032000f6
:1047c00060568800009a2000220220008000eb0042
:1047d0004ffa0700a0972000620220008000eb0043
:1047e0004bfa0700209c2000c20320008000eb0051
:1047f00047fa0700e09f2000c20320008000eb0082
:1048000043fa07000000eb00000f78000d003700ae
:104810001e0078008000400000972000808040004b
:104820000000eb00800878001e0078008000400047
:1048300020972000808040000000eb008008780076
:104840001e0fe8001e00e000f1ff34000000eb0046
:10485000a04b88006000b800b04b8800c14b8800b6
:104860000000eb00704b8800160007008200a800d3
:104870008220a8008240a800d4c2a8008400a90019
:1048800063004700120020000114200023010700ec
:104890003e409000e54f5000f9ff3a001200200022
:1048a00051002000f0ac20001c0107000000eb00cc
:1048b000650107009400a800e60407000080fa00e4
:1048c000000006000000fa008540a9009540a900fc
:1048d0000000eb001012880042a2a8002124200052
:1048e00091407800c0cfb30000c060000014a00069
:1048f00042e2b700212420009140780030ceb3007e
:1049000000c060008041b30042e2b70042c2a8008c
:104910004302a9004322a9004342a90040c2a900c2
:1049200041e2a800d4c2a8000080fa0000000600fe
:104930000000fa000000eb000080fa000000060012
:104940000000fa000000eb000080fa000000060002
:104950000000fa000000eb000080fa0000000600f2
:104960000000fa000000eb000080fa0000000600e2
:104970000000fa000000eb000080fa0000000600d2
:104980000000fa000000eb000080fa0000000600c2
:104990000000fa000000eb000080fa0000000600b2
:1049a0000000fa009400a900d4c2a9008540a90023
:1049b000000420004012880085c0bf0064406000f1
:1049c0000004e000fcff320040128000e4eab7007f
:1049d0008540a900200720004012880085c0bf0044
:1049e000644060000004e000fcff320040128000e0
:1049f000e5eab7008540a900f00f200040128800ca
:104a000085c0bf00644060000004e000fcff32008d
:104a100040128000f0eab7008540a900d4c2a80087
:104a20009400a8000080fa00000006000000fa00d0
:104a3000d4c2a9008540a9000000eb004012880004
:104a400085c0bf00644060000004e000fcff32004d
:104a500040128000e4eab7008540a9002000200051
:104a60004012880085c0bf00644060000004e00080
:104a7000fcff320040128000e5eab7008540a90043
:104a8000d4c2a8000080fa00000006000600fa0068
:104a900010079800414798001e009000c300dd00f9
:104aa0004e4090000080fb0000807000000f7800f6
:104ab000d4c2a9008540a9001e4090000080fb00e0
:104ac0004012880085c0bf00644060000004e00020
:104ad000fcff320040128000e4eab7008540a900e4
:104ae0001e4078000080fb004012880085c0bf0097
:104af000644060000004e000fcff320040128000cf
:104b0000e5eab7008540a9000080fa000000060031
:104b10000800fa0020079800614798002e009000d6
:104b2000c300dd006e4090000080fb00008070003c
:104b300010079800d4c2a9008540a9003e4090000b
:104b40000080fb004012880085c0bf006440600008
:104b50000004e000fcff320040128000004f7800ab
:104b60008540a9002e4090000080fb004012880084
:104b700085c0bf00644060000004e000fcff32001c
:104b800040128000004f78008540a9000080fa00a4
:104b9000000006000a00fa0020079800310798007c
:104ba000420798004e009000100798000040eb006c
:104bb000004f780021c0b3003e009000d4ff0700f2
:104bc000130037001e0090000000e00002003a00d1
:104bd00000c0eb00004f78008540a9001e80fb005c
:104be0004012880085c0bf00644060000004e000ff
:104bf000fcff320040128000804078002e009000c0
:104c0000014878002e0090000000e800200798007e
:104c10001e0090000000e900100798001e009000a0
:104c2000e10f4000e7ff3a008540a900d4c2a80088
:104c30000080fa00000006000a00fa002007980031
:104c400031079800420798004e0090001007980026
:104c500041c0b3003e009000adff07000e003700da
:104c60008540a9002e009000104078000080fb00d5
:104c70004012880085c0bf00644060000004e0006e
:104c8000fcff320040128000004f78002e009000a0
:104c90000000e800200798001e0090000000e900d6
:104ca000100798001e009000e10f4000ecff3a0052
:104cb0008540a900d4c2a8000080fa0000000600c8
:104cc0000000fa0036ff0700a05680000000e00058
:104cd00000003200e4cabf000080fb0061006000f9
:104ce0000004e0000b00320022002000011220002e
:104cf00020ae20000900070041ae2000914078005e
:104d0000e0ceb30000c06000e4eab700e2cabf0032
:104d10006a0207000080fa00000006000800fa009e
:104d20001007980021079800320798003e00900075
:104d3000000f7800170037009400a90021c0b300cd
:104d40002e00900051ff0700f00f20004012880055
:104d500085c0bf00644060000004e000fcff32003a
:104d600040128000804078001e00900001487800ca
:104d70001e0090000000e800100798009400a800b2
:104d8000d4c2a8002e0090000000e8002007980080
:104d90008540a9001e0fe9000080eb009e0f100067
:104da000e5ff3a000080fa00000006000a00fa0061
:104db0002007980031079800420798004e009000a5
:104dc00010079800180037009400a90041c0b300f4
:104dd0003e0090002dff07008540a9002e009000a6
:104de000104078000080fb00401288002e009000e8
:104df0000000e8002007980085c0bf006440600004
:104e00000004e000fcff320040128000004f7800f8
:104e10009400a8003e0090000000e80030079800d1
:104e20008540a900d4c2a8001e0090000000e9003f
:104e3000100798001e009000e10f4000e2ff3a00ca
:104e40000080fa00000006000400fa001007980035
:104e50000e0078002200200041202000afff070054
:104e60009e0078001e00900000806000000f780017
:104e70009400a9001e0078000000e00002003a0043
:104e80000040eb00e0eab7000e00780022002000ae
:104e900041202000c5ff07009400a8000080fa0010
:104ea000000006000400fa00100798000e007800c9
:104eb000220020004120200098ff07009e0078007b
:104ec0001e00900000807000000f78009400a90080
:104ed00010c0b300e0eab7000e0078002200200006
:104ee00041202000b1ff07009400a8000080fa00d4
:104ef000000006000400fa0020479800314798009f
:104f00002e4090000080fb00000f78000e0078001b
:104f10002200200001132000a4ff07003e40900063
:104f2000e14f4000070032003e4090000080fb004f
:104f3000000f78000e0078002200200041132000ae
:104f40009aff07000080fa00000006000400fa0043
:104f50002047980010c0b300004f78002e4090000a
:104f60000080fb00c300dd007080200080804000d6
:104f7000120020000e0078008cff07000080fa006d
:104f8000000006000400fa00204798000040eb00f3
:104f9000004f78002e4090000080fb00c300dd0031
:104fa0007080200080804000120020000e007800f9
:104fb0007eff07000080fa00000006000200fa00f1
:104fc000004f78001e80fb00c300dd000080200041
:104fd0008080400080ae2000820020004fff07004c
:104fe00080ae20000080fa00000006000800fa00f1
:104ff000004f7800110798001e80fb0030079800d2
:105000003e0090000000e000040032003e009000ee
:10501000e10f500056003200a90037001e0090003a
:10502000604090008080fb00d00f20000080600076
:105030000000e0000a003a001e00900010009000fe
:105040000000e00006003a00605680000000e0002a
:1050500003003a000000eb0020079800a80037008a
:105060001e009000604090008080fb00d00f200068
:1050700000806000e10f50003a003a001e009000ee
:105080009000900060568000808f500035003a00fc
:105090001e009000404090000080fb006d0060000a
:1050a000e40f50002c003a00d1cabf00e24f50007c
:1050b0000a003a001e00900090007800f0ff2000e7
:1050c000808f5000050036001e0090009000780090
:1050d00000002200808f500008003600d1cabf00b7
:1050e000e24f5000190032001e009000900078003e
:1050f000d0568000808f500014003a001e009000af
:10510000404090000080fb004600de00610060002f
:105110000004e0000300320010c0b300d8eab7007a
:10512000020037000040eb00d8eab700505680007c
:105130000000e00002003a0010c0b300ceeab70061
:105140000000eb00200798006d00370020002000d1
:10515000200798006a0037004000200020079800d0
:1051600067003700300020002007980064003700f7
:105170001e009000604090008080fb00d00f200057
:10518000008060000000e0000a003a001e0090006d
:10519000100090000000e00006003a005056800029
:1051a0000000e00003003a000000eb002007980038
:1051b000530037001e009000604090008080fb008c
:1051c000d00f200000806000e10f500039003a004d
:1051d0001e0090009000900050568000808f50007c
:1051e00034003a001e009000404090000080fb0018
:1051f0006d0060000000e0002b003a00d1cabf0043
:10520000e24f50000a003a001e0090009000780023
:10521000f0ff2000808f5000050036001e00900037
:105220009000780000002200808f500008003600b7
:10523000d1cabf00e24f5000180032001e0090009b
:1052400090007800e0568000808f500013003a00f4
:10525000505680000000e0000d0032001e0090005b
:10526000404090008080fb00d002200080806000e1
:1052700000022000808f500003003a0010c0b300ed
:10528000ceeab700020037000040eb00ceeab700dc
:105290000000eb00200798001900370020002000d4
:1052a00020079800160037004000200020079800d3
:1052b000130037003000200020079800100037004e
:1052c0001e009000604090008080fb00d00f200006
:1052d000008060000000e00004003a001e00900022
:1052e000100090000000e0000300320030002000b9
:1052f00020079800020037000000eb00200798000c
:105300002e0090000080fa00000006000600fa005f
:10531000404798000040eb00104798000040eb0029
:10532000304798001f0037003e409000004f780043
:105330003e4090000004e00003003a0010c0b300bb
:10534000004f7800050037003e409000e14f5000cc
:1053500002003a000040eb00004f78001e40780049
:1053600016ff0700800078001e4078001fff07002e
:10537000204798002e4090000004e0000600320014
:105380001e4090000004e00003003a001e40780038
:105390007d404000104798003e4090000040e800eb
:1053a00030479800be4090004e40900080cf5000a3
:1053b000ddff39001e4090000080fb000080fa00f5
:1053c000000006000800fa000000eb00000f780063
:1053d0000040eb00f9fe0700100798001e00900047
:1053e00010007800d056880010c0b300f3fe07000c
:1053f000100798001e00900010007800e05688000a
:10540000605680006300b90080007800d0568000ac
:1054100080804000e0568000808f500009003600f8
:10542000e15680005056800080804000d0568000b9
:10543000808f500003003600d00120003007980014
:1054400019003700505680000000e0000d003200c7
:1054500010c0b300cbfe070041fd07004047980095
:105460004e4090000004e000040032004e409000e6
:105470000080fb00300798000b00370010c0b3001d
:10548000c7eab700605680000000e000020032006a
:105490000040eb00bbfe07001e00780081fe070005
:1054a0000000eb00300798003e0090000080fa00fa
:1054b000000006000c00fa000040eb004047980096
:1054c00066004700220020000140200013fe070074
:1054d0003e0090000000e00022003200d8cabf0069
:1054e0000004e0001f003200680047002200200096
:1054f0000142200009fe07004e0090000000e0007d
:105500001c0032004e00900001002000008fbe0001
:105510003e0090006103b8001e0078000602b8004b
:105520001e0078000780b9000501780000014100e5
:105530001e00900000b0b900000141008202780016
:10554000048fbe001e00be00821a26000300200049
:10555000f6f60700008fbe001e007800a0568800f7
:10556000040037000000eb00400798000000eb004b
:10557000a05688004e0090000000e00006003a00af
:10558000d8cabf000004e00009003200f00120008a
:105590005007980021003700d8cabf000004e0007f
:1055a00003003a00f0012000500798001b0037006c
:1055b000605680000000e00009003200f0fc0700a7
:1055c000404798004e4090000004e0000400320084
:1055d0004e4090000080fb00500798000f003700fd
:1055e00010c0b300c6eab700decabf000004e00086
:1055f00008003a00cecabf000004e00005003200f7
:10560000605680000000e000020032000010200020
:1056100024fe07000000eb00500798005e00900099
:105620000080fa00000006000200fa000040eb00d3
:10563000004f7800f0ef2f0003fe07000040eb0062
:10564000c8eab7000040eb00c6eab7006056800029
:105650000000e00002003200cdfc0700004f78009f
:105660001e80fb000080fa00000006000200fa0025
:105670000040eb00004f78000040eb0033fe0700d5
:1056800030cf2f00f0fd07000040eb00ceeab7005e
:105690000040eb00deeab7000040eb00c7eab700cd
:1056a00010c0b30029fe0700b1fc0700004f7800ce
:1056b0001e80fb000080fa00000006000c00fa00cb
:1056c000204798000040eb00104798002e409000c3
:1056d0000080fb004400de00610060000004e00088
:1056e00005003200d1cabf00f1ceb3000140600016
:1056f000d1eab7000e003700d1cabf000080fb001e
:105700004400de00610060000004e0000800320098
:105710002e4090000080fb00ef006000d1cabf0067
:105720000080fb006f006000808f500047013c004c
:105730002e4090006f40600020479800d1cabf0003
:10574000004f78001e4078004400dd00004f7800d4
:105750002e4090001e4f40001e407800d9eab7004e
:105760009e80fb0031079800400420003e0190001d
:10577000800f51002d00320040042000be01900037
:10578000808f51000e003c0020022000be009000df
:10579000808f500028003200200220003e0190003f
:1057a000800f510001003c00230037004002200020
:1057b000be019000808f5100170032001e0037009c
:1057c00020082000be009000808f50001a00320098
:1057d000200820003e019000800f510005003c0091
:1057e00080042000be019000808f51000f00320025
:1057f0001100370040082000be009000808f50004c
:105800000a003200800820003e019000800f510005
:1058100006003200080037004dfc070010479800d2
:105820001e4090000004e00003003a00cfcabf0011
:10583000b6fe0700104798001e4090000004e000ec
:10584000af003a001e80fb006101b900f0fe2f009e
:10585000f1ff2f00020140008381480042079800b9
:105860005307980070072000010020004e019000af
:10587000de019000800f5100818f59009d003e0095
:105880004e009000de0090000060010093003700a1
:10589000bb003700750037009300370095003700d4
:1058a00094003700930037008f00370091003700d5
:1058b000900037008f0037008e0037008d003700d2
:1058c0008c0037008b0037008a003700ac003700af
:1058d00082003700840037006700370085003700fa
:1058e00084003700830037007f00370081003700d5
:1058f000800037007f0037007e0037007d003700d2
:105900007c0037007b0037007a00370079003700d1
:1059100078003700770037007600370075003700d1
:1059200074003700730037007200370071003700d1
:10593000700037006f0037006e0037006d003700d1
:105940006c0037006b0037006a00370060003700da
:1059500057003700640037006000370065003700eb
:1059600064003700630037004600370061003700ed
:10597000600037005f0037005e0037005d003700d1
:105980005c0037005b0037005a00370059003700d1
:1059900058003700570037005600370055003700d1
:1059a00054003700530037005200370051003700d1
:1059b000500037004f0037004e0037004d003700d1
:1059c0004c0037004b0037004a00370049003700d1
:1059d00048003700470037004600370045003700d1
:1059e00044003700430037004200370041003700d1
:1059f000400037003f0037003e0037003d003700d1
:105a00003c0037003b0037003a00370039003700d0
:105a100038003700370037003600370035003700d0
:105a200034003700330037003200370031003700d0
:105a3000300037002f0037002e0037002d003700d0
:105a40002c0037002b0037002a0037001b003700de
:105a500012003700240037000d0037002500370002
:105a600024003700230037001c00370030c1b3008a
:105a7000104798004200370052fe07001047980078
:105a80003f0037008bfe0700104798003c003700ae
:105a9000e5fe07001047980039003700e2fe0700d6
:105aa000104798001e4090000004e00034003a00c7
:105ab000eefe07001047980031003700dafe0700bd
:105ac000104798001e4090000004e0002c003a00af
:105ad000e6fe07001047980029003700e0cfb3002a
:105ae000104798002600370010c1b30010479800f7
:105af0002300370020c1b300104798002000370072
:105b0000d1cabf000080fb0020079800ae009000c3
:105b1000e48f5000080032002e019000e80f510081
:105b200004003200ae019000e28f51000c00320000
:105b300013003700bcfe07001e409000fd4f5000d0
:105b400004003200c9fe070020c0b300d1eab7004c
:105b50000300370040c0b300d1eab70008003700a7
:105b60001e409000f64f500003003a0010c0b300f2
:105b7000d1eab7000200370020c0b300d1eab70075
:105b80001e409000e14f4000300032002e40900057
:105b90008080fb00d1cabf000080fb006f00600066
:105ba000808f5000260032001e4090000004e0006c
:105bb00006003200d1cabf00d2eab700d1cabf0086
:105bc0000044a000d1eab70017003700d3cabf00d5
:105bd0000004e00008003200d3cabf00104798005c
:105be0002e409000d2eab7002e4090000044a00062
:105bf000204798000a00370021ad2000914078002e
:105c00002e409000814f500003003e0000c0eb008a
:105c100010479800020037000040eb00d2eab700be
:105c20002e409000d1eab700d1cabf009e4090003c
:105c3000b0fc07000040eb00d3eab70003003700d8
:105c4000d1cabf008040eb00aafc07000080fa0028
:105c5000000006000000fa000040eb00d8eab700a0
:105c60000040eb00d2eab7000040eb00d3eab700f7
:105c70000040eb00c8eab7000040eb00c6eab700fe
:105c80000040eb00c7eab7000040eb00deeab700d7
:105c90000040eb00ceeab70010c0b300d1eab70075
:105ca000d1cabf008040eb0092fc07000080fa00e0
:105cb000000006000000fa0001fc07000080fa0066
:105cc000000006000400fa00da010700eb010700fb
:105cd00012020700ba01070022fa07005c01070060
:105ce000e1f707005ff507007802070008030700e7
:105cf00001003700c482a80027fa07000000e00076
:105d0000fcff3200a8fa0700c482a900ac0107001a
:105d10001e00780012e22400110009000200d800e1
:105d20008000fd008040eb00214798000000e0006b
:105d300002003a0010c0b300204798001e0fe80090
:105d4000ae4090000104e0000100320008fa0700b4
:105d50001dfa0700eeff37000200fa00000f78007e
:105d60001e0078008000400040b02000008040000d
:105d7000100078000080fa00000006000800fa0019
:105d8000000f7800110798001e0090000000e0004e
:105d900003003a000000eb00300798002d003700a8
:105da0009e007800600220000088b90041022000b7
:105db00080804000a0972000008040001000780004
:105dc0000000e00016003d009e0078006002200008
:105dd0000088b9004102200080804000a097200088
:105de000008040001000780020079800ae0090006e
:105df0000100e00003003d002e0090000000ea00da
:105e0000200798001e009000ae009000808f500088
:105e10000e0034000000eb00100798000b00370064
:105e20009e007800600220000088b9004102200036
:105e300080804000a0972000008040009000780003
:105e40001e00900001004000100798001e00900006
:105e5000300798003e0090000080fa000000060025
:105e60000c00fa0010079800210798009e0090008f
:105e7000600220000088b900f8004000a0972000d0
:105e80000080400010007800e40f50000f00340044
:105e90009e009000600220000088b900f8004000d9
:105ea000a097200000804000100078005007980064
:105eb00040c72000de009000808f500005003400b5
:105ec00040c7200050079800020037005100200012
:105ed000510798005e009000000f780041c7200035
:105ee0002e00900080805000f0c62000808f50006f
:105ef0000e003c0041c720002e0090008080500022
:105f000040c720001e00500030079800410798004d
:105f1000ce0090003e009000808f500005003d00b4
:105f2000be0090004107980002003700f0c6200034
:105f3000400798004e0090000080fa000000060024
:105f40000a00fa0010079800210798009e009000b0
:105f5000600220000088b900f8004000a0972000ef
:105f60000080400010007800e40f50000f00340063
:105f70009e009000600220000088b900f8004000f8
:105f8000a097200000804000100078004007980093
:105f900040c72000ce009000808f500005003400e4
:105fa00040c7200040079800020037005100200041
:105fb000410798004e009000000f78002e009000de
:105fc0009e0f500008003c00ae0090003107980082
:105fd0003e009000e50f500005003d0051002000fc
:105fe00031079800020037001e0078003007980043
:105ff0003e0090000080fa00000006001e00fa003b
:10600000881f780010079800210798001e00900054
:10601000600f98002e0090000000e00003003d009b
:106020008080eb00510f9800020037001200200022
:10603000520f9800ae019000430f98004e08900058
:106040000000e00003003d00ce0890008100ea005f
:10605000410f98009e009000600220000088b90067
:10606000f8004000a0972000008040001000780059
:10607000300f98004e099000220f9800ae09900052
:106080003e089000808f510002003400be0890004e
:10609000210f98005e099000ae0990000390b900ae
:1060a000000178006e0890006e08900080004000ab
:1060b00040b0200000804000020878002e009000d0
:1060c0000000e00003003d008080eb00110f98000d
:1060d0000200370012002000120f98009e09900065
:1060e000030f78002e009000000f98008e0890009b
:1060f0000100e00003003d000e0990000201ea00eb
:10610000020f98008e0890001e0090001bff0700f1
:10611000200798001e049000ae0090001e00900022
:1061200087ff0700800078001e0078000088b90013
:10613000000178008800440040b02000008040004a
:10614000020878009e019000730798002e009000ce
:106150000000e00003003d000080eb0060079800b5
:106160000200370011002000610798002e01900006
:1061700052079800de0190000300e00003003d009c
:106180005e0090000000ea00500798009e0090001a
:10619000600220000088b900f8004000a0972000ad
:1061a000008040001000780040079800de0090005a
:1061b000310798003e019000ce019000830f5100fe
:1061c000020034004e009000300798006e019000ed
:1061d000be0190000390b900000178007e0090009d
:1061e0007e0090008000400040b020000080400011
:1061f000020878001e049000ae0090001e0090007f
:1062000017ff0700000178008800440060b02000fc
:1062100000804000020878001e00e0000500350004
:1062200030588000b00e880080302000a00e88001a
:106230000400370020c02000a00e880030588000e5
:10624000c00e88004f0478000080fa0000000600ad
:106250000200fa000000eb00000f78000d0037008c
:106260001e0078008000400040b020008080400088
:106270000000eb00800878001e00780080004000dd
:1062800060b02000808040000000eb0080087800b3
:106290001e0fe8001e00e000f1ff3400c1e1a9007c
:1062a0000000eb00000e8800c0c1bf006f4060001e
:1062b000c0e1b700011c20009140780030cfb3004e
:1062c00000c06000c0e1b700f0632000200e88002d
:1062d000011c200091407800c0cfb30000c06000d6
:1062e000c0e1b7000000eb00100e88000000eb00da
:1062f000400e8800c901a900c921a900c941a9000f
:10630000c881a800c801a800c8a1a800c821a80089
:106310000000eb00500e8800b11c20009140780076
:1063200000cfb30000c06000cbe1b700ca41a800b5
:10633000310e80000000280000806000410620002f
:1063400001007000300e88000000eb00600e880035
:10635000c11c20009140780000ccb30000c0600058
:106360006040b300cce1b700d11c20009140780020
:1063700000ccb30000c060006040b300cde1b700c6
:106380000000eb00700e8800ce21a900ce01a8000d
:10639000ce61a900ce41a8000000eb00b00e88003d
:1063a0000000eb00c00e88000000eb00800e8800ab
:1063b0008b20a900c1e1a8000080fa0000000600bf
:1063c0000000fa00410a20009140780080cfb3001d
:1063d00000c060003040b300a4e0b700210b2000f3
:1063e00091407800f0c8b30000c0600001c2b30063
:1063f00001407000b2e0b700a10a2000914078008f
:10640000f0c8b30000c0600001c3b30001407000d9
:10641000aae0b700810a20009140780080cfb30045
:1064200000c060005040b300a8e0b7000080fa0050
:10643000000006000000fa00000a2000303a880040
:1064400044c7bf00f043b20044e7b70041742000e6
:106450009140780000ceb30000c060007041b300ee
:1064600044e7b70042c7bf000042b2000004e000aa
:10647000fcff32000080fa00000006000000fa0075
:106480000000eb00101688000000eb00501688009a
:106490000000eb0090168800c082a900c102a8008d
:1064a000c8e2a800c942a800c962a800d062a90039
:1064b000d082a800d0c2a900d0e2a900d102a900d0
:1064c000d122a800c002a800c022a800c802a800cb
:1064d000c822a800c842a800c8a2a800d042a900ab
:1064e000d002a900c8c2a800c862a900d022a90091
:1064f000c882a800c922a800c902a800c942a900f0
:10650000c962a900c982a900c9a2a900c9c2a9007b
:10651000c9e2a9000080fa00000006000000fa00ad
:106520002174200062042000730520008248780056
:106530008348780042c7a900216820009140780074
:1065400000ceb30000c060004041b30082e6b70057
:10655000816a20009140780000ceb30000c0600046
:106560009041b300a8e6b700616d2000914078002b
:1065700000ceb30000c060009040b300d6e6b70084
:10658000716d20009140780000ceb30000c0600023
:106590000034a000d7e6b700816d2000914078005c
:1065a00000ceb30000c060007040b300d8e6b70072
:1065b00021742000620420007305200082487800c6
:1065c0008348780042c7a8000080fa000000060057
:1065d0000600fa00200798000000eb001007980062
:1065e0000a0037000000eb00000f780001003700c0
:1065f0001e0fe800700020009e0f1000fcff34000a
:106600001e0090000000e800100798009e00900017
:106610002e009000808f5000f2ff35000080fa00bd
:10662000000006000600fa00200798000000eb00ba
:10663000100798000a0037000000eb00000f7800f8
:10664000010037001e0fe800f0f321009e0f10003c
:10665000fcff34001e0090000000e80010079800c6
:106660009e0090002e009000808f5000f2ff3500b9
:106670000080fa00000006000600fa0020079800db
:106680000000eb00100798000a0037000000eb0044
:10669000000f7800010037001e0fe800f0312000e5
:1066a0009e0f1000fcff34001e0090000000e80068
:1066b000100798009e0090002e009000808f5000e0
:1066c000f2ff35000080fa00000006000000fa002a
:1066d0000000eb00505888000000eb009008880094
:1066e0000000eb0050088800211120009140780044
:1066f000f0ccb30000c060000044a00012e1b7007d
:10670000409c2000700888008500a90013e1a800c3
:106710009500a8000080fa00000006003600f8008e
:10672000809fbe00829fbe00849fbe00869fbe00e9
:106730000000fa008500a900d462a800d462a90074
:106740009400070061f50700505880000000e80041
:10675000505888000080fa004f03be004f02be0070
:106760004f01be004f00be003600f9000040060099
:106770000200fa00000f78001e0078008000400040
:1067800000b0200000804000100078000080fa0077
:10679000000006000800fa00300798006000b8000a
:1067a00010079800210798000000eb00000f780008
:1067b000100037003e0090009e00780082af20005d
:1067c00000004000010040000000400002004000c6
:1067d000100078006101b8001e009000ae0090002b
:1067e00000004100818049001007980021079800af
:1067f0001e0fe800100020009e0f1000edff340077
:106800001e009000ae0090008180d1000080d30077
:106810000080fa00000006000600fa001007980049
:10682000210798000000eb00000f78009e00780020
:106830002e0090004200de000001780081804000c0
:106840000097200000804000020878002e00900091
:1068500063006000e10f500005003a002e00900038
:10686000c200de00e0fd2300808f50001f003600d4
:106870009e007800600220000088b9008000780047
:10688000a097200000804000100078004700de0044
:10689000610060000004e000080032009e009000eb
:1068a0002e0090004201de008180400020af2000d9
:1068b0000080400002087800130037001e0190009d
:1068c0001e0090008000400000b0200000804000ca
:1068d000100078008001e8008200410000b0200034
:1068e0000080400003087800070037009e009000f9
:1068f0002e0090004201de008180400020af200089
:1069000000804000020878000080fa0000000600c5
:106910000200fa00d442a800cc62a8000000eb00fc
:10692000000f78000d0037001e0078008000400046
:1069300020af2000808040000000eb00800878003d
:106940001e0078008000400000b0200080804000e1
:106950000000eb00800878001e0fe8001000200007
:106960009e0f1000f0ff34000080fa0000000600c7
:106970000200fa00000f78001e007800800040003e
:1069800020af200000804000100078000080fa0056
:10699000000006000600fa00c8a2a900cea2a800c6
:1069a000c8c2a900cec2a800d442a900cc62a900e6
:1069b000d402a900d422a9000000000000000000b9
:1069c00000000000000000000000000000000000c7
:1069d00000000000000000000000000000000000b7
:1069e00000000000000000000000000000000000a7
:1069f0000000000000000000000000000000000097
:106a00000000000000000000000000000000000086
:106a10000000000000000000000000000000000076
:106a20000000000000000000000000000000000066
:106a30000000000000000000000000000000000056
:106a40000000000000000000000000000000000046
:106a50000000000000000000000000000000000036
:106a60000000000000000000000000000000000026
:106a70000000000000000000000000000000000016
:106a80000000000000000000000000000000000006
:106a900000000000000000000000000000000000f6
:106aa00000000000000000000000000000000000e6
:106ab00000000000000000000000000000000000d6
:106ac00000000000000000000000000000000000c6
:106ad00000000000000000000000000000000000b6
:106ae00000000000000000000000000000000000a6
:106af0000000000000000000000000000000000096
:106b00000000000000000000000000000000000085
:106b10000000000000000000000000000000000075
:106b20000000000000000000d402a800d422a80049
:106b3000cca2a800ccc2a800000000000000000009
:106b40000000000000000000000000000000000045
:106b50000000000000000000000000000000000035
:106b60000000000000000000000000000000000025
:106b70000000000000000000000000000000000015
:106b80000000000000000000000000000000000005
:106b900000000000000000000000000000000000f5
:106ba00000000000000000000000000000000000e5
:106bb00000000000000000000000000000000000d5
:106bc00000000000000000000000000000000000c5
:106bd00000000000000000000000000000000000b5
:106be00000000000000000000000000000000000a5
:106bf0000000000000000000d402a900d422a90077
:106c00000000000000000000000000000000000084
:106c10000000000000000000000000000000000074
:106c20000000000000000000000000000000000064
:106c30000000000000000000000000000000000054
:106c40000000000000000000000000000000000044
:106c50000000000000000000000000000000000034
:106c60000000000000000000000000000000000024
:106c70000000000000000000000000000000000014
:106c80000000000000000000000000000000000004
:106c900000000000000000000000000000000000f4
:106ca00000000000000000000000000000000000e4
:106cb00000000000000000000000000000000000d4
:106cc000d402a800d422a800cca2a900ccc2a9005a
:106cd00000000000000000000000000000000000b4
:106ce00000000000000000000000000000000000a4
:106cf0000000000000000000000000000000000094
:106d00000000000000000000000000000000000083
:106d10000000000000000000000000000000000073
:106d20000000000000000000000000000000000063
:106d30000000000000000000000000000000000053
:106d40000000000000000000000000000000000043
:106d50000000000000000000000000000000000033
:106d60000000000000000000000000000000000023
:106d70000000000000000000000000000000000013
:106d80000000000000000000000000000000000003
:106d9000d402a900d422a9000000000000000000d5
:106da00000000000000000000000000000000000e3
:106db00000000000000000000000000000000000d3
:106dc00000000000000000000000000000000000c3
:106dd00000000000000000000000000000000000b3
:106de00000000000000000000000000000000000a3
:106df0000000000000000000000000000000000093
:106e00000000000000000000000000000000000082
:106e10000000000000000000000000000000000072
:106e20000000000000000000000000000000000062
:106e30000000000000000000000000000000000052
:106e40000000000000000000000000000000000042
:106e50000000000000000000d402a800d422a80016
:106e6000cca2a800ccc2a8000000000000000000d6
:106e70000000000000000000000000000000000012
:106e80000000000000000000000000000000000002
:106e900000000000000000000000000000000000f2
:106ea00000000000000000000000000000000000e2
:106eb00000000000000000000000000000000000d2
:106ec00000000000000000000000000000000000c2
:106ed00000000000000000000000000000000000b2
:106ee00000000000000000000000000000000000a2
:106ef0000000000000000000000000000000000092
:106f00000000000000000000000000000000000081
:106f10000000000000000000000000000000000071
:106f20000000000000000000d402a900d422a90043
:106f30000000000000000000000000000000000051
:106f40000000000000000000000000000000000041
:106f50000000000000000000000000000000000031
:106f60000000000000000000000000000000000021
:106f70000000000000000000000000000000000011
:106f80000000000000000000000000000000000001
:106f900000000000000000000000000000000000f1
:106fa00000000000000000000000000000000000e1
:106fb00000000000000000000000000000000000d1
:106fc00000000000000000000000000000000000c1
:106fd00000000000000000000000000000000000b1
:106fe00000000000000000000000000000000000a1
:106ff000d402a800d422a800cca2a900ccc2a90027
:107000000000000000000000000000000000000080
:107010000000000000000000000000000000000070
:107020000000000000000000000000000000000060
:107030000000000000000000000000000000000050
:107040000000000000000000000000000000000040
:107050000000000000000000000000000000000030
:107060000000000000000000000000000000000020
:107070000000000000000000000000000000000010
:107080000000000000000000000000000000000000
:1070900000000000000000000000000000000000f0
:1070a00000000000000000000000000000000000e0
:1070b00000000000000000000000000000000000d0
:1070c000d402a900d422a9000000000000000000a2
:1070d00000000000000000000000000000000000b0
:1070e00000000000000000000000000000000000a0
:1070f0000000000000000000000000000000000090
:10710000000000000000000000000000000000007f
:10711000000000000000000000000000000000006f
:10712000000000000000000000000000000000005f
:10713000000000000000000000000000000000004f
:10714000000000000000000000000000000000003f
:10715000000000000000000000000000000000002f
:10716000000000000000000000000000000000001f
:10717000000000000000000000000000000000000f
:107180000000000000000000d402a800d422a800e3
:10719000cca2a800ccc2a8000000000000000000a3
:1071a00000000000000000000000000000000000df
:1071b00000000000000000000000000000000000cf
:1071c00000000000000000000000000000000000bf
:1071d00000000000000000000000000000000000af
:1071e000000000000000000000000000000000009f
:1071f000000000000000000000000000000000008f
:10720000000000000000000000000000000000007e
:10721000000000000000000000000000000000006e
:10722000000000000000000000000000000000005e
:10723000000000000000000000000000000000004e
:10724000000000000000000000000000000000003e
:107250000000000000000000d402a900d422a90010
:10726000000000000000000000000000000000001e
:10727000000000000000000000000000000000000e
:1072800000000000000000000000000000000000fe
:1072900000000000000000000000000000000000ee
:1072a00000000000000000000000000000000000de
:1072b00000000000000000000000000000000000ce
:1072c00000000000000000000000000000000000be
:1072d00000000000000000000000000000000000ae
:1072e000000000000000000000000000000000009e
:1072f000000000000000000000000000000000008e
:10730000000000000000000000000000000000007d
:10731000000000000000000000000000000000006d
:10732000d402a800d422a800cca2a900ccc2a900f3
:10733000000000000000000000000000000000004d
:10734000000000000000000000000000000000003d
:10735000000000000000000000000000000000002d
:10736000000000000000000000000000000000001d
:10737000000000000000000000000000000000000d
:1073800000000000000000000000000000000000fd
:1073900000000000000000000000000000000000ed
:1073a00000000000000000000000000000000000dd
:1073b00000000000000000000000000000000000cd
:1073c00000000000000000000000000000000000bd
:1073d00000000000000000000000000000000000ad
:1073e000000000000000000000000000000000009d
:1073f000d402a900d422a90000000000000000006f
:10740000000000000000000000000000000000007c
:10741000000000000000000000000000000000006c
:10742000000000000000000000000000000000005c
:10743000000000000000000000000000000000004c
:10744000000000000000000000000000000000003c
:10745000000000000000000000000000000000002c
:10746000000000000000000000000000000000001c
:10747000000000000000000000000000000000000c
:1074800000000000000000000000000000000000fc
:1074900000000000000000000000000000000000ec
:1074a00000000000000000000000000000000000dc
:1074b0000000000000000000d402a800d422a800b0
:1074c000cca2a800ccc2a800000000000000000070
:1074d00000000000000000000000000000000000ac
:1074e000000000000000000000000000000000009c
:1074f000000000000000000000000000000000008c
:10750000000000000000000000000000000000007b
:10751000000000000000000000000000000000006b
:10752000000000000000000000000000000000005b
:10753000000000000000000000000000000000004b
:10754000000000000000000000000000000000003b
:10755000000000000000000000000000000000002b
:10756000000000000000000000000000000000001b
:10757000000000000000000000000000000000000b
:107580000000000000000000d402a900d422a900dd
:1075900000000000000000000000000000000000eb
:1075a00000000000000000000000000000000000db
:1075b00000000000000000000000000000000000cb
:1075c00000000000000000000000000000000000bb
:1075d00000000000000000000000000000000000ab
:1075e000000000000000000000000000000000009b
:1075f000000000000000000000000000000000008b
:10760000000000000000000000000000000000007a
:10761000000000000000000000000000000000006a
:10762000000000000000000000000000000000005a
:10763000000000000000000000000000000000004a
:10764000000000000000000000000000000000003a
:10765000d402a800d422a800cca2a900ccc2a900c0
:10766000000000000000000000000000000000001a
:10767000000000000000000000000000000000000a
:1076800000000000000000000000000000000000fa
:1076900000000000000000000000000000000000ea
:1076a00000000000000000000000000000000000da
:1076b00000000000000000000000000000000000ca
:1076c00000000000000000000000000000000000ba
:1076d00000000000000000000000000000000000aa
:1076e000000000000000000000000000000000009a
:1076f000000000000000000000000000000000008a
:107700000000000000000000000000000000000079
:107710000000000000000000000000000000000069
:10772000d402a900d422a90000000000000000003b
:107730000000000000000000000000000000000049
:107740000000000000000000000000000000000039
:107750000000000000000000000000000000000029
:107760000000000000000000000000000000000019
:107770000000000000000000000000000000000009
:1077800000000000000000000000000000000000f9
:1077900000000000000000000000000000000000e9
:1077a00000000000000000000000000000000000d9
:1077b00000000000000000000000000000000000c9
:1077c00000000000000000000000000000000000b9
:1077d00000000000000000000000000000000000a9
:1077e0000000000000000000d000200078fb07002f
:1077f000d402a800d422a800cca2a800ccc2a80021
:107800000000000000000000000000000000000078
:107810000000000000000000000000000000000068
:107820000000000000000000000000000000000058
:107830000000000000000000000000000000000048
:107840000000000000000000000000000000000038
:107850000000000000000000000000000000000028
:107860000000000000000000000000000000000018
:107870000000000000000000000000000000000008
:1078800000000000000000000000000000000000f8
:1078900000000000000000000000000000000000e8
:1078a00000000000000000000000000000000000d8
:1078b00000000000000000000000000000000000c8
:1078c000d402a900d422a90000000000000000009a
:1078d00000000000000000000000000000000000a8
:1078e0000000000000000000000000000000000098
:1078f0000000000000000000000000000000000088
:107900000000000000000000000000000000000077
:107910000000000000000000000000000000000067
:107920000000000000000000000000000000000057
:107930000000000000000000000000000000000047
:107940000000000000000000000000000000000037
:107950000000000000000000000000000000000027
:107960000000000000000000000000000000000017
:107970000000000000000000000000000000000007
:107980000000000000000000d402a800d422a800db
:10799000cca2a800ccc2a80000000000000000009b
:1079a00000000000000000000000000000000000d7
:1079b00000000000000000000000000000000000c7
:1079c00000000000000000000000000000000000b7
:1079d00000000000000000000000000000000000a7
:1079e0000000000000000000000000000000000097
:1079f0000000000000000000000000000000000087
:107a00000000000000000000000000000000000076
:107a10000000000000000000000000000000000066
:107a20000000000000000000000000000000000056
:107a30000000000000000000000000000000000046
:107a40000000000000000000000000000000000036
:107a50000000000000000000d402a900d422a90008
:107a60000000000000000000000000000000000016
:107a70000000000000000000000000000000000006
:107a800000000000000000000000000000000000f6
:107a900000000000000000000000000000000000e6
:107aa00000000000000000000000000000000000d6
:107ab00000000000000000000000000000000000c6
:107ac00000000000000000000000000000000000b6
:107ad00000000000000000000000000000000000a6
:107ae0000000000000000000000000000000000096
:107af0000000000000000000000000000000000086
:107b00000000000000000000000000000000000075
:107b10000000000000000000000000000000000065
:107b2000d402a800d422a800cca2a800ccc2a800ed
:107b30000000000000000000000000000000000045
:107b40000000000000000000000000000000000035
:107b50000000000000000000000000000000000025
:107b60000000000000000000000000000000000015
:107b70000000000000000000000000000000000005
:107b800000000000000000000000000000000000f5
:107b900000000000000000000000000000000000e5
:107ba00000000000000000000000000000000000d5
:107bb00000000000000000000000000000000000c5
:107bc00000000000000000000000000000000000b5
:107bd00000000000000000000000000000000000a5
:107be0000000000000000000000000000000000095
:107bf000d402a900d422a900000000000000000067
:107c00000000000000000000000000000000000074
:107c10000000000000000000000000000000000064
:107c20000000000000000000000000000000000054
:107c30000000000000000000000000000000000044
:107c40000000000000000000000000000000000034
:107c50000000000000000000000000000000000024
:107c60000000000000000000000000000000000014
:107c70000000000000000000000000000000000004
:107c800000000000000000000000000000000000f4
:107c900000000000000000000000000000000000e4
:107ca00000000000000000000000000000000000d4
:107cb0000000000000000000d402a800d422a800a8
:107cc000cca2a800ccc2a800000000000000000068
:107cd00000000000000000000000000000000000a4
:107ce0000000000000000000000000000000000094
:107cf0000000000000000000000000000000000084
:107d00000000000000000000000000000000000073
:107d10000000000000000000000000000000000063
:107d20000000000000000000000000000000000053
:107d30000000000000000000000000000000000043
:107d40000000000000000000000000000000000033
:107d50000000000000000000000000000000000023
:107d60000000000000000000000000000000000013
:107d70000000000000000000000000000000000003
:107d80000000000000000000d402a900d422a900d5
:107d900000000000000000000000000000000000e3
:107da00000000000000000000000000000000000d3
:107db00000000000000000000000000000000000c3
:107dc00000000000000000000000000000000000b3
:107dd00000000000000000000000000000000000a3
:107de0000000000000000000000000000000000093
:107df0000000000000000000000000000000000083
:107e00000000000000000000000000000000000072
:107e10000000000000000000000000000000000062
:107e20000000000000000000000000000000000052
:107e30000000000000000000000000000000000042
:107e40000000000000000000000000000000000032
:107e5000d402a800d422a800cca2a800ccc2a800ba
:107e60000000000000000000000000000000000012
:107e70000000000000000000000000000000000002
:107e800000000000000000000000000000000000f2
:107e900000000000000000000000000000000000e2
:107ea00000000000000000000000000000000000d2
:107eb00000000000000000000000000000000000c2
:107ec00000000000000000000000000000000000b2
:107ed00000000000000000000000000000000000a2
:107ee0000000000000000000000000000000000092
:107ef0000000000000000000000000000000000082
:107f00000000000000000000000000000000000071
:107f10000000000000000000000000000000000061
:107f2000d402a900d422a900000000000000000033
:107f30000000000000000000000000000000000041
:107f40000000000000000000000000000000000031
:107f50000000000000000000000000000000000021
:107f60000000000000000000000000000000000011
:107f70000000000000000000000000000000000001
:107f800000000000000000000000000000000000f1
:107f900000000000000000000000000000000000e1
:107fa00000000000000000000000000000000000d1
:107fb00000000000000000000000000000000000c1
:107fc00000000000000000000000000000000000b1
:107fd00000000000000000000000000000000000a1
:107fe0000000000000000000d402a800d422a80075
:107ff000cca2a800ccc2a800000000000000000035
:108000000000000000000000000000000000000070
:108010000000000000000000000000000000000060
:108020000000000000000000000000000000000050
:108030000000000000000000000000000000000040
:108040000000000000000000000000000000000030
:108050000000000000000000000000000000000020
:108060000000000000000000000000000000000010
:108070000000000000000000000000000000000000
:1080800000000000000000000000000000000000f0
:1080900000000000000000000000000000000000e0
:1080a00000000000000000000000000000000000d0
:1080b0000000000000000000d402a900d422a900a2
:1080c00000000000000000000000000000000000b0
:1080d00000000000000000000000000000000000a0
:1080e0000000000000000000000000000000000090
:1080f0000000000000000000000000000000000080
:10810000000000000000000000000000000000006f
:10811000000000000000000000000000000000005f
:10812000000000000000000000000000000000004f
:10813000000000000000000000000000000000003f
:10814000000000000000000000000000000000002f
:10815000000000000000000000000000000000001f
:10816000000000000000000000000000000000000f
:1081700000000000000000000000000000000000ff
:10818000d402a800d422a800cca2a800ccc2a80087
:1081900000000000000000000000000000000000df
:1081a00000000000000000000000000000000000cf
:1081b00000000000000000000000000000000000bf
:1081c00000000000000000000000000000000000af
:1081d000000000000000000000000000000000009f
:1081e000000000000000000000000000000000008f
:1081f000000000000000000000000000000000007f
:10820000000000000000000000000000000000006e
:10821000000000000000000000000000000000005e
:10822000000000000000000000000000000000004e
:10823000000000000000000000000000000000003e
:10824000000000000000000000000000000000002e
:10825000d402a900d422a900000000000000000000
:10826000000000000000000000000000000000000e
:1082700000000000000000000000000000000000fe
:1082800000000000000000000000000000000000ee
:1082900000000000000000000000000000000000de
:1082a00000000000000000000000000000000000ce
:1082b00000000000000000000000000000000000be
:1082c00000000000000000000000000000000000ae
:1082d000000000000000000000000000000000009e
:1082e000000000000000000000000000000000008e
:1082f000000000000000000000000000000000007e
:10830000000000000000000000000000000000006d
:108310000000000000000000d402a800d422a80041
:10832000cca2a800ccc2a800000000000000000001
:10833000000000000000000000000000000000003d
:10834000000000000000000000000000000000002d
:10835000000000000000000000000000000000001d
:10836000000000000000000000000000000000000d
:1083700000000000000000000000000000000000fd
:1083800000000000000000000000000000000000ed
:1083900000000000000000000000000000000000dd
:1083a00000000000000000000000000000000000cd
:1083b00000000000000000000000000000000000bd
:1083c00000000000000000000000000000000000ad
:1083d000000000000000000000000000000000009d
:1083e0000000000000000000d402a900d422a9006f
:1083f000000000000000000000000000000000007d
:10840000000000000000000000000000000000006c
:10841000000000000000000000000000000000005c
:10842000000000000000000000000000000000004c
:10843000000000000000000000000000000000003c
:10844000000000000000000000000000000000002c
:10845000000000000000000000000000000000001c
:10846000000000000000000000000000000000000c
:1084700000000000000000000000000000000000fc
:1084800000000000000000000000000000000000ec
:1084900000000000000000000000000000000000dc
:1084a00000000000000000000000000000000000cc
:1084b0008000200046f80700c8a2a800cea2a900ac
:1084c000c8c2a800cec2a9008000200040f8070062
:1084d0000000eb00100798000000eb00000f780090
:1084e000d402a800d422a800000000000000000070
:1084f000000000000000000000000000000000007c
:10850000000000000000000000000000000000006b
:10851000000000000000000000000000000000005b
:10852000000000000000000000000000000000004b
:10853000000000000000000000000000000000003b
:10854000000000000000000000000000000000002b
:10855000000000000000000000000000000000001b
:10856000000000000000000000000000000000000b
:1085700000000000000000000000000000000000fb
:1085800000000000000000000000000000000000eb
:1085900000000000000000000000000000000000db
:1085a0000000000000000000d402a900d422a900ad
:1085b000cac2bf000080fb004500de0061406000d1
:1085c0008080fb001e0090000100700010079800e2
:1085d000cac2bf000080fb004600de0061406000b0
:1085e0000080fb001e0f7000000000000000000073
:1085f000000000000000000000000000000000007b
:10860000000000000000000000000000000000006a
:10861000000000000000000000000000000000005a
:10862000000000000000000000000000000000004a
:10863000000000000000000000000000000000003a
:10864000000000000000000000000000000000002a
:10865000000000000000000000000000000000001a
:10866000000000000000000000000000000000000a
:1086700000000000000000000000000000000000fa
:1086800000000000000000000000000000000000ea
:1086900000000000000000000000000000000000da
:1086a00000000000000000001e00900000004000dc
:1086b000100798001e00780000004000000f7800ae
:1086c000d402a800d422a80000000000000000008e
:1086d000000000000000000000000000000000009a
:1086e000000000000000000000000000000000008a
:1086f000000000000000000000000000000000007a
:108700000000000000000000000000000000000069
:108710000000000000000000000000000000000059
:108720000000000000000000000000000000000049
:108730000000000000000000000000000000000039
:108740000000000000000000000000000000000029
:108750000000000000000000000000000000000019
:108760000000000000000000000000000000000009
:1087700000000000000000000000000000000000f9
:108780000000000000000000d402a900d422a900cb
:10879000cac2bf000080fb004500de0061406000ef
:1087a0008080fb001e009000010070001007980000
:1087b000cac2bf000080fb004600de0061406000ce
:1087c0000080fb001e0f7000000000000000000091
:1087d0000000000000000000000000000000000099
:1087e0000000000000000000000000000000000089
:1087f0000000000000000000000000000000000079
:108800000000000000000000000000000000000068
:108810000000000000000000000000000000000058
:108820000000000000000000000000000000000048
:108830000000000000000000000000000000000038
:108840000000000000000000000000000000000028
:108850000000000000000000000000000000000018
:108860000000000000000000000000000000000008
:1088700000000000000000000000000000000000f8
:1088800000000000000000001e00900000004000fa
:10889000100798001e00780000004000000f7800cc
:1088a000d402a800d422a8000000000000000000ac
:1088b00000000000000000000000000000000000b8
:1088c00000000000000000000000000000000000a8
:1088d0000000000000000000000000000000000098
:1088e0000000000000000000000000000000000088
:1088f0000000000000000000000000000000000078
:108900000000000000000000000000000000000067
:108910000000000000000000000000000000000057
:108920000000000000000000000000000000000047
:108930000000000000000000000000000000000037
:108940000000000000000000000000000000000027
:108950000000000000000000000000000000000017
:108960000000000000000000d402a900d422a900e9
:10897000cac2bf000080fb004500de00614060000d
:108980008080fb001e00900001007000100798001e
:10899000cac2bf000080fb004600de0061406000ec
:1089a0000080fb001e0f70000000000000000000af
:1089b00000000000000000000000000000000000b7
:1089c00000000000000000000000000000000000a7
:1089d0000000000000000000000000000000000097
:1089e0000000000000000000000000000000000087
:1089f0000000000000000000000000000000000077
:108a00000000000000000000000000000000000066
:108a10000000000000000000000000000000000056
:108a20000000000000000000000000000000000046
:108a30000000000000000000000000000000000036
:108a40000000000000000000000000000000000026
:108a50000000000000000000000000000000000016
:108a600000000000000000001e0090000000400018
:108a7000100798001e00780000004000000f7800ea
:108a8000d402a800d422a8000000000000000000ca
:108a900000000000000000000000000000000000d6
:108aa00000000000000000000000000000000000c6
:108ab00000000000000000000000000000000000b6
:108ac00000000000000000000000000000000000a6
