:020000040000fa
:080000000018040000000000dc
:020000040000fa
:10300000cfc6200000ff2000000188000000000063
:103010000a00070011000700000020000000e00087
:10302000020032000000020000000000ca2e020070
:10303000000000000040da000000fe004440a9004b
:10304000000020000000e00003003200000020002b
:10305000a00188004440a8000000060060b22300e0
:10306000010020001500370062004000e0804800a9
:10307000910188009001ba0062004000e0804800a1
:10308000910188009002ba0062004000e080480090
:103090000002eb006028e10004003a000059eb0058
:1030a0008301e900fdff3e00040037006128e100d4
:1030b000010032000082eb0005000700910188004a
:1030c0001001ba000200e000e7ff3a00000005002e
:1030d000910188008002780062004000e080480092
:1030e0003559ba008301e900080032002559ba00b9
:1030f0008301e900050032000400e000f4ff320023
:1031000015d9ba008301e900f1ff3a00000006007a
:103110008001eb0002003700817178008301e80034
:10312000828f5100fcff3a00000006006022b800c8
:10313000060220000000d0008180d2000482d2006c
:103140008582d2000000a0000202520083825a0051
:10315000030031000202420083824a000000a10005
:103160000603e900f3ff3a0000000600839f6800b1
:103170000100e00002003d0060001000e080180047
:103180000300e00002003d0060011100e081190031
:10319000e6ff07004f00e00002003b006000100067
:1031a000e0801800000006000800fa0030079800d0
:1031b0006000b80010079800210798000000eb009d
:1031c000000f7800100037003e0090009e0078004d
:1031d0004300dd000100400080004000a0b5200059
:1031e00000804000100078006101b8001e009000cf
:1031f000ae00900000004100818049001007980057
:10320000210798001e0fe800700020009e0f10009c
:10321000edff34001e009000ae0090004d09dd006f
:103220004300de0000007100c388de000080fa0069
:10323000000006000000fa000000eb00b05a880011
:103240000000eb00c05a88000000eb006019880005
:1032500023c3bf007f40600023e3b70025e3a9003c
:10326000513220009140780000ceb30000c06000d1
:103270006040b30025e3b700c0c0b30024e3b7004b
:103280003132200091407800c0cfb30000c0600010
:1032900023e3b7002043a8002143a8002063a9002e
:1032a0002343a800213220009140780030ccb300a5
:1032b00000c06000c041b30022e3b700013220002b
:1032c0009140780000ceb30000c0700020e3b7004a
:1032d0002223a9003003a8003023a8003043a8000f
:1032e0003063a8003083a80030a3a80030c3a80032
:1032f00030e3a8001132200091407800c0cfb30025
:1033000000c0600021e3b70021e3a80085a0a90068
:1033100095a0a8000080fa0000000600809fbe0073
:10332000821f78000200fa0085a0a9000018800022
:10333000305a880010188000405a880020188000f9
:10334000505a880030188000605a88004018800069
:10335000705a880050188000805a880060188000d9
:10336000905a880070188000a05a8800b05a8000d7
:10337000425a800080004000a0b62000008040003b
:1033800002087800b05a8000625a80008000400035
:10339000a0b820000080400002087800b05a8000e9
:1033a000825a800080004000a0ba200000804000c7
:1033b00002087800b05a8000325a80008000400035
:1033c000a0b520000080400002087800b05a8000bc
:1033d000525a800080004000a0b7200000804000ca
:1033e00002087800b05a8000725a800080004000c5
:1033f000a0b920000080400002087800b05a800088
:10340000925a800080004000a0bb20000080400055
:1034100002087800b05a8000a25a80008000400064
:10342000a0bc20000080400002087800b05a800054
:103430000000e800e70f500004003c00b05a800094
:103440000000e800000f7800020037000000eb00e9
:10345000000f78001e007800b05a88000080fa0043
:103460004f0178004f00be00004006002200fa0025
:1034700030079800410798000000eb0020079800f3
:10348000be009000600220000088b9008000780033
:10349000e0ac20000080400010079800be009000c3
:1034a000600220000088b900800078004081200080
:1034b000008f4000be00900001814000409e20002f
:1034c00000004100100078000001e8008180400009
:1034d000409e200000804000020878001e00780016
:1034e000c00090001e009000410098001e0078006f
:1034f000d00090001e009000510098001e0078003f
:10350000e00090001e009000610098001e0078000e
:10351000f00090001e009000710098001e007800de
:10352000801090001e009000011098001e0078008e
:10353000f00890001e009000710898003e00900076
:1035400080004000409e20000080400090007800f5
:103550004e009000808f5000c80035003e00900063
:1035600080004000409e2000808040000000eb0072
:103570008008780010002000200798001e009000ae
:10358000900090001e00780010009000808f500086
:103590002a0032001e0090001000900000179800d2
:1035a0001e009000900090001e0078001000900017
:1035b000008050000000e00003003d000080eb00b0
:1035c000700f98000200370011002000710f980062
:1035d0000e1190007e089000800051001e009000a7
:1035e000110098001e0090009000900000d027006d
:1035f000808f50000a003c001e00900010009000d8
:10360000600f980000302800ee089000808f500076
:1036100005003d0002302800620f980002003700cc
:1036200000d02700600f98001e009000ee08900068
:10363000110098000000eb00200798001e00900089
:10364000a00090001e00780020009000808f5000a5
:103650002a0032001e00900020009000500f9800b9
:103660001e009000a00090001e0078002000900036
:10367000008050000000e00003003d000081eb00ee
:10368000420f98000200370010002000400f980001
:103690005e0990004e089000800051001e009000ce
:1036a000210098001e009000a000900000d027008c
:1036b000808f50000a003c001e0090002000900007
:1036c000300f980000302800be089000808f500016
:1036d00005003d0002302800320f9800020037003c
:1036e00000d02700300f98001e009000be08900008
:1036f000210098000000eb00200798001e009000b9
:10370000b00090001e00780030009000808f5000c4
:103710002a0032001e00900030009000200f980018
:103720001e009000b00090001e0078003000900055
:10373000008050000000e00003003d000081eb002d
:10374000120f98000200370010002000100f9800a0
:103750002e0990001e089000800051001e0090006d
:10376000310098001e009000b000900000d02700ab
:10377000808f50000a003c001e0090003000900036
:10378000000f9800003028008e089000808f5000b5
:1037900005003d0002302800020f980002003700ab
:1037a00000d02700000f98001e0090008e089000a7
:1037b000310098000000eb00200798001e009000e8
:1037c000901090001e00780010109000808f500024
:1037d0002a0032001e009000101090007007980020
:1037e0001e009000901090001e00780010109000b5
:1037f000008050000000e00003003d000081eb006d
:10380000620798000200370010002000600798004f
:103810007e0190006e009000800051001e0090001c
:10382000111098001e0090009010900000d027000a
:10383000808f50000a003c001e0090001010900085
:103840005007980000302800de009000808f500064
:1038500005003d00023028005207980002003700a2
:1038600000d02700500798001e009000de00900056
:10387000111098000000eb00200798002e00900027
:103880000080fa00000006001a00fa0030079800d5
:10389000410798000000eb0020079800be00900050
:1038a000600220000088b90080007800e0ac2000b1
:1038b0000080400010079800be00900060022000c9
:1038c0000088b9008000780040812000008f40000f
:1038d000be00900001814000409e20000000410099
:1038e000100078000001e80081804000409e200028
:1038f00000804000020878001e007800c0009000a0
:103900001e009000410098001e007800d00090003a
:103910001e009000510098001e007800e00090000a
:103920001e009000610098001e007800e0009000ea
:103930001e009000710098001e007800801090001a
:103940001e009000011098001e007800f008900002
:103950001e009000710898003e009000800040001a
:10396000409e200000804000900078004e009000b3
:10397000808f5000640035003e00900080004000c1
:10398000409e2000808040000000eb00800878000e
:1039900010002000200798001e00900010009000ea
:1039a0000000e000130032001e00900010009000a4
:1039b000400f98001e009000100090000000e000f2
:1039c00003003d000080eb00300f9800020037003c
:1039d00011002000310f98004e099000be089000a1
:1039e000010051009e009000900098000000eb0044
:1039f000200798001e009000200090000000e000ca
:103a0000130032001e00900020009000200f98004c
:103a10001e009000200090000000e00003003d0028
:103a20000081eb00120f9800020037001000200008
:103a3000100f9800ae0890001e0990000280500000
:103a40009e009000a00098000000eb002007980066
:103a50001e009000300090000000e00013003200d3
:103a60001e00900030009000000f98001e00900093
:103a7000300090000000e00003003d000080eb00fb
:103a800070079800020037001100200071079800ad
:103a90000e099000fe009000010051009e00900071
:103aa000b00098000000eb00200798001e00900076
:103ab000101090000000e000130032001e00900083
:103ac00010109000600798001e00900010109000e9
:103ad0000000e00003003d000081eb005207980069
:103ae000020037001000200050079800ee00900000
:103af0005e019000028050009e009000901098009f
:103b00000000eb00200798002e0090000080fa00d3
:103b1000000006000400fa00100798009e009000c4
:103b2000600220000088b90080007800e0ac20002e
:103b3000008f40009e0078000000eb00900098008d
:103b40009e0078000000eb00a00098009e00780026
:103b50000000eb00b00098009e0078000000eb0031
:103b6000901098009e0078000000eb00f000980094
:103b70009e0078000000eb00c00098009e007800d6
:103b80000000eb00d00098009e0078000000eb00e1
:103b9000e00098009e0078000000eb008010980084
:103ba0001e009000c200dd00609f200000814000e8
:103bb0006000b8000089be001e009000c200dd0059
:103bc000a09e2000008140006000b8000089be0077
:103bd0001e0090004600dd008000780020a020003c
:103be00000804000020420008000eb0048fd070038
:103bf0001e0090008000400020ac2000808040002b
:103c00000000eb00800878001e009000800040005b
:103c100080ac2000808040000000eb00800878002d
:103c20001e00900080004000409e200080804000e8
:103c30000000eb00800878000080fa000000060019
:103c40000200fa000000eb00000f780009003700c6
:103c50001e00780080004000e09d20008080400031
:103c60000000eb00800878001e007800a9ff070024
:103c70001e0fe800200020009e0f1000f4ff34000b
:103c80000080fa00000006000400fa00000f78002f
:103c9000110798009e0090001e0078004f09070051
:103ca0000080fa00000006000800fa000000eb00a7
:103cb000200798008d003700ae00900060022000c1
:103cc0000088b900f60040004081200000804000dc
:103cd0009000780011079800ae009000600220006c
:103ce0000088b900f00040004081200000804000c2
:103cf000100f78002e00900080004000e09d200012
:103d00000080400010007800300798003e009000ce
:103d1000e20f500036003200be009000e28f5000eb
:103d200007003c003e0090000000e0000b00320065
:103d3000be009000e18f5000200032006500370087
:103d40003e009000e30f500053003200be00900090
:103d5000e48f50003f0032005e0037008000eb002f
:103d60002e009000c8ff07001e009000e10f5000d9
:103d700006003a002e00900080004000e09d2000e8
:103d80008080400010002000800878001e00900015
:103d9000e20f500006003a002e0090008000400024
:103da000e09d2000808040002000200080087800f6
:103db0002e00900057ff0700490037009e00780052
:103dc0002e009000b0ff07001e009000e10f500091
:103dd000430032002e00900080004000e09d200053
:103de000808040000000eb00800878003c00370035
:103df0001e009000e20f5000070032002e009000dd
:103e000080004000e09d2000808040000000eb002a
:103e10008008780032003700a10f20002e009000ab
:103e200092fd07000000e000060032002e00900026
:103e300080004000e09d2000808040004000200085
:103e4000800878009e0078002e0090002c0007006b
:103e5000230037001e009000e20f500007003200e0
:103e60002e00900080004000e09d200080804000f7
:103e7000300020008008780019003700a10f2000d2
:103e80002e00900079fd07009e0078002e00900023
:103e90001b00070012003700a10f20002e00900029
:103ea00079fe07000000e000060032002e009000be
:103eb00080004000e09d2000808040000000eb007a
:103ec000800878008000eb002e0090006eff070055
:103ed000030037008000eb002e0090006aff07000f
:103ee0002e0090000000e800200798002e009000af
:103ef000e20f500070ff34000080fa00000006005e
:103f00002400fa00889fbe005007980061079800bf
:103f1000de009000600220000088b9008000780078
:103f2000e0ac20000080400040079800de009000d8
:103f3000600220000088b9008000780040812000e5
:103f400000804000300798003e00900090089000ec
:103f50006e009000808f500004003d003e009000f5
:103f600010089000001798000b0037003e009000ea
:103f700020089000ee00900011179800001798009c
:103f80000e1190009e119000830f510002003d0021
:103f90001e129000041798008e12900025079800ba
:103fa0000000eb00100798005e0090000000e000a9
:103fb0000c003a003e009000100078000000d10094
:103fc000610060000004e000040032000000eb002b
:103fd00075fc07001007980002003700305a800077
:103fe000100798005e009000e10f50000c003a00ae
:103ff0003e009000100078000000d10061006000d9
:104000000004e000040032002000200066fc0700ed
:104010001007980002003700505a800010079800df
:104020005e009000e20f50000c003a003e0090004d
:10403000100078000000d100610060000004e00082
:10404000040032004000200057fc070010079800d1
:1040500002003700705a800010079800ae009000f0
:104060001e00900000805000005a8800de02900080
:104070004e009000100090006104b900015a8000c9
:104080004e009000400090000088de006101b90001
:104090000243b80003c0b9000702780000024200e2
:1040a0000990b9000002420084037800c228dd00b4
:1040b000e09a2000008040000688be005e0290006a
:1040c0005e009000c200dd00a09e20000080400045
:1040d0001001be00005a8000cf80de0002014000c7
:1040e00083814800c220dd00a09e200000804000a7
:1040f0000288be005e009000700f98005e00900085
:10410000c200dd00a09e2000008040001001be0023
:104110004e00900070009000cf80de00800f5100b4
:10412000818f5900060034004e009000700090000e
:104130006101b900520f9800630f98001800370012
:104140005e009000c200dd00a09e200000804000c4
:104150001001be004e009000700090000000ea00c8
:104160006102b900340f9800450f9800520f980073
:10417000630f98005e089000ee0890003e099000e2
:10418000ce099000820f5000838f580004003d003c
:104190003e0a9000ce0a9000540f9800650f9800d8
:1041a000fe0a9000c228dd00a09e20000080400092
:1041b0005e099000ee0990000288be00de029000c9
:1041c0004e009000200090006104b9005e00900055
:1041d000c200dd00a09e2000008040001001be0053
:1041e0004e00900050009000000278000402e900a8
:1041f000030033008381d1000281d300fbff37002d
:104200000243b80003c0b900070278000002420070
:104210000990b9000002420084037800c228dd0042
:10422000a09b2000008040000688be005e00900039
:104230008000400080ac200000804000100f78001b
:104240005e0290005e009000c200dd00609f2000d2
:10425000008040001001be005e0090009e007800cb
:104260004500dd00010040008000400020a020004b
:104270000080400010007800cf80de000001510077
:1042800081815900c220dd00609f20000080400035
:104290000288be005e0190009e0178005e009000e2
:1042a0008000400020ac200000804000900078009a
:1042b0001e009000010250004510dd000300400088
:1042c0008000400020a0200000804000040878000a
:1042d0005e0090008000400020ac20000080400084
:1042e0009e029000050878005e0290005e0090003b
:1042f000c200dd00609f2000008040001001be0071
:104300005e0090009e0078004500dd000100400046
:104310008000400020a020000080400010007800b5
:10432000cf80de000201400083814800c220dd0012
:10433000609f2000008040000288be005e00900068
:10434000200f98001e00e800ff0f500003003c0003
:104350009e00e800110f9800020037000001eb00fa
:10436000120f9800ae099000ae09900083804100c2
:1043700080ac2000008040001e0a900004087800f5
:10438000de0290004e009000300090006104b90001
:104390005e009000c200dd00609f200000804000b1
:1043a0001001be000243b80003c0b9000702780044
:1043b000000242000990b900000242008403780024
:1043c0004e009000600090000601be008000780062
:1043d0008100e900030033008381d1000281d30012
:1043e000fbff3700c228dd00609c200000804000f9
:1043f0000288be003e009000100078004c00de00f5
:10440000610060000004e00009003200de0090005e
:104410004e009000101090006101b900c208dd004c
:10442000209d2000008040000288be001000370060
:104430005e0290004e009000101190004e0090001f
:10444000f00890002e009000810050004e00900077
:10445000001090000088de000090b9006101b900f2
:10446000c220dd00209d2000008040000288be00a8
:104470005e009000c200dd00e09a20000080400055
:104480001001be005e009000c200dd00a09b200075
:10449000008040001000be000201400083814800ff
:1044a0005e009000c200dd00609c200000804000a3
:1044b0001000be0002014000838148005e009000b1
:1044c000c200dd00209d2000008040001000be00e2
:1044d0000200400083804800105a8800215a88005a
:1044e0005e0190005e009000c200dd00209d200073
:1044f000008040001000be00800178008200410072
:10450000208020000080400003087800125a8000bc
:10451000235a8000e0c7200001002000800f5100d6
:10452000818f590010003c00105a8000215a8000f1
:1045300070079800010f980020382f00f1ff2f001e
:104540007e0190008e099000800f5100818f5900ec
:1045500009003d0024382f00f5ff2f007407980054
:10456000050f980004003700e0c72000010020007c
:1045700070079800010f98007e0190008e0990004e
:10458000125a8800235a8800105a8000215a80004d
:10459000800078005e009000bbfd07004f04be0065
:1045a0000080fa00000006000000fa000080fa0017
:1045b000000006000000fa00c2c2bf0070406000a8
:1045c0000004e00002003200c482a90001003700ac
:1045d000c482a8000080fa00000006000000fa0073
:1045e000c3c2bf00614060000080fb000080fa0091
:1045f000000006000000fa00e20507000000eb00e2
:104600000080fa00000006000000fa000080fa00b6
:10461000000006000000fa004dccbf000080fb0047
:10462000610060000004e0000b00320010c0b30025
:1046300030ecb700a261800011628000c08d2000c4
:104640008801070040812000c18d20007100090011
:10465000315878002007b1000080fa000000060001
:104660000800fa00140007000e0078008200200005
:10467000019c20007b0107003e00be002e01be0011
:1046800064882000009abe000292be00608820006c
:104690004195200055000900b05878006005b10030
:1046a0009261800021628000409520009601070001
:1046b0000080fa00000006000000fa000000eb0095
:1046c000cf0807001045880010002000cc08070024
:1046d000e04588000000eb00c008070000458800a6
:1046e00010002000bd080700d04588000000eb0046
:1046f000c40907002045880010002000c1090700f8
:10470000f045880020002000bd080700b046880062
:1047100020002000b1080700a046880020002000eb
:10472000b8090700c04688000000eb009efa0700a9
:1047300080448800200020009bfa07005045880034
:104740004000200098fa0700204688001000200052
:1047500095fa0700904488003000200092fa070084
:1047600060458800500020008ffa0700304688001e
:10477000600020008cfa0700c04488007000200010
:1047800089fa0700904588009045800060468800bf
:104790000000eb00a8050700f0448800100020008e
:1047a000a5050700c04588001040800070448800bf
:1047b0002040800040458800404080000020a0004c
:1047c00030458800504080000020a000004688004e
:1047d00020002000980507009046880030408000a7
:1047e00010468800604080000020a000d04688006d
:1047f0000080fa00000006003600f800809fbe002e
:10480000829fbe00849fbe00869fbe000200fa0009
:10481000d4c2a8008400a900b800070036ccbf00ad
:104820000004e0000a0032002eccbf000004e000cb
:104830000200320077ff07000100370072ff070017
:104840002fccbf000004e0000100320084ff07000d
:1048500010002000004088000080fa004f03be00d6
:104860004f02be004f01be004f00be003600f900ef
:10487000004006000400fa000040eb0030479800ba
:10488000a00520009061880080072000a0618800ba
:1048900060882000620520008000eb001cfa070001
:1048a00040812000220720008000eb0018fa07005a
:1048b000c08d2000820720008000eb0014fa070062
:1048c00040952000a20520008000eb0010fa0700b0
:1048d0000000eb00000f78000d0037001e0078008c
:1048e0008000400020802000808040000000eb001d
:1048f000800878001e007800800040008080200042
:10490000808040000000eb00800878001e0fe80067
:10491000200020009e0f1000f0ff34000000eb008c
:10492000704088006000b800804088009140880096
:104930000000eb0000408800160007008200a8007d
:104940008220a8008240a800d4c2a8008400a90048
:10495000630047001200200001142000230107001b
:104960003e409000e54f5000f9ff3a001200200051
:104970005100200070c320001c0107000000eb0064
:10498000650107009400a800e60407000080fa0013
:10499000000006000000fa008540a9009540a9002b
:1049a0000000eb001012880042a2a8002124200081
:1049b00091407800c0cfb30000c060000014a00098
:1049c00042e2b700212420009140780030ceb300ad
:1049d00000c060008041b30042e2b70042c2a800bc
:1049e0004302a9004322a9004342a90040c2a900f2
:1049f00041e2a800d4c2a8000080fa00000006002e
:104a00000000fa000000eb000080fa000000060041
:104a10000000fa000000eb000080fa000000060031
:104a20000000fa000000eb000080fa000000060021
:104a30000000fa000000eb000080fa000000060011
:104a40000000fa000000eb000080fa000000060001
:104a50000000fa000000eb000080fa0000000600f1
:104a60000000fa000000eb000080fa0000000600e1
:104a70000000fa009400a900d4c2a9008540a90052
:104a8000000420004012880085c0bf006440600020
:104a90000004e000fcff3200401280004cecb70044
:104aa0008540a900200720004012880085c0bf0073
:104ab000644060000004e000fcff3200401280000f
:104ac0004decb7008540a900f00f2000401288008f
:104ad00085c0bf00644060000004e000fcff3200bd
:104ae0004012800058ecb7008540a900d4c2a8004d
:104af0009400a8000080fa00000006000000fa0000
:104b0000d4c2a9008540a9000000eb004012880033
:104b100085c0bf00644060000004e000fcff32007c
:104b2000401280004cecb7008540a9002000200016
:104b30004012880085c0bf00644060000004e000af
:104b4000fcff3200401280004decb7008540a90008
:104b5000d4c2a8000080fa00000006000600fa0097
:104b600010079800414798001e009000c300dd0028
:104b70004e4090000080fb0000807000000f780025
:104b8000d4c2a9008540a9001e4090000080fb000f
:104b90004012880085c0bf00644060000004e0004f
:104ba000fcff3200401280004cecb7008540a900a9
:104bb0001e4078000080fb004012880085c0bf00c6
:104bc000644060000004e000fcff320040128000fe
:104bd0004decb7008540a9000080fa0000000600f7
:104be0000800fa0020079800614798002e00900006
:104bf000c300dd006e4090000080fb00008070006c
:104c000010079800d4c2a9008540a9003e4090003a
:104c10000080fb004012880085c0bf006440600037
:104c20000004e000fcff320040128000004f7800da
:104c30008540a9002e4090000080fb0040128800b3
:104c400085c0bf00644060000004e000fcff32004b
:104c500040128000004f78008540a9000080fa00d3
:104c6000000006000a00fa002007980031079800ab
:104c7000420798004e009000100798000040eb009b
:104c8000004f780021c0b3003e009000d4ff070021
:104c9000130037001e0090000000e00002003a0000
:104ca00000c0eb00004f78008540a9001e80fb008b
:104cb0004012880085c0bf00644060000004e0002e
:104cc000fcff320040128000804078002e009000ef
:104cd000014878002e0090000000e80020079800ae
:104ce0001e0090000000e900100798001e009000d0
:104cf000e10f4000e7ff3a008540a900d4c2a800b8
:104d00000080fa00000006000a00fa002007980060
:104d100031079800420798004e0090001007980055
:104d200041c0b3003e009000adff07000e00370009
:104d30008540a9002e009000104078000080fb0004
:104d40004012880085c0bf00644060000004e0009d
:104d5000fcff320040128000004f78002e009000cf
:104d60000000e800200798001e0090000000e90005
:104d7000100798001e009000e10f4000ecff3a0081
:104d80008540a900d4c2a8000080fa0000000600f7
:104d90000000fa0036ff0700e06180000000e0003c
:104da000000032004cccbf000080fb0061006000be
:104db0000004e0000b00320022002000011220005d
:104dc000a0c4200009000700c1c420009140780061
:104dd000e0ceb30000c060004cecb7004accbf008e
:104de0006a0207000080fa00000006000800fa00ce
:104df0001007980021079800320798003e009000a5
:104e0000000f7800170037009400a90021c0b300fc
:104e10002e00900051ff0700f00f20004012880084
:104e200085c0bf00644060000004e000fcff320069
:104e300040128000804078001e00900001487800f9
:104e40001e0090000000e800100798009400a800e1
:104e5000d4c2a8002e0090000000e80020079800af
:104e60008540a9001e0fe9000080eb009e0f100096
:104e7000e5ff3a000080fa00000006000a00fa0090
:104e80002007980031079800420798004e009000d4
:104e900010079800180037009400a90041c0b30023
:104ea0003e0090002dff07008540a9002e009000d5
:104eb000104078000080fb00401288002e00900017
:104ec0000000e8002007980085c0bf006440600033
:104ed0000004e000fcff320040128000004f780028
:104ee0009400a8003e0090000000e8003007980001
:104ef0008540a900d4c2a8001e0090000000e9006f
:104f0000100798001e009000e10f4000e2ff3a00f9
:104f10000080fa00000006000400fa001007980064
:104f20000e0078002200200041202000afff070083
:104f30009e0078001e00900000806000000f780046
:104f40009400a9001e0078000000e00002003a0072
:104f50000040eb0048ecb7000e0078002200200073
:104f600041202000c5ff07009400a8000080fa003f
:104f7000000006000400fa00100798000e007800f8
:104f8000220020004120200098ff07009e007800aa
:104f90001e00900000807000000f78009400a900af
:104fa00010c0b30048ecb7000e00780022002000cb
:104fb00041202000b1ff07009400a8000080fa0003
:104fc000000006000400fa002047980031479800ce
:104fd0002e4090000080fb00000f78000e0078004b
:104fe0002200200001132000a4ff07003e40900093
:104ff000e14f4000070032003e4090000080fb007f
:10500000000f78000e0078002200200041132000dd
:105010009aff07000080fa00000006000400fa0072
:105020002047980010c0b300004f78002e40900039
:105030000080fb00c300dd00708020008080400005
:10504000120020000e0078008cff07000080fa009c
:10505000000006000400fa00204798000040eb0022
:10506000004f78002e4090000080fb00c300dd0060
:105070007080200080804000120020000e00780028
:105080007eff07000080fa00000006000200fa0020
:10509000004f78001e80fb00c300dd000080200070
:1050a0008080400000c52000820020004fff0700e4
:1050b00000c520000080fa00000006000800fa0089
:1050c000004f7800110798001e80fb003007980001
:1050d0003e0090000000e000040032003e0090001e
:1050e000e10f500056003200a90037001e0090006a
:1050f000604090008080fb00d00f200000806000a6
:105100000000e0000a003a001e009000100090002d
:105110000000e00006003a00a06180000000e0000e
:1051200003003a000000eb0020079800a8003700b9
:105130001e009000604090008080fb00d00f200097
:1051400000806000e10f50003a003a001e0090001d
:1051500090009000a0618000808f500035003a00e0
:105160001e009000404090000080fb006d00600039
:10517000e40f50002c003a0039ccbf00e24f500041
:105180000a003a001e00900090007800f0ff200016
:10519000808f5000050036001e00900090007800bf
:1051a00000002200808f50000800360039ccbf007c
:1051b000e24f5000190032001e009000900078006d
:1051c00010628000808f500014003a001e00900092
:1051d000404090000080fb004600de00610060005f
:1051e0000004e0000300320010c0b30040ecb70040
:1051f000020037000040eb0040ecb70090618000f7
:105200000000e00002003a0010c0b30036ecb70026
:105210000000eb00200798006d0037002000200000
:10522000200798006a0037004000200020079800ff
:105230006700370030002000200798006400370026
:105240001e009000604090008080fb00d00f200086
:10525000008060000000e0000a003a001e0090009c
:10526000100090000000e00006003a00906180000d
:105270000000e00003003a000000eb002007980067
:10528000530037001e009000604090008080fb00bb
:10529000d00f200000806000e10f500039003a007c
:1052a0001e0090009000900090618000808f500060
:1052b00034003a001e009000404090000080fb0047
:1052c0006d0060000000e0002b003a0039ccbf0008
:1052d000e24f50000a003a001e0090009000780053
:1052e000f0ff2000808f5000050036001e00900067
:1052f0009000780000002200808f500008003600e7
:1053000039ccbf00e24f5000180032001e00900060
:105310009000780020628000808f500013003a00d7
:10532000906180000000e0000d0032001e0090003f
:10533000404090008080fb00d00220008080600010
:1053400000022000808f500003003a0010c0b3001c
:1053500036ecb700020037000040eb0036ecb70037
:105360000000eb0020079800190037002000200003
:105370002007980016003700400020002007980002
:10538000130037003000200020079800100037007d
:105390001e009000604090008080fb00d00f200035
:1053a000008060000000e00004003a001e00900051
:1053b000100090000000e0000300320030002000e8
:1053c00020079800020037000000eb00200798003b
:1053d0002e0090000080fa00000006000600fa008f
:1053e000404798000040eb00104798000040eb0059
:1053f000304798001f0037003e409000004f780073
:105400003e4090000004e00003003a0010c0b300ea
:10541000004f7800050037003e409000e14f5000fb
:1054200002003a000040eb00004f78001e40780078
:1054300016ff0700800078001e4078001fff07005d
:10544000204798002e4090000004e0000600320043
:105450001e4090000004e00003003a001e40780067
:105460007d404000104798003e4090000040e8001a
:1054700030479800be4090004e40900080cf5000d2
:10548000ddff39001e4090000080fb000080fa0024
:10549000000006000800fa000000eb00000f780092
:1054a0000040eb00f9fe0700100798001e00900076
:1054b000100078001062880010c0b300f3fe0700ef
:1054c000100798001e0090001000780020628800ed
:1054d000a06180006300b900800078001062800045
:1054e0008080400020628000808f500009003600dc
:1054f0002162800090618000808040001062800006
:10550000808f500003003600d00120003007980043
:1055100019003700906180000000e0000d003200ab
:1055200010c0b300cbfe070041fd070040479800c4
:105530004e4090000004e000040032004e40900015
:105540000080fb00300798000b00370010c0b3004c
:105550002fecb700a06180000000e00002003200e4
:105560000040eb00bbfe07001e00780081fe070034
:105570000000eb00300798003e0090000080fa0029
:10558000000006000c00fa000040eb0040479800c5
:1055900066004700220020000140200013fe0700a3
:1055a0003e0090000000e0002200320040ccbf002e
:1055b0000004e0001f0032006800470022002000c5
:1055c0000142200009fe07004e0090000000e000ac
:1055d0001c0032004e00900001002000008fbe0031
:1055e0003e0090006103b8001e0078000602b8007b
:1055f0001e0078000780b900050178000001410015
:105600001e00900000b0b900000141008202780045
:10561000048fbe001e00be00821a26000300200078
:10562000c2f60700008fbe001e007800e06188000f
:10563000040037000000eb00400798000000eb007a
:10564000e06188004e0090000000e00006003a0093
:1056500040ccbf000004e00009003200f00120004f
:10566000500798002100370040ccbf000004e00044
:1056700003003a00f0012000500798001b0037009b
:10568000a06180000000e00009003200f0fc07008b
:10569000404798004e4090000004e00004003200b3
:1056a0004e4090000080fb00500798000f0037002c
:1056b00010c0b3002eecb70046ccbf000004e000e1
:1056c00008003a0036ccbf000004e00005003200bc
:1056d000a06180000000e000020032000010200005
:1056e00024fe07000000eb00500798005e009000c9
:1056f0000080fa00000006000200fa000040eb0003
:10570000004f7800f0ef2f0003fe07000040eb0091
:1057100030ecb7000040eb002eecb700a061800039
:105720000000e00002003200cdfc0700004f7800ce
:105730001e80fb000080fa00000006000200fa0054
:105740000040eb00004f78000040eb0033fe070004
:1057500030cf2f00f0fd07000040eb0036ecb70023
:105760000040eb0046ecb7000040eb002fecb70028
:1057700010c0b30029fe0700b1fc0700004f7800fd
:105780001e80fb000080fa00000006000c00fa00fa
:10579000204798000040eb00104798002e409000f2
:1057a0000080fb004400de00610060000004e000b7
:1057b0000500320039ccbf00f1ceb30001406000db
:1057c00039ecb7000e00370039ccbf000080fb0079
:1057d0004400de00610060000004e00008003200c8
:1057e0002e4090000080fb00ef00600039ccbf002d
:1057f0000080fb006f006000808f500047013c007c
:105800002e4090006f4060002047980039ccbf00c8
:10581000004f78001e4078004400dd00004f780003
:105820002e4090001e4f40001e40780041ecb70013
:105830009e80fb0031079800400420003e0190004c
:10584000800f51002d00320040042000be01900066
:10585000808f51000e003c0020022000be0090000e
:10586000808f500028003200200220003e0190006e
:10587000800f510001003c0023003700400220004f
:10588000be019000808f5100170032001e003700cb
:1058900020082000be009000808f50001a003200c7
:1058a000200820003e019000800f510005003c00c0
:1058b00080042000be019000808f51000f00320054
:1058c0001100370040082000be009000808f50007b
:1058d0000a003200800820003e019000800f510035
:1058e00006003200080037004dfc07001047980002
:1058f0001e4090000004e00003003a0037ccbf00d7
:10590000b6fe0700104798001e4090000004e0001b
:10591000af003a001e80fb006101b900f0fe2f00cd
:10592000f1ff2f00020140008381480042079800e8
:105930005307980070072000010020004e019000de
:10594000de019000800f5100818f59009d003e00c4
:105950004e009000de0090000060010093003700d0
:10596000bb00370075003700930037009500370003
:1059700094003700930037008f0037009100370004
:10598000900037008f0037008e0037008d00370001
:105990008c0037008b0037008a003700ac003700de
:1059a0008200370084003700670037008500370029
:1059b00084003700830037007f0037008100370004
:1059c000800037007f0037007e0037007d00370001
:1059d0007c0037007b0037007a0037007900370001
:1059e0007800370077003700760037007500370001
:1059f0007400370073003700720037007100370001
:105a0000700037006f0037006e0037006d00370000
:105a10006c0037006b0037006a0037006000370009
:105a2000570037006400370060003700650037001a
:105a3000640037006300370046003700610037001c
:105a4000600037005f0037005e0037005d00370000
:105a50005c0037005b0037005a0037005900370000
:105a60005800370057003700560037005500370000
:105a70005400370053003700520037005100370000
:105a8000500037004f0037004e0037004d00370000
:105a90004c0037004b0037004a0037004900370000
:105aa0004800370047003700460037004500370000
:105ab0004400370043003700420037004100370000
:105ac000400037003f0037003e0037003d00370000
:105ad0003c0037003b0037003a0037003900370000
:105ae0003800370037003700360037003500370000
:105af0003400370033003700320037003100370000
:105b0000300037002f0037002e0037002d003700ff
:105b10002c0037002b0037002a0037001b0037000d
:105b200012003700240037000d0037002500370031
:105b300024003700230037001c00370030c1b300b9
:105b4000104798004200370052fe070010479800a7
:105b50003f0037008bfe0700104798003c003700dd
:105b6000e5fe07001047980039003700e2fe070005
:105b7000104798001e4090000004e00034003a00f6
:105b8000eefe07001047980031003700dafe0700ec
:105b9000104798001e4090000004e0002c003a00de
:105ba000e6fe07001047980029003700e0cfb30059
:105bb000104798002600370010c1b3001047980026
:105bc0002300370020c1b3001047980020003700a1
:105bd00039ccbf000080fb0020079800ae00900089
:105be000e48f5000080032002e019000e80f5100b1
:105bf00004003200ae019000e28f51000c00320030
:105c000013003700bcfe07001e409000fd4f5000ff
:105c100004003200c9fe070020c0b30039ecb70011
:105c20000300370040c0b30039ecb700080037006c
:105c30001e409000f64f500003003a0010c0b30021
:105c400039ecb7000200370020c0b30039ecb700d0
:105c50001e409000e14f4000300032002e40900086
:105c60008080fb0039ccbf000080fb006f0060002b
:105c7000808f5000260032001e4090000004e0009b
:105c80000600320039ccbf003aecb70039ccbf0077
:105c90000044a00039ecb700170037003bccbf0030
:105ca0000004e000080032003bccbf001047980021
:105cb0002e4090003aecb7002e4090000044a00027
:105cc000204798000a003700a1c3200091407800c7
:105cd0002e409000814f500003003e0000c0eb00ba
:105ce00010479800020037000040eb003aecb70084
:105cf0002e40900039ecb70039ccbf009e40900098
:105d0000b0fc07000040eb003becb700030037009d
:105d100039ccbf008040eb00aafc07000080fa00ed
:105d2000000006000000fa000040eb0040ecb70065
:105d30000040eb003aecb7000040eb003becb70052
:105d40000040eb0030ecb7000040eb002eecb70059
:105d50000040eb002fecb7000040eb0046ecb70032
:105d60000040eb0036ecb70010c0b30039ecb700d0
:105d700039ccbf008040eb0092fc07000080fa00a5
:105d8000000006000000fa0001fc07000080fa0095
:105d9000000006000600fa0010002000000f780046
:105da0002e0207003f02070066020700fa01070003
:105db000fdf90700af010700a1f707007f05070005
:105dc0001cf50700dd02070001003700c482a800af
:105dd00002fa07000000e000fcff3200a5fa07000d
:105de000c482a900ec0107001e00900002e224001a
:105df000110009000200d8008000fd008040eb0087
:105e0000414798000000e00002003a0010c0b300d3
:105e1000404798001e0090000000e800100798001e
:105e2000ce4090000104e00001003200e1f90700db
:105e3000f0f90700ecff37000200fa00000f7800cd
:105e40001e00780080004000a0c5200000804000b7
:105e5000100078000080fa00000006000600fa003a
:105e600010079800210798009e0090006002200013
:105e70000088b90080007800408120000080400048
:105e80009000780000022000008f60001e0090004b
:105e9000e40207000000e0000c0032002e00900039
:105ea0000000e00002003d001e00e00005003a0096
:105eb0002e0090000000e000040034001e00e0000e
:105ec00002003a000000eb00200798001e0090003e
:105ed0003e0307000000e0000c0032002e0090009e
:105ee0000000e000020034001e00e00005003a005f
:105ef0002e0090000000e00004003d001e00e000c5
:105f000002003a000000eb00200798002e009000ed
:105f10000080fa00000006000800fa00000f780078
:105f2000110798001e0090000000e00003003a00f6
:105f30000000eb00300798002d0037009e0078002d
:105f4000600220000088b9004102200080804000eb
:105f50004081200000804000100078000000e00038
:105f600016003d009e007800600220000088b90005
:105f700041022000808040004081200000804000dd
:105f80001000780020079800ae0090000100e000ab
:105f900003003d002e0090000000ea00200798005a
:105fa0001e009000ae009000808f50000e00340064
:105fb0000000eb00100798000b0037009e007800ef
:105fc000600220000088b90041022000808040006b
:105fd0004081200000804000900078001e0090006a
:105fe00001004000100798001e0090003007980044
:105ff0003e0090000080fa00000006000c00fa004d
:1060000010079800210798009e0090006002200071
:106010000088b900f8004000408120000080400066
:10602000100078000000e000090032009e0090009f
:10603000600220000088b900f80040004081200084
:1060400000804000100078000000e0000f003400e5
:106050009e009000600220000088b900f800400017
:106060004081200000804000100078005007980018
:10607000e0c72000de009000808f50000500340053
:10608000e0c7200050079800020037008000eb00b6
:10609000510798005e009000000f7800e1c72000d3
:1060a0002e00900080805000e0c72000808f5000bc
:1060b0000e003c00e1c720002e00900080805000c0
:1060c000e0c720001e0050003007980041079800ec
:1060d000ce0090003e009000808f500005003d00f3
:1060e000be0090004107980002003700e0c7200082
:1060f000400798004e0090000080fa000000060063
:106100000a00fa0010079800210798009e009000ee
:10611000600220000088b900f800400040812000a3
:1061200000804000100078000000e000090032000c
:106130009e009000600220000088b900f800400036
:106140004081200000804000100078000000e00046
:106150000f0034009e009000600220000088b9000b
:10616000f8004000408120000080400010007800ce
:1061700040079800e0c72000ce009000808f5000bc
:1061800005003400e0c720004007980002003700f7
:106190008000eb00410798004e009000000f78004f
:1061a0001e00e00008003500ae00900031079800a6
:1061b0003e0090000000e00005003d008000eb0084
:1061c00031079800020037001e0078003007980061
:1061d0003e0090000080fa00000006001800fa005f
:1061e000881f780010079800210798001e00900073
:1061f000300f98002e0090000000e00003003d00ea
:106200008080eb00210f9800020037001200200070
:10621000220f9800ae019000130f98001e08900006
:106220000000e00003003d009e0890008100ea00ad
:10623000110f98009e009000600220000088b900b5
:10624000f8004000408120000080400010007800ed
:10625000000f98001e09900072079800fe01900040
:106260000e089000808f5100020034008e089000cc
:10627000710798002e099000fe0190000390b9006c
:10628000000178003e0890003e0890008000400029
:10629000a0c5200000804000020878002e00900079
:1062a0000000e00003003d008080eb0061079800e3
:1062b000020037001200200062079800ee019000f3
:1062c000030f7800ae0090001e009000e3fe070070
:1062d000200798002e00900050079800de009000e4
:1062e0000100e00003003d005e0190000201ea00b1
:1062f00052079800de0090001e00900006ff070085
:10630000200798001e049000ae0090001e00900030
:106310003aff0700000178008800440000c6200012
:1063200000804000020878009e019000430798001a
:106330009e009000600220000088b900f800400034
:106340004081200000804000900078002e009000e6
:10635000808f500009003d009e00900060022000e8
:106360000088b900f8004000408120000080400013
:106370001000780030079800070037002e009000ca
:1063800030079800be0090000100e00002003d00d0
:106390000001eb00320798001e007800be0190005b
:1063a0000098b900000178004e0090004e00900067
:1063b00080004000a0c52000008040000208780056
:1063c0001e0090000000e0000b003a001e00e000fc
:1063d00002003c00cde2a80001003700cde2a90098
:1063e0001e0090008000400000c620000080400099
:1063f00010007800b00e88001e009000e10f5000e1
:106400000b003a001e00e00002003c00cda2a800f4
:1064100001003700cda2a9001e00900080004000be
:1064200000c620000080400010007800c00e8800e8
:106430001e009000e20f50000b003a001e00e0002a
:1064400002003c00cd62a80001003700cd62a90027
:106450001e0090008000400000c620000080400028
:1064600010007800d00e88004f0478000080fa00f9
:10647000000006000200fa000000eb00000f7800a8
:106480000d0037001e00780080004000a0c52000ed
:10649000808040000000eb00800878001e0078003b
:1064a0008000400000c62000808040000000eb001b
:1064b000800878001e0fe800200020009e0f1000ca
:1064c000f0ff3400c1e1a9000000eb00000e8800dd
:1064d000c0c1bf006f406000c0e1b700011c2000d8
:1064e0009140780030cfb30000c06000c0e1b70039
:1064f000f0632000200e8800011c200091407800ed
:10650000c0cfb30000c06000c0e1b7000000eb00e6
:10651000100e88000000eb00400e8800c901a800a2
:10652000c881a800c921a800c8a1a800c941a80025
:10653000c8c1a8000000eb00b00e88000000eb000e
:10654000c00e88000000eb00d00e88000000eb00b9
:10655000500e8800b11c20009140780000cfb3009d
:1065600000c06000cbe1b700310e800000002800c1
:1065700000806000a10f200001007000300e880034
:106580000000eb00800e88008b20a900c1e1a8006c
:106590000080fa00000006000000fa00410a200016
:1065a0009140780080cfb30000c060003040b3005d
:1065b000a4e0b700210b200091407800f0c8b300a0
:1065c00000c0600001c2b30001407000b2e0b7003b
:1065d000a10a200091407800f0c8b30000c060001c
:1065e00001c5b30001407000aae0b700810a200095
:1065f0009140780080cfb30000c060000024a0006c
:10660000a8e0b700410a200091407800f0c8b3002c
:1066100000c0600001c3b30001407000a4e0b700f7
:10662000610a200091407800f0c8b30000c060000b
:1066300001c4b30001407000a6e0b700f10a2000d9
:106640009140780080cfb30000c060000024a0001b
:10665000afe0b7000080fa00000006000000fa007a
:10666000000a2000303a880044c7bf00f043b2005f
:1066700044e7b700417420009140780000ceb30099
:1066800000c060007041b30044e7b70042c7bf00dc
:106690000042b2000004e000fcff32000080fa007b
:1066a000000006000000fa000000eb001016880051
:1066b0000000eb00501688000000eb0090168800e8
:1066c000c082a900c102a800c8e2a800c942a8006f
:1066d000c962a800d062a900d082a800d0c2a900d7
:1066e000d0e2a900d102a900d122a800c002a800ce
:1066f000c022a800c802a800c822a800c842a8005a
:10670000c862a800d002a800d022a800c882a900b0
:10671000c922a900d042a900c8a2a800c8c2a800e6
:10672000c902a800c942a900c962a900c982a9007a
:10673000c9a2a900c9c2a900c9e2a9000080fa0043
:10674000000006000000fa0021742000620420000e
:1067500073052000824878008348780042c7a9006a
:10676000216820009140780000ceb30000c0600096
:106770004041b30082e6b700816a20009140780072
:1067800000ceb30000c060009041b300a8e6b7009f
:10679000616d20009140780000ceb30000c0600021
:1067a0009040b300d6e6b700716d200091407800ac
:1067b00000ceb30000c060000034a000d7e6b700f0
:1067c000816d20009140780000ceb30000c06000d1
:1067d0007040b300d8e6b700e1682000914078002f
:1067e00000ceb30000c060005040b3008ee6b7009a
:1067f000f16820009140780000ceb30000c0600036
:106800006040b3008fe6b7004169200091407800f6
:1068100000ceb30000c060000034a00094e6b700d2
:106820002174200062042000730520008248780053
:106830008348780042c7a8000080fa0000000600e4
:106840000600fa00200798000000eb0010079800ef
:106850000a0037000000eb00000f7800010037004d
:106860001e0fe800700020009e0f1000fcff340097
:106870001e0090000000e800100798009e009000a5
:106880002e009000808f5000f2ff35000080fa004b
:10689000000006000600fa00200798000000eb0048
:1068a000100798000a0037000000eb00000f780086
:1068b000010037001e0fe800f0f321009e0f1000ca
:1068c000fcff34001e0090000000e8001007980054
:1068d0009e0090002e009000808f5000f2ff350047
:1068e0000080fa00000006000600fa002007980069
:1068f0000000eb00100798000a0037000000eb00d2
:10690000000f7800010037001e0fe800f031200072
:106910009e0f1000fcff34001e0090000000e800f5
:10692000100798009e0090002e009000808f50006d
:10693000f2ff35000080fa00000006000000fa00b7
:106940000000eb00406388000000eb009008880026
:106950000000eb00500888002111200091407800d1
:10696000f0ccb30000c060000044a00012e1b7000a
:10697000409c2000700888008500a90013e1a80051
:106980009500a8000080fa00000006003600f8001c
:10699000809fbe00829fbe00849fbe00869fbe0077
:1069a0000000fa008500a900d462a800d462a90002
:1069b000bdf40700406380000000e80040638800e9
:1069c0000080fa004f03be004f02be004f01be0020
:1069d0004f00be003600f900004006000200fa0039
:1069e000000f78001e0078008000400040c02000aa
:1069f00000804000100078000080fa0000000600cf
:106a00000200fa00000f78001e00780080004000ad
:106a1000a0c0200000804000100078000080fa0034
:106a2000000006000c00fa00100798001e009000fd
:106a30008000400000c1200000804000100078006d
:106a40000000e0001d0032009e0090006002200067
:106a50000088b900fc004000408120000080400018
:106a60009000780050002500808f50000e003c0000
:106a70009e009000600220000088b900fc004000e9
:106a800040812000008040001000780050079800ee
:106a90005e0090000000e00005003d008000eb007b
:106aa0005107980002003700520025005207980055
:106ab0005e009000000f78001c0037009e009000e0
:106ac000600220000088b900fc00400040812000e6
:106ad000008040009000780050002500808f50001a
:106ae0000e003c009e009000600220000088b9006b
:106af000fc00400040812000008040001000780031
:106b000040079800ce0090000100e00005003d0025
:106b10000001eb00420798000200370050002500fa
:106b200040079800ce009000010f78001e019000f1
:106b3000320798009e009000600220000088b90093
:106b40008000780040812000008040001000780024
:106b50004400de00610060000004a2000004e000c8
:106b60000a003a001e0090008000400040c0200053
:106b700000804000100078009e0f500003003d0090
:106b80001000200020079800020037008000eb0072
:106b9000210798003e0190003e01900082004100d4
:106ba00000c1200000804000ae0090000108780085
:106bb0001e0090008000400000c1200000804000c6
:106bc000100078000080fa00000006000c00fa00b7
:106bd000100798001e0090008000400060c1200057
:106be00000804000100078000000e0001d0032002e
:106bf0009e009000600220000088b900fa0040006a
:106c00004081200000804000900078005000250066
:106c1000808f50000e003c009e009000600220001b
:106c20000088b900fa004000408120000080400048
:106c300010007800500798005e0090000000e0000f
:106c400005003d008000eb0051079800020037006e
:106c500052002500520798005e009000000f780057
:106c60001c0037009e009000600220000088b900e0
:106c7000fa00400040812000008040009000780031
:106c800050002500808f50000e003c009e009000b8
:106c9000600220000088b900fa0040004081200016
:106ca000008040001000780040079800ce0090005f
:106cb0000100e00005003d000001eb0042079800e4
:106cc000020037005000250040079800ce009000d9
:106cd000010f78001e019000320798009e0090007e
:106ce000600220000088b900800078004081200008
:106cf00000804000100078004400de006100600069
:106d00000004a2000004e0000a003a001e00900007
:106d10008000400040c0200000804000100078004b
:106d20009e0f500003003400100020002007980040
:106d3000020037008000eb00210798003e01900020
:106d40003e0190008200410060c1200000804000b0
:106d5000ae009000010878001e0090008000400006
:106d600060c1200000804000100078000080fa0020
:106d7000000006000600fa00200798002e00900090
:106d80008000400040c0200000804000900078005b
:106d9000100021000088b9000000e800cf80de006c
:106da000008fbe002e00900080004000a0c0200098
:106db00000804000100078006101b9001e00be0094
:106dc000eaf00700008fbe002e0090008000400017
:106dd000a0c0200000804000100078006101b900d0
:106de0001e00be00e1f007000081eb008081eb0097
:106df000021f4000039748001e0078000080fa0040
:106e0000000006000200fa00000f78001e00780063
:106e100080004000c0c120000080400010007800c9
:106e20000080fa0000000600809fbe000200fa0009
:106e3000c05f80000000e000450032000400370021
:106e4000305f8000605f8800000a8000305f88004b
:106e500042c1bf00684060000004e000f8ff3a0053
:106e60000000eb00c05f88002114200091407800f2
:106e700080cfb30000c0600042e1b70021142000c1
:106e80009140780080cfb30000c060000004a000f3
:106e900042e1b7000000eb00f05f880030003700ef
:106ea000f05f80000000e00025003200305f8000cd
:106eb000605f8800000a8000305f88000000eb00ff
:106ec000f05f8800315f8000605f8000808f50003d
:106ed00005003400305f8000615f800001005000d9
:106ee000005f88000600370061088000605f800056
:106ef00080805000305f800000804000005f88008c
:106f0000615f8000905f8000808f500005003d0031
:106f1000905f8000615f800001005000d05e8800bb
:106f20000b00370061088000605f800080805000a7
:106f3000905f800000804000d05e88000400370031
:106f4000000a8000905f880010002000f05f880039
:106f500042c1bf00684060000004e000d0ff3a007a
:106f6000406180000000e0000400340040618000c7
:106f70000000e900406188001a003700d15e8000ff
:106f80002060800000805000106188001061800047
:106f9000000f78001e0078000000e00003003d00b4
:106fa0009e0078008100ea00010f7800d0c1240023
:106fb0009e007800808f50000a003400106180002d
:106fc0000000e00004003d00e06080000000e800f8
:106fd000e060880003003700e06080000000e90006
:106fe000e0608800d05e800020608800005f800044
:106ff000506088008420a9000080fa004f00be0085
:1070000000400600809fbe000200fa00d05f8000b2
:107010000000e0004500320004003700405f8000bf
:10702000705f8800200a8000405f880046c1bf0072
:10703000684060000004e000f8ff3a000000eb0048
:10704000d05f8800611420009140780080cfb300a9
:1070500000c0600046e1b700611420009140780054
:1070600080cfb30000c060000004a00046e1b7007c
:107070000000eb00006088003000370000608000f6
:107080000000e00025003200405f8000705f880053
:10709000200a8000405f88000000eb00006088004c
:1070a000415f8000705f8000808f500005003400d9
:1070b000405f8000715f800001005000105f880019
:1070c0000600370061088000705f800080805000fb
:1070d000405f800000804000105f8800715f80008a
:1070e000a05f8000808f500005003d00a05f800001
:1070f000715f800001005000e05e88000b003700e7
:1071000061088000705f800080805000a05f800078
:1071100000804000e05e880004003700200a800004
:10712000a05f8800100020000060880046c1bf00fa
:10713000684060000004e000d0ff3a005061800029
:107140000000e00004003400506180000000e9000d
:10715000506188001a003700e15e800030608000d6
:10716000008050002061880020618000000f7800be
:107170001e0078000000e00003003d009e00780043
:107180008100ea00010f7800d0c124009e00780041
:10719000808f50000a003400206180000000e00071
:1071a00004003d00f06080000000e800f06088000e
:1071b00003003700f06080000000e900f060880004
:1071c000e05e800030608800105f800060608800b2
:1071d00084a0a9000080fa004f00be000040060015
:1071e000809fbe000200fa00e05f80000000e00027
:1071f0004500320004003700505f8000805f880047
:10720000c00a8000505f88005ac1bf00684060001b
:107210000004e000f8ff3a000000eb00e05f8800a7
:10722000a11520009140780080cfb30000c060001d
:107230005ae1b700a11520009140780080cfb3003b
:1072400000c060000004a0005ae1b7000000eb009d
:107250001060880030003700106080000000e000ff
:1072600025003200505f8000805f8800c00a8000e7
:10727000505f88000000eb0010608800515f8000c4
:10728000805f8000808f500005003400505f8000d8
:10729000815f800001005000205f880006003700f9
:1072a00061088000805f800080805000505f800017
:1072b00000804000205f8800815f8000b05f800018
:1072c000808f500005003d00b05f8000815f80002e
:1072d00001005000f05e88000b003700610880005c
:1072e000805f800080805000b05f800000804000a0
:1072f000f05e880004003700c00a8000b05f88009c
:1073000010002000106088005ac1bf006840600073
:107310000004e000d0ff3a00606180000000e0005f
:1073200004003400606180000000e90060618800b2
:107330001a003700f15e800040608000008050003d
:107340003061880030618000000f78001e007800f6
:107350000000e00003003d009e0078008100ea008c
:10736000010f7800d0c124009e007800808f50006b
:107370000a003400306180000000e00004003d009d
:10738000006180000000e800006188000300370011
:10739000006180000000e90000618800f05e80006c
:1073a00040608800205f80007060880086c0a9006f
:1073b0000080fa004f00be00004006000200fa0004
:1073c0000000eb00000f7800550037001e00780029
:1073d0008000400080bf200080804000100020001e
:1073e000800878001e00780080004000e0bf200088
:1073f000808040000000eb00800878001e007800cc
:107400008000400060be2000808040000000eb0053
:10741000800878001e00780080004000c0be200078
:10742000808040000000eb00800878001e0078009b
:107430008000400020bf2000808040000000eb0062
:10744000800878001e00780080004000a0bd200069
:10745000808040000000eb00800878001e0078006b
:107460008000400000be2000808040000000eb0053
:10747000800878001e0078008000400040c0200096
:10748000808040000000eb00800878001e0078003b
:1074900080004000a0c02000808040000000eb0081
:1074a000800878001e0078008000400000c12000a5
:1074b000808040000000eb00800878001e0078000b
:1074c0008000400060c12000808040000000eb0090
:1074d000800878001e0078008000400020c2200054
:1074e000808040000000eb00800878001e007800db
:1074f00080004000c0c12000808040000000eb0000
:10750000800878001e0078008000400080c22000c3
:1075100080804000a0002000800878001e0fe80056
:10752000200020009e0f1000a8ff34000000eb0098
:10753000800888000000eb0030088800011120005e
:1075400091407800f0ccb30000c060000044a0007f
:1075500010e1b700801a26006008880011e1a80039
:10756000211420009140780080cfb30000c060005b
:1075700042e1b70042e1a8002114200091407800c8
:10758000f0c9b30000c0600042e1b7002114200040
:107590009140780080cfb30000c060003040b3005d
:1075a00042e1b7008420a9009420a80061142000c3
:1075b0009140780080cfb30000c0600046e1b70082
:1075c00046e1a8006114200091407800f0c9b300a2
:1075d00000c0600046e1b7006114200091407800cf
:1075e00080cfb30000c060003040b30046e1b70078
:1075f00084a0a90094a0a800a115200091407800c3
:1076000080cfb30000c060005ae1b7005ae1a80083
:10761000a115200091407800f0c9b30000c06000bf
:107620005ae1b700a11520009140780080cfb30047
:1076300000c060003040b3005ae1b70086c0a90026
:0c76400096c0a8000080fa0000000600c0
:020000040000fa
:0200000401f009
:04000800ffff0000f6
:020000040000fa
:0200000401f009
:04000c00fbff0000f6
:020000040000fa
:0200000401f009
:040010009cff000051
:020000040000fa
:0200000401f009
:040014007fff00006a
:020000040000fa
:0200000401f009
:04001800f8ff0000ed
:020000040000fa
:100008005e3b00005e3b00005e3b00005e3b000084
:100018005e3b00005e3b00005e3b00005e3b000074
:10002800fc230000143700005e3b00005e3b00002c
:100038005e3b0000023800005e3b00005e3b0000b3
:10004800c63400005e3b00005e3b00005e3b0000e3
:100058005e3b00008e1900005e3b00005e3b000026
:100068005e3b00005e3b00005e3b00005e3b000024
:100078005e3b00005e3b0000f03800005e3b000085
:100088005e3b00005e3b00005e3b00005e3b000004
:100098005e3b00005e3b00005e3b00005e3b0000f4
:1000a8005e3b00005e3b00005e3b00005e3b0000e4
:1000b8005e3b00005e3b00005e3b00005e3b0000d4
:1000c8005e3b00005e3b00005e3b00005e3b0000c4
:1000d8005e3b00005e3b00005e3b00005e3b0000b4
:1000e8005e3b00005e3b00005e3b00005e3b0000a4
:1000f8005e3b00005e3b00005e3b00005e3b000094
:100108005e3b00005e3b00005e3b00005e3b000083
:100118005e3b00005e3b00005e3b00005e3b000073
:100128005e3b00005e3b00005e3b00005e3b000063
:100138005e3b00005e3b00005e3b00005e3b000053
:100148005e3b00005e3b00005e3b00005e3b000043
:100158005e3b00005e3b00005e3b00005e3b000033
:100168005e3b00005e3b00005e3b00005e3b000023
:100178005e3b00005e3b00005e3b00005e3b000013
:100188005e3b00005e3b00005e3b00005e3b000003
:100198005e3b00005e3b00005e3b00005e3b0000f3
:1001a8005e3b00005e3b00005e3b00005e3b0000e3
:1001b8005e3b00005e3b00005e3b00005e3b0000d3
:1001c8005e3b00005e3b00005e3b00005e3b0000c3
:1001d8005e3b00005e3b00005e3b00005e3b0000b3
:1001e8005e3b00005e3b00005e3b00005e3b0000a3
:0801f8005e3b00005e3b0000cd
:020000040000fa
:100208005e3b00005e3b00005e3b00005e3b000082
:100218005e3b00005e3b00005e3b00005e3b000072
:10022800fc230000143700005e3b00005e3b00002a
:100238005e3b0000023800005e3b00005e3b0000b1
:10024800c63400005e3b00005e3b00005e3b0000e1
:100258005e3b00008e1900005e3b00005e3b000024
:100268005e3b00005e3b00005e3b00005e3b000022
:100278005e3b00005e3b0000f03800005e3b000083
:100288005e3b00005e3b00005e3b00005e3b000002
:100298005e3b00005e3b00005e3b00005e3b0000f2
:1002a8005e3b00005e3b00005e3b00005e3b0000e2
:1002b8005e3b00005e3b00005e3b00005e3b0000d2
:1002c8005e3b00005e3b00005e3b00005e3b0000c2
:1002d8005e3b00005e3b00005e3b00005e3b0000b2
:1002e8005e3b00005e3b00005e3b00005e3b0000a2
:1002f8005e3b00005e3b00005e3b00005e3b000092
:100308005e3b00005e3b00005e3b00005e3b000081
:100318005e3b00005e3b00005e3b00005e3b000071
:100328005e3b00005e3b00005e3b00005e3b000061
:100338005e3b00005e3b00005e3b00005e3b000051
:100348005e3b00005e3b00005e3b00005e3b000041
:100358005e3b00005e3b00005e3b00005e3b000031
:100368005e3b00005e3b00005e3b00005e3b000021
:100378005e3b00005e3b00005e3b00005e3b000011
:100388005e3b00005e3b00005e3b00005e3b000001
:100398005e3b00005e3b00005e3b00005e3b0000f1
:1003a8005e3b00005e3b00005e3b00005e3b0000e1
:1003b8005e3b00005e3b00005e3b00005e3b0000d1
:1003c8005e3b00005e3b00005e3b00005e3b0000c1
:1003d8005e3b00005e3b00005e3b00005e3b0000b1
:1003e8005e3b00005e3b00005e3b00005e3b0000a1
:0803f8005e3b00005e3b0000cb
:020000040000fa
:10764c00460b00009400000000000000ae09000092
:10765c00980100000000000000080000ae010000ce
:10766c00000000006a0c0000020000000000000096
:10767c00480c000012000000000000002e0c00005e
:10768c001a000000000000005a0c00000c00000062
:10769c0000000000660c0000040000000000000068
:1076ac00da0b000054000000000000000000000095
:020000040000fa
:0476bc000000fe00cc
:00000001FF
