:020000040000fa
:080000000018040000000000dc
:020000040000fa
:10300000efbb20000eff20000e0188000000000032
:103010000c000700202725000100200011000700f8
:10302000000020000000e00002003200000002006a
:1030300000000000064f0200000000000040da001f
:103040000000fe004440a900000020000000e00055
:103050000300320000002000a00188004440a800c6
:103060000000060091018800800078000000eb005d
:1030700015003700e280400032a0b4009101ba0090
:10308000e280400032a0b4009102ba00e280400029
:1030900032a0b4000002eb00472bde00f507b200bf
:1030a000602ce10004003a000059eb008301e900c4
:1030b000fdff3e00040037006128e10001003200fe
:1030c0000082eb00040007001101ba000200e000da
:1030d000e8ff3a00000006003159ba008301e90018
:1030e0000c0032002159ba008301e90008003200c7
:1030f0000400e00003003a00e280400032a0b40087
:10310000f5ff370011d9ba008301e900faff3a0050
:103110008100e800e180400032a0b4000000060019
:103120006022b800060220000000d0008180d2009a
:103130000482d2008582d2000000a0000202520068
:1031400083825a00030031000202420083824a0057
:103150000000a1000603e900f3ff3a0000000600aa
:103160008001eb0002003700817178008301e800e4
:10317000828f5100fcff3a00000006006011b80089
:103180000002eb00050220004600dd006182200005
:10319000810040003100780000014100e0814900d9
:1031a0000402e800850f5200faff3a004b1add00d6
:1031b0004510de0000007200c598de000000060029
:1031c0006011b8008000eb006480200034007800bb
:1031d00000014100e08149008100e800f08f5000cb
:1031e000faff3a004c1add004410de0000007200c5
:1031f000c498de00000006000001eb004249880090
:103200003249880021e3a90025c3bf0001ceb300e5
:10321000014060005040b30025e3b70010c0b30088
:1032200024e3b70023c3bf007f40600023e3b7005f
:1032300025e3a90020c3bf007f4060000046b30023
:1032400020e3b70023c3bf00c3cfb3000340600037
:1032500023e3b7002043a8002143a8002223a800ad
:103260002063a9002343a80022c3bf00fdc0500073
:1032700001406000c040b30022e3b7003003a80063
:103280003023a8003043a8003063a80062198800ea
:103290002c03a9002c23a9002c43a9002c63a9000e
:1032a0002c83a8002ca3a8002cc3a8002ce3a80002
:1032b0002d03a80021c3bf000340600021e3b70035
:1032c00021e3a80085a0a90095a0a80000000600a1
:1032d0003600f800809fbe00829fbe00849fbe0023
:1032e000869fbe0085a0a9002243e2002900350088
:1032f0008018800050498800941880006449880034
:10330000a018800070498800b418800084498800a3
:103310004349800083804100000c200001004000f0
:103320006282200004307900000820000100400083
:103330007449800004307900504980008030790061
:103340000104b00064498000843079000300e80083
:10335000ff0f5000010034000000eb0040498800de
:103360000008ec00e40f5000010036000000eb0004
:10337000004088000000e0000f0032004f03be0054
:103380004f02be004f01be004f00be003600f900e4
:103390000040060000188000504988001418800082
:1033a0006449880020188000704988003418800023
:1033b00084498800d6ff3700d462a800d462a900ef
:1033c000e004070093030700cc0107000428ec0089
:1033d0004f03be004f02be004f01be004f00be00b3
:1033e0003600f90000400600eaff370062022000c4
:1033f0000281b90084b320008401410084ab200025
:10340000040141000002400045af200064807a00c2
:103410000000e80000b27a0042039000c601980064
:1034200052039000d601980062039000e6019800d4
:1034300072039000f6019800021390008611980024
:10344000720b9000f60998000003eb00810f50000a
:103450004b0035000000eb0000b27a0093009000b2
:103460001200900016002000808f50000e003200e5
:10347000008050000082eb000100330014002000a7
:10348000048050009001980001d02700810f500067
:1034900045003c0001302800810f500042003500fb
:1034a000900198000003eb00a30090002200900020
:1034b000808f50000e003200008050000082eb0030
:1034c000010033001400200004805000a001980087
:1034d00001d02700810f50002f003c000130280050
:1034e000810f50002c003500a00198000003eb0074
:1034f000b300900032009000808f50000e00320028
:10350000008050000082eb00010033001400200016
:1035100004805000b001980001d02700810f5000b6
:1035200025003c0001302800810f500022003500aa
:10353000b00198000003eb0093109000121090006f
:10354000808f50000e003200008050000081eb00a0
:1035500001003300120020000280500090119800fa
:1035600001d02700810f500007003c0001302800e7
:10357000810f500004003500901198000003eb000b
:103580000600780000000600010078009011980005
:103590000003eb00faff370001007800a00198005b
:1035a0000003eb00d2ff3700010078009001980083
:1035b0000003eb00bcff370001007800b001980069
:1035c0000003eb00dcff3700620220000281b9003b
:1035d00084b320008401410084ab20000401410039
:1035e0000002400045af200064807a000000e8003f
:1035f00000b27a0042039000c60198005203900086
:10360000d601980062039000e601980062039000e2
:10361000f60198000213900086119800720990003c
:10362000f20998000001eb00810f500027003500df
:103630000000eb0000b27a0013009000120020009e
:103640000000e000060032008080eb000100350041
:103650001100200001005000900198000001eb00d3
:10366000230090000000e000060032008080eb00a4
:10367000010035001100200001005000a001980059
:103680000001eb00330090000000e0000600320073
:103690008080eb0001003500110020000100500087
:1036a000b00198000001eb00131090000000e00052
:1036b000060032008080eb00010035001100200080
:1036c00001005000901198000001eb00020078000a
:1036d00000000600889fbe00800478006002200081
:1036e00000c8b90082b32000000141000004eb00d3
:1036f00018019800280198003801980018119800c6
:1037000078019800480198005801980068019800d5
:1037100008119800c248dd00c0ae200000804000c3
:103720006011b8000288be0000af20008080400019
:103730008288be004648dd0081af200001004000c5
:10374000020420008800780085fe0700898044007c
:10375000a0ae20008830780080ae2000883078004d
:1037600040af2000883078004f04be000000060003
:103770005c1a370000000600ee874700889fbe00f5
:103780008a9fbe008c9fbe008e1f7800f0b79f00fe
:1037900081017800600220007fb197000090b9009d
:1037a00082b320000204400082ab200002004000ef
:1037b000c0b79f00100a9000b4b79f00830f52005b
:1037c0009e00350020089000b3b79f00808f510005
:1037d000ad003500cfb2970095027800628062009c
:1037e0009a0032000000eb00a403070000057800f7
:1037f0003fb097000a015000125b8800480090001b
:103800000090de00980090000182b900d4b79f00bc
:10381000e5b79f00ffb29700422fdd0000b7200000
:10382000000047005fb29700efb297000488be0027
:1038300006af200006004700cf91de0030024100b5
:10384000a0824900780090006101b900820f520007
:10385000838f5a0006003c000000ea00cf80de00a3
:103860000401be00800f5200818f5a008400350091
:10387000060047000288be0028029000cfa2de00aa
:10388000580090000000e900030033008381d1005c
:103890000281d300fbff37000416b80003a0b90073
:1038a0000d0040000591b90082064000c0b620001e
:1038b000000047000c88be00ffb2970085844200dc
:1038c00080ae20006900780080bf9f00c6ae200057
:1038d00006034700452add000002420004024200c0
:1038e00087af200064817b00cf91de00360011009d
:1038f000a68019000001be00a5ae200069807a00f4
:103900000000550000b27b008ab47a00cf80de0050
:1039100002054000838548000a8bbe008fb89700df
:103920000100e800ff0f5000010034000000eb0030
:1039300082ae20008034790038009000cf80de0015
:103940000a02b80001d1b900050141000b80b9009d
:1039500080024100680090000000e900030033008d
:103960008582d1000482d300fbff370080b620009f
:10397000000047000488be0046b6200086014700cc
:103980008009eb00b311780000002100cfb0970050
:10399000110060003000320018109000cf80de006f
:1039a0008089be005fb19700efb19700020046002a
:1039b00083804e00040040008580480006014700d7
:1039c00032024000a2824800f45a8800055b880059
:1039d0000400be00c27d200003002000c57d200041
:1039e000850f5000e08f580009003c00f05a80001d
:1039f000015b800002812f00f3ff2f00820f500037
:103a0000838f580002003500f25a8000035b80006b
:103a1000f25a8800035b8800820078007fb097002c
:103a2000b01907004f0778004f06be004f05be00d3
:103a30004f04be00ef00b1000000060080027800d5
:103a4000950278006280620066ff3a003903070041
:103a50000005780066ff3700780890003fb19700b6
:103a600000005100081190000280de001811900043
:103a70000280b900cf80de008089be00c9ff370018
:103a80000001be007aff3700b0b79f00cfb29700a9
:103a900051ff3700881f78000004eb00b8578800fa
:103aa000d8598800e8598800f8598800d85a880001
:103ab000385a8800085a8800185a8800285a8800fe
:103ac000c85a88006000b8006057880071578800a5
:103ad00080578800915788000204200088007800f1
:103ae00080af20009efd0700585788004857880087
:103af000a85788004f04780000000600889fbe0089
:103b000079568000f90fb20042568000b857800005
:103b1000e20f5400600032003b003400e40f540018
:103b2000cf0032006b003d00a15780008100e8000b
:103b3000a157880000568000005a88001056800067
:103b4000105a880020568000205a8800305a880079
:103b5000c0568000c05a8800b0568000b05a880015
:103b6000900f2000808f500023003400f42aef00d3
:103b7000d0598000110020000000e0000600320053
:103b80008080eb0001003500110020000100500092
:103b9000d05988008000eb00e05980000000e00070
:103ba000060032008080eb0001003500110020008b
:103bb00001005000e05988008000eb00f0598000bf
:103bc0000000e000060032008080eb0001003500bc
:103bd0001100200001005000f05988008000eb0027
:103be000d05a80000000e000a8003a000100e00088
:103bf00001003200b05788006000b8003919070092
:103c00004f04be00000006000800e00028003a0053
:103c1000880078000800780032190700e18f54000e
:103c200096003200e28f54000c013200e38f540002
:103c3000f3ff3a0060002000b0578800d859880090
:103c4000e8598800f8598800d85a8800385a8800fe
:103c5000085a8800185a8800285a8800c85a8800cc
:103c6000ec2aef00ee2aef00f02aef00f22aef0034
:103c7000020420008800780080af200038fd070093
:103c80005857880048578800a85788004f04be003e
:103c900000000600dcff3700e28f54001300320002
:103ca000f62aef004f04be0000000600d6ff3700e2
:103cb000e10f5400d0ff3a00820078000000eb00d2
:103cc00008190700e18f5400cdff3200f62aef00fb
:103cd000f4ff3700e60f5400c7ff3a00e38f5400ab
:103ce000c7ff3200f62aef00eeff3700a157800031
:103cf0008100e800a157880000568000005a880023
:103d000010568000105a880020568000205a8800e3
:103d100030568000305a8800c0568000c05a880053
:103d2000b0568000b05a8800900f2000808f50005d
:103d300045003400f42aef00d1598000d0558000ae
:103d400013002000808f50000d00320000805000d2
:103d50008081eb000100330013002000038050003d
:103d600001d02700810f500064003c000130280082
:103d7000810f500061003500d05988008001eb00b0
:103d8000e1598000e0558000808f50000d00320026
:103d9000008050008081eb00010033001300200000
:103da0000380500001d02700810f50004f003c00dd
:103db00001302800810f50004c003500e059880088
:103dc0008001eb00f1598000f0558000808f500099
:103dd0000d003200008050008081eb0001003300b4
:103de000130020000380500001d02700810f5000f5
:103df0003a003c0001302800810f500037003500a8
:103e0000f05988008001eb00d15a8000d056800024
:103e1000808f500026003200008050008081eb002f
:103e200001003300130020000380500001d0270060
:103e3000810f500026003c0001302800810f500007
:103e400023003500d05a8800820078000000eb0083
:103e500049fe07004f04be00000006006aff37005d
:103e6000e28f54002900320030002000b057880053
:103e70004f04be000000060063ff3700b9578800fa
:103e80004f04be00000006005fff37008080eb009b
:103e90000000e0000100350011002000010050008a
:103ea000d05a88006000b8008e18070054ff370011
:103eb0000300e000e4ff320040002000b05788001b
:103ec000820078000000eb002bfe0700e1ff3700c6
:103ed00001007800d05a8800dbff3700010078002d
:103ee000f05988008001eb00c7ff3700010078001f
:103ef000e05988008001eb00b2ff37000100780034
:103f0000d05988008001eb009dff3700a157800049
:103f10008100e800a157880000568000005a880000
:103f200010568000105a880020568000205a8800c1
:103f300030568000305a8800c0568000c05a880031
:103f4000b0568000b05a8800900f2000808f50003b
:103f5000bdff3400f42aef00d1598000d055800015
:103f6000808f50000c003200008050008081eb00f8
:103f700001003300130020000380500001d027000f
:103f8000810f500032003c0001302800810f5000aa
:103f90002f003500d0598800e1598000e05580009d
:103fa000808f50000c003200008050008081eb00b8
:103fb00001003300130020000380500001d02700cf
:103fc000810f50001f003c0001302800810f50007d
:103fd0001c003500e0598800f1598000f055800040
:103fe000808f50000c003200008050008081eb0078
:103ff00001003300130020000380500001d027008f
:10400000810f50000c003c0001302800810f50004f
:1040100009003500f0598800d15a8000d056800040
:10402000808f50007cff3a00820078000000eb0097
:10403000d1fd070087ff370001007800f0598800a4
:10404000f5ff370001007800e0598800e2ff3700f3
:1040500001007800d0598800cfff3700b957880099
:10406000d8598800e8598800f8598800d85a88003b
:10407000385a8800085a8800185a8800285a880038
:10408000c85a8800ec2aef00ee2aef00f02aef0071
:10409000f22aef00020420008800780080af2000a0
:1040a0002ffc07005857880048578800a8578800f9
:1040b000f6fe370090498000010220000000e00079
:1040c00002003200010078000000060000007800c5
:1040d00000000600fdff3700a0498000010120001c
:1040e0000000e0000200320001007800000006003d
:1040f0000000780000000600fdff3700f05080004f
:1041000000000600604a8000714a8000000006003e
:10411000804a8000914a800000000600b04980007b
:1041200000000600881f78000004eb00c8498800e2
:104130006000b800e0498800f1498800804a8800a2
:10414000914a8800284a8800d8498800004a880097
:10415000114a8800604a8800714a8800384a8800fd
:104160000204200088007800809d2000fcfb0700ee
:10417000020820008800780080952000f8fb0700e6
:104180004f04780000000600881f78000004eb0050
:10419000f8508800e8508800d8508800a00f200010
:1041a000c0508800b84a8800a84a8800c8498800da
:1041b0006000b800e0498800f1498800804a880022
:1041c000914a8800284a8800a849880098498800b0
:1041d000d8498800004a8800114a8800604a88004f
:1041e000714a8800384a8800b849880002042000d3
:1041f00088007800809d2000d9fb0700020820007d
:104200008800780080952000d5fb07004f047800d7
:1042100000000600881f7800c0508000f00f50009a
:1042200005003c00180ae20003003400b849800091
:104230000800e000ae003200180aed008000eb003c
:1042400002003300c15080008100e900c1508800a5
:104250003609e20002003a004f0478000000060030
:1042600010002000c5fb070080007800d0508000bf
:10427000008050006700b900f0508800b0578000ff
:104280000000e00098003200e50f50009600320078
:10429000314a80008100e8000001eb00700f20002f
:1042a000808f500002003c00324a80000201e8008a
:1042b000324a8800314a80000100e00035003a00af
:1042c0003a09ec00ef0f5000ad003c003a09ec0059
:1042d000d0498800d3498000f0508000f25080001f
:1042e0000280b900c219dd00829d20008281410058
:1042f0008089be004029ef004229ef000002eb0058
:10430000820278003501be00004a8000114a800018
:104310000200400083804800004a8800114a88005b
:104320000402e800f00f5200f6ff3a00004a800055
:10433000114a80004c09dd004400de0000007100dd
:10434000c488de00604a8800714a8800984980006d
:104350000800e0000f003a00624a8000734a8000c3
:1043600000a4230091d62000800f5100818f5900b6
:1043700008003400f150800080a92300808f500095
:104380008e003c00f150800080562c00808f500041
:104390008a003500214a80008100e8000001eb001e
:1043a000f0262000808f500002003c00224a80004e
:1043b0000201e800224a8800214a80000100e00052
:1043c00024003a003809ec00ff0f50005c003c006c
:1043d0003809ec00c0498800c3498000f0508000d3
:1043e000f25080000280b900c219dd0082952000e1
:1043f000828141008089be003c29ef003e29ef0008
:104400000002eb0006022000820278003501be00a7
:10441000e0498000f14980000200400083804800ac
:10442000e0498800f14988000402e800860f520044
:10443000f6ff3a00e0498000f14980004b09dd00b9
:104440004500de0000007100c588de00804a88005b
:10445000914a8800a84980000800e0007eff3a00e9
:10446000824a8000934a800000e42a00b12e200096
:10447000800f5100818f590077ff340030002000f9
:10448000b049880010002000a0498800c849880071
:104490003c29ef003e29ef005029ef005229ef00a0
:1044a000284a8800d84988004029ef004229ef00b7
:1044b0004c29ef004e29ef00384a88000204200002
:1044c00088007800809d200025fb0700020820005e
:1044d000880078008095200021fb07004f047800b9
:1044e000000006005eff37001e2aef0068ff37005d
:1044f0000800780021fb07005629b40010002000b6
:104500001efb07005429b400c1508000e18f500009
:1045100049ff3a00b04a80004400de00e0508800c5
:10452000a04a80004400de00d0508800d0508000b7
:10453000f80f50003a003e00b14988003eff3700b6
:1045400001007800c0498800c3498000f050800015
:10455000f25080000280b900c219dd00829520006f
:10456000828141008089be003c29ef003e29ef0096
:104570000002eb000602200082027800a3ff370051
:1045800001007800d0498800d3498000f0508000b5
:10459000f25080000280b900c219dd00829d200027
:1045a000828141008089be004029ef004229ef004e
:1045b0000002eb008202780052ff3700200020004a
:1045c000b04988001000200090498800c849880040
:1045d0003c29ef003e29ef005029ef005229ef005f
:1045e000284a8800d84988004029ef004229ef0076
:1045f0004c29ef004e29ef00384a880002042000c1
:1046000088007800809d2000d5fa0700020820006d
:104610008800780080952000d1fa07005dff370000
:10462000b8498800b84a8800a84a88004006200097
:10463000c050880000ff370000000600c4c2bf0061
:104640004400de00610060000004a2004400dd00c0
:10465000412c2000914078000144a10080c07000ee
:1046600001007800c4e2b70000000600000040002e
:10467000e1b8200060807800000006004200dd0004
:1046800021b92000010240006011b8008000eb0059
:104690003400780000014100e08149008100e80019
:1046a000e28f5000faff3a008380d1000280d300ed
:1046b0000000060000017800c209de0033578800c0
:1046c000e3806000e18f500007003200b8eaab00e1
:1046d00008003a0002004100e1b82000010040005b
:1046e0001008e80000000600e0fd2300808f510064
:1046f000f6ff3e0082004100c0b920008330780000
:1047000000000600d442a800cc62a8000000eb0024
:10471000c3b92000e2b820008000780001b0790021
:10472000013079000080e800e40f5000fbff3a0000
:104730000000060000004000c1b920006080780041
:1047400000000600889fbe00c8a2a900cea2a80053
:10475000c8c2a900cec2a800d442a900cc62a90058
:10476000d402a900d422a90000000000000000002b
:104770000000000000000000000000000000000039
:104780000000000000000000000000000000000029
:104790000000000000000000000000000000000019
:1047a0000000000000000000000000000000000009
:1047b00000000000000000000000000000000000f9
:1047c00000000000000000000000000000000000e9
:1047d00000000000000000000000000000000000d9
:1047e00000000000000000000000000000000000c9
:1047f00000000000000000000000000000000000b9
:1048000000000000000000000000000000000000a8
:104810000000000000000000000000000000000098
:104820000000000000000000000000000000000088
:104830000000000000000000000000000000000078
:104840000000000000000000000000000000000068
:104850000000000000000000000000000000000058
:104860000000000000000000000000000000000048
:104870000000000000000000000000000000000038
:104880000000000000000000000000000000000028
:104890000000000000000000000000000000000018
:1048a0000000000000000000000000000000000008
:1048b00000000000000000000000000000000000f8
:1048c00000000000000000000000000000000000e8
:1048d0000000000000000000d402a800d422a800bc
:1048e000cca2a800ccc2a80000000000000000007c
:1048f00000000000000000000000000000000000b8
:1049000000000000000000000000000000000000a7
:104910000000000000000000000000000000000097
:104920000000000000000000000000000000000087
:104930000000000000000000000000000000000077
:104940000000000000000000000000000000000067
:104950000000000000000000000000000000000057
:104960000000000000000000000000000000000047
:104970000000000000000000000000000000000037
:104980000000000000000000000000000000000027
:104990000000000000000000000000000000000017
:1049a0000000000000000000d402a900d422a900e9
:1049b00000000000000000000000000000000000f7
:1049c00000000000000000000000000000000000e7
:1049d00000000000000000000000000000000000d7
:1049e00000000000000000000000000000000000c7
:1049f00000000000000000000000000000000000b7
:104a000000000000000000000000000000000000a6
:104a10000000000000000000000000000000000096
:104a20000000000000000000000000000000000086
:104a30000000000000000000000000000000000076
:104a40000000000000000000000000000000000066
:104a50000000000000000000000000000000000056
:104a60000000000000000000000000000000000046
:104a7000d402a800d422a800cca2a900ccc2a900cc
:104a80000000000000000000000000000000000026
:104a90000000000000000000000000000000000016
:104aa0000000000000000000000000000000000006
:104ab00000000000000000000000000000000000f6
:104ac00000000000000000000000000000000000e6
:104ad00000000000000000000000000000000000d6
:104ae00000000000000000000000000000000000c6
:104af00000000000000000000000000000000000b6
:104b000000000000000000000000000000000000a5
:104b10000000000000000000000000000000000095
:104b20000000000000000000000000000000000085
:104b30000000000000000000000000000000000075
:104b4000d402a900d422a900000000000000000047
:104b50000000000000000000000000000000000055
:104b60000000000000000000000000000000000045
:104b70000000000000000000000000000000000035
:104b80000000000000000000000000000000000025
:104b90000000000000000000000000000000000015
:104ba0000000000000000000000000000000000005
:104bb00000000000000000000000000000000000f5
:104bc00000000000000000000000000000000000e5
:104bd00000000000000000000000000000000000d5
:104be00000000000000000000000000000000000c5
:104bf00000000000000000000000000000000000b5
:104c00000000000000000000d402a800d422a80088
:104c1000cca2a800ccc2a800000000000000000048
:104c20000000000000000000000000000000000084
:104c30000000000000000000000000000000000074
:104c40000000000000000000000000000000000064
:104c50000000000000000000000000000000000054
:104c60000000000000000000000000000000000044
:104c70000000000000000000000000000000000034
:104c80000000000000000000000000000000000024
:104c90000000000000000000000000000000000014
:104ca0000000000000000000000000000000000004
:104cb00000000000000000000000000000000000f4
:104cc00000000000000000000000000000000000e4
:104cd0000000000000000000d402a900d422a900b6
:104ce00000000000000000000000000000000000c4
:104cf00000000000000000000000000000000000b4
:104d000000000000000000000000000000000000a3
:104d10000000000000000000000000000000000093
:104d20000000000000000000000000000000000083
:104d30000000000000000000000000000000000073
:104d40000000000000000000000000000000000063
:104d50000000000000000000000000000000000053
:104d60000000000000000000000000000000000043
:104d70000000000000000000000000000000000033
:104d80000000000000000000000000000000000023
:104d90000000000000000000000000000000000013
:104da000d402a800d422a800cca2a900ccc2a90099
:104db00000000000000000000000000000000000f3
:104dc00000000000000000000000000000000000e3
:104dd00000000000000000000000000000000000d3
:104de00000000000000000000000000000000000c3
:104df00000000000000000000000000000000000b3
:104e000000000000000000000000000000000000a2
:104e10000000000000000000000000000000000092
:104e20000000000000000000000000000000000082
:104e30000000000000000000000000000000000072
:104e40000000000000000000000000000000000062
:104e50000000000000000000000000000000000052
:104e60000000000000000000000000000000000042
:104e7000d402a900d422a900000000000000000014
:104e80000000000000000000000000000000000022
:104e90000000000000000000000000000000000012
:104ea0000000000000000000000000000000000002
:104eb00000000000000000000000000000000000f2
:104ec00000000000000000000000000000000000e2
:104ed00000000000000000000000000000000000d2
:104ee00000000000000000000000000000000000c2
:104ef00000000000000000000000000000000000b2
:104f000000000000000000000000000000000000a1
:104f10000000000000000000000000000000000091
:104f20000000000000000000000000000000000081
:104f30000000000000000000d402a800d422a80055
:104f4000cca2a800ccc2a800000000000000000015
:104f50000000000000000000000000000000000051
:104f60000000000000000000000000000000000041
:104f70000000000000000000000000000000000031
:104f80000000000000000000000000000000000021
:104f90000000000000000000000000000000000011
:104fa0000000000000000000000000000000000001
:104fb00000000000000000000000000000000000f1
:104fc00000000000000000000000000000000000e1
:104fd00000000000000000000000000000000000d1
:104fe00000000000000000000000000000000000c1
:104ff00000000000000000000000000000000000b1
:105000000000000000000000d402a900d422a90082
:105010000000000000000000000000000000000090
:105020000000000000000000000000000000000080
:105030000000000000000000000000000000000070
:105040000000000000000000000000000000000060
:105050000000000000000000000000000000000050
:105060000000000000000000000000000000000040
:105070000000000000000000000000000000000030
:105080000000000000000000000000000000000020
:105090000000000000000000000000000000000010
:1050a0000000000000000000000000000000000000
:1050b00000000000000000000000000000000000f0
:1050c00000000000000000000000000000000000e0
:1050d000d402a800d422a800cca2a900ccc2a90066
:1050e00000000000000000000000000000000000c0
:1050f00000000000000000000000000000000000b0
:10510000000000000000000000000000000000009f
:10511000000000000000000000000000000000008f
:10512000000000000000000000000000000000007f
:10513000000000000000000000000000000000006f
:10514000000000000000000000000000000000005f
:10515000000000000000000000000000000000004f
:10516000000000000000000000000000000000003f
:10517000000000000000000000000000000000002f
:10518000000000000000000000000000000000001f
:10519000000000000000000000000000000000000f
:1051a000d402a900d422a9000000000000000000e1
:1051b00000000000000000000000000000000000ef
:1051c00000000000000000000000000000000000df
:1051d00000000000000000000000000000000000cf
:1051e00000000000000000000000000000000000bf
:1051f00000000000000000000000000000000000af
:10520000000000000000000000000000000000009e
:10521000000000000000000000000000000000008e
:10522000000000000000000000000000000000007e
:10523000000000000000000000000000000000006e
:10524000000000000000000000000000000000005e
:10525000000000000000000000000000000000004e
:105260000000000000000000d402a800d422a80022
:10527000cca2a800ccc2a8000000000000000000e2
:10528000000000000000000000000000000000001e
:10529000000000000000000000000000000000000e
:1052a00000000000000000000000000000000000fe
:1052b00000000000000000000000000000000000ee
:1052c00000000000000000000000000000000000de
:1052d00000000000000000000000000000000000ce
:1052e00000000000000000000000000000000000be
:1052f00000000000000000000000000000000000ae
:10530000000000000000000000000000000000009d
:10531000000000000000000000000000000000008d
:10532000000000000000000000000000000000007d
:105330000000000000000000d402a900d422a9004f
:10534000000000000000000000000000000000005d
:10535000000000000000000000000000000000004d
:10536000000000000000000000000000000000003d
:10537000000000000000000000000000000000002d
:10538000000000000000000000000000000000001d
:10539000000000000000000000000000000000000d
:1053a00000000000000000000000000000000000fd
:1053b00000000000000000000000000000000000ed
:1053c00000000000000000000000000000000000dd
:1053d00000000000000000000000000000000000cd
:1053e00000000000000000000000000000000000bd
:1053f00000000000000000000000000000000000ad
:10540000d402a800d422a800cca2a900ccc2a90032
:10541000000000000000000000000000000000008c
:10542000000000000000000000000000000000007c
:10543000000000000000000000000000000000006c
:10544000000000000000000000000000000000005c
:10545000000000000000000000000000000000004c
:10546000000000000000000000000000000000003c
:10547000000000000000000000000000000000002c
:10548000000000000000000000000000000000001c
:10549000000000000000000000000000000000000c
:1054a00000000000000000000000000000000000fc
:1054b00000000000000000000000000000000000ec
:1054c00000000000000000000000000000000000dc
:1054d000d402a900d422a9000000000000000000ae
:1054e00000000000000000000000000000000000bc
:1054f00000000000000000000000000000000000ac
:10550000000000000000000000000000000000009b
:10551000000000000000000000000000000000008b
:10552000000000000000000000000000000000007b
:10553000000000000000000000000000000000006b
:10554000000000000000000000000000000000005b
:10555000000000000000000000000000000000004b
:10556000000000000000000000000000000000003b
:10557000000000000000000000000000000000002b
:10558000000000000000000000000000000000001b
:105590000000000000000000d0002000b31307004e
:1055a000d402a800d422a800cca2a800ccc2a80093
:1055b00000000000000000000000000000000000eb
:1055c00000000000000000000000000000000000db
:1055d00000000000000000000000000000000000cb
:1055e00000000000000000000000000000000000bb
:1055f00000000000000000000000000000000000ab
:10560000000000000000000000000000000000009a
:10561000000000000000000000000000000000008a
:10562000000000000000000000000000000000007a
:10563000000000000000000000000000000000006a
:10564000000000000000000000000000000000005a
:10565000000000000000000000000000000000004a
:10566000000000000000000000000000000000003a
:10567000d402a900d422a90000000000000000000c
:10568000000000000000000000000000000000001a
:10569000000000000000000000000000000000000a
:1056a00000000000000000000000000000000000fa
:1056b00000000000000000000000000000000000ea
:1056c00000000000000000000000000000000000da
:1056d00000000000000000000000000000000000ca
:1056e00000000000000000000000000000000000ba
:1056f00000000000000000000000000000000000aa
:105700000000000000000000000000000000000099
:105710000000000000000000000000000000000089
:105720000000000000000000000000000000000079
:105730000000000000000000d402a800d422a8004d
:10574000cca2a800ccc2a80000000000000000000d
:105750000000000000000000000000000000000049
:105760000000000000000000000000000000000039
:105770000000000000000000000000000000000029
:105780000000000000000000000000000000000019
:105790000000000000000000000000000000000009
:1057a00000000000000000000000000000000000f9
:1057b00000000000000000000000000000000000e9
:1057c00000000000000000000000000000000000d9
:1057d00000000000000000000000000000000000c9
:1057e00000000000000000000000000000000000b9
:1057f00000000000000000000000000000000000a9
:105800000000000000000000d402a900d422a9007a
:105810000000000000000000000000000000000088
:105820000000000000000000000000000000000078
:105830000000000000000000000000000000000068
:105840000000000000000000000000000000000058
:105850000000000000000000000000000000000048
:105860000000000000000000000000000000000038
:105870000000000000000000000000000000000028
:105880000000000000000000000000000000000018
:105890000000000000000000000000000000000008
:1058a00000000000000000000000000000000000f8
:1058b00000000000000000000000000000000000e8
:1058c00000000000000000000000000000000000d8
:1058d000d402a800d422a800cca2a800ccc2a80060
:1058e00000000000000000000000000000000000b8
:1058f00000000000000000000000000000000000a8
:105900000000000000000000000000000000000097
:105910000000000000000000000000000000000087
:105920000000000000000000000000000000000077
:105930000000000000000000000000000000000067
:105940000000000000000000000000000000000057
:105950000000000000000000000000000000000047
:105960000000000000000000000000000000000037
:105970000000000000000000000000000000000027
:105980000000000000000000000000000000000017
:105990000000000000000000000000000000000007
:1059a000d402a900d422a9000000000000000000d9
:1059b00000000000000000000000000000000000e7
:1059c00000000000000000000000000000000000d7
:1059d00000000000000000000000000000000000c7
:1059e00000000000000000000000000000000000b7
:1059f00000000000000000000000000000000000a7
:105a00000000000000000000000000000000000096
:105a10000000000000000000000000000000000086
:105a20000000000000000000000000000000000076
:105a30000000000000000000000000000000000066
:105a40000000000000000000000000000000000056
:105a50000000000000000000000000000000000046
:105a60000000000000000000d402a800d422a8001a
:105a7000cca2a800ccc2a8000000000000000000da
:105a80000000000000000000000000000000000016
:105a90000000000000000000000000000000000006
:105aa00000000000000000000000000000000000f6
:105ab00000000000000000000000000000000000e6
:105ac00000000000000000000000000000000000d6
:105ad00000000000000000000000000000000000c6
:105ae00000000000000000000000000000000000b6
:105af00000000000000000000000000000000000a6
:105b00000000000000000000000000000000000095
:105b10000000000000000000000000000000000085
:105b20000000000000000000000000000000000075
:105b30000000000000000000d402a900d422a90047
:105b40000000000000000000000000000000000055
:105b50000000000000000000000000000000000045
:105b60000000000000000000000000000000000035
:105b70000000000000000000000000000000000025
:105b80000000000000000000000000000000000015
:105b90000000000000000000000000000000000005
:105ba00000000000000000000000000000000000f5
:105bb00000000000000000000000000000000000e5
:105bc00000000000000000000000000000000000d5
:105bd00000000000000000000000000000000000c5
:105be00000000000000000000000000000000000b5
:105bf00000000000000000000000000000000000a5
:105c0000d402a800d422a800cca2a800ccc2a8002c
:105c10000000000000000000000000000000000084
:105c20000000000000000000000000000000000074
:105c30000000000000000000000000000000000064
:105c40000000000000000000000000000000000054
:105c50000000000000000000000000000000000044
:105c60000000000000000000000000000000000034
:105c70000000000000000000000000000000000024
:105c80000000000000000000000000000000000014
:105c90000000000000000000000000000000000004
:105ca00000000000000000000000000000000000f4
:105cb00000000000000000000000000000000000e4
:105cc00000000000000000000000000000000000d4
:105cd000d402a900d422a9000000000000000000a6
:105ce00000000000000000000000000000000000b4
:105cf00000000000000000000000000000000000a4
:105d00000000000000000000000000000000000093
:105d10000000000000000000000000000000000083
:105d20000000000000000000000000000000000073
:105d30000000000000000000000000000000000063
:105d40000000000000000000000000000000000053
:105d50000000000000000000000000000000000043
:105d60000000000000000000000000000000000033
:105d70000000000000000000000000000000000023
:105d80000000000000000000000000000000000013
:105d90000000000000000000d402a800d422a800e7
:105da000cca2a800ccc2a8000000000000000000a7
:105db00000000000000000000000000000000000e3
:105dc00000000000000000000000000000000000d3
:105dd00000000000000000000000000000000000c3
:105de00000000000000000000000000000000000b3
:105df00000000000000000000000000000000000a3
:105e00000000000000000000000000000000000092
:105e10000000000000000000000000000000000082
:105e20000000000000000000000000000000000072
:105e30000000000000000000000000000000000062
:105e40000000000000000000000000000000000052
:105e50000000000000000000000000000000000042
:105e60000000000000000000d402a900d422a90014
:105e70000000000000000000000000000000000022
:105e80000000000000000000000000000000000012
:105e90000000000000000000000000000000000002
:105ea00000000000000000000000000000000000f2
:105eb00000000000000000000000000000000000e2
:105ec00000000000000000000000000000000000d2
:105ed00000000000000000000000000000000000c2
:105ee00000000000000000000000000000000000b2
:105ef00000000000000000000000000000000000a2
:105f00000000000000000000000000000000000091
:105f10000000000000000000000000000000000081
:105f20000000000000000000000000000000000071
:105f3000d402a800d422a800cca2a800ccc2a800f9
:105f40000000000000000000000000000000000051
:105f50000000000000000000000000000000000041
:105f60000000000000000000000000000000000031
:105f70000000000000000000000000000000000021
:105f80000000000000000000000000000000000011
:105f90000000000000000000000000000000000001
:105fa00000000000000000000000000000000000f1
:105fb00000000000000000000000000000000000e1
:105fc00000000000000000000000000000000000d1
:105fd00000000000000000000000000000000000c1
:105fe00000000000000000000000000000000000b1
:105ff00000000000000000000000000000000000a1
:10600000d402a900d422a900000000000000000072
:106010000000000000000000000000000000000080
:106020000000000000000000000000000000000070
:106030000000000000000000000000000000000060
:106040000000000000000000000000000000000050
:106050000000000000000000000000000000000040
:106060000000000000000000000000000000000030
:106070000000000000000000000000000000000020
:106080000000000000000000000000000000000010
:106090000000000000000000000000000000000000
:1060a00000000000000000000000000000000000f0
:1060b00000000000000000000000000000000000e0
:1060c0000000000000000000d402a800d422a800b4
:1060d000cca2a800ccc2a800000000000000000074
:1060e00000000000000000000000000000000000b0
:1060f00000000000000000000000000000000000a0
:10610000000000000000000000000000000000008f
:10611000000000000000000000000000000000007f
:10612000000000000000000000000000000000006f
:10613000000000000000000000000000000000005f
:10614000000000000000000000000000000000004f
:10615000000000000000000000000000000000003f
:10616000000000000000000000000000000000002f
:10617000000000000000000000000000000000001f
:10618000000000000000000000000000000000000f
:106190000000000000000000d402a900d422a900e1
:1061a00000000000000000000000000000000000ef
:1061b00000000000000000000000000000000000df
:1061c00000000000000000000000000000000000cf
:1061d00000000000000000000000000000000000bf
:1061e00000000000000000000000000000000000af
:1061f000000000000000000000000000000000009f
:10620000000000000000000000000000000000008e
:10621000000000000000000000000000000000007e
:10622000000000000000000000000000000000006e
:10623000000000000000000000000000000000005e
:10624000000000000000000000000000000000004e
:10625000000000000000000000000000000000003e
:106260008000200081100700c8a2a800cea2a900cb
:10627000c8c2a800cec2a900800020007b10070081
:10628000d402a800d422a8000000000000000000f2
:1062900000000000000000000000000000000000fe
:1062a00000000000000000000000000000000000ee
:1062b00000000000000000000000000000000000de
:1062c00000000000000000000000000000000000ce
:1062d00000000000000000000000000000000000be
:1062e00000000000000000000000000000000000ae
:1062f000000000000000000000000000000000009e
:10630000000000000000000000000000000000008d
:10631000000000000000000000000000000000007d
:10632000000000000000000000000000000000006d
:10633000000000000000000000000000000000005d
:106340000000000000000000d402a900d422a9002f
:10635000a92c200099447800c54cde00e18464003b
:10636000a82c2000184478004644de006104640034
:10637000000000000000000000000000000000001d
:10638000000000000000000000000000000000000d
:1063900000000000000000000000000000000000fd
:1063a00000000000000000000000000000000000ed
:1063b00000000000000000000000000000000000dd
:1063c00000000000000000000000000000000000cd
:1063d00000000000000000000000000000000000bd
:1063e00000000000000000000000000000000000ad
:1063f000000000000000000000000000000000009d
:10640000000000000000000000000000000000008c
:10641000000000000000000000000000000000007c
:10642000000000000000000000000000000000006c
:106430008984fb00898444000884fb00080444002c
:10644000d402a800d422a800000000000000000030
:10645000000000000000000000000000000000003c
:10646000000000000000000000000000000000002c
:10647000000000000000000000000000000000001c
:10648000000000000000000000000000000000000c
:1064900000000000000000000000000000000000fc
:1064a00000000000000000000000000000000000ec
:1064b00000000000000000000000000000000000dc
:1064c00000000000000000000000000000000000cc
:1064d00000000000000000000000000000000000bc
:1064e00000000000000000000000000000000000ac
:1064f000000000000000000000000000000000009c
:106500000000000000000000d402a900d422a9006d
:10651000cac2bf004500de006100600080847400d4
:10652000cac2bf004600de006100600000047400c3
:10653000000000000000000000000000000000005b
:10654000000000000000000000000000000000004b
:10655000000000000000000000000000000000003b
:10656000000000000000000000000000000000002b
:10657000000000000000000000000000000000001b
:10658000000000000000000000000000000000000b
:1065900000000000000000000000000000000000fb
:1065a00000000000000000000000000000000000eb
:1065b00000000000000000000000000000000000db
:1065c00000000000000000000000000000000000cb
:1065d00000000000000000000000000000000000bb
:1065e00000000000000000000000000000000000ab
:1065f0008984440008044400d402a800d422a800de
:10660000000000000000000000000000000000008a
:10661000000000000000000000000000000000007a
:10662000000000000000000000000000000000006a
:10663000000000000000000000000000000000005a
:10664000000000000000000000000000000000004a
:10665000000000000000000000000000000000003a
:10666000000000000000000000000000000000002a
:10667000000000000000000000000000000000001a
:10668000000000000000000000000000000000000a
:1066900000000000000000000000000000000000fa
:1066a00000000000000000000000000000000000ea
:1066b00000000000000000000000000000000000da
:1066c000d402a900d422a900cac2bf004500de003e
:1066d0006100600080847400cac2bf004600de0012
:1066e0006100600000047400000000000000000071
:1066f000000000000000000000000000000000009a
:106700000000000000000000000000000000000089
:106710000000000000000000000000000000000079
:106720000000000000000000000000000000000069
:106730000000000000000000000000000000000059
:106740000000000000000000000000000000000049
:106750000000000000000000000000000000000039
:106760000000000000000000000000000000000029
:106770000000000000000000000000000000000019
:106780000000000000000000000000000000000009
:1067900000000000000000000000000000000000f9
:1067a0000000000000000000898444000804440048
:1067b000d402a800d422a8000000000000000000bd
:1067c00000000000000000000000000000000000c9
:1067d00000000000000000000000000000000000b9
:1067e00000000000000000000000000000000000a9
:1067f0000000000000000000000000000000000099
:106800000000000000000000000000000000000088
:106810000000000000000000000000000000000078
:106820000000000000000000000000000000000068
:106830000000000000000000000000000000000058
:106840000000000000000000000000000000000048
:106850000000000000000000000000000000000038
:106860000000000000000000000000000000000028
:106870000000000000000000d402a900d422a900fa
:10688000cac2bf004500de00610060008084740061
:10689000cac2bf004600de00610060000004740050
:1068a00000000000000000000000000000000000e8
:1068b00000000000000000000000000000000000d8
:1068c00000000000000000000000000000000000c8
:1068d00000000000000000000000000000000000b8
:1068e00000000000000000000000000000000000a8
:1068f0000000000000000000000000000000000098
:106900000000000000000000000000000000000087
:106910000000000000000000000000000000000077
:106920000000000000000000000000000000000067
:106930000000000000000000000000000000000057
:106940000000000000000000000000000000000047
:106950000000000000000000000000000000000037
:106960008984440008044400d402a800d422a8006a
:106970000000000000000000000000000000000017
:106980000000000000000000000000000000000007
:1069900000000000000000000000000000000000f7
:1069a00000000000000000000000000000000000e7
:1069b00000000000000000000000000000000000d7
:1069c00000000000000000000000000000000000c7
:1069d00000000000000000000000000000000000b7
:1069e00000000000000000000000000000000000a7
:1069f0000000000000000000000000000000000097
:106a00000000000000000000000000000000000086
:106a10000000000000000000000000000000000076
:106a20000000000000000000000000000000000066
:106a3000d402a900d422a900cac2bf004500de00ca
:106a40006100600080847400cac2bf004600de009e
:106a500061006000000474000000000000000000fd
:106a60000000000000000000000000000000000026
:106a70000000000000000000000000000000000016
:106a80000000000000000000000000000000000006
:106a900000000000000000000000000000000000f6
:106aa00000000000000000000000000000000000e6
:106ab00000000000000000000000000000000000d6
:106ac00000000000000000000000000000000000c6
:106ad00000000000000000000000000000000000b6
:106ae00000000000000000000000000000000000a6
:106af0000000000000000000000000000000000096
:106b00000000000000000000000000000000000085
:106b100000000000000000008984440008044400d4
:106b2000d402a800d422a800000000000000000049
:106b30000000000000000000000000000000000055
:106b40000000000000000000000000000000000045
:106b50000000000000000000000000000000000035
:106b60000000000000000000000000000000000025
:106b70000000000000000000000000000000000015
:106b80000000000000000000000000000000000005
:106b900000000000000000000000000000000000f5
:106ba00000000000000000000000000000000000e5
:106bb00000000000000000000000000000000000d5
:106bc00000000000000000000000000000000000c5
:106bd00000000000000000000000000000000000b5
:106be0000000000000000000d402a900d422a90087
:106bf000cac2bf004500de006100600080847400ee
:106c0000cac2bf004600de006100600000047400dc
:106c10000000000000000000000000000000000074
:106c20000000000000000000000000000000000064
:106c30000000000000000000000000000000000054
:106c40000000000000000000000000000000000044
:106c50000000000000000000000000000000000034
:106c60000000000000000000000000000000000024
:106c70000000000000000000000000000000000014
:106c80000000000000000000000000000000000004
:106c900000000000000000000000000000000000f4
:106ca00000000000000000000000000000000000e4
:106cb00000000000000000000000000000000000d4
:106cc00000000000000000000000000000000000c4
:106cd0008984440008044400d402a800d422a800f7
:106ce00000000000000000000000000000000000a4
:106cf0000000000000000000000000000000000094
:106d00000000000000000000000000000000000083
:106d10000000000000000000000000000000000073
:106d20000000000000000000000000000000000063
:106d30000000000000000000000000000000000053
:106d40000000000000000000000000000000000043
:106d50000000000000000000000000000000000033
:106d60000000000000000000000000000000000023
:106d70000000000000000000000000000000000013
:106d80000000000000000000000000000000000003
:106d900000000000000000000000000000000000f3
:106da000d402a900d422a900cac2bf004500de0057
:106db0006100600080847400cac2bf004600de002b
:106dc000610060000004740000000000000000008a
:106dd00000000000000000000000000000000000b3
:106de00000000000000000000000000000000000a3
:106df0000000000000000000000000000000000093
:106e00000000000000000000000000000000000082
:106e10000000000000000000000000000000000072
:106e20000000000000000000000000000000000062
:106e30000000000000000000000000000000000052
:106e40000000000000000000000000000000000042
:106e50000000000000000000000000000000000032
:106e60000000000000000000000000000000000022
:106e70000000000000000000000000000000000012
:106e80000000000000000000898444000804440061
:106e9000d402a800d422a8000000000000000000d6
:106ea00000000000000000000000000000000000e2
:106eb00000000000000000000000000000000000d2
:106ec00000000000000000000000000000000000c2
:106ed00000000000000000000000000000000000b2
:106ee00000000000000000000000000000000000a2
:106ef0000000000000000000000000000000000092
:106f00000000000000000000000000000000000081
:106f10000000000000000000000000000000000071
:106f20000000000000000000000000000000000061
:106f30000000000000000000000000000000000051
:106f40000000000000000000000000000000000041
:106f50000000000000000000d402a900d422a90013
:106f6000cac2bf004500de0061006000808474007a
:106f7000cac2bf004600de00610060000004740069
:106f80000000000000000000000000000000000001
:106f900000000000000000000000000000000000f1
:106fa00000000000000000000000000000000000e1
:106fb00000000000000000000000000000000000d1
:106fc00000000000000000000000000000000000c1
:106fd00000000000000000000000000000000000b1
:106fe00000000000000000000000000000000000a1
:106ff0000000000000000000000000000000000091
:107000000000000000000000000000000000000080
:107010000000000000000000000000000000000070
:107020000000000000000000000000000000000060
:107030000000000000000000000000000000000050
:107040008984440008044400d0002000070d070094
:10705000d402a800d422a800000000000000000014
:107060000000000000000000000000000000000020
:107070000000000000000000000000000000000010
:107080000000000000000000000000000000000000
:1070900000000000000000000000000000000000f0
:1070a00000000000000000000000000000000000e0
:1070b00000000000000000000000000000000000d0
:1070c00000000000000000000000000000000000c0
:1070d00000000000000000000000000000000000b0
:1070e00000000000000000000000000000000000a0
:1070f0000000000000000000000000000000000090
:10710000000000000000000000000000000000007f
:107110000000000000000000d402a900d422a90051
:10712000cac2bf004500de006100600080847400b8
:10713000cac2bf004600de006100600000047400a7
:10714000000000000000000000000000000000003f
:10715000000000000000000000000000000000002f
:10716000000000000000000000000000000000001f
:10717000000000000000000000000000000000000f
:1071800000000000000000000000000000000000ff
:1071900000000000000000000000000000000000ef
:1071a00000000000000000000000000000000000df
:1071b00000000000000000000000000000000000cf
:1071c00000000000000000000000000000000000bf
:1071d00000000000000000000000000000000000af
:1071e000000000000000000000000000000000009f
:1071f000000000000000000000000000000000008f
:107200008984440008044400d402a800d422a800c1
:10721000000000000000000000000000000000006e
:10722000000000000000000000000000000000005e
:10723000000000000000000000000000000000004e
:10724000000000000000000000000000000000003e
:10725000000000000000000000000000000000002e
:10726000000000000000000000000000000000001e
:10727000000000000000000000000000000000000e
:1072800000000000000000000000000000000000fe
:1072900000000000000000000000000000000000ee
:1072a00000000000000000000000000000000000de
:1072b00000000000000000000000000000000000ce
:1072c00000000000000000000000000000000000be
:1072d000d402a900d422a900cac2bf004500de0022
:1072e0006100600080847400cac2bf004600de00f6
:1072f0006100600000047400000000000000000055
:10730000000000000000000000000000000000007d
:10731000000000000000000000000000000000006d
:10732000000000000000000000000000000000005d
:10733000000000000000000000000000000000004d
:10734000000000000000000000000000000000003d
:10735000000000000000000000000000000000002d
:10736000000000000000000000000000000000001d
:10737000000000000000000000000000000000000d
:1073800000000000000000000000000000000000fd
:1073900000000000000000000000000000000000ed
:1073a00000000000000000000000000000000000dd
:1073b000000000000000000089844400080444002c
:1073c000d402a800d422a8000000000000000000a1
:1073d00000000000000000000000000000000000ad
:1073e000000000000000000000000000000000009d
:1073f000000000000000000000000000000000008d
:10740000000000000000000000000000000000007c
:10741000000000000000000000000000000000006c
:10742000000000000000000000000000000000005c
:10743000000000000000000000000000000000004c
:10744000000000000000000000000000000000003c
:10745000000000000000000000000000000000002c
:10746000000000000000000000000000000000001c
:10747000000000000000000000000000000000000c
:107480000000000000000000d402a900d422a900de
:10749000cac2bf004500de00610060008084740045
:1074a000cac2bf004600de00610060000004740034
:1074b00000000000000000000000000000000000cc
:1074c00000000000000000000000000000000000bc
:1074d00000000000000000000000000000000000ac
:1074e000000000000000000000000000000000009c
:1074f000000000000000000000000000000000008c
:10750000000000000000000000000000000000007b
:10751000000000000000000000000000000000006b
:10752000000000000000000000000000000000005b
:10753000000000000000000000000000000000004b
:10754000000000000000000000000000000000003b
:10755000000000000000000000000000000000002b
:10756000000000000000000000000000000000001b
:107570008984440008044400d402a800d422a8004e
:1075800000000000000000000000000000000000fb
:1075900000000000000000000000000000000000eb
:1075a00000000000000000000000000000000000db
:1075b00000000000000000000000000000000000cb
:1075c00000000000000000000000000000000000bb
:1075d00000000000000000000000000000000000ab
:1075e000000000000000000000000000000000009b
:1075f000000000000000000000000000000000008b
:10760000000000000000000000000000000000007a
:10761000000000000000000000000000000000006a
:10762000000000000000000000000000000000005a
:10763000000000000000000000000000000000004a
:10764000d402a900d422a900cac2bf004500de00ae
:107650006100600080847400cac2bf004600de0082
:1076600061006000000474000000000000000000e1
:10767000000000000000000000000000000000000a
:1076800000000000000000000000000000000000fa
:1076900000000000000000000000000000000000ea
:1076a00000000000000000000000000000000000da
:1076b00000000000000000000000000000000000ca
:1076c00000000000000000000000000000000000ba
:1076d00000000000000000000000000000000000aa
:1076e000000000000000000000000000000000009a
:1076f000000000000000000000000000000000008a
:107700000000000000000000000000000000000079
:107710000000000000000000000000000000000069
:1077200000000000000000008984440008044400b8
:10773000d402a800d422a80000000000000000002d
:107740000000000000000000000000000000000039
:107750000000000000000000000000000000000029
:107760000000000000000000000000000000000019
:107770000000000000000000000000000000000009
:1077800000000000000000000000000000000000f9
:1077900000000000000000000000000000000000e9
:1077a00000000000000000000000000000000000d9
:1077b00000000000000000000000000000000000c9
:1077c00000000000000000000000000000000000b9
:1077d00000000000000000000000000000000000a9
:1077e0000000000000000000000000000000000099
:1077f0000000000000000000d402a900d422a9006b
:10780000cac2bf004500de006100600080847400d1
:10781000cac2bf004600de006100600000047400c0
:107820000000000000000000000000000000000058
:107830000000000000000000000000000000000048
:107840000000000000000000000000000000000038
:107850000000000000000000000000000000000028
:107860000000000000000000000000000000000018
:107870000000000000000000000000000000000008
:1078800000000000000000000000000000000000f8
:1078900000000000000000000000000000000000e8
:1078a00000000000000000000000000000000000d8
:1078b00000000000000000000000000000000000c8
:1078c00000000000000000000000000000000000b8
:1078d00000000000000000000000000000000000a8
:1078e0008984440008044400d402a800d422a800db
:1078f0000000000000000000000000000000000088
:107900000000000000000000000000000000000077
:107910000000000000000000000000000000000067
:107920000000000000000000000000000000000057
:107930000000000000000000000000000000000047
:107940000000000000000000000000000000000037
:107950000000000000000000000000000000000027
:107960000000000000000000000000000000000017
:107970000000000000000000000000000000000007
:1079800000000000000000000000000000000000f7
:1079900000000000000000000000000000000000e7
:1079a00000000000000000000000000000000000d7
:1079b000d402a900d422a900cac2bf004500de003b
:1079c0006100600080847400cac2bf004600de000f
:1079d000610060000004740000000000000000006e
:1079e0000000000000000000000000000000000097
:1079f0000000000000000000000000000000000087
:107a00000000000000000000000000000000000076
:107a10000000000000000000000000000000000066
:107a20000000000000000000000000000000000056
:107a30000000000000000000000000000000000046
:107a40000000000000000000000000000000000036
:107a50000000000000000000000000000000000026
:107a60000000000000000000000000000000000016
:107a70000000000000000000000000000000000006
:107a800000000000000000000000000000000000f6
:107a90000000000000000000898444000804440045
:107aa000d402a800d422a8000000000000000000ba
:107ab00000000000000000000000000000000000c6
:107ac00000000000000000000000000000000000b6
:107ad00000000000000000000000000000000000a6
:107ae0000000000000000000000000000000000096
:107af0000000000000000000000000000000000086
:107b00000000000000000000000000000000000075
:107b10000000000000000000000000000000000065
:107b20000000000000000000000000000000000055
:107b30000000000000000000000000000000000045
:107b40000000000000000000000000000000000035
:107b50000000000000000000000000000000000025
:107b60000000000000000000d402a900d422a900f7
:107b7000cac2bf004500de0061006000808474005e
:107b8000cac2bf004600de0061006000000474004d
:107b900000000000000000000000000000000000e5
:107ba00000000000000000000000000000000000d5
:107bb00000000000000000000000000000000000c5
:107bc00000000000000000000000000000000000b5
:107bd00000000000000000000000000000000000a5
:107be0000000000000000000000000000000000095
:107bf0000000000000000000000000000000000085
:107c00000000000000000000000000000000000074
:107c10000000000000000000000000000000000064
:107c20000000000000000000000000000000000054
:107c30000000000000000000000000000000000044
:107c40000000000000000000000000000000000034
:107c50008984440008044400d402a800d422a80067
:107c60000000000000000000000000000000000014
:107c70000000000000000000000000000000000004
:107c800000000000000000000000000000000000f4
:107c900000000000000000000000000000000000e4
:107ca00000000000000000000000000000000000d4
:107cb00000000000000000000000000000000000c4
:107cc00000000000000000000000000000000000b4
:107cd00000000000000000000000000000000000a4
:107ce0000000000000000000000000000000000094
:107cf0000000000000000000000000000000000084
:107d00000000000000000000000000000000000073
:107d10000000000000000000000000000000000063
:107d2000d402a900d422a900cac2bf004500de00c7
:107d30006100600080847400cac2bf004600de009b
:107d400061006000000174000000000000000000fd
:107d50000000000000000000000000000000000023
:107d60000000000000000000000000000000000013
:107d70000000000000000000000000000000000003
:107d800000000000000000000000000000000000f3
:107f70000000000000000000d442a800cc62a8006d
:107f800000000000000000000000000000000000f1
:107f900000000000000000000000000000000000e1
:107fa00000000000000000000000000000000000d1
:107fb00000000000000000000000000000000000c1
:107fc00000000000000000000000000000000000b1
:107fd00000000000000000000000000000000000a1
:107fe0000000000000000000000000000000000091
:107ff0000000000000000000000000000000000081
:108000000000000000000000000000000000000070
:108010000000000000000000000000000000000060
:10802000d402a900d422a900c8a2a900cea2a80007
:10803000c8c2a900cec2a800c248de00e384640022
:10804000e18f54001a003200b8eaab001b003a007e
:108050008e2bec00c210de003157880063006100f7
:10806000e10f50001b003200b8eaab001c003a00e0
:10807000902bec00d05c80008000400022b92000f2
:10808000e35c800083307900e4804000f35c800092
:10809000833079000000e800e10f50000100340057
:1080a0000000eb00d05c88004f04be00000006001a
:1080b000e0fd2300808f5000e3ff3e00e15c88007c
:1080c000c210de003157880063006100e10f5000ec
:1080d000e5ff3a00e0fd2300808f5000e2ff3e0004
:1080e000f15c8800e3ff3700c3c2bf00610060009d
:1080f00000000600c00407000000050000000600a4
:10810000ab0bab0001003a000000060010c0b3004a
:108110008aebb700325c8000c15b8000c0a5200004
:108120005301070080ab2000c1a5200025000900f5
:108130003158780000000600889fbe001000200023
:108140004af10700a0558800100020004bf10700fd
:10815000805588000000eb0048f10700205588009a
:108160000000eb0041f1070090558800300020002e
:1081700002ec07003055880020002000ffeb0700cc
:10818000405588000000eb00fceb070050558800cc
:1081900010002000f9eb0700605588000000eb009c
:1081a000410707007055880028578000c1ef07007d
:1081b00080047800c8ef070009047400000474000c
:1081c0000820a000b8558800ccef07000000e000b0
:1081d00006003500c9ef07000055880030578000c1
:1081e000105588004f04be0000000600c3ef0700d2
:1081f0000000ea00005588003057800010558800c4
:108200004f04be0000000600f8ff37000800fa0027
:10821000c9ff070082002000019c200068805700f1
:10822000130107004fb89700dfb897006fb99700a8
:10823000ffb99700c0548800d1548800e2548800e8
:10824000f354880001a2200082a920001f00090029
:10825000b2587800425c8000b15b800000a2200030
:10826000310107000080fa00000006008540a900e7
:108270009540a9004222ef0042a2a80042c2bf00de
:10828000c1cfb300014060000014a00042e2b7007b
:1082900042c2bf0031ceb300014060008041b30054
:1082a00042e2b70042c2a8004302a9004322a9004b
:1082b0004342a90040c2a90041e2a800d4c2a800dc
:1082c000000006000200fa00881f78000040eb0062
:1082d000c0ff9f00c8032000485c8800385c88000d
:1082e000020220008000eb0080a920009ceb070028
:1082f000620220008000eb0080ab200098eb0700ba
:10830000080178008000eb00c0a5200094eb070076
:10831000080178008000eb0000a2200090eb07002d
:10832000e62aef00e42aef00e22aef00de2aef005f
:10833000e02aef008540a9009540a9004222ef0005
:1083400042a2a80042c2bf00c1cfb30001406000fa
:108350000014a00042e2b70042c2bf0031ceb30019
:10836000014060008041b30042e2b70042c2a80071
:108370004302a9004322a9004342a90040c2a90028
:1083800041e2a800d4c2a8008200a8008220a80070
:108390008240a800d4c2a8008400a90012002000d6
:1083a0000114200064805700050107004ff8970072
:1083b000e54f5000f9ff3a00120020005100200064
:1083c00040b82000fe0007000000eb00c9010700d4
:1083d0009400a800f80307004f0478000080fa001a
:1083e000000006003600f800809fbe00829fbe009d
:1083f000849fbe00869fbe000800fa00d4c2a80079
:108400008400a9005d000700854be20004003200f3
:108410008c4be20009003a008b4be20015003a0059
:108420000080fa004f03be004f02be004f01be00a5
:108430004f00be003600f90000400600ab0bab0059
:10844000f5ff320010c0b3008aebb700325c800049
:10845000c15b8000c0a520008500070080ab200024
:10846000c1a5200025000900315878008b4be2009f
:10847000ebff320030ff070082002000019c20004b
:10848000688057007a0007004fb89700dfb8970060
:108490006fb99700ffb99700c0548800d154880085
:1084a000e2548800f354880001a2200082a9200031
:1084b0001f000900b2587800425c8000b15b800068
:1084c00000a22000980007000080fa004f03be00c1
:1084d0004f02be004f01be004f00be003600f90043
:1084e00000400600d5ff3700000005000000050031
:1084f0000000050000000500000005000000050068
:10850000000005009400a900d4c2a9008540a9007c
:10851000000420004012880085c0bf000028a3008e
:10852000fdff320040128000aaebb7008540a90091
:10853000200720004012880085c0bf000028a3004b
:10854000fdff320040128000abebb7008540a90070
:10855000f00f20004012880085c0bf000028a30053
:10856000fdff320040128000a0ebb7008540a9005b
:10857000d4c2a8009400a80000000600d4c2a9003c
:108580008540a9004822ef0085c0bf000028a30055
:10859000fdff320040128000aaebb7008540a90021
:1085a000200020004012880085c0bf000028a300e2
:1085b000fdff320040128000abebb7008540a90000
:1085c000d4c2a800000006004300dd008180fb004b
:1085d00081007000d4c2a9008540a9004808de00cf
:1085e0004012880085c0bf000028a300fdff3200b4
:1085f00040128000aaebb7008540a9000180fb0073
:108600004012880085c0bf000028a300fdff320093
:1086100040128000abebb7008540a90000000600c7
:108620004300dd008180fb0081007000d4c2a900fe
:108630008540a9004808de004012880085c0bf00c0
:108640000028a300fdff3200401280008540a900f1
:108650000180fb004012880085c0bf000028a300f5
:10866000fdff3200401280008540a9000000060096
:1086700080017800c308dd000110a000d4c2a90069
:108680008540a9004808de004012880085c0bf0070
:108690000028a300fdff3200401280008540a900a1
:1086a0000180fb004012880085c0bf000028a300a5
:1086b000fdff3200401280008540a9000200e90061
:1086c000e10f400011003200800078000042eb0012
:1086d0000081eb000100e0000f003a0000c2eb0057
:1086e000f00f20008540a9004012880085c0bf001f
:1086f0000028a300fdff320040128000805978005e
:108700008100e900810f5100f2ff3a008540a90085
:10871000d4c2a800000006000480fb008540a90028
:1087200040128800f1ff370080017800c308dd00a7
:108730000120a000d4c2a9008540a9004808de009d
:108740004012880085c0bf000028a300fdff320052
:10875000401280008540a9000180fb004012880083
:1087600085c0bf000028a300fdff3200401280003a
:108770008540a9000200e900e10f40000d00320031
:1087800083007800030040000001e8008540a90054
:108790001180fb004012880085c0bf000028a300a4
:1087a000fdff3200401280008100e800810f51007f
:1087b000f6ff3a008540a900d4c2a80000000600d8
:1087c000000278000200e900e10f400024003200be
:1087d00000804000f50f20000001e8009400a9008f
:1087e000c309dd000310a000d4c2a9008540a90080
:1087f0004818de004012880085c0bf000028a30092
:10880000fdff320040128000aaebb7008540a900ae
:108810000380fb004012880085c0bf000028a30031
:10882000fdff320040128000abebb7008540a9008d
:108830004512880085c0bf000028a300fdff32005c
:1088400040128000005a78009400a800d4c2a8000a
:108850008100e8008540a900828f5000dfff3a00c8
:1088600000000600800278000200e00025003200cf
:108870000002eb009400a900c309dd000320a00062
:10888000d4c2a9008540a9004818de004012880023
:1088900085c0bf000028a300fdff32004012800009
:1088a000aaebb7008540a9000380fb0040128800b6
:1088b00085c0bf000028a300fdff320040128000e9
:1088c000abebb7008540a9008540a90064c07a00e1
:1088d0000080fb004012880085c0bf000028a30074
:1088e000fdff3200401280009400a8008100e800e3
:1088f0008540a900d4c2a8000402e800840f5100fa
:10890000dcff3a00000006009400a900d4c2a900d0
:108910008540a900000420004012880085c0bf00e7
:108920000028a300fdff320040128000aaebb70030
:108930008540a900200720004012880085c0bf00a4
:108940000028a300fdff320040128000abebb7000f
:108950008540a900f00f20004012880085c0bf00ac
:108960000028a300fdff320040128000a0ebb700fa
:108970008540a900d4c2a8009400a800aa0bab00af
:108980002c00320002122000e6a82000f50f200083
:10899000241220009400a900c310dd000110a000e3
:1089a000d4c2a9008540a9004808de004012880012
:1089b00085c0bf000028a300fdff320040128000e8
:1089c000804178008540a9000180fb0040128800aa
:1089d00085c0bf000028a300fdff320040128000c8
:1089e000804078008540a9004512880085c0bf00fe
:1089f0000028a300fdff32004012800000717b00c0
:108a00009400a800d4c2a8000201e8008540a90093
:108a1000840f5100dfff3a0001007800abebb70094
:108a2000e0ceb30000c06100aaebb700aecbbf0040
:108a3000fe020700000006000080fb004300dd008e
:108a400025ba2000018020000101400073002000b1
:108a5000f60f20009400a900c310dd000110a00053
:108a6000d4c2a9008540a9004808de004012880051
:108a700085c0bf000028a300fdff32004012800027
:108a8000004278008540a9000180fb004012880068
:108a900085c0bf000028a300fdff32004012800007
:108aa000804078008540a9004612880085c0bf003c
:108ab0000028a300fdff320040128000805a780099
:108ac0009400a800d4c2a8000201e8008540a900d3
:108ad0008301e900e18f4100deff3a0001007800e8
:108ae000abebb70004007800aaebb70020ba200077
:108af000000006000200fa00000278008f83e900ff
:108b00008701780042202000f60f20006520200019
:108b10009400a900c310dd000110a000d4c2a90078
:108b20008540a9004808de004012880085c0bf00cb
:108b30000028a300fdff320040128000aaebb7001e
:108b40008540a9000180fb004012880085c0bf005d
:108b50000028a300fdff320040128000abebb700fd
:108b60008540a9004612880085c0bf000028a300e8
:108b7000fdff320040128000805978009400a80068
:108b8000d4c2a8000201e8008540a900850f510069
:108b9000dfff3a00ffb8970001006200f0bf9f00be
:108ba0009400a900422020000000e00001003a00eb
:108bb000b0ebb7009400a900c310dd000120a000b5
:108bc000d4c2a9008540a9004808de0040128800f0
:108bd00085c0bf000028a300fdff320040128000c6
:108be000aaebb7008540a9000180fb004012880075
:108bf00085c0bf000028a300fdff320040128000a6
:108c0000abebb7008540a9008540a9003780fb0089
:108c10004012880085c0bf000028a300fdff32007d
:108c2000401280009400a8000201e8008540a900dd
:108c3000d4c2a80060202000800f5100ddff3a0060
:108c40009400a8000080fa00000006000200fa006c
:108c5000000278008f83e90087017800422020001d
:108c6000f60f2000652020009400a900c310dd004d
:108c70000110a000d4c2a9008540a9004808de0068
:108c80004012880085c0bf000028a300fdff32000d
:108c900040128000aaebb7008540a9000180fb00cc
:108ca0004012880085c0bf000028a300fdff3200ed
