:020000040000fa
:080000000018040000000000dc
:020000040000fa
:103000004fbe20000eff20000e01880000000000cf
:103010000c000700003f2500010020001100070000
:10302000000020000000e00002003200000002006a
:103030000000000092500200000000000040da0092
:103040000000fe004440a900000020000000e00055
:103050000300320000002000a00188004440a800c6
:103060000000060091018800800078000000eb005d
:1030700015003700e280400032a0b4009101ba0090
:10308000e280400032a0b4009102ba00e280400029
:1030900032a0b4000002eb00472bde00f507b200bf
:1030a000602ce10004003a000059eb008301e900c4
:1030b000fdff3e00040037006128e10001003200fe
:1030c0000082eb00040007001101ba000200e000da
:1030d000e8ff3a00000006003159ba008301e90018
:1030e0000c0032002159ba008301e90008003200c7
:1030f0000400e00003003a00e280400032a0b40087
:10310000f5ff370011d9ba008301e900faff3a0050
:103110008100e800e180400032a0b4000000060019
:103120006022b800060220000000d0008180d2009a
:103130000482d2008582d2000000a0000202520068
:1031400083825a00030031000202420083824a0057
:103150000000a1000603e900f3ff3a0000000600aa
:103160008001eb0002003700817178008301e800e4
:10317000828f5100fcff3a00000006006011b80089
:103180000002eb00050220004600dd006182200005
:10319000810040003100780000014100e0814900d9
:1031a0000402e800850f5200faff3a004b1add00d6
:1031b0004510de0000007200c598de000000060029
:1031c0006011b8008000eb006480200034007800bb
:1031d00000014100e08149008100e800f08f5000cb
:1031e000faff3a004c1add004410de0000007200c5
:1031f000c498de00000006000001eb004249880090
:103200003249880021e3a90025c3bf0001ceb300e5
:10321000014060005040b30025e3b70010c0b30088
:1032200024e3b70023c3bf007f40600023e3b7005f
:1032300025e3a90020c3bf007f4060000046b30023
:1032400020e3b70023c3bf00c3cfb3000340600037
:1032500023e3b7002043a8002143a8002223a800ad
:103260002063a9002343a80022c3bf00fdc0500073
:1032700001406000c040b30022e3b7003003a80063
:103280003023a8003043a8003063a8002c63a900b5
:10329000621988002c03a9002c23a9002c43a90043
:1032a0002c83a8002ca3a8002cc3a8002ce3a80002
:1032b0002d03a80021c3bf000340600021e3b70035
:1032c00021e3a80085a0a90095a0a80000000600a1
:1032d0003600f800809fbe00829fbe00849fbe0023
:1032e000869fbe00881f780085a0a9002243e200c7
:1032f0002b00350080188000504988009418800009
:1033000064498800a018800070498800b4188000c3
:10331000844988004349800083804100000c2000dc
:103320000100400062822000043079000008200083
:103330000100400074498000043079005049800049
:10334000803079000104b000644980008430790045
:103350000300e800ff0f5000010034000000eb0004
:1033600040498800084080000804e800e40f540049
:10337000010036000004eb00084088000800e0006f
:10338000100032004f0478004f03be004f02be0011
:103390004f01be004f00be003600f900004006009d
:1033a0000018800050498800141880006449880083
:1033b00020188000704988003418800084498800f3
:1033c000d4ff3700d462a800d462a9009d0507008d
:1033d0000d040700350207000428ec00b15e8000f0
:1033e0008100e800b15e880082568000a05e800007
:1033f000800f51000b003200b85e88001840880032
:10340000a25e88004f0478004f03be004f02be004a
:103410004f01be004f00be003600f900004006001c
:10342000dfff3700401f2000808f5000f4ff360080
:103430001000200010408800a25e8800f1ff3700d5
:10344000c05e8800cbc2bf00b22c200012417800c1
:10345000a12c200091407800c408de0061006000cb
:103460004200dd006201610002007000e180600046
:1034700001007000d05e880040578800d80be20041
:10348000050032008000400060b820006100780034
:10349000a00e8800000006008000400060b72000f9
:1034a00061007800a00e880000000600809fbe002a
:1034b000821f78008660a900cbc2bf00b22c20001a
:1034c00012417800a12c200091407800c408de0051
:1034d000610060004200dd006201610002007000d6
:1034e000e180600001007000d05e8800d80be2002f
:1034f000070032008000400060b8200061007800c2
:10350000a00e88004f0178004f00be00004006006a
:103510008000400060b7200061007800a00e8800a5
:103520004f0178004f00be0000400600f8ff370052
:10353000d82bef00cbc2bf00b22c20001241780084
:10354000a12c200091407800c408de0061006000da
:103550004200dd006201610002007000e180600055
:1035600001007000d05e88000000400061b72000bc
:10357000e0807800a10e88006020a80062a0a8006a
:1035800062c0a8006820a8006aa0a8006ac0a800bd
:103590008660a9009660a800000006006202200074
:1035a0000281b900a4b3200084014100a4ab200033
:1035b000040141000002400065af200064807a00f1
:1035c0000000e80000b27a0042039000c6019800b3
:1035d00052039000d601980062039000e601980023
:1035e00072039000f6019800021390008611980073
:1035f000720b9000f60998000003eb00810f500059
:103600004b0035000000eb0000b27a009300900000
:103610001200900016002000808f50000e00320033
:10362000008050000082eb000100330014002000f5
:10363000048050009001980001d02700810f5000b5
:1036400045003c0001302800810f50004200350049
:10365000900198000003eb00a3009000220090006e
:10366000808f50000e003200008050000082eb007e
:10367000010033001400200004805000a0019800d5
:1036800001d02700810f50002f003c00013028009e
:10369000810f50002c003500a00198000003eb00c2
:1036a000b300900032009000808f50000e00320076
:1036b000008050000082eb00010033001400200065
:1036c00004805000b001980001d02700810f500005
:1036d00025003c0001302800810f500022003500f9
:1036e000b00198000003eb009310900012109000be
:1036f000808f50000e003200008050000081eb00ef
:103700000100330012002000028050009011980048
:1037100001d02700810f500007003c000130280035
:10372000810f500004003500901198000003eb0059
:103730000600780000000600010078009011980053
:103740000003eb00faff370001007800a0019800a9
:103750000003eb00d2ff37000100780090019800d1
:103760000003eb00bcff370001007800b0019800b7
:103770000003eb00dcff3700620220000281b90089
:10378000a4b3200084014100a4ab20000401410047
:103790000002400065af200064807a000000e8006d
:1037a00000b27a0042039000c601980052039000d4
:1037b000d601980062039000e60198006203900031
:1037c000f60198000213900086119800720990008b
:1037d000f20998000001eb00810f5000270035002e
:1037e0000000eb0000b27a001300900012002000ed
:1037f0000000e000060032008080eb000100350090
:103800001100200001005000900198000001eb0021
:10381000230090000000e000060032008080eb00f2
:10382000010035001100200001005000a0019800a7
:103830000001eb00330090000000e00006003200c1
:103840008080eb00010035001100200001005000d5
:10385000b00198000001eb00131090000000e000a0
:10386000060032008080eb000100350011002000ce
:1038700001005000901198000001eb000200780058
:1038800000000600889fbe008004780060022000cf
:1038900000c8b900a2b32000000141000004eb0001
:1038a0001801980028019800380198001811980014
:1038b0007801980048019800580198006801980024
:1038c00008119800c248dd00e0ae200000804000f2
:1038d0006011b8000288be0020af20008080400048
:1038e0008288be004648dd00a1af200001004000f4
:1038f000020420008800780019fe07008980440037
:10390000c0ae200088307800a0ae2000883078005b
:1039100060af2000883078004f04be000000060031
:10392000ba1a370000000600ee874700889fbe00e5
:103930008a9fbe008c9fbe008e1f7800f0b79f004c
:1039400081017800600220007fb197000090b900eb
:10395000a2b3200002044000a2ab200002004000fd
:10396000c0b79f00100a9000b4b79f00830f5200a9
:103970009e00350020089000b3b79f00808f510053
:10398000ad003500cfb297009502780062806200ea
:103990009a0032000000eb00f403070000057800f5
:1039a0003fb097000a015000225b88004800900059
:1039b0000090de00980090000182b900d4b79f000b
:1039c000e5b79f00ffb29700422fdd0020b720002f
:1039d000000047005fb29700efb297000488be0076
:1039e00026af200006004700cf91de0030024100e4
:1039f000a0824900780090006101b900820f520056
:103a0000838f5a0006003c000000ea00cf80de00f1
:103a10000401be00800f5200818f5a0084003500df
:103a2000060047000288be0028029000cfa2de00f8
:103a3000580090000000e900030033008381d100aa
:103a40000281d300fbff37000416b80003a0b900c1
:103a50000d0040000591b90082064000e0b620004c
:103a6000000047000c88be00ffb29700858442002a
:103a7000a0ae20006900780080bf9f00e6ae200065
:103a800006034700452add0000024200040242000e
:103a9000a7af200064817b00cf91de0036001100cb
:103aa000a68019000001be00c5ae200069807a0022
:103ab0000000550000b27b008ab47a00cf80de009f
:103ac00002054000838548000a8bbe008fb897002e
:103ad0000100e800ff0f5000010034000000eb007f
:103ae000a2ae20008034790038009000cf80de0044
:103af0000a02b80001d1b900050141000b80b900ec
:103b000080024100680090000000e90003003300db
:103b10008582d1000482d300fbff3700a0b62000cd
:103b2000000047000488be0066b6200086014700fa
:103b30008009eb00b311780000002100cfb097009e
:103b4000110060003000320018109000cf80de00bd
:103b50008089be005fb19700efb197000200460078
:103b600083804e0004004000858048000601470025
:103b700032024000a2824800045b8800155b880086
:103b80000400be00c27d200003002000c57d20008f
:103b9000850f5000e08f580009003c00005b80005a
:103ba000115b800002812f00f3ff2f00820f500075
:103bb000838f580002003500025b8000135b800099
:103bc000025b8800135b8800820078007fb097005a
:103bd0000e1a07004f0778004f06be004f05be00c3
:103be0004f04be00ef00b100000006008002780024
:103bf000950278006280620066ff3a008d0307003c
:103c00000005780066ff3700780890003fb1970004
:103c100000005100081190000280de001811900091
:103c20000280b900cf80de008089be00c9ff370066
:103c30000001be007aff3700b0b79f00cfb29700f7
:103c400051ff3700881f78000004eb00c857880038
:103c5000e8598800f8598800085a8800e85a88000e
:103c6000485a8800185a8800285a8800385a88000c
:103c7000d85a88006000b8007057880081578800c3
:103c800090578800a157880002042000880078001f
:103c9000a0af200032fd0700685788005857880001
:103ca000b85788004f04780000000600889fbe00c7
:103cb0000208e20001003200f82aef008956800075
:103cc000f90fb20052568000c8578000e20f54002e
:103cd000600032003b003400e40f5400cf0032009b
:103ce0006b003d00b15780008100e800b1578800ab
:103cf00010568000105a880020568000205a8800f4
:103d000030568000305a8800405a8800d0568000d3
:103d1000d05a8800c0568000c05a8800900f2000fa
:103d2000808f500023003400f62aef00e059800015
:103d3000110020000000e000060032008080eb004f
:103d4000010035001100200001005000e0598800fa
:103d50008000eb00f05980000000e0000600320017
:103d60008080eb00010035001100200001005000b0
:103d7000f05988008000eb00005a80000000e0004d
:103d8000060032008080eb000100350011002000a9
:103d900001005000005a88008000eb00e05a8000cb
:103da0000000e000a8003a000100e000010032003d
:103db000c05788006000b800941907004f04be0087
:103dc000000006000800e00028003a0088007800a3
:103dd000080078008d190700e18f5400960032002a
:103de000e28f54000c013200e38f5400f3ff3a00dd
:103df00060002000c0578800e8598800f859880002
:103e0000085a8800e85a8800485a8800185a8800da
:103e1000285a8800385a8800d85a8800ee2aef00bd
:103e2000f02aef00f22aef00f42aef00020420004b
:103e300088007800a0af2000c9fc07006857880000
:103e400058578800b85788004f04be00000006008d
:103e5000dcff3700e28f540013003200f82aef0035
:103e60004f04be0000000600d6ff3700e10f5400eb
:103e7000d0ff3a00820078000000eb0063190700d1
:103e8000e18f5400cdff3200f82aef00f4ff370035
:103e9000e60f5400c7ff3a00e38f5400c5ff32001d
:103ea000f82aef00eeff3700b15780008100e800ec
:103eb000b157880010568000105a880020568000a4
:103ec000205a880030568000305a880040568000c2
:103ed000405a8800d0568000d05a8800c0568000d2
:103ee000c05a8800900f2000808f50004500340099
:103ef000f62aef00e1598000e05580001300200011
:103f0000808f50000d003200008050008081eb0057
:103f100001003300130020000380500001d027006f
:103f2000810f500064003c0001302800810f5000d8
:103f300061003500e05988008001eb00f1598000f4
:103f4000f0558000808f50000d003200008050003e
:103f50008081eb000100330013002000038050003b
:103f600001d02700810f50004f003c000130280095
:103f7000810f50004c003500f05988008001eb00a3
:103f8000015a800000568000808f50000d003200e2
:103f9000008050008081eb000100330013002000fe
:103fa0000380500001d02700810f50003a003c00f0
:103fb00001302800810f500037003500005a88007a
:103fc0008001eb00e15a8000e0568000808f5000b5
:103fd00026003200008050008081eb000100330099
:103fe000130020000380500001d02700810f5000f3
:103ff00026003c0001302800810f500023003500ce
:10400000e05a8800820078000000eb0046fe0700be
:104010004f04be00000006006aff3700e28f540024
:104020002900320030002000c05788004f04be0035
:104030000000060063ff3700c95788004f04be0028
:10404000000006005fff37008080eb000000e0000a
:10405000010035001100200001005000e05a8800e6
:104060006000b800e918070054ff37000300e000c3
:10407000e4ff320040002000c05788008200780032
:104080000000eb0028fe0700e1ff37000100780088
:10409000e05a8800dbff370001007800005a8800f2
:1040a0008001eb00c7ff370001007800f05988005d
:1040b0008001eb00b2ff370001007800e059880072
:1040c0008001eb009dff3700b15780008100e800c0
:1040d000b157880010568000105a88002056800082
:1040e000205a880030568000305a880040568000a0
:1040f000405a8800d0568000d05a8800c0568000b0
:10410000c05a8800900f2000808f5000bdff3400ff
:10411000f62aef00e1598000e0558000808f5000c2
:104120000c003200008050008081eb000100330061
:10413000130020000380500001d02700810f5000a1
:1041400032003c0001302800810f50002f00350064
:10415000e0598800f1598000f0558000808f5000b0
:104160000c003200008050008081eb000100330021
:10417000130020000380500001d02700810f500061
:104180001f003c0001302800810f50001c0035004a
:10419000f0598800015a800000568000808f50003e
:1041a0000c003200008050008081eb0001003300e1
:1041b000130020000380500001d02700810f500021
:1041c0000c003c0001302800810f50000900350030
:1041d000005a8800e15a8000e0568000808f50002d
:1041e0007cff3a00820078000000eb00cefd070063
:1041f00087ff370001007800005a8800f5ff37007c
:1042000001007800f0598800e2ff370001007800d3
:10421000e0598800cfff3700c9578800e859880067
:10422000f8598800085a8800e85a8800485a8800d7
:10423000185a8800285a8800385a8800d85a8800a6
:10424000ee2aef00f02aef00f22aef00f42aef0046
:104250000204200088007800a0af2000c0fb070007
:104260006857880058578800b8578800f6fe37000e
:10427000a0498000010220000000e000020032009e
:104280000100780000000600000078000000060031
:10429000fdff3700b0498000010120000000e00070
:1042a00002003200010078000000060000007800e3
:1042b00000000600fdff37000051800000000600ee
:1042c000704a8000814a800000000600904a800009
:1042d000a14a800000000600c049800000000600de
:1042e00080017800020278000000e000090032003e
:1042f0004308dd00110009000380d8000020b80049
:104300004d09dd004300de0000007100c308de003f
:104310000000060000000600881f78000004eb0083
:10432000d84988006000b800f0498800014a880038
:10433000904a8800a14a8800384a8800e8498800e5
:10434000104a8800214a8800704a8800814a880003
:10435000484a88000204200088007800a09d2000c0
:104360007ffb07000208200088007800a09520004d
:104370007bfb07004f04780000000600881f7800d0
:104380000004eb0008518800f8508800e8508800cd
:10439000a00f2000d0508800c84a8800b84a880082
:1043a000d84988006000b800f0498800014a8800b8
:1043b000904a8800a14a8800384a8800b849880095
:1043c000a8498800e8498800104a8800214a8800e6
:1043d000704a8800814a8800484a8800c849880095
:1043e0000204200088007800a09d20005cfb0700ec
:1043f0000208200088007800a095200058fb0700e4
:104400004f04780000000600881f7800d05080001c
:10441000f00f500005003c001a0ae20003003400cf
:10442000c84980000800e000df0032001a0aed00f1
:104430008000eb0002003300d15080008100e900d1
:10444000d1508800c05780000000e0000a00320010
:10445000e50f500008003200c8498000e40f540006
:10446000b4003200c0498000e10f50000a00320061
:104470004f047800000006003209e200f6ff320027
:1044800040002000c0498800c8498000e40f540063
:10449000f4ff3a00a700370038fb0700000178005e
:1044a000e05080008000eb00800f5100b0003c0025
:1044b000125f80000200e000b400320000e8230038
:1044c000811f7800110009000280d800cf00780019
:1044d0000008b8004d09dd004300de000000710057
:1044e000c308de0000518800c05780000000e000d3
:1044f000ab003200e50f5000a9003200414a8000b5
:104500008100e8000001eb00700f2000808f500058
:1045100002003c00424a80000201e800424a880052
:10452000414a80000100e0002d003a003c09ec0007
:10453000ef0f5000c600340001007800e049880009
:10454000e349800000518000025180000280b900e0
:10455000c219dd00a29d2000828141008089be0039
:104560004229ef004429ef000002eb0082027800ac
:104570003501be00104a8000214a80000200400040
:1045800083804800104a8800214a88000402e8001d
:10459000f00f5200f6ff3a00104a8000214a8000d6
:1045a0004c09dd004400de0000007100c488de001c
:1045b000704a8800814a8800a84980000800e0000d
:1045c00007003a00724a8000834a800000402800b9
:1045d000717d2100800f5100818f5900ab003c009c
:1045e000314a80008100e8000001eb00f026200045
:1045f000808f500002003c00324a80000201e80037
:10460000324a8800314a80000100e00024003a006c
:104610003a09ec00ff0f50007d00340001007800e3
:10462000d0498800d34980000051800002518000a9
:104630000280b900c219dd00a295200082814100ec
:104640008089be003e29ef004029ef000002eb0008
:1046500006022000820278003501be00f049800089
:10466000014a80000200400083804800f049880031
:10467000014a88000402e800860f5200f6ff3a0063
:10468000f0498000014a80004b09dd004500de0052
:1046900000007100c588de00904a8800a14a8800a9
:1046a000b84980000800e00071ff3a00924a80009b
:1046b000a34a800000292700e1442000800f510018
:1046c000818f59006aff340030002000c049880003
:1046d00010002000b0498800d84988003e29ef002a
:1046e0004029ef005229ef005429ef00384a880092
:1046f000e84988004229ef004429ef004e29ef00e5
:104700005029ef00484a8800020420008800780001
:10471000a09d200092fa070002082000880078007f
:10472000a09520008efa07004f04780000000600d4
:1047300051ff37000000eb0090fa0700f0508800ae
:10474000100020008dfa0700e0508800e050800043
:10475000f80f500029003e0010002000c0498800da
:10476000c0498000e10f500041ff3a004aff370086
:10477000e0508000000051006700b9008000780020
:10478000125f80000200e0004cff3a000200780057
:1047900000518800c05780000000e00055ff3a003b
:1047a000202aef0055ff37000800780073fa070051
:1047b0005829b4001000200070fa07005629b400f0
:1047c000d1508000e18f500018ff3a00c04a8000ad
:1047d0004400de00f0508800b04a80004400de0053
:1047e000e0508800e0508000f80f500048003e0084
:1047f000c1498800914988000cff3700c8498800ea
:10480000c0498000e10f500019ff3a0022ff370035
:104810003a09ec00d0498800d3498000005180005b
:10482000025180000280b900c219dd00a29520006b
:10483000828141008089be003e29ef004029ef00bf
:104840000002eb00060220008202780082ff37009f
:104850003c09ec00e0498800e349800000518000f9
:10486000025180000280b900c219dd00a29d200023
:10487000828141008089be004229ef004429ef0077
:104880000002eb008202780039ff370001518000fe
:1048900000e22400808f500004003c0001518000a1
:1048a000001e2b00808f50004dff3d002000200097
:1048b000c049880010002000a0498800d84988001d
:1048c0003e29ef004029ef005229ef005429ef0064
:1048d000384a8800e84988004229ef004429ef005f
:1048e0004e29ef005029ef00484a880002042000ba
:1048f00088007800a09d200019fa07000208200017
:1049000088007800a095200015fa070034ff3700d2
:10491000c8498800c84a8800b84a88004006200074
:10492000d0508800c1fe370000000600c4c2bf009e
:104930004400de00610060000004a2004400dd00cd
:10494000412c2000914078000144a10080c07000fb
:1049500001007800c4e2b70000000600000040003b
:1049600001bb200060807800000006004200dd00ee
:1049700041bb2000010240006011b8008000eb0044
:104980003400780000014100e08149008100e80026
:10499000e28f5000faff3a008380d1000280d300fa
:1049a000000006000001780063806000e10f500005
:1049b0000c003200baeaab0005003a0002004100e8
:1049c00001bb2000010040001008e80000000600c4
:1049d00002014100c208de00e0bb20000131780086
:1049e00000000600c209de00e0fd2300808f5100b8
:1049f000f0ff3e0082004100e0bb200083307800e1
:104a000000000600d442a800cc62a8000000eb0021
:104a1000e3bb200002bb20008000780001b07900d9
:104a2000013079000080e800e40f5000fbff3a00fd
:104a30000000060000004000e1bb2000608078001c
:104a400000000600889fbe00c8a2a900cea2a80050
:104a5000c8c2a900cec2a800d442a900cc62a90055
:104a6000d402a900d422a900000000000000000028
:104a70000000000000000000000000000000000036
:104a80000000000000000000000000000000000026
:104a90000000000000000000000000000000000016
:104aa0000000000000000000000000000000000006
:104ab00000000000000000000000000000000000f6
:104ac00000000000000000000000000000000000e6
:104ad00000000000000000000000000000000000d6
:104ae00000000000000000000000000000000000c6
:104af00000000000000000000000000000000000b6
:104b000000000000000000000000000000000000a5
:104b10000000000000000000000000000000000095
:104b20000000000000000000000000000000000085
:104b30000000000000000000000000000000000075
:104b40000000000000000000000000000000000065
:104b50000000000000000000000000000000000055
:104b60000000000000000000000000000000000045
:104b70000000000000000000000000000000000035
:104b80000000000000000000000000000000000025
:104b90000000000000000000000000000000000015
:104ba0000000000000000000000000000000000005
:104bb00000000000000000000000000000000000f5
:104bc00000000000000000000000000000000000e5
:104bd0000000000000000000d402a800d422a800b9
:104be000cca2a800ccc2a800000000000000000079
:104bf00000000000000000000000000000000000b5
:104c000000000000000000000000000000000000a4
:104c10000000000000000000000000000000000094
:104c20000000000000000000000000000000000084
:104c30000000000000000000000000000000000074
:104c40000000000000000000000000000000000064
:104c50000000000000000000000000000000000054
:104c60000000000000000000000000000000000044
:104c70000000000000000000000000000000000034
:104c80000000000000000000000000000000000024
:104c90000000000000000000000000000000000014
:104ca0000000000000000000d402a900d422a900e6
:104cb00000000000000000000000000000000000f4
:104cc00000000000000000000000000000000000e4
:104cd00000000000000000000000000000000000d4
:104ce00000000000000000000000000000000000c4
:104cf00000000000000000000000000000000000b4
:104d000000000000000000000000000000000000a3
:104d10000000000000000000000000000000000093
:104d20000000000000000000000000000000000083
:104d30000000000000000000000000000000000073
:104d40000000000000000000000000000000000063
:104d50000000000000000000000000000000000053
:104d60000000000000000000000000000000000043
:104d7000d402a800d422a800cca2a900ccc2a900c9
:104d80000000000000000000000000000000000023
:104d90000000000000000000000000000000000013
:104da0000000000000000000000000000000000003
:104db00000000000000000000000000000000000f3
:104dc00000000000000000000000000000000000e3
:104dd00000000000000000000000000000000000d3
:104de00000000000000000000000000000000000c3
:104df00000000000000000000000000000000000b3
:104e000000000000000000000000000000000000a2
:104e10000000000000000000000000000000000092
:104e20000000000000000000000000000000000082
:104e30000000000000000000000000000000000072
:104e4000d402a900d422a900000000000000000044
:104e50000000000000000000000000000000000052
:104e60000000000000000000000000000000000042
:104e70000000000000000000000000000000000032
:104e80000000000000000000000000000000000022
:104e90000000000000000000000000000000000012
:104ea0000000000000000000000000000000000002
:104eb00000000000000000000000000000000000f2
:104ec00000000000000000000000000000000000e2
:104ed00000000000000000000000000000000000d2
:104ee00000000000000000000000000000000000c2
:104ef00000000000000000000000000000000000b2
:104f00000000000000000000d402a800d422a80085
:104f1000cca2a800ccc2a800000000000000000045
:104f20000000000000000000000000000000000081
:104f30000000000000000000000000000000000071
:104f40000000000000000000000000000000000061
:104f50000000000000000000000000000000000051
:104f60000000000000000000000000000000000041
:104f70000000000000000000000000000000000031
:104f80000000000000000000000000000000000021
:104f90000000000000000000000000000000000011
:104fa0000000000000000000000000000000000001
:104fb00000000000000000000000000000000000f1
:104fc00000000000000000000000000000000000e1
:104fd0000000000000000000d402a900d422a900b3
:104fe00000000000000000000000000000000000c1
:104ff00000000000000000000000000000000000b1
:1050000000000000000000000000000000000000a0
:105010000000000000000000000000000000000090
:105020000000000000000000000000000000000080
:105030000000000000000000000000000000000070
:105040000000000000000000000000000000000060
:105050000000000000000000000000000000000050
:105060000000000000000000000000000000000040
:105070000000000000000000000000000000000030
:105080000000000000000000000000000000000020
:105090000000000000000000000000000000000010
:1050a000d402a800d422a800cca2a900ccc2a90096
:1050b00000000000000000000000000000000000f0
:1050c00000000000000000000000000000000000e0
:1050d00000000000000000000000000000000000d0
:1050e00000000000000000000000000000000000c0
:1050f00000000000000000000000000000000000b0
:10510000000000000000000000000000000000009f
:10511000000000000000000000000000000000008f
:10512000000000000000000000000000000000007f
:10513000000000000000000000000000000000006f
:10514000000000000000000000000000000000005f
:10515000000000000000000000000000000000004f
:10516000000000000000000000000000000000003f
:10517000d402a900d422a900000000000000000011
:10518000000000000000000000000000000000001f
:10519000000000000000000000000000000000000f
:1051a00000000000000000000000000000000000ff
:1051b00000000000000000000000000000000000ef
:1051c00000000000000000000000000000000000df
:1051d00000000000000000000000000000000000cf
:1051e00000000000000000000000000000000000bf
:1051f00000000000000000000000000000000000af
:10520000000000000000000000000000000000009e
:10521000000000000000000000000000000000008e
:10522000000000000000000000000000000000007e
:105230000000000000000000d402a800d422a80052
:10524000cca2a800ccc2a800000000000000000012
:10525000000000000000000000000000000000004e
:10526000000000000000000000000000000000003e
:10527000000000000000000000000000000000002e
:10528000000000000000000000000000000000001e
:10529000000000000000000000000000000000000e
:1052a00000000000000000000000000000000000fe
:1052b00000000000000000000000000000000000ee
:1052c00000000000000000000000000000000000de
:1052d00000000000000000000000000000000000ce
:1052e00000000000000000000000000000000000be
:1052f00000000000000000000000000000000000ae
:105300000000000000000000d402a900d422a9007f
:10531000000000000000000000000000000000008d
:10532000000000000000000000000000000000007d
:10533000000000000000000000000000000000006d
:10534000000000000000000000000000000000005d
:10535000000000000000000000000000000000004d
:10536000000000000000000000000000000000003d
:10537000000000000000000000000000000000002d
:10538000000000000000000000000000000000001d
:10539000000000000000000000000000000000000d
:1053a00000000000000000000000000000000000fd
:1053b00000000000000000000000000000000000ed
:1053c00000000000000000000000000000000000dd
:1053d000d402a800d422a800cca2a900ccc2a90063
:1053e00000000000000000000000000000000000bd
:1053f00000000000000000000000000000000000ad
:10540000000000000000000000000000000000009c
:10541000000000000000000000000000000000008c
:10542000000000000000000000000000000000007c
:10543000000000000000000000000000000000006c
:10544000000000000000000000000000000000005c
:10545000000000000000000000000000000000004c
:10546000000000000000000000000000000000003c
:10547000000000000000000000000000000000002c
:10548000000000000000000000000000000000001c
:10549000000000000000000000000000000000000c
:1054a000d402a900d422a9000000000000000000de
:1054b00000000000000000000000000000000000ec
:1054c00000000000000000000000000000000000dc
:1054d00000000000000000000000000000000000cc
:1054e00000000000000000000000000000000000bc
:1054f00000000000000000000000000000000000ac
:10550000000000000000000000000000000000009b
:10551000000000000000000000000000000000008b
:10552000000000000000000000000000000000007b
:10553000000000000000000000000000000000006b
:10554000000000000000000000000000000000005b
:10555000000000000000000000000000000000004b
:105560000000000000000000d402a800d422a8001f
:10557000cca2a800ccc2a8000000000000000000df
:10558000000000000000000000000000000000001b
:10559000000000000000000000000000000000000b
:1055a00000000000000000000000000000000000fb
:1055b00000000000000000000000000000000000eb
:1055c00000000000000000000000000000000000db
:1055d00000000000000000000000000000000000cb
:1055e00000000000000000000000000000000000bb
:1055f00000000000000000000000000000000000ab
:10560000000000000000000000000000000000009a
:10561000000000000000000000000000000000008a
:10562000000000000000000000000000000000007a
:105630000000000000000000d402a900d422a9004c
:10564000000000000000000000000000000000005a
:10565000000000000000000000000000000000004a
:10566000000000000000000000000000000000003a
:10567000000000000000000000000000000000002a
:10568000000000000000000000000000000000001a
:10569000000000000000000000000000000000000a
:1056a00000000000000000000000000000000000fa
:1056b00000000000000000000000000000000000ea
:1056c00000000000000000000000000000000000da
:1056d00000000000000000000000000000000000ca
:1056e00000000000000000000000000000000000ba
:1056f00000000000000000000000000000000000aa
:10570000d402a800d422a800cca2a900ccc2a9002f
:105710000000000000000000000000000000000089
:105720000000000000000000000000000000000079
:105730000000000000000000000000000000000069
:105740000000000000000000000000000000000059
:105750000000000000000000000000000000000049
:105760000000000000000000000000000000000039
:105770000000000000000000000000000000000029
:105780000000000000000000000000000000000019
:105790000000000000000000000000000000000009
:1057a00000000000000000000000000000000000f9
:1057b00000000000000000000000000000000000e9
:1057c00000000000000000000000000000000000d9
:1057d000d402a900d422a9000000000000000000ab
:1057e00000000000000000000000000000000000b9
:1057f00000000000000000000000000000000000a9
:105800000000000000000000000000000000000098
:105810000000000000000000000000000000000088
:105820000000000000000000000000000000000078
:105830000000000000000000000000000000000068
:105840000000000000000000000000000000000058
:105850000000000000000000000000000000000048
:105860000000000000000000000000000000000038
:105870000000000000000000000000000000000028
:105880000000000000000000000000000000000018
:105890000000000000000000d0002000b21307004c
:1058a000d402a800d422a800cca2a800ccc2a80090
:1058b00000000000000000000000000000000000e8
:1058c00000000000000000000000000000000000d8
:1058d00000000000000000000000000000000000c8
:1058e00000000000000000000000000000000000b8
:1058f00000000000000000000000000000000000a8
:105900000000000000000000000000000000000097
:105910000000000000000000000000000000000087
:105920000000000000000000000000000000000077
:105930000000000000000000000000000000000067
:105940000000000000000000000000000000000057
:105950000000000000000000000000000000000047
:105960000000000000000000000000000000000037
:10597000d402a900d422a900000000000000000009
:105980000000000000000000000000000000000017
:105990000000000000000000000000000000000007
:1059a00000000000000000000000000000000000f7
:1059b00000000000000000000000000000000000e7
:1059c00000000000000000000000000000000000d7
:1059d00000000000000000000000000000000000c7
:1059e00000000000000000000000000000000000b7
:1059f00000000000000000000000000000000000a7
:105a00000000000000000000000000000000000096
:105a10000000000000000000000000000000000086
:105a20000000000000000000000000000000000076
:105a30000000000000000000d402a800d422a8004a
:105a4000cca2a800ccc2a80000000000000000000a
:105a50000000000000000000000000000000000046
:105a60000000000000000000000000000000000036
:105a70000000000000000000000000000000000026
:105a80000000000000000000000000000000000016
:105a90000000000000000000000000000000000006
:105aa00000000000000000000000000000000000f6
:105ab00000000000000000000000000000000000e6
:105ac00000000000000000000000000000000000d6
:105ad00000000000000000000000000000000000c6
:105ae00000000000000000000000000000000000b6
:105af00000000000000000000000000000000000a6
:105b00000000000000000000d402a900d422a90077
:105b10000000000000000000000000000000000085
:105b20000000000000000000000000000000000075
:105b30000000000000000000000000000000000065
:105b40000000000000000000000000000000000055
:105b50000000000000000000000000000000000045
:105b60000000000000000000000000000000000035
:105b70000000000000000000000000000000000025
:105b80000000000000000000000000000000000015
:105b90000000000000000000000000000000000005
:105ba00000000000000000000000000000000000f5
:105bb00000000000000000000000000000000000e5
:105bc00000000000000000000000000000000000d5
:105bd000d402a800d422a800cca2a800ccc2a8005d
:105be00000000000000000000000000000000000b5
:105bf00000000000000000000000000000000000a5
:105c00000000000000000000000000000000000094
:105c10000000000000000000000000000000000084
:105c20000000000000000000000000000000000074
:105c30000000000000000000000000000000000064
:105c40000000000000000000000000000000000054
:105c50000000000000000000000000000000000044
:105c60000000000000000000000000000000000034
:105c70000000000000000000000000000000000024
:105c80000000000000000000000000000000000014
:105c90000000000000000000000000000000000004
:105ca000d402a900d422a9000000000000000000d6
:105cb00000000000000000000000000000000000e4
:105cc00000000000000000000000000000000000d4
:105cd00000000000000000000000000000000000c4
:105ce00000000000000000000000000000000000b4
:105cf00000000000000000000000000000000000a4
:105d00000000000000000000000000000000000093
:105d10000000000000000000000000000000000083
:105d20000000000000000000000000000000000073
:105d30000000000000000000000000000000000063
:105d40000000000000000000000000000000000053
:105d50000000000000000000000000000000000043
:105d60000000000000000000d402a800d422a80017
:105d7000cca2a800ccc2a8000000000000000000d7
:105d80000000000000000000000000000000000013
:105d90000000000000000000000000000000000003
:105da00000000000000000000000000000000000f3
:105db00000000000000000000000000000000000e3
:105dc00000000000000000000000000000000000d3
:105dd00000000000000000000000000000000000c3
:105de00000000000000000000000000000000000b3
:105df00000000000000000000000000000000000a3
:105e00000000000000000000000000000000000092
:105e10000000000000000000000000000000000082
:105e20000000000000000000000000000000000072
:105e30000000000000000000d402a900d422a90044
:105e40000000000000000000000000000000000052
:105e50000000000000000000000000000000000042
:105e60000000000000000000000000000000000032
:105e70000000000000000000000000000000000022
:105e80000000000000000000000000000000000012
:105e90000000000000000000000000000000000002
:105ea00000000000000000000000000000000000f2
:105eb00000000000000000000000000000000000e2
:105ec00000000000000000000000000000000000d2
:105ed00000000000000000000000000000000000c2
:105ee00000000000000000000000000000000000b2
:105ef00000000000000000000000000000000000a2
:105f0000d402a800d422a800cca2a800ccc2a80029
:105f10000000000000000000000000000000000081
:105f20000000000000000000000000000000000071
:105f30000000000000000000000000000000000061
:105f40000000000000000000000000000000000051
:105f50000000000000000000000000000000000041
:105f60000000000000000000000000000000000031
:105f70000000000000000000000000000000000021
:105f80000000000000000000000000000000000011
:105f90000000000000000000000000000000000001
:105fa00000000000000000000000000000000000f1
:105fb00000000000000000000000000000000000e1
:105fc00000000000000000000000000000000000d1
:105fd000d402a900d422a9000000000000000000a3
:105fe00000000000000000000000000000000000b1
:105ff00000000000000000000000000000000000a1
:106000000000000000000000000000000000000090
:106010000000000000000000000000000000000080
:106020000000000000000000000000000000000070
:106030000000000000000000000000000000000060
:106040000000000000000000000000000000000050
:106050000000000000000000000000000000000040
:106060000000000000000000000000000000000030
:106070000000000000000000000000000000000020
:106080000000000000000000000000000000000010
:106090000000000000000000d402a800d422a800e4
:1060a000cca2a800ccc2a8000000000000000000a4
:1060b00000000000000000000000000000000000e0
:1060c00000000000000000000000000000000000d0
:1060d00000000000000000000000000000000000c0
:1060e00000000000000000000000000000000000b0
:1060f00000000000000000000000000000000000a0
:10610000000000000000000000000000000000008f
:10611000000000000000000000000000000000007f
:10612000000000000000000000000000000000006f
:10613000000000000000000000000000000000005f
:10614000000000000000000000000000000000004f
:10615000000000000000000000000000000000003f
:106160000000000000000000d402a900d422a90011
:10617000000000000000000000000000000000001f
:10618000000000000000000000000000000000000f
:1061900000000000000000000000000000000000ff
:1061a00000000000000000000000000000000000ef
:1061b00000000000000000000000000000000000df
:1061c00000000000000000000000000000000000cf
:1061d00000000000000000000000000000000000bf
:1061e00000000000000000000000000000000000af
:1061f000000000000000000000000000000000009f
:10620000000000000000000000000000000000008e
:10621000000000000000000000000000000000007e
:10622000000000000000000000000000000000006e
:10623000d402a800d422a800cca2a800ccc2a800f6
:10624000000000000000000000000000000000004e
:10625000000000000000000000000000000000003e
:10626000000000000000000000000000000000002e
:10627000000000000000000000000000000000001e
:10628000000000000000000000000000000000000e
:1062900000000000000000000000000000000000fe
:1062a00000000000000000000000000000000000ee
:1062b00000000000000000000000000000000000de
:1062c00000000000000000000000000000000000ce
:1062d00000000000000000000000000000000000be
:1062e00000000000000000000000000000000000ae
:1062f000000000000000000000000000000000009e
:10630000d402a900d422a90000000000000000006f
:10631000000000000000000000000000000000007d
:10632000000000000000000000000000000000006d
:10633000000000000000000000000000000000005d
:10634000000000000000000000000000000000004d
:10635000000000000000000000000000000000003d
:10636000000000000000000000000000000000002d
:10637000000000000000000000000000000000001d
:10638000000000000000000000000000000000000d
:1063900000000000000000000000000000000000fd
:1063a00000000000000000000000000000000000ed
:1063b00000000000000000000000000000000000dd
:1063c0000000000000000000d402a800d422a800b1
:1063d000cca2a800ccc2a800000000000000000071
:1063e00000000000000000000000000000000000ad
:1063f000000000000000000000000000000000009d
:10640000000000000000000000000000000000008c
:10641000000000000000000000000000000000007c
:10642000000000000000000000000000000000006c
:10643000000000000000000000000000000000005c
:10644000000000000000000000000000000000004c
:10645000000000000000000000000000000000003c
:10646000000000000000000000000000000000002c
:10647000000000000000000000000000000000001c
:10648000000000000000000000000000000000000c
:106490000000000000000000d402a900d422a900de
:1064a00000000000000000000000000000000000ec
:1064b00000000000000000000000000000000000dc
:1064c00000000000000000000000000000000000cc
:1064d00000000000000000000000000000000000bc
:1064e00000000000000000000000000000000000ac
:1064f000000000000000000000000000000000009c
:10650000000000000000000000000000000000008b
:10651000000000000000000000000000000000007b
:10652000000000000000000000000000000000006b
:10653000000000000000000000000000000000005b
:10654000000000000000000000000000000000004b
:10655000000000000000000000000000000000003b
:106560008000200080100700c8a2a800cea2a900c9
:10657000c8c2a800cec2a900800020007a1007007f
:10658000d402a800d422a8000000000000000000ef
:1065900000000000000000000000000000000000fb
:1065a00000000000000000000000000000000000eb
:1065b00000000000000000000000000000000000db
:1065c00000000000000000000000000000000000cb
:1065d00000000000000000000000000000000000bb
:1065e00000000000000000000000000000000000ab
:1065f000000000000000000000000000000000009b
:10660000000000000000000000000000000000008a
:10661000000000000000000000000000000000007a
:10662000000000000000000000000000000000006a
:10663000000000000000000000000000000000005a
:106640000000000000000000d402a900d422a9002c
:10665000a82c2000184478004544de006104640042
:10666000a92c200099447800c64cde00e184640027
:10667000000000000000000000000000000000001a
:10668000000000000000000000000000000000000a
:1066900000000000000000000000000000000000fa
:1066a00000000000000000000000000000000000ea
:1066b00000000000000000000000000000000000da
:1066c00000000000000000000000000000000000ca
:1066d00000000000000000000000000000000000ba
:1066e00000000000000000000000000000000000aa
:1066f000000000000000000000000000000000009a
:106700000000000000000000000000000000000089
:106710000000000000000000000000000000000079
:106720000000000000000000000000000000000069
:106730000884fb00080444008984fb008984440029
:10674000d402a800d422a80000000000000000002d
:106750000000000000000000000000000000000039
:106760000000000000000000000000000000000029
:106770000000000000000000000000000000000019
:106780000000000000000000000000000000000009
:1067900000000000000000000000000000000000f9
:1067a00000000000000000000000000000000000e9
:1067b00000000000000000000000000000000000d9
:1067c00000000000000000000000000000000000c9
:1067d00000000000000000000000000000000000b9
:1067e00000000000000000000000000000000000a9
:1067f0000000000000000000000000000000000099
:106800000000000000000000d402a900d422a9006a
:10681000cac2bf004500de006100600000047400d1
:10682000cac2bf004600de006100600080847400c0
:106830000000000000000000000000000000000058
:106840000000000000000000000000000000000048
:106850000000000000000000000000000000000038
:106860000000000000000000000000000000000028
:106870000000000000000000000000000000000018
:106880000000000000000000000000000000000008
:1068900000000000000000000000000000000000f8
:1068a00000000000000000000000000000000000e8
:1068b00000000000000000000000000000000000d8
:1068c00000000000000000000000000000000000c8
:1068d00000000000000000000000000000000000b8
:1068e00000000000000000000000000000000000a8
:1068f0000804440089844400d402a800d422a800db
:106900000000000000000000000000000000000087
:106910000000000000000000000000000000000077
:106920000000000000000000000000000000000067
:106930000000000000000000000000000000000057
:106940000000000000000000000000000000000047
:106950000000000000000000000000000000000037
:106960000000000000000000000000000000000027
:106970000000000000000000000000000000000017
:106980000000000000000000000000000000000007
:1069900000000000000000000000000000000000f7
:1069a00000000000000000000000000000000000e7
:1069b00000000000000000000000000000000000d7
:1069c000d402a900d422a900cac2bf004500de003b
:1069d0006100600000047400cac2bf004600de000f
:1069e000610060008084740000000000000000006e
:1069f0000000000000000000000000000000000097
:106a00000000000000000000000000000000000086
:106a10000000000000000000000000000000000076
:106a20000000000000000000000000000000000066
:106a30000000000000000000000000000000000056
:106a40000000000000000000000000000000000046
:106a50000000000000000000000000000000000036
:106a60000000000000000000000000000000000026
:106a70000000000000000000000000000000000016
:106a80000000000000000000000000000000000006
:106a900000000000000000000000000000000000f6
:106aa0000000000000000000080444008984440045
:106ab000d402a800d422a8000000000000000000ba
:106ac00000000000000000000000000000000000c6
:106ad00000000000000000000000000000000000b6
:106ae00000000000000000000000000000000000a6
:106af0000000000000000000000000000000000096
:106b00000000000000000000000000000000000085
:106b10000000000000000000000000000000000075
:106b20000000000000000000000000000000000065
:106b30000000000000000000000000000000000055
:106b40000000000000000000000000000000000045
:106b50000000000000000000000000000000000035
:106b60000000000000000000000000000000000025
:106b70000000000000000000d402a900d422a900f7
:106b8000cac2bf004500de0061006000000474005e
:106b9000cac2bf004600de0061006000808474004d
:106ba00000000000000000000000000000000000e5
:106bb00000000000000000000000000000000000d5
:106bc00000000000000000000000000000000000c5
:106bd00000000000000000000000000000000000b5
:106be00000000000000000000000000000000000a5
:106bf0000000000000000000000000000000000095
:106c00000000000000000000000000000000000084
:106c10000000000000000000000000000000000074
:106c20000000000000000000000000000000000064
:106c30000000000000000000000000000000000054
:106c40000000000000000000000000000000000044
:106c50000000000000000000000000000000000034
:106c60000804440089844400d402a800d422a80067
:106c70000000000000000000000000000000000014
:106c80000000000000000000000000000000000004
:106c900000000000000000000000000000000000f4
:106ca00000000000000000000000000000000000e4
:106cb00000000000000000000000000000000000d4
:106cc00000000000000000000000000000000000c4
:106cd00000000000000000000000000000000000b4
:106ce00000000000000000000000000000000000a4
:106cf0000000000000000000000000000000000094
:106d00000000000000000000000000000000000083
:106d10000000000000000000000000000000000073
:106d20000000000000000000000000000000000063
:106d3000d402a900d422a900cac2bf004500de00c7
:106d40006100600000047400cac2bf004600de009b
:106d500061006000808474000000000000000000fa
:106d60000000000000000000000000000000000023
:106d70000000000000000000000000000000000013
:106d80000000000000000000000000000000000003
:106d900000000000000000000000000000000000f3
:106da00000000000000000000000000000000000e3
:106db00000000000000000000000000000000000d3
:106dc00000000000000000000000000000000000c3
:106dd00000000000000000000000000000000000b3
:106de00000000000000000000000000000000000a3
:106df0000000000000000000000000000000000093
:106e00000000000000000000000000000000000082
:106e100000000000000000000804440089844400d1
:106e2000d402a800d422a800000000000000000046
:106e30000000000000000000000000000000000052
:106e40000000000000000000000000000000000042
:106e50000000000000000000000000000000000032
:106e60000000000000000000000000000000000022
:106e70000000000000000000000000000000000012
:106e80000000000000000000000000000000000002
:106e900000000000000000000000000000000000f2
:106ea00000000000000000000000000000000000e2
:106eb00000000000000000000000000000000000d2
:106ec00000000000000000000000000000000000c2
:106ed00000000000000000000000000000000000b2
:106ee0000000000000000000d402a900d422a90084
:106ef000cac2bf004500de006100600000047400eb
:106f0000cac2bf004600de006100600080847400d9
:106f10000000000000000000000000000000000071
:106f20000000000000000000000000000000000061
:106f30000000000000000000000000000000000051
:106f40000000000000000000000000000000000041
:106f50000000000000000000000000000000000031
:106f60000000000000000000000000000000000021
:106f70000000000000000000000000000000000011
:106f80000000000000000000000000000000000001
:106f900000000000000000000000000000000000f1
:106fa00000000000000000000000000000000000e1
:106fb00000000000000000000000000000000000d1
:106fc00000000000000000000000000000000000c1
:106fd0000804440089844400d402a800d422a800f4
:106fe00000000000000000000000000000000000a1
:106ff0000000000000000000000000000000000091
:107000000000000000000000000000000000000080
:107010000000000000000000000000000000000070
:107020000000000000000000000000000000000060
:107030000000000000000000000000000000000050
:107040000000000000000000000000000000000040
:107050000000000000000000000000000000000030
:107060000000000000000000000000000000000020
:107070000000000000000000000000000000000010
:107080000000000000000000000000000000000000
:1070900000000000000000000000000000000000f0
:1070a000d402a900d422a900cac2bf004500de0054
:1070b0006100600000047400cac2bf004600de0028
:1070c0006100600080847400000000000000000087
:1070d00000000000000000000000000000000000b0
:1070e00000000000000000000000000000000000a0
:1070f0000000000000000000000000000000000090
:10710000000000000000000000000000000000007f
:10711000000000000000000000000000000000006f
:10712000000000000000000000000000000000005f
:10713000000000000000000000000000000000004f
:10714000000000000000000000000000000000003f
:10715000000000000000000000000000000000002f
:10716000000000000000000000000000000000001f
:10717000000000000000000000000000000000000f
:10718000000000000000000008044400898444005e
:10719000d402a800d422a8000000000000000000d3
:1071a00000000000000000000000000000000000df
:1071b00000000000000000000000000000000000cf
:1071c00000000000000000000000000000000000bf
:1071d00000000000000000000000000000000000af
:1071e000000000000000000000000000000000009f
:1071f000000000000000000000000000000000008f
:10720000000000000000000000000000000000007e
:10721000000000000000000000000000000000006e
:10722000000000000000000000000000000000005e
:10723000000000000000000000000000000000004e
:10724000000000000000000000000000000000003e
:107250000000000000000000d402a900d422a90010
:10726000cac2bf004500de00610060000004740077
:10727000cac2bf004600de00610060008084740066
:1072800000000000000000000000000000000000fe
:1072900000000000000000000000000000000000ee
:1072a00000000000000000000000000000000000de
:1072b00000000000000000000000000000000000ce
:1072c00000000000000000000000000000000000be
:1072d00000000000000000000000000000000000ae
:1072e000000000000000000000000000000000009e
:1072f000000000000000000000000000000000008e
:10730000000000000000000000000000000000007d
:10731000000000000000000000000000000000006d
:10732000000000000000000000000000000000005d
:10733000000000000000000000000000000000004d
:107340000804440089844400d0002000060d070092
:10735000d402a800d422a800000000000000000011
:10736000000000000000000000000000000000001d
:10737000000000000000000000000000000000000d
:1073800000000000000000000000000000000000fd
:1073900000000000000000000000000000000000ed
:1073a00000000000000000000000000000000000dd
:1073b00000000000000000000000000000000000cd
:1073c00000000000000000000000000000000000bd
:1073d00000000000000000000000000000000000ad
:1073e000000000000000000000000000000000009d
:1073f000000000000000000000000000000000008d
:10740000000000000000000000000000000000007c
:107410000000000000000000d402a900d422a9004e
:10742000cac2bf004500de006100600000047400b5
:10743000cac2bf004600de006100600080847400a4
:10744000000000000000000000000000000000003c
:10745000000000000000000000000000000000002c
:10746000000000000000000000000000000000001c
:10747000000000000000000000000000000000000c
:1074800000000000000000000000000000000000fc
:1074900000000000000000000000000000000000ec
:1074a00000000000000000000000000000000000dc
:1074b00000000000000000000000000000000000cc
:1074c00000000000000000000000000000000000bc
:1074d00000000000000000000000000000000000ac
:1074e000000000000000000000000000000000009c
:1074f000000000000000000000000000000000008c
:107500000804440089844400d402a800d422a800be
:10751000000000000000000000000000000000006b
:10752000000000000000000000000000000000005b
:10753000000000000000000000000000000000004b
:10754000000000000000000000000000000000003b
:10755000000000000000000000000000000000002b
:10756000000000000000000000000000000000001b
:10757000000000000000000000000000000000000b
:1075800000000000000000000000000000000000fb
:1075900000000000000000000000000000000000eb
:1075a00000000000000000000000000000000000db
:1075b00000000000000000000000000000000000cb
:1075c00000000000000000000000000000000000bb
:1075d000d402a900d422a900cac2bf004500de001f
:1075e0006100600000047400cac2bf004600de00f3
:1075f0006100600080847400000000000000000052
:10760000000000000000000000000000000000007a
:10761000000000000000000000000000000000006a
:10762000000000000000000000000000000000005a
:10763000000000000000000000000000000000004a
:10764000000000000000000000000000000000003a
:10765000000000000000000000000000000000002a
:10766000000000000000000000000000000000001a
:10767000000000000000000000000000000000000a
:1076800000000000000000000000000000000000fa
:1076900000000000000000000000000000000000ea
:1076a00000000000000000000000000000000000da
:1076b0000000000000000000080444008984440029
:1076c000d402a800d422a80000000000000000009e
:1076d00000000000000000000000000000000000aa
:1076e000000000000000000000000000000000009a
:1076f000000000000000000000000000000000008a
:107700000000000000000000000000000000000079
:107710000000000000000000000000000000000069
:107720000000000000000000000000000000000059
:107730000000000000000000000000000000000049
:107740000000000000000000000000000000000039
:107750000000000000000000000000000000000029
:107760000000000000000000000000000000000019
:107770000000000000000000000000000000000009
:107780000000000000000000d402a900d422a900db
:10779000cac2bf004500de00610060000004740042
:1077a000cac2bf004600de00610060008084740031
:1077b00000000000000000000000000000000000c9
:1077c00000000000000000000000000000000000b9
:1077d00000000000000000000000000000000000a9
:1077e0000000000000000000000000000000000099
:1077f0000000000000000000000000000000000089
:107800000000000000000000000000000000000078
:107810000000000000000000000000000000000068
:107820000000000000000000000000000000000058
:107830000000000000000000000000000000000048
:107840000000000000000000000000000000000038
:107850000000000000000000000000000000000028
:107860000000000000000000000000000000000018
:107870000804440089844400d402a800d422a8004b
:1078800000000000000000000000000000000000f8
:1078900000000000000000000000000000000000e8
:1078a00000000000000000000000000000000000d8
:1078b00000000000000000000000000000000000c8
:1078c00000000000000000000000000000000000b8
:1078d00000000000000000000000000000000000a8
:1078e0000000000000000000000000000000000098
:1078f0000000000000000000000000000000000088
:107900000000000000000000000000000000000077
:107910000000000000000000000000000000000067
:107920000000000000000000000000000000000057
:107930000000000000000000000000000000000047
:10794000d402a900d422a900cac2bf004500de00ab
:107950006100600000047400cac2bf004600de007f
:1079600061006000808474000000000000000000de
:107970000000000000000000000000000000000007
:1079800000000000000000000000000000000000f7
:1079900000000000000000000000000000000000e7
:1079a00000000000000000000000000000000000d7
:1079b00000000000000000000000000000000000c7
:1079c00000000000000000000000000000000000b7
:1079d00000000000000000000000000000000000a7
:1079e0000000000000000000000000000000000097
:1079f0000000000000000000000000000000000087
:107a00000000000000000000000000000000000076
:107a10000000000000000000000000000000000066
:107a200000000000000000000804440089844400b5
:107a3000d402a800d422a80000000000000000002a
:107a40000000000000000000000000000000000036
:107a50000000000000000000000000000000000026
:107a60000000000000000000000000000000000016
:107a70000000000000000000000000000000000006
:107a800000000000000000000000000000000000f6
:107a900000000000000000000000000000000000e6
:107aa00000000000000000000000000000000000d6
:107ab00000000000000000000000000000000000c6
:107ac00000000000000000000000000000000000b6
:107ad00000000000000000000000000000000000a6
:107ae0000000000000000000000000000000000096
:107af0000000000000000000d402a900d422a90068
:107b0000cac2bf004500de006100600000047400ce
:107b1000cac2bf004600de006100600080847400bd
:107b20000000000000000000000000000000000055
:107b30000000000000000000000000000000000045
:107b40000000000000000000000000000000000035
:107b50000000000000000000000000000000000025
:107b60000000000000000000000000000000000015
:107b70000000000000000000000000000000000005
:107b800000000000000000000000000000000000f5
:107b900000000000000000000000000000000000e5
:107ba00000000000000000000000000000000000d5
:107bb00000000000000000000000000000000000c5
:107bc00000000000000000000000000000000000b5
:107bd00000000000000000000000000000000000a5
:107be0000804440089844400d402a800d422a800d8
:107bf0000000000000000000000000000000000085
:107c00000000000000000000000000000000000074
:107c10000000000000000000000000000000000064
:107c20000000000000000000000000000000000054
:107c30000000000000000000000000000000000044
:107c40000000000000000000000000000000000034
:107c50000000000000000000000000000000000024
:107c60000000000000000000000000000000000014
:107c70000000000000000000000000000000000004
:107c800000000000000000000000000000000000f4
:107c900000000000000000000000000000000000e4
:107ca00000000000000000000000000000000000d4
:107cb000d402a900d422a900cac2bf004500de0038
:107cc0006100600000047400cac2bf004600de000c
:107cd000610060008084740000000000000000006b
:107ce0000000000000000000000000000000000094
:107cf0000000000000000000000000000000000084
:107d00000000000000000000000000000000000073
:107d10000000000000000000000000000000000063
:107d20000000000000000000000000000000000053
:107d30000000000000000000000000000000000043
:107d40000000000000000000000000000000000033
:107d50000000000000000000000000000000000023
:107d60000000000000000000000000000000000013
:107d70000000000000000000000000000000000003
:107d800000000000000000000000000000000000f3
:107d90000000000000000000080444008984440042
:107da000d402a800d422a8000000000000000000b7
:107db00000000000000000000000000000000000c3
:107dc00000000000000000000000000000000000b3
:107dd00000000000000000000000000000000000a3
:107de0000000000000000000000000000000000093
:107df0000000000000000000000000000000000083
:107e00000000000000000000000000000000000072
:107e10000000000000000000000000000000000062
:107e20000000000000000000000000000000000052
:107e30000000000000000000000000000000000042
:107e40000000000000000000000000000000000032
:107e50000000000000000000000000000000000022
:107e60000000000000000000d402a900d422a900f4
:107e7000cac2bf004500de0061006000000474005b
:107e8000cac2bf004600de0061006000808474004a
:107e900000000000000000000000000000000000e2
:107ea00000000000000000000000000000000000d2
:107eb00000000000000000000000000000000000c2
:107ec00000000000000000000000000000000000b2
:107ed00000000000000000000000000000000000a2
:107ee0000000000000000000000000000000000092
:107ef0000000000000000000000000000000000082
:107f00000000000000000000000000000000000071
:107f10000000000000000000000000000000000061
:107f20000000000000000000000000000000000051
:107f30000000000000000000000000000000000041
:107f40000000000000000000000000000000000031
:107f50000804440089844400d402a800d422a80064
:107f60000000000000000000000000000000000011
:107f70000000000000000000000000000000000001
:107f800000000000000000000000000000000000f1
:107f900000000000000000000000000000000000e1
:107fa00000000000000000000000000000000000d1
:107fb00000000000000000000000000000000000c1
:107fc00000000000000000000000000000000000b1
:107fd00000000000000000000000000000000000a1
:107fe0000000000000000000000000000000000091
:107ff0000000000000000000000000000000000081
:108000000000000000000000000000000000000070
:108010000000000000000000000000000000000060
:10802000d402a900d422a900cac2bf004500de00c4
:108030006100600000017400cac2bf004600de009b
:1080400061006000808474000000000000000000f7
:108050000000000000000000000000000000000020
:108060000000000000000000000000000000000010
:108070000000000000000000000000000000000000
:1080800000000000000000000000000000000000f0
:108270000000000000000000d442a800cc62a8006a
:1082800000000000000000000000000000000000ee
:1082900000000000000000000000000000000000de
:1082a00000000000000000000000000000000000ce
:1082b00000000000000000000000000000000000be
:1082c00000000000000000000000000000000000ae
:1082d000000000000000000000000000000000009e
:1082e000000000000000000000000000000000008e
:1082f000000000000000000000000000000000007e
:10830000000000000000000000000000000000006d
:10831000000000000000000000000000000000005d
:10832000d402a900d422a900c8a2a900cea2a80004
:10833000c8c2a900cec2a80063006100e10f5000ce
:108340001f003200baeaab0017003a00b02bec0075
:1083500063806400e10f500021003200baeaab00f4
:10836000250032004248de00005e8800e05d8000ab
:108370008000400042bb2000f35d80008330790024
:10838000e4804000035e8000833079000000e80054
:10839000e10f5000010034000000eb00e05d8800b8
:1083a0004f04be00000006004210de00f05d8800b1
:1083b00063806400e10f5000e8ff3a0008003700d6
:1083c000c210de00e0fd2300808f5000ddff3e0084
:1083d000f15d880063806400e10f5000dfff3a0028
:1083e000c248de00e0fd2300808f5000dbff3e002e
:1083f000015e8800ddff3700b22bec00dbff3700a9
:10840000c3c2bf006100600000000600c004070096
:108410000000050000000600cd0bab0001003a0093
:108420000000060010c0b300acebb700425d800056
:10843000d15c8000e0a5200053010700a0ab200024
:10844000e1a5200025000900315878000000060051
:10845000889fbe001000200040f10700b055880042
:108460001000200041f10700905588000000eb004b
:108470003ef10700305588000000eb0037f107009f
:10848000a0558800300020003ceb070040558800d4
:108490002000200039eb0700505588000000eb0059
:1084a00036eb0700605588001000200033eb070012
:1084b000705588000000eb004207070080558800d7
:1084c000385780006aef07008004780071ef0700da
:1084d00009047400000474000820a000c855880036
:1084e00075ef07000000e0000600350072ef07009e
:1084f0001055880040578000205588004f04be006a
:10850000000006006cef07000000ea00105588002c
:1085100040578000205588004f04be000000060030
:10852000f8ff37000800fa00c9ff070082002000aa
:10853000019c200068805700130107004fb8970086
:10854000dfb897006fb99700ffb99700d054880043
:10855000e1548800f25488000355880021a22000cd
:10856000a2a920001f000900b2587800525d8000c7
:10857000c15c800020a22000310107000080fa00c9
:10858000000006008540a9009540a9004222ef00a6
:1085900042a2a80042c2bf00c1cfb30001406000a8
:1085a0000014a00042e2b70042c2bf0031ceb300c7
:1085b000014060008041b30042e2b70042c2a8001f
:1085c0004302a9004322a9004342a90040c2a900d6
:1085d00041e2a800d4c2a800000006000200fa0090
:1085e000881f78000040eb00c0ff9f00c8032000f8
:1085f000585d8800485d8800020220008000eb0082
:10860000a0a92000d6ea0700620220008000eb004b
:10861000a0ab2000d2ea0700080178008000eb0040
:10862000e0a52000ceea0700080178008000eb00fa
:1086300020a22000caea0700e82aef00e62aef009d
:10864000e42aef00e02aef00e22aef008540a900cb
:108650009540a9004222ef0042a2a80042c2bf00fa
:10866000c1cfb300014060000014a00042e2b70097
:1086700042c2bf0031ceb300014060008041b30070
:1086800042e2b70042c2a8004302a9004322a90067
:108690004342a90040c2a90041e2a800d4c2a800f8
:1086a0008200a8008220a8008240a800d4c2a800ae
:1086b0008400a900120020000114200064805700eb
:1086c000050107004ff89700e54f5000f9ff3a0009
:1086d000120020005100200060ba2000fe000700b8
:1086e0000000eb00c90107009400a800f803070090
:1086f0004f0478000080fa00000006003600f80001
:10870000809fbe00829fbe00849fbe00869fbe00e9
:108710000800fa00d4c2a8008400a9005d00070088
:10872000a74be20004003200ae4be20009003a0021
:10873000ad4be20015003a000080fa004f03be0086
:108740004f02be004f01be004f00be003600f900d0
:1087500000400600cd0bab00f5ff320010c0b300a7
:10876000acebb700425d8000d15c8000e0a520004a
:1087700085000700a0ab2000e1a52000250009002e
:1087800031587800ad4be200ebff320030ff0700bc
:1087900082002000019c2000688057007a000700ba
:1087a0004fb89700dfb897006fb99700ffb99700ef
:1087b000d0548800e1548800f254880003558800a2
:1087c00021a22000a2a920001f000900b2587800b1
:1087d000525d8000c15c800020a22000980007004c
:1087e0000080fa004f03be004f02be004f01be00e2
:1087f0004f00be003600f90000400600d5ff3700ec
:108800000000050000000500000005000000050054
:108810000000050000000500000005009400a9000c
:10882000d4c2a9008540a90000042000401288009d
:1088300085c0bf000028a300fdff32004012800069
:10884000ccebb7008540a90020072000401288002b
:1088500085c0bf000028a300fdff32004012800049
:10886000cdebb7008540a900f00f20004012880032
:1088700085c0bf000028a300fdff32004012800029
:10888000c2ebb7008540a900d4c2a8009400a8009c
:1088900000000600d4c2a9008540a9004822ef00cc
:1088a00085c0bf000028a300fdff320040128000f9
:1088b000ccebb7008540a9002000200040128800c2
:1088c00085c0bf000028a300fdff320040128000d9
:1088d000cdebb7008540a900d4c2a8000000060077
:1088e0004300dd008180fb0081007000d4c2a9003c
:1088f0008540a9004808de004012880085c0bf00fe
:108900000028a300fdff320040128000ccebb7002e
:108910008540a9000180fb004012880085c0bf008f
:108920000028a300fdff320040128000cdebb7000d
:108930008540a900000006004300dd008180fb00a7
:1089400081007000d4c2a9008540a9004808de005b
:108950004012880085c0bf000028a300fdff320040
:10896000401280008540a9000180fb004012880071
:1089700085c0bf000028a300fdff32004012800028
:108980008540a9000000060080017800c308dd00d2
:108990000110a000d4c2a9008540a9004808de004b
:1089a0004012880085c0bf000028a300fdff3200f0
:1089b000401280008540a9000180fb004012880021
:1089c00085c0bf000028a300fdff320040128000d8
:1089d0008540a9000200e900e10f400011003200cb
:1089e000800078000042eb000081eb000100e00015
:1089f0000f003a0000c2eb00f00f20008540a900f4
:108a00004012880085c0bf000028a300fdff32008f
:108a100040128000805978008100e900810f5100e8
:108a2000f2ff3a008540a900d4c2a8000000060069
:108a30000480fb008540a90040128800f1ff370048
:108a400080017800c308dd000120a000d4c2a90085
:108a50008540a9004808de004012880085c0bf009c
:108a60000028a300fdff3200401280008540a900cd
:108a70000180fb004012880085c0bf000028a300d1
:108a8000fdff3200401280008540a9000200e9008d
:108a9000e10f40000d003200830078000300400029
:108aa0000001e8008540a9001180fb004012880009
:108ab00085c0bf000028a300fdff320040128000e7
:108ac0008100e800810f5100f6ff3a008540a900bf
:108ad000d4c2a80000000600000278000200e900ed
:108ae000e10f40002400320000804000f50f20001c
:108af0000001e8009400a900c309dd000310a000f4
:108b0000d4c2a9008540a9004818de0040128800a0
:108b100085c0bf000028a300fdff32004012800086
:108b2000ccebb7008540a9000380fb004012880011
:108b300085c0bf000028a300fdff32004012800066
:108b4000cdebb7008540a9004512880085c0bf0065
:108b50000028a300fdff320040128000005a780078
:108b60009400a800d4c2a8008100e8008540a900b4
:108b7000828f5000dfff3a0000000600800278007c
:108b80000200e000250032000002eb009400a90082
:108b9000c309dd000320a000d4c2a9008540a900bc
:108ba0004818de004012880085c0bf000028a300de
:108bb000fdff320040128000ccebb7008540a900d9
:108bc0000380fb004012880085c0bf000028a3007e
:108bd000fdff320040128000cdebb7008540a900b8
:108be0008540a90064c07a000080fb004012880024
:108bf00085c0bf000028a300fdff320040128000a6
:108c00009400a8008100e8008540a900d4c2a80013
:108c10000402e800840f5100dcff3a000000060067
:108c20009400a900d4c2a9008540a9000004200036
:108c30004012880085c0bf000028a300fdff32005d
:108c400040128000ccebb7008540a900200720002f
:108c50004012880085c0bf000028a300fdff32003d
:108c600040128000cdebb7008540a900f00f200036
:108c70004012880085c0bf000028a300fdff32001d
:108c800040128000c2ebb7008540a900d4c2a80002
:108c90009400a800cc0bab002c0032000212200084
:108ca00006ab2000f50f2000241220009400a9003c
