:020000040000fa
:080000000018040000000000dc
:020000040000fa
:10300000efbe20000eff20000e018800000000002f
:103010000c00070060f224000100200011000700ee
:10302000000020000000e00002003200000002006a
:103030000000000078440200000000000040da00b8
:103040000000fe004440a900000020000000e00055
:103050000300320000002000a00188004440a800c6
:103060000000060091018800800078000000eb005d
:1030700015003700e280400032a0b4009101ba0090
:10308000e280400032a0b4009102ba00e280400029
:1030900032a0b4000002eb00472bde00f507b200bf
:1030a000602ce10004003a000059eb008301e900c4
:1030b000fdff3e00040037006128e10001003200fe
:1030c0000082eb00040007001101ba000200e000da
:1030d000e8ff3a00000006003159ba008301e90018
:1030e0000c0032002159ba008301e90008003200c7
:1030f0000400e00003003a00e280400032a0b40087
:10310000f5ff370011d9ba008301e900faff3a0050
:103110008100e800e180400032a0b4000000060019
:10312000020ab900001bb9000200b8008100420089
:1031300081004300000006006022b8000602200063
:103140000000d0008180d2000482d2008582d200ab
:103150000000a0000202520083825a0003003100e6
:103160000202420083824a000000a1000603e90037
:10317000f3ff3a00000006008001eb000200370078
:10318000817178008301e800828f5100fcff3a00d2
:10319000000006006011b8000002eb0005022000ec
:1031a0004600dd006182200081004000310078008f
:1031b00000014100e08149000402e800850f52004f
:1031c000faff3a004b1add004510de0000007200e5
:1031d000c598de00000006006011b8008000eb001a
:1031e000648020003400780000014100e081490043
:1031f0008100e800f08f5000faff3a004c1add0021
:103200004410de0000007200c498de0000000600da
:103210000001eb00424988003249880021e3a900ff
:1032200025c3bf0001ceb300014060005040b30091
:1032300025e3b70010c0b30024e3b70023c3bf00e9
:103240007f40600023e3b70025e3a90020c3bf004f
:103250007f4060000046b30020e3b70023c3bf00f7
:10326000c3cfb3000340600023e3b7002043a800ae
:103270002143a8002223a8002063a9002343a8001b
:1032800022c3bf00fdc0500001406000c040b30039
:1032900022e3b7003003a8003023a8003043a80081
:1032a0003063a8002c63a900621988002c03a900d0
:1032b0002c23a9002c43a9002c83a8002ca3a80030
:1032c0002cc3a8002ce3a8002d03a80021c3bf0035
:1032d0000340600021e3b70021e3a80085a0a90016
:1032e00095a0a800000006003600f800809fbe00f0
:1032f000829fbe00849fbe00869fbe00881f78000c
:1033000085a0a9002243e200080035008018800053
:10331000504988009418800064498800a0188000f3
:1033200070498800b418800007003700001880003a
:1033300050498800141880006449880020188000d3
:10334000704988003418800084498800434980000f
:1033500083804100000c20000100400062822000b8
:1033600084498000043079000008200001004000fa
:103370007449800004307900504980008030790021
:103380000104b00064498000843079000300e80043
:10339000ff0f5000010034000000eb00404988009e
:1033a0002609ec00ef0f5000010034000000eb0094
:1033b00030498800084080000804e800e40f540009
:1033c000010036000004eb00084088000800e0001f
:1033d00019003a00d462a800d462a900cd03070006
:1033e00080020700ea010700d41607000428ec0059
:1033f000025f80000201e800025f8800e055800063
:103400000100240081006000f05e8000808f500089
:1034100003003200085f880018408800050037006c
:10342000401f2000800f51000200360010002000d5
:1034300010408800f15e88004f0478004f03be0002
:103440004f02be004f01be004f00be003600f90023
:1034500000400600105f8800cbc2bf00b22c2000e5
:1034600012417800a12c200091407800c408de00b1
:10347000610060004200dd00620161000200700036
:10348000e18060000100700080004000205f880043
:103490005057880080b82000e20be20001003a009b
:1034a00080b7200061007800a00e880000000600b0
:1034b000809fbe00821f78008660a900cbc2bf003b
:1034c000b22c200012417800a12c200091407800fd
:1034d000c408de00610060004200dd00620161009e
:1034e00002007000e1806000010070008000400078
:1034f000205f880080b82000e20be20001003a0063
:1035000080b7200061007800a00e88004f0178008d
:103510004f00be0000400600e22bef00cbc2bf0010
:10352000b22c200012417800a12c2000914078009c
:10353000c408de00610060004200dd00620161003d
:1035400002007000e180600001007000205f8800d0
:103550000000400081b72000e0807800a10e8800c4
:103560006020a80062a0a80062c0a8006820a8008f
:103570006aa0a8006ac0a8008660a9009660a8009a
:1035800000000600620220000281b900c4b32000de
:1035900084014100c4ab200004014100000240004e
:1035a00086af200064007b000000e80000327b0052
:1035b000c2029000c5019800d2029000d501980087
:1035c000e2029000e5019800f2029000f5019800f7
:1035d0008212900085119800f20a9000f509980077
:1035e0008002eb00810f50004f0035000000eb001f
:1035f00000327b0093009000120090001500200024
:10360000808f50000f003200008050000082eb00dd
:103610000100330014002000048050009001980045
:1036200001d02700810f500003003c00013028002a
:10363000810f500001003d000100780090019800ca
:103640008002eb00a300900022009000808f5000c9
:103650000f003200008050000082eb0001003300b8
:103660001400200004805000a001980001d0270021
:10367000810f500003003c0001302800810f5000f2
:1036800001003d0001007800a00198008002eb00dd
:10369000b300900032009000808f50000f00320085
:1036a000008050000082eb00010033001400200075
:1036b00004805000b001980001d02700810f500015
:1036c00003003c0001302800810f500001003d0044
:1036d00001007800b00198008002eb009310900088
:1036e00012109000808f50000f00320000805000b8
:1036f0000081eb0001003300120020000280500026
:103700009011980001d02700810f500003003c0069
:1037100001302800810f500001003d0001007800b9
:10372000901198008002eb00050078000000060070
:10373000620220000281b900c4b32000840141006c
:10374000c4ab2000040141000002400085af20000e
:1037500064807a000000e80000b27a004203900022
:10376000c601980052039000d601980062039000b1
:10377000e601980062039000f601980002139000a1
:103780008611980072099000f20998000001eb0080
:10379000810f5000270035000000eb0000b27a00d6
:1037a00013009000120020000000e000060032002c
:1037b0008080eb0001003500110020000100500066
:1037c000900198000001eb00230090000000e00051
:1037d000060032008080eb0001003500110020005f
:1037e00001005000a00198000001eb0033009000a0
:1037f0000000e000060032008080eb000100350090
:103800001100200001005000b00198000001eb0001
:10381000131090000000e000060032008080eb00f2
:1038200001003500110020000100500090119800a7
:103830000001eb000200780000000600889fbe0037
:10384000800478006002200000c8b900c2b32000e4
:10385000000141000004eb001801980028019800c5
:1038600038019800181198007801980048019800d4
:10387000580198006801980008119800c248dd00be
:1038800000af2000008040006011b8000288be0038
:1038900040af2000808040008288be004648dd00a6
:1038a000c1af200001004000020420008800780021
:1038b00031fe070089804400e0ae200088307800a7
:1038c000c0ae20008830780080af200088307800bb
:1038d0004f04be00000006000000eb00d057880037
:1038e000d6ff37006a143700ea874700889fbe007a
:1038f0008a9fbe008c9fbe008e1f78000006780055
:10390000810178006002200000e0b900c2b320000d
:1039100002054000c2ab2000020740001e0c9000d0
:10392000888f510005003c002e08900003047800a9
:10393000808f510001003d00000478009e00780057
:1039400062806000030032000000eb005d1507009c
:10395000010037007515070080067800000154004b
:10396000325b88004a0090000090de009a009000d0
:103970000182b900d4b79f00e5b79f00c260dd00a7
:1039800040b72000008040000488be0040af200007
:1039900080804000cf91de0031034100a1834900c7
:1039a0007a0090006102b900840f5300858f5b009c
:1039b00007003c000000ea006101b9000602be00f9
:1039c000820f5300838f5b0001003d000202be00a6
:1039d000c265dd0040af2000008045000488be00c5
:1039e0002a009000cf80de005a0190000201e90019
:1039f000030033008582d1000482d300fbff37002f
:103a00000401be00c6fd0700f0b79f0081bf9f0004
:103a100000b72000008045007fb497008fbc97005e
:103a20000888be008c044600c0ae200069047800ff
:103a300006af2000068345004562dd000802420013
:103a400004024200c7af200064817b00cf91de00fa
:103a500036001100a68019000001be00e5ae20006e
:103a600069807a000080560000b27b008db47a0035
:103a7000cf80de000201400083814800028bbe003f
:103a80000800e800ff0f5000010034000000eb00c8
:103a9000c1ae200080b478003a009000cf80de00f4
:103aa0009ffd07000001be006a0090000000e900d1
:103ab000030033008381d1000281d300fbff370074
:103ac000c0b62000008045000288be0080b62000fd
:103ad00000834500000beb00361378000000210046
:103ae0001e006000030032001a109000cf80de003c
:103af000008bbe005fb29700efb297007fb49700d3
:103b00008fbc97000400440085804c0000004100f9
:103b10008180490036014000a6814800125b880080
:103b2000235b88000200be00c27d2000030020004d
:103b3000c47d2000840f5000e08f580009003c0035
:103b4000105b8000215b800002812f00f3ff2f00bb
:103b5000820f5000838f580002003500125b8000f6
:103b6000235b8000125b8800235b88008200780062
:103b70000c0078005bff07004f0778004f06be007f
:103b80004f05be004f04be00af00b10000000600ac
:103b9000889fbe008a1f78000208e2000100320000
:103ba000fa2aef0099568000f90fb2006a56800099
:103bb000d8578000e20f54002400320005003c007a
:103bc0000800e00009003200e10f540040003a0014
:103bd00018003700e40f5400260032003100350091
:103be000e60f54003a003a003500370088007800ac
:103bf000080078003bff0700e18f540002003a0004
:103c0000d957880034003700e28f540002003a0090
:103c1000d957880004003700e38f54002e003a0083
:103c200060002000d05788000800780003ff0700dc
:103c3000290037008a0078000000eb0029ff070008
:103c4000e18f5400240032001f003700e28f54003f
:103c50001d003a00a10f20000000eb0049fe070004
:103c60000000e0000b00320040002000d057880028
:103c700008003700e28f54000300320030002000bb
:103c8000d057880014003700a10f20000000eb007f
:103c90003cfe07008a0078000000eb0012ff0700de
:103ca0000d003700a10f20000000eb00a0fe070070
:103cb0000000e00006003200fa2aef00040037009e
:103cc000e38f540002003200fa2aef0002003700ae
:103cd0006000b80003ff07004f0578004f04be00e6
:103ce0000000060000000600a0498000010220003c
:103cf0000000e00001003a00800078000100780038
:103d000000000600b0498000010120000000e00032
:103d100001003a00800078000100780000000600f1
:103d20000051800000000600704a8000814a800037
:103d300000000600904a8000a14a800000000600b2
:103d4000c04980000000060080017800020278006f
:103d50000000e00001003a00000006004308dd001a
:103d6000110009000380d8000020b8004d09dd00d3
:103d70004300de0000007100c308de000000060002
:103d8000881f78000004eb00d84988006000b80064
:103d9000f0498800014a8800904a8800a14a8800ba
:103da000384a8800e8498800104a8800214a88007b
:103db000704a8800814a8800484a8800020420002e
:103dc00088007800a09d2000ebfc0700020820007e
:103dd00088007800a0952000e7fc07004f047800d9
:103de00000000600881f7800d0508000f00f5000bf
:103df00027003c001a0ae20025003400c049800078
:103e00000000e00022003a00c84a8000e1fc070000
:103e100000044400c84a8800b84a8000100020000e
:103e2000dcfc070000044400b84a8800d25080003f
:103e3000e10f510016003a00c04a80004400de0045
:103e4000f0508800b04a80004400de00e050880056
:103e5000f150800020702000808f50000700360055
:103e6000f1508000e018b000808f500003003e0049
:103e7000c249880092498800050037003829ef00c0
:103e80005829ef005629ef0040062000d050880046
:103e90001a0aed008000eb0002003300d1508000d0
:103ea0008100e900d1508800d05780000000e00078
:103eb00002003200e50f500004003a003209e2002f
:103ec0000200320040002000c0498800c049800044
:103ed000e40f500012003a000000eb00adfc0700b8
:103ee000f050880010002000aafc0700e050880075
:103ef000f150800020702000808f500006003600b6
:103f0000f1508000e018b000808f500002003e00a9
:103f1000100020000100370040002000c049880048
:103f2000c0498000e10f500090003a000000eb0013
:103f300098fc070080007800f0508000008050005e
:103f40006d00b90000518800d05780000000e000eb
:103f500002003200e50f500001003a00202aef0075
:103f6000414a80008100e8000001eb00700f200052
:103f7000808f500002003c00424a80000201e800ad
:103f8000424a8800414a80000100e00039003a00be
:103f90003c09ec00ef0f50000200340001007800f3
:103fa000010037003c09ec00e0498800e34980004b
:103fb00000518000025180000280b900c219dd006a
:103fc000a29d2000828141008089be004229ef002d
:103fd0004429ef008001eb00104a8000214a800054
:103fe00032024000b2824800144a8800254a880004
:103ff0008301e800f08f5100f7ff3a00104a80007b
:10400000214a8000cc0add004400de0000807200fe
:10401000c488de00704a8800814a88003409e200c2
:1040200014003a00724a8000834a80000040280051
:10403000717d2100800f5100818f59000d003400e7
:104040000151800000e22400808f500004003c00f9
:1040500001518000001e2b00808f500005003d00a4
:1040600020002000c049880010002000a0498800de
:1040700043ff0700314a80008100e8000001eb00a7
:10408000f0262000808f500002003c00324a800061
:104090000201e800324a8800314a80000100e00055
:1040a00024003a003a09ec00ff0f500002003400ef
:1040b00001007800010037003a09ec00d04988007f
:1040c000d349800000518000025180000280b90075
:1040d000c219dd00a2952000828141008089be00c6
:1040e0003e29ef004029ef008001eb000402200090
:1040f000f0498000014a800032034000b28348004a
:10410000f6498800074a88008301e800848f51003f
:10411000f7ff3a00f0498000014a8000cb0bdd0038
:104120004500de0000807300c588de00904a8800ec
:10413000a14a88003609e2000c003a00924a800049
:10414000a34a800000292700e1442000800f51008d
:10415000818f59000500340030002000c0498800dc
:1041600010002000b049880005ff07004f047800c8
:1041700000000600881f78000004eb00085188004a
:10418000f8508800e8508800a00f2000d050880028
:10419000c84a8800b84a8800d84988006000b8003a
:1041a000f0498800014a8800904a8800a14a8800a6
:1041b000384a8800b8498800a8498800e84988003a
:1041c000104a8800214a8800704a8800814a880085
:1041d000484a8800c8498800020420008800780006
:1041e000a09d2000e4fb0700020820008800780062
:1041f000a0952000e0fb07004f04780000000600b7
:1042000000000600c4c2bf004400de006100600080
:104210000004a2004400dd00412c20009140780001
:104220000144a10080c0700001007800c4e2b70022
:10423000000006000000400021bb200060807800e4
:10424000000006004200dd0061bb200001024000ca
:104250006011b8008000eb003400780000014100dc
:10426000e08149008100e800e28f5000faff3a0047
:104270008380d1000280d300000006000001780096
:1042800063806000e10f500004003a00c209de00c4
:10429000e0fd2300808f51000b0036000201410039
:1042a000bceaab0004003200c208de0000bc200003
:1042b000013178000000060020bb20000000410012
:1042c0001008e800000006008200410000bc200049
:1042d0008330780000000600d442a8000000eb0004
:1042e00003bc20008000780022bb200001b07900d0
:1042f000013079000080e800e40f5000fbff3a0035
:10430000000006000000400001bc20006080780032
:1043100000000600881f7800c8a2a900cea2a8004d
:10432000d442a900d402a90000000000000000004f
:10433000000000000000000000000000000000007d
:10434000000000000000000000000000000000006d
:10435000000000000000000000000000000000005d
:10436000000000000000000000000000000000004d
:10437000000000000000000000000000000000003d
:10438000000000000000000000000000000000002d
:10439000000000000000000000000000000000001d
:1043a000000000000000000000000000000000000d
:1043b00000000000000000000000000000000000fd
:1043c00000000000000000000000000000000000ed
:1043d00000000000000000000000000000000000dd
:1043e00000000000000000000000000000000000cd
:1043f00000000000000000000000000000000000bd
:1044000000000000000000000000000000000000ac
:10441000000000000000000000000000000000009c
:10442000000000000000000000000000000000008c
:10443000000000000000000000000000000000007c
:10444000000000000000000000000000000000006c
:10445000000000000000000000000000000000005c
:10446000000000000000000000000000000000004c
:10447000000000000000000000000000000000003c
:10448000000000000000000000000000000000002c
:104490000000000000000000d402a800cca2a80088
:1044a000000000000000000000000000000000000c
:1044b00000000000000000000000000000000000fc
:1044c00000000000000000000000000000000000ec
:1044d00000000000000000000000000000000000dc
:1044e00000000000000000000000000000000000cc
:1044f00000000000000000000000000000000000bc
:1045000000000000000000000000000000000000ab
:10451000000000000000000000000000000000009b
:10452000000000000000000000000000000000008b
:10453000000000000000000000000000000000007b
:10454000000000000000000000000000000000006b
:10455000000000000000000000000000000000005b
:10456000d402a900000000000000000000000000cc
:10457000000000000000000000000000000000003b
:10458000000000000000000000000000000000002b
:10459000000000000000000000000000000000001b
:1045a000000000000000000000000000000000000b
:1045b00000000000000000000000000000000000fb
:1045c00000000000000000000000000000000000eb
:1045d00000000000000000000000000000000000db
:1045e00000000000000000000000000000000000cb
:1045f00000000000000000000000000000000000bb
:1046000000000000000000000000000000000000aa
:10461000000000000000000000000000000000009a
:1046200000000000d402a800cca2a90000000000f5
:10463000000000000000000000000000000000007a
:10464000000000000000000000000000000000006a
:10465000000000000000000000000000000000005a
:10466000000000000000000000000000000000004a
:10467000000000000000000000000000000000003a
:10468000000000000000000000000000000000002a
:10469000000000000000000000000000000000001a
:1046a000000000000000000000000000000000000a
:1046b00000000000000000000000000000000000fa
:1046c00000000000000000000000000000000000ea
:1046d00000000000000000000000000000000000da
:1046e000000000000000000000000000d402a9004b
:1046f00000000000000000000000000000000000ba
:1047000000000000000000000000000000000000a9
:104710000000000000000000000000000000000099
:104720000000000000000000000000000000000089
:104730000000000000000000000000000000000079
:104740000000000000000000000000000000000069
:104750000000000000000000000000000000000059
:104760000000000000000000000000000000000049
:104770000000000000000000000000000000000039
:104780000000000000000000000000000000000029
:104790000000000000000000000000000000000019
:1047a0000000000000000000000000000000000009
:1047b000d402a800cca2a800000000000000000065
:1047c00000000000000000000000000000000000e9
:1047d00000000000000000000000000000000000d9
:1047e00000000000000000000000000000000000c9
:1047f00000000000000000000000000000000000b9
:1048000000000000000000000000000000000000a8
:104810000000000000000000000000000000000098
:104820000000000000000000000000000000000088
:104830000000000000000000000000000000000078
:104840000000000000000000000000000000000068
:104850000000000000000000000000000000000058
:104860000000000000000000000000000000000048
:104870000000000000000000d402a90000000000b9
:104880000000000000000000000000000000000028
:104890000000000000000000000000000000000018
:1048a0000000000000000000000000000000000008
:1048b00000000000000000000000000000000000f8
:1048c00000000000000000000000000000000000e8
:1048d00000000000000000000000000000000000d8
:1048e00000000000000000000000000000000000c8
:1048f00000000000000000000000000000000000b8
:1049000000000000000000000000000000000000a7
:104910000000000000000000000000000000000097
:104920000000000000000000000000000000000087
:10493000000000000000000000000000d402a800f9
:10494000cca2a90000000000000000000000000050
:104950000000000000000000000000000000000057
:104960000000000000000000000000000000000047
:104970000000000000000000000000000000000037
:104980000000000000000000000000000000000027
:104990000000000000000000000000000000000017
:1049a0000000000000000000000000000000000007
:1049b00000000000000000000000000000000000f7
:1049c00000000000000000000000000000000000e7
:1049d00000000000000000000000000000000000d7
:1049e00000000000000000000000000000000000c7
:1049f00000000000000000000000000000000000b7
:104a000000000000d402a900000000000000000027
:104a10000000000000000000000000000000000096
:104a20000000000000000000000000000000000086
:104a30000000000000000000000000000000000076
:104a40000000000000000000000000000000000066
:104a50000000000000000000000000000000000056
:104a60000000000000000000000000000000000046
:104a70000000000000000000000000000000000036
:104a80000000000000000000000000000000000026
:104a90000000000000000000000000000000000016
:104aa0000000000000000000000000000000000006
:104ab00000000000000000000000000000000000f6
:104ac0000000000000000000d402a800cca2a80052
:104ad00000000000000000000000000000000000d6
:104ae00000000000000000000000000000000000c6
:104af00000000000000000000000000000000000b6
:104b000000000000000000000000000000000000a5
:104b10000000000000000000000000000000000095
:104b20000000000000000000000000000000000085
:104b30000000000000000000000000000000000075
:104b40000000000000000000000000000000000065
:104b50000000000000000000000000000000000055
:104b60000000000000000000000000000000000045
:104b70000000000000000000000000000000000035
:104b80000000000000000000000000000000000025
:104b9000d402a90000000000000000000000000096
:104ba0000000000000000000000000000000000005
:104bb00000000000000000000000000000000000f5
:104bc00000000000000000000000000000000000e5
:104bd00000000000000000000000000000000000d5
:104be00000000000000000000000000000000000c5
:104bf00000000000000000000000000000000000b5
:104c000000000000000000000000000000000000a4
:104c10000000000000000000000000000000000094
:104c20000000000000000000000000000000000084
:104c30000000000000000000000000000000000074
:104c40000000000000000000000000000000000064
:104c500000000000d402a800cca2a90000000000bf
:104c60000000000000000000000000000000000044
:104c70000000000000000000000000000000000034
:104c80000000000000000000000000000000000024
:104c90000000000000000000000000000000000014
:104ca0000000000000000000000000000000000004
:104cb00000000000000000000000000000000000f4
:104cc00000000000000000000000000000000000e4
:104cd00000000000000000000000000000000000d4
:104ce00000000000000000000000000000000000c4
:104cf00000000000000000000000000000000000b4
:104d000000000000000000000000000000000000a3
:104d1000000000000000000000000000d402a90014
:104d20000000000000000000000000000000000083
:104d30000000000000000000000000000000000073
:104d40000000000000000000000000000000000063
:104d50000000000000000000000000000000000053
:104d60000000000000000000000000000000000043
:104d70000000000000000000000000000000000033
:104d80000000000000000000000000000000000023
:104d90000000000000000000000000000000000013
:104da0000000000000000000000000000000000003
:104db00000000000000000000000000000000000f3
:104dc00000000000000000000000000000000000e3
:104dd00000000000000000000000000000000000d3
:104de000d402a800cca2a80000000000000000002f
:104df00000000000000000000000000000000000b3
:104e000000000000000000000000000000000000a2
:104e10000000000000000000000000000000000092
:104e20000000000000000000000000000000000082
:104e30000000000000000000000000000000000072
:104e40000000000000000000000000000000000062
:104e50000000000000000000000000000000000052
:104e60000000000000000000000000000000000042
:104e70000000000000000000000000000000000032
:104e80000000000000000000000000000000000022
:104e90000000000000000000000000000000000012
:104ea0000000000000000000d402a9000000000083
:104eb00000000000000000000000000000000000f2
:104ec00000000000000000000000000000000000e2
:104ed00000000000000000000000000000000000d2
:104ee00000000000000000000000000000000000c2
:104ef00000000000000000000000000000000000b2
:104f000000000000000000000000000000000000a1
:104f10000000000000000000000000000000000091
:104f20000000000000000000000000000000000081
:104f30000000000000000000000000000000000071
:104f40000000000000000000000000000000000061
:104f50000000000000000000000000000000000051
:104f6000000000000000000000000000d402a800c3
:104f7000cca2a9000000000000000000000000001a
:104f80000000000000000000000000000000000021
:104f90000000000000000000000000000000000011
:104fa0000000000000000000000000000000000001
:104fb00000000000000000000000000000000000f1
:104fc00000000000000000000000000000000000e1
:104fd00000000000000000000000000000000000d1
:104fe00000000000000000000000000000000000c1
:104ff00000000000000000000000000000000000b1
:1050000000000000000000000000000000000000a0
:105010000000000000000000000000000000000090
:105020000000000000000000000000000000000080
:1050300000000000d402a9000000000000000000f1
:105040000000000000000000000000000000000060
:105050000000000000000000000000000000000050
:105060000000000000000000000000000000000040
:105070000000000000000000000000000000000030
:105080000000000000000000000000000000000020
:105090000000000000000000000000000000000010
:1050a0000000000000000000000000000000000000
:1050b00000000000000000000000000000000000f0
:1050c00000000000000000000000000000000000e0
:1050d00000000000000000000000000000000000d0
:1050e00000000000000000000000000000000000c0
:1050f0000000000000000000d0002000560f070054
:10510000d402a800cca2a80000000000000000000b
:10511000000000000000000000000000000000008f
:10512000000000000000000000000000000000007f
:10513000000000000000000000000000000000006f
:10514000000000000000000000000000000000005f
:10515000000000000000000000000000000000004f
:10516000000000000000000000000000000000003f
:10517000000000000000000000000000000000002f
:10518000000000000000000000000000000000001f
:10519000000000000000000000000000000000000f
:1051a00000000000000000000000000000000000ff
:1051b00000000000000000000000000000000000ef
:1051c0000000000000000000d402a9000000000060
:1051d00000000000000000000000000000000000cf
:1051e00000000000000000000000000000000000bf
:1051f00000000000000000000000000000000000af
:10520000000000000000000000000000000000009e
:10521000000000000000000000000000000000008e
:10522000000000000000000000000000000000007e
:10523000000000000000000000000000000000006e
:10524000000000000000000000000000000000005e
:10525000000000000000000000000000000000004e
:10526000000000000000000000000000000000003e
:10527000000000000000000000000000000000002e
:10528000000000000000000000000000d402a800a0
:10529000cca2a800000000000000000000000000f8
:1052a00000000000000000000000000000000000fe
:1052b00000000000000000000000000000000000ee
:1052c00000000000000000000000000000000000de
:1052d00000000000000000000000000000000000ce
:1052e00000000000000000000000000000000000be
:1052f00000000000000000000000000000000000ae
:10530000000000000000000000000000000000009d
:10531000000000000000000000000000000000008d
:10532000000000000000000000000000000000007d
:10533000000000000000000000000000000000006d
:10534000000000000000000000000000000000005d
:1053500000000000d402a9000000000000000000ce
:10536000000000000000000000000000000000003d
:10537000000000000000000000000000000000002d
:10538000000000000000000000000000000000001d
:10539000000000000000000000000000000000000d
:1053a00000000000000000000000000000000000fd
:1053b00000000000000000000000000000000000ed
:1053c00000000000000000000000000000000000dd
:1053d00000000000000000000000000000000000cd
:1053e00000000000000000000000000000000000bd
:1053f00000000000000000000000000000000000ad
:10540000000000000000000000000000000000009c
:105410000000000000000000d402a800cca2a800f8
:10542000000000000000000000000000000000007c
:10543000000000000000000000000000000000006c
:10544000000000000000000000000000000000005c
:10545000000000000000000000000000000000004c
:10546000000000000000000000000000000000003c
:10547000000000000000000000000000000000002c
:10548000000000000000000000000000000000001c
:10549000000000000000000000000000000000000c
:1054a00000000000000000000000000000000000fc
:1054b00000000000000000000000000000000000ec
:1054c00000000000000000000000000000000000dc
:1054d00000000000000000000000000000000000cc
:1054e000d402a9000000000000000000000000003d
:1054f00000000000000000000000000000000000ac
:10550000000000000000000000000000000000009b
:10551000000000000000000000000000000000008b
:10552000000000000000000000000000000000007b
:10553000000000000000000000000000000000006b
:10554000000000000000000000000000000000005b
:10555000000000000000000000000000000000004b
:10556000000000000000000000000000000000003b
:10557000000000000000000000000000000000002b
:10558000000000000000000000000000000000001b
:10559000000000000000000000000000000000000b
:1055a00000000000d402a800cca2a8000000000067
:1055b00000000000000000000000000000000000eb
:1055c00000000000000000000000000000000000db
:1055d00000000000000000000000000000000000cb
:1055e00000000000000000000000000000000000bb
:1055f00000000000000000000000000000000000ab
:10560000000000000000000000000000000000009a
:10561000000000000000000000000000000000008a
:10562000000000000000000000000000000000007a
:10563000000000000000000000000000000000006a
:10564000000000000000000000000000000000005a
:10565000000000000000000000000000000000004a
:10566000000000000000000000000000d402a900bb
:10567000000000000000000000000000000000002a
:10568000000000000000000000000000000000001a
:10569000000000000000000000000000000000000a
:1056a00000000000000000000000000000000000fa
:1056b00000000000000000000000000000000000ea
:1056c00000000000000000000000000000000000da
:1056d00000000000000000000000000000000000ca
:1056e00000000000000000000000000000000000ba
:1056f00000000000000000000000000000000000aa
:105700000000000000000000000000000000000099
:105710000000000000000000000000000000000089
:105720000000000000000000000000000000000079
:10573000d402a800cca2a8000000000000000000d5
:105740000000000000000000000000000000000059
:105750000000000000000000000000000000000049
:105760000000000000000000000000000000000039
:105770000000000000000000000000000000000029
:105780000000000000000000000000000000000019
:105790000000000000000000000000000000000009
:1057a00000000000000000000000000000000000f9
:1057b00000000000000000000000000000000000e9
:1057c00000000000000000000000000000000000d9
:1057d00000000000000000000000000000000000c9
:1057e00000000000000000000000000000000000b9
:1057f0000000000000000000d402a900000000002a
:105800000000000000000000000000000000000098
:105810000000000000000000000000000000000088
:105820000000000000000000000000000000000078
:105830000000000000000000000000000000000068
:105840000000000000000000000000000000000058
:105850000000000000000000000000000000000048
:105860000000000000000000000000000000000038
:105870000000000000000000000000000000000028
:105880000000000000000000000000000000000018
:105890000000000000000000000000000000000008
:1058a00000000000000000000000000000000000f8
:1058b000000000000000000000000000d402a8006a
:1058c000cca2a800000000000000000000000000c2
:1058d00000000000000000000000000000000000c8
:1058e00000000000000000000000000000000000b8
:1058f00000000000000000000000000000000000a8
:105900000000000000000000000000000000000097
:105910000000000000000000000000000000000087
:105920000000000000000000000000000000000077
:105930000000000000000000000000000000000067
:105940000000000000000000000000000000000057
:105950000000000000000000000000000000000047
:105960000000000000000000000000000000000037
:105970000000000000000000000000000000000027
:1059800000000000d402a900000000000000000098
:105990000000000000000000000000000000000007
:1059a00000000000000000000000000000000000f7
:1059b00000000000000000000000000000000000e7
:1059c00000000000000000000000000000000000d7
:1059d00000000000000000000000000000000000c7
:1059e00000000000000000000000000000000000b7
:1059f00000000000000000000000000000000000a7
:105a00000000000000000000000000000000000096
:105a10000000000000000000000000000000000086
:105a20000000000000000000000000000000000076
:105a30000000000000000000000000000000000066
:105a40000000000000000000d402a800cca2a800c2
:105a50000000000000000000000000000000000046
:105a60000000000000000000000000000000000036
:105a70000000000000000000000000000000000026
:105a80000000000000000000000000000000000016
:105a90000000000000000000000000000000000006
:105aa00000000000000000000000000000000000f6
:105ab00000000000000000000000000000000000e6
:105ac00000000000000000000000000000000000d6
:105ad00000000000000000000000000000000000c6
:105ae00000000000000000000000000000000000b6
:105af00000000000000000000000000000000000a6
:105b00000000000000000000000000000000000095
:105b1000d402a90000000000000000000000000006
:105b20000000000000000000000000000000000075
:105b30000000000000000000000000000000000065
:105b40000000000000000000000000000000000055
:105b50000000000000000000000000000000000045
:105b60000000000000000000000000000000000035
:105b70000000000000000000000000000000000025
:105b80000000000000000000000000000000000015
:105b90000000000000000000000000000000000005
:105ba00000000000000000000000000000000000f5
:105bb00000000000000000000000000000000000e5
:105bc00000000000000000000000000000000000d5
:105bd00000000000d402a800cca2a8000000000031
:105be00000000000000000000000000000000000b5
:105bf00000000000000000000000000000000000a5
:105c00000000000000000000000000000000000094
:105c10000000000000000000000000000000000084
:105c20000000000000000000000000000000000074
:105c30000000000000000000000000000000000064
:105c40000000000000000000000000000000000054
:105c50000000000000000000000000000000000044
:105c60000000000000000000000000000000000034
:105c70000000000000000000000000000000000024
:105c80000000000000000000000000000000000014
:105c9000000000000000000000000000d402a90085
:105ca00000000000000000000000000000000000f4
:105cb00000000000000000000000000000000000e4
:105cc00000000000000000000000000000000000d4
:105cd00000000000000000000000000000000000c4
:105ce00000000000000000000000000000000000b4
:105cf00000000000000000000000000000000000a4
:105d00000000000000000000000000000000000093
:105d10000000000000000000000000000000000083
:105d20000000000000000000000000000000000073
:105d30000000000000000000000000000000000063
:105d40000000000000000000000000000000000053
:105d50000000000000000000000000000000000043
:105d6000800020003c0c0700c8a2a800cea2a90019
:105d700080002000380c0700d402a80000000000ba
:105d80000000000000000000000000000000000013
:105d90000000000000000000000000000000000003
:105da00000000000000000000000000000000000f3
:105db00000000000000000000000000000000000e3
:105dc00000000000000000000000000000000000d3
:105dd00000000000000000000000000000000000c3
:105de00000000000000000000000000000000000b3
:105df00000000000000000000000000000000000a3
:105e00000000000000000000000000000000000092
:105e10000000000000000000000000000000000082
:105e20000000000000000000000000000000000072
:105e3000000000000000000000000000d402a900e3
:105e4000cac2bf004500de00610060000000000023
:105e50000000000000000000000000000000000042
:105e60000000000000000000000000000000000032
:105e70000000000000000000000000000000000022
:105e80000000000000000000000000000000000012
:105e90000000000000000000000000000000000002
:105ea00000000000000000000000000000000000f2
:105eb00000000000000000000000000000000000e2
:105ec00000000000000000000000000000000000d2
:105ed00000000000000000000000000000000000c2
:105ee00000000000000000000000000000000000b2
:105ef00000000000000000000000000000000000a2
:105f00000000000000000000000000000080fb0016
:105f100080004000d402a800000000000000000043
:105f20000000000000000000000000000000000071
:105f30000000000000000000000000000000000061
:105f40000000000000000000000000000000000051
:105f50000000000000000000000000000000000041
:105f60000000000000000000000000000000000031
:105f70000000000000000000000000000000000021
:105f80000000000000000000000000000000000011
:105f90000000000000000000000000000000000001
:105fa00000000000000000000000000000000000f1
:105fb00000000000000000000000000000000000e1
:105fc00000000000000000000000000000000000d1
:105fd0000000000000000000d402a900cac2bf00f7
:105fe0004500de00610060000080700000000000dd
:105ff00000000000000000000000000000000000a1
:106000000000000000000000000000000000000090
:106010000000000000000000000000000000000080
:106020000000000000000000000000000000000070
:106030000000000000000000000000000000000060
:106040000000000000000000000000000000000050
:106050000000000000000000000000000000000040
:106060000000000000000000000000000000000030
:106070000000000000000000000000000000000020
:106080000000000000000000000000000000000010
:106090000000000000000000000000000000000000
:1060a0000000000000000000000000008000400030
:1060b000d402a80000000000000000000000000062
:1060c00000000000000000000000000000000000d0
:1060d00000000000000000000000000000000000c0
:1060e00000000000000000000000000000000000b0
:1060f00000000000000000000000000000000000a0
:10610000000000000000000000000000000000008f
:10611000000000000000000000000000000000007f
:10612000000000000000000000000000000000006f
:10613000000000000000000000000000000000005f
:10614000000000000000000000000000000000004f
:10615000000000000000000000000000000000003f
:10616000000000000000000000000000000000002f
:1061700000000000d402a900cac2bf004500de0032
:10618000610060000080700000000000000000005e
:1061900000000000000000000000000000000000ff
:1061a00000000000000000000000000000000000ef
:1061b00000000000000000000000000000000000df
:1061c00000000000000000000000000000000000cf
:1061d00000000000000000000000000000000000bf
:1061e00000000000000000000000000000000000af
:1061f000000000000000000000000000000000009f
:10620000000000000000000000000000000000008e
:10621000000000000000000000000000000000007e
:10622000000000000000000000000000000000006e
:10623000000000000000000000000000000000005e
:10624000000000000000000080004000d402a80010
:10625000000000000000000000000000000000003e
:10626000000000000000000000000000000000002e
:10627000000000000000000000000000000000001e
:10628000000000000000000000000000000000000e
:1062900000000000000000000000000000000000fe
:1062a00000000000000000000000000000000000ee
:1062b00000000000000000000000000000000000de
:1062c00000000000000000000000000000000000ce
:1062d00000000000000000000000000000000000be
:1062e00000000000000000000000000000000000ae
:1062f000000000000000000000000000000000009e
:10630000000000000000000000000000000000008d
:10631000d402a900cac2bf004500de0061006000cf
:10632000008070000000000000000000000000007d
:10633000000000000000000000000000000000005d
:10634000000000000000000000000000000000004d
:10635000000000000000000000000000000000003d
:10636000000000000000000000000000000000002d
:10637000000000000000000000000000000000001d
:10638000000000000000000000000000000000000d
:1063900000000000000000000000000000000000fd
:1063a00000000000000000000000000000000000ed
:1063b00000000000000000000000000000000000dd
:1063c00000000000000000000000000000000000cd
:1063d00000000000000000000000000000000000bd
:1063e0000000000080004000d402a800000000006f
:1063f000000000000000000000000000000000009d
:10640000000000000000000000000000000000008c
:10641000000000000000000000000000000000007c
:10642000000000000000000000000000000000006c
:10643000000000000000000000000000000000005c
:10644000000000000000000000000000000000004c
:10645000000000000000000000000000000000003c
:10646000000000000000000000000000000000002c
:10647000000000000000000000000000000000001c
:10648000000000000000000000000000000000000c
:1064900000000000000000000000000000000000fc
:1064a000000000000000000000000000d402a9006d
:1064b000cac2bf004500de006100600000807000bd
:1064c00000000000000000000000000000000000cc
:1064d00000000000000000000000000000000000bc
:1064e00000000000000000000000000000000000ac
:1064f000000000000000000000000000000000009c
:10650000000000000000000000000000000000008b
:10651000000000000000000000000000000000007b
:10652000000000000000000000000000000000006b
:10653000000000000000000000000000000000005b
:10654000000000000000000000000000000000004b
:10655000000000000000000000000000000000003b
:10656000000000000000000000000000000000002b
:10657000000000000000000000000000000000001b
:1065800080004000d402a8000000000000000000cd
:1065900000000000000000000000000000000000fb
:1065a00000000000000000000000000000000000eb
:1065b00000000000000000000000000000000000db
:1065c00000000000000000000000000000000000cb
:1065d00000000000000000000000000000000000bb
:1065e00000000000000000000000000000000000ab
:1065f000000000000000000000000000000000009b
:10660000000000000000000000000000000000008a
:10661000000000000000000000000000000000007a
:10662000000000000000000000000000000000006a
:10663000000000000000000000000000000000005a
:106640000000000000000000d402a900cac2bf0080
:106650004500de0061006000008070000000000066
:10666000000000000000000000000000000000002a
:10667000000000000000000000000000000000001a
:10668000000000000000000000000000000000000a
:1066900000000000000000000000000000000000fa
:1066a00000000000000000000000000000000000ea
:1066b00000000000000000000000000000000000da
:1066c00000000000000000000000000000000000ca
:1066d00000000000000000000000000000000000ba
:1066e00000000000000000000000000000000000aa
:1066f000000000000000000000000000000000009a
:106700000000000000000000000000000000000089
:1067100000000000000000000000000080004000b9
:10672000d402a800000000000000000000000000eb
:106730000000000000000000000000000000000059
:106740000000000000000000000000000000000049
:106750000000000000000000000000000000000039
:106760000000000000000000000000000000000029
:106770000000000000000000000000000000000019
:106780000000000000000000000000000000000009
:1067900000000000000000000000000000000000f9
:1067a00000000000000000000000000000000000e9
:1067b00000000000000000000000000000000000d9
:1067c00000000000000000000000000000000000c9
:1067d00000000000000000000000000000000000b9
:1067e00000000000d402a900cac2bf004500de00bc
:1067f00061006000008070000000000000000000e8
:106800000000000000000000000000000000000088
:106810000000000000000000000000000000000078
:106820000000000000000000000000000000000068
:106830000000000000000000000000000000000058
:106840000000000000000000000000000000000048
:106850000000000000000000000000000000000038
:106860000000000000000000000000000000000028
:106870000000000000000000000000000000000018
:106880000000000000000000000000000000000008
:1068900000000000000000000000000000000000f8
:1068a00000000000000000000000000000000000e8
:1068b000000000000000000080004000d402a8009a
:1068c00000000000000000000000000000000000c8
:1068d00000000000000000000000000000000000b8
:1068e00000000000000000000000000000000000a8
:1068f0000000000000000000000000000000000098
:106900000000000000000000000000000000000087
:106910000000000000000000000000000000000077
:106920000000000000000000000000000000000067
:106930000000000000000000000000000000000057
:106940000000000000000000000000000000000047
:106950000000000000000000000000000000000037
:106960000000000000000000000000000000000027
:106970000000000000000000000000000000000017
:10698000d402a900cac2bf004500de006100600059
:106990000080700000000000000000000000000007
:1069a00000000000000000000000000000000000e7
:1069b00000000000000000000000000000000000d7
:1069c00000000000000000000000000000000000c7
:1069d00000000000000000000000000000000000b7
:1069e00000000000000000000000000000000000a7
:1069f0000000000000000000000000000000000097
:106a00000000000000000000000000000000000086
:106a10000000000000000000000000000000000076
:106a20000000000000000000000000000000000066
:106a30000000000000000000000000000000000056
:106a40000000000000000000000000000000000046
:106a50000000000000044000d0002000fe080700f5
:106a6000d402a800000000000000000000000000a8
:106a70000000000000000000000000000000000016
:106a80000000000000000000000000000000000006
:106a900000000000000000000000000000000000f6
:106aa00000000000000000000000000000000000e6
:106ab00000000000000000000000000000000000d6
:106ac00000000000000000000000000000000000c6
:106ad00000000000000000000000000000000000b6
:106ae00000000000000000000000000000000000a6
:106af0000000000000000000000000000000000096
:106b00000000000000000000000000000000000085
:106b10000000000000000000000000000000000075
:106b200000000000d402a900cac2bf004500de0078
:106b30006100600000007400000000000000000020
:106b40000000000000000000000000000000000045
:106b50000000000000000000000000000000000035
:106b60000000000000000000000000000000000025
:106b70000000000000000000000000000000000015
:106b80000000000000000000000000000000000005
:106b900000000000000000000000000000000000f5
:106ba00000000000000000000000000000000000e5
:106bb00000000000000000000000000000000000d5
:106bc00000000000000000000000000000000000c5
:106bd00000000000000000000000000000000000b5
:106be00000000000000000000000000000000000a5
:106bf000000000000000000080004000d402a80057
:106c00000000000000000000000000000000000084
:106c10000000000000000000000000000000000074
:106c20000000000000000000000000000000000064
:106c30000000000000000000000000000000000054
:106c40000000000000000000000000000000000044
:106c50000000000000000000000000000000000034
:106c60000000000000000000000000000000000024
:106c70000000000000000000000000000000000014
:106c80000000000000000000000000000000000004
:106c900000000000000000000000000000000000f4
:106ca00000000000000000000000000000000000e4
:106cb00000000000000000000000000000000000d4
:106cc000d402a900cac2bf004500de006100600016
:106cd00000807000000000000000000000000000c4
:106ce00000000000000000000000000000000000a4
:106cf0000000000000000000000000000000000094
:106d00000000000000000000000000000000000083
:106d10000000000000000000000000000000000073
:106d20000000000000000000000000000000000063
:106d30000000000000000000000000000000000053
:106d40000000000000000000000000000000000043
:106d50000000000000000000000000000000000033
:106d60000000000000000000000000000000000023
:106d70000000000000000000000000000000000013
:106d80000000000000000000000000000000000003
:106d90000000000080004000d402a80000000000b5
:106da00000000000000000000000000000000000e3
:106db00000000000000000000000000000000000d3
:106dc00000000000000000000000000000000000c3
:106dd00000000000000000000000000000000000b3
:106de00000000000000000000000000000000000a3
:106df0000000000000000000000000000000000093
:106e00000000000000000000000000000000000082
:106e10000000000000000000000000000000000072
:106e20000000000000000000000000000000000062
:106e30000000000000000000000000000000000052
:106e40000000000000000000000000000000000042
:106e5000000000000000000000000000d402a900b3
:106e6000cac2bf004500de00610060000080700003
:106e70000000000000000000000000000000000012
:106e80000000000000000000000000000000000002
:106e900000000000000000000000000000000000f2
:106ea00000000000000000000000000000000000e2
:106eb00000000000000000000000000000000000d2
:106ec00000000000000000000000000000000000c2
:106ed00000000000000000000000000000000000b2
:106ee00000000000000000000000000000000000a2
:106ef0000000000000000000000000000000000092
:106f00000000000000000000000000000000000081
:106f10000000000000000000000000000000000071
:106f20000000000000000000000000000000000061
:106f300080004000d402a800000000000000000013
:106f40000000000000000000000000000000000041
:106f50000000000000000000000000000000000031
:106f60000000000000000000000000000000000021
:106f70000000000000000000000000000000000011
:106f80000000000000000000000000000000000001
:106f900000000000000000000000000000000000f1
:106fa00000000000000000000000000000000000e1
:106fb00000000000000000000000000000000000d1
:106fc00000000000000000000000000000000000c1
:106fd00000000000000000000000000000000000b1
:106fe00000000000000000000000000000000000a1
:106ff0000000000000000000d402a900cac2bf00c7
:107000004500de00610060000080700000000000ac
:107010000000000000000000000000000000000070
:107020000000000000000000000000000000000060
:107030000000000000000000000000000000000050
:107040000000000000000000000000000000000040
:107050000000000000000000000000000000000030
:107060000000000000000000000000000000000020
:107070000000000000000000000000000000000010
:107080000000000000000000000000000000000000
:1070900000000000000000000000000000000000f0
:1070a00000000000000000000000000000000000e0
:1070b00000000000000000000000000000000000d0
:1070c0000000000000000000000000008000400000
:1070d000d402a80000000000000000000000000032
:1070e00000000000000000000000000000000000a0
:1070f0000000000000000000000000000000000090
:10710000000000000000000000000000000000007f
:10711000000000000000000000000000000000006f
:10712000000000000000000000000000000000005f
:10713000000000000000000000000000000000004f
:10714000000000000000000000000000000000003f
:10715000000000000000000000000000000000002f
:10716000000000000000000000000000000000001f
:10717000000000000000000000000000000000000f
:1071800000000000000000000000000000000000ff
:1071900000000000d402a900cac2bf004500de0002
:1071a000610060000080700000000000000000002e
:1071b00000000000000000000000000000000000cf
:1071c00000000000000000000000000000000000bf
:1071d00000000000000000000000000000000000af
:1071e000000000000000000000000000000000009f
:1071f000000000000000000000000000000000008f
:10720000000000000000000000000000000000007e
:10721000000000000000000000000000000000006e
:10722000000000000000000000000000000000005e
:10723000000000000000000000000000000000004e
:10724000000000000000000000000000000000003e
:10725000000000000000000000000000000000002e
:10726000000000000000000080004000d402a800e0
:10727000000000000000000000000000000000000e
:1072800000000000000000000000000000000000fe
:1072900000000000000000000000000000000000ee
:1072a00000000000000000000000000000000000de
:1072b00000000000000000000000000000000000ce
:1072c00000000000000000000000000000000000be
:1072d00000000000000000000000000000000000ae
:1072e000000000000000000000000000000000009e
:1072f000000000000000000000000000000000008e
:10730000000000000000000000000000000000007d
:10731000000000000000000000000000000000006d
:10732000000000000000000000000000000000005d
:10733000d402a900cac2bf004500de00610060009f
:10734000008070000000000000000000000000004d
:10735000000000000000000000000000000000002d
:10736000000000000000000000000000000000001d
:10737000000000000000000000000000000000000d
:1073800000000000000000000000000000000000fd
:1073900000000000000000000000000000000000ed
:1073a00000000000000000000000000000000000dd
:1073b00000000000000000000000000000000000cd
:1073c00000000000000000000000000000000000bd
:1073d00000000000000000000000000000000000ad
:1073e000000000000000000000000000000000009d
:1073f000000000000000000000000000000000008d
:107400000000000080004000d402a800000000003e
:10741000000000000000000000000000000000006c
:10742000000000000000000000000000000000005c
:10743000000000000000000000000000000000004c
:10744000000000000000000000000000000000003c
:10745000000000000000000000000000000000002c
:10746000000000000000000000000000000000001c
:10747000000000000000000000000000000000000c
:1074800000000000000000000000000000000000fc
:1074900000000000000000000000000000000000ec
:1074a00000000000000000000000000000000000dc
:1074b00000000000000000000000000000000000cc
:1074c000000000000000000000000000d402a9003d
:1074d000cac2bf004500de0061006000008070008d
:1074e000000000000000000000000000000000009c
:1074f000000000000000000000000000000000008c
:10750000000000000000000000000000000000007b
:10751000000000000000000000000000000000006b
:10752000000000000000000000000000000000005b
:10753000000000000000000000000000000000004b
:10754000000000000000000000000000000000003b
:10755000000000000000000000000000000000002b
:10756000000000000000000000000000000000001b
:10757000000000000000000000000000000000000b
:1075800000000000000000000000000000000000fb
:1075900000000000000000000000000000000000eb
:1075a00080004000d402a80000000000000000009d
:1075b00000000000000000000000000000000000cb
:1075c00000000000000000000000000000000000bb
:1075d00000000000000000000000000000000000ab
:1075e000000000000000000000000000000000009b
:1075f000000000000000000000000000000000008b
:10760000000000000000000000000000000000007a
:10761000000000000000000000000000000000006a
:10762000000000000000000000000000000000005a
:10763000000000000000000000000000000000004a
:10764000000000000000000000000000000000003a
:10765000000000000000000000000000000000002a
:107660000000000000000000d402a900cac2bf0050
:107670004500de0061006000000000000000000026
:1076800000000000000000000000000000000000fa
:1076900000000000000000000000000000000000ea
:1076a00000000000000000000000000000000000da
:1076b00000000000000000000000000000000000ca
:1078a0000000000000000000d442a800000000001a
:1078b00000000000000000000000000000000000c8
:1078c00000000000000000000000000000000000b8
:1078d00000000000000000000000000000000000a8
:1078e0000000000000000000000000000000000098
:1078f0000000000000000000000000000000000088
:107900000000000000000000000000000000000077
:107910000000000000000000000000000000000067
:107920000000000000000000000000000000000057
:107930000000000000000000000000000000000047
:10794000000000000000000000000000d402a900b8
:10795000c8a2a900cea2a8000080fb008080700011
:107960000000eb0045f207008000eb001000200053
:1079700042f20700f15d800062bb20000180400000
:10798000035e80000330790064004000135e8000d5
:10799000033079000100e800e10f500001003400dd
:1079a0000000eb00f05d88004f0478000000060046
:1079b000c3c2bf006100600000000600cb030700e7
:1079c0000000050000000600cf0bab000a003200eb
:1079d00010c0b300aeebb700525d8000e15c8000e8
:1079e000e0a5200006010700c0ab2000e1a52000b3
:1079f000250009003158780000000600889fbe006d
:107a00000000eb000bf20700c05588000000eb00ff
:107a10000cf20700a05588000004eb0048558800d0
:107a20005855880008007800400507002055880058
:107a300030002000d7ed07003055880020002000de
:107a4000d4ed07006055880008007800d1ed0700ec
:107a50007055880010002000ceed0700805588008a
:107a600008007800c203070090558800485780003e
:107a70009df0070080047800a2f00700090474005c
:107a8000000474000820a000d855880050578000da
:107a9000105588004f04be00000006000800fa00e0
:107aa000d6ff070082002000019c2000688057005c
:107ab000d30007004fb89700dfb897006fb9970061
:107ac000ffb99700a4a92000009abe000292be0050
:107ad00020a22000a1a9200021000900315878002f
:107ae000625d8000d15c800020a22000e1000700e0
:107af0000080fa00000006008540a9009540a9001a
:107b00004222ef0042a2a80042c2bf00c1cfb30090
:107b1000014060000014a00042e2b70042c2bf0072
:107b200031ceb300014060008041b30042e2b700b3
:107b300042c2a8004302a9004322a9004342a9006f
:107b400040c2a90041e2a800d4c2a800000006007b
:107b50000200fa00881f78000040eb00c0ff9f0081
:107b6000c8032000685d8800585d8800220220005c
:107b70008000eb00a0a920007fed0700620220003a
:107b80008000eb00c0ab20007bed0700080178000f
:107b90008000eb00e0a5200077ed070008017800e9
:107ba0008000eb0020a2200073ed0700ea2aef001e
:107bb000e82aef00e62aef00e22aef00e42aef00cd
:107bc000cdff07008200a8008220a8008240a80004
:107bd000d4c2a8008400a9001200200001142000d3
:107be00064805700ba0007004ff89700e54f500037
:107bf000f9ff3a00120020005100200080ba200056
:107c0000b30007000000eb00f80007009400a80094
:107c1000260307004f0478000080fa0000000600e9
:107c20003600f800809fbe00829fbe00849fbe0089
:107c3000869fbe00d4c2a8008400a90033000700bc
:107c4000a94be20006003200b04be2000100320016
:107c50005dff0700af4be200010032008fff07001d
:107c60004f03be004f02be004f01be004f00be00da
:107c70003600f90000400600000005000000050085
:107c800000000500000005000000050000000500e0
:107c9000000005009400a900d4c2a9008540a900f5
:107ca000000420004012880085c0bf000028a30007
:107cb000fdff320040128000ceebb7008540a900e6
:107cc000200720004012880085c0bf000028a300c4
:107cd000fdff320040128000cfebb7008540a900c5
:107ce000f00f20004012880085c0bf000028a300cc
:107cf000fdff320040128000c4ebb7008540a900b0
:107d0000d4c2a8009400a80000000600d4c2a900b4
:107d10008540a9004822ef0085c0bf000028a300cd
:107d2000fdff320040128000ceebb7008540a90075
:107d3000200020004012880085c0bf000028a3005a
:107d4000fdff320040128000cfebb7008540a90054
:107d5000d4c2a800000006004300dd008180fb00c3
:107d600081007000d4c2a9008540a9004808de0047
:107d70004012880085c0bf000028a300fdff32002c
:107d800040128000ceebb7008540a9000180fb00c7
:107d90004012880085c0bf000028a300fdff32000c
:107da00040128000cfebb7008540a900000006001c
:107db0004300dd008180fb0081007000d4c2a90077
:107dc0008540a9004808de004012880085c0bf0039
:107dd0000028a300fdff3200401280008540a9006a
:107de0000180fb004012880085c0bf000028a3006e
:107df000fdff3200401280008540a900000006000f
:107e0000889fbe008004780001007800020478009a
:107e100021c0b300e6ff0700880078008041eb0036
:107e20000001eb000c0037000100e00001003a0007
:107e300080c1eb008540a9000380fb004012880050
:107e400085c0bf000028a300fdff32004012800063
:107e5000807479000201e8008100e900880f510078
:107e6000f1ff3a008540a900d4c2a8004f04be002b
:107e700000000600889fbe008004780001007800a2
:107e80000204780041c0b300c9ff07008000eb0086
:107e9000090037008540a90069c078000080fb0018
:107ea0004012880085c0bf000028a300fdff3200fb
:107eb000401280008100e800888f5000f5ff3a00f2
:107ec0008540a900d4c2a8004f04be0000000600ef
:107ed000889fbe008a9fbe0080057800010478005c
:107ee000020578008004eb00100037009400a90020
:107ef00021c0b3000800780097ff0700f00f2000b2
:107f00004012880085c0bf000028a300fdff32009a
:107f10004012800080f57c009400a800d4c2a80024
:107f20000804e8008540a9008904e8008a8f54000d
:107f3000eeff3a004f05be004f04be0000000600f1
:107f400054ff0700ce0bab000a00320022002000d5
:107f50000112200020bd2000ddff0700cecbbf00b6
:107f6000e1ceb30001406000ceebb700d2cbbf0042
:107f70007d01070000000600889fbe008a9fbe00aa
:107f80008005780001047800020578008004eb0089
:107f9000110037009400a90041c0b3000800780028
:107fa0006dff07008540a9006bc07c000080fb00ce
:107fb0004012880085c0bf000028a300fdff3200ea
:107fc000401280009400a8000804e8008540a90041
:107fd000d4c2a8008904e8008a8f5400edff3a005b
:107fe0004f05be004f04be00000006000200fa006c
:107ff000881f780000047800220020004120200023
:1080000064805700b2ff0700efb8970001006400da
:10801000e0bf9f009400a9000000e00001003a00ca
:10802000d4ebb700220020004120200064805700dc
:10803000d1ff07009400a8004f0478000080fa00e8
:10804000000006000200fa00881f78000004780093
:108050002200200041202000648057009cff070080
:108060006fb8970000007400e0bf9f009400a90063
:1080700010c0b300d4ebb700220020004120200044
:1080800064805700bcff07009400a8004f047800ec
:108090000080fa00000006000200fa00881f780045
:1080a000014478000080fb00e0bf9f002200200018
:1080b0000113200064805700afff0700e14f440028
:1080c000060032000880fb00e0bf9f002200200075
:1080d0004113200064805700a7ff07004f04780079
:1080e0000080fa00000006000200fa0011c0b30090
:1080f000e1ff9f000080fb004300dd007180200055
:1081000081004000120020000f80e9009aff070064
:108110000080fa00000006000200fa008040eb0038
:10812000e1ff9f000080fb004300dd007180200024
:1081300081004000120020000f80e9008eff070040
:108140000080fa0000000600881f780068bc20004c
:108150000080fb004300dd00018020008100400022
:10816000820020000800780059ff0700080078000e
:108170004f04780000000600010178000004e000d0
:1081800003003200e14f500058003a002a00370047
:1081900061409000d00fb20006003a00110090003c
:1081a0000000e0005a003a00aa0be200550032003d
:1081b00057003700e10f500055003a009100900041
:1081c000505d8000808f500051003a00c241900005
:1081d0006d806100e40f50004c003a0060ba20004e
:1081e00021c0b30090cf100008003a009200780040
:1081f000f0ff2000808f5000430036000000220076
:10820000808f5000040036003f003700e05c8000a3
:10821000920f10003c003a00030078000004b20006
:108220000100320010c0b3009febb700ac0be200be
:1082300034003a002800370061409000d00fb200af
:1082400006003a00110090000000e00030003a0003
:10825000ac0be2002b0032002d003700e10f500084
:108260002b003a0011029000605d8000800f5200e8
:1082700027003a00414090008081fb006d80610042
:1082800022003a0060ba200021c0b30090cf100055
:1082900008003a0092007800f0ff2000808f500024
:1082a0001900360000002200808f500004003600c4
:1082b00015003700d05c8000920f100012003a00c9
:1082c0000400e0000f003200d302b20000022000e0
:1082d000808f510003003a0010c0b300a9ebb70033
:1082e00008003700a96bef000600370061409000de
:1082f000d00fb20006003a00110090000000e0002c
:1083000003003a00000005002000050040000500c1
:1083100030000500889fbe008a9fbe00804578001f
:108320000045eb008004eb001200370018c0b300da
:108330000904e000040032000044eb00e14f50006b
:108340000100320009447800084078007eff0700f1
:10835000800078000840780087ff07000004e000f4
:10836000030032000a04e00001003a007d454400a9
:108370008904e800094078008bcf5400ebff3900f6
:108380000a80fb004f05be004f04be00000006003f
:108390000040eb006cff070010007800e05c8800f4
:1083a00010c0b30068ff070010017800d25c88009d
:1083b000e35c8000505d80006300b90000804100f4
:1083c000820f500005003600605d80000000410013
:1083d000d1012000808f510012003900ac0be20067
:1083e0000900320010c0b3004bff070025fe070054
:1083f0000004e000020032008080fb00090037002a
:1084000010c0b300afebb700aa0be20002003200cd
:108410000040eb0040ff07000000eb0009ff0700f1
:108420008000eb0001007800000006000400fa0064
:1084300022002000014020000f80e900a4fe070078
:108440007fb897000000e000140032009f4be2006c
:1084500012003200220020000142200064805700f8
:108460009bfe07006fb897000000e0000e0032008e
:10847000010020007fb997000300200028eb0700cf
:10848000821a2600030020002beb0700105d8800f5
:108490009f4be20006003a00170037000000eb0097
:1084a000e0bf9f00a22bef009f4be20012003a00ba
:1084b000aa0be20005003200f4fd07000004e00012
:1084c000020032000080fb000e00370010c0b30035
:1084d000b0ebb700984be20009003a00a94be2006c
:1084e00007003200aa0be200050032000010200055
:1084f000d4fe070002003700f00120000100370021
:108500000000eb000080fa0000000600f0ef2f00f2
:10851000b6fe0700ae6bef00b06bef000040eb0063
:10852000aa0be20001003200d9fd07000080fb0029
:10853000000006000040eb00ebfe070030cf2f00ec
:10854000aafe07000040eb00a9ebb70098ebb700cc
:10855000afebb70010c0b300e3fe0700cafd070091
:108560000080fb0000000600889fbe008a1f780084
:1085700062ba200012417800804178008080fb00c0
:108580000148a300040032000244a1000200780068
:10859000a6ebb700070037000280fb000048a300ed
:1085a00004003200ef8060006f006000808f500098
:1085b000bb003c006fc56100a6cbbf004400dd00de
:1085c0000a444000080078009eebb70080c4b30066
:1085d000804f54001100320005003e0040c2b3003d
:1085e000804f54000900320040c4b300040037003b
:1085f00040c8b300804f540008003200644040007f
:10860000804f540005003200090037009cfd070030
:10861000804478000004e00060003a00a8cbbf006e
:108620003cff0700804478000004e0005b003a0053
:1086300080c2b300804f5400410032001d003e0054
:10864000f84f54003e0032000b003e00f24f540041
:108650003d00320003003e00f14f54003c003a0060
:108660004c003700f34f54003b003200f44f5400ed
:1086700037003a003200370020c2b300804f540068
:108680004400320004003e000040e900804f5400e6
:108690002f003a002c00370030c2b300804f540046
:1086a000270032000040e800804f540028003a00c4
:1086b0002b00370080c4b300804f54002a003200e2
:1086c0000d003e0066405000804f54002f003200e5
:1086d00004003e000040e900804f54001c003a00b6
:1086e0002a00370030c4b300804f54001400320019
:1086f0000040e8000f00370030c8b300804f54003e
:108700000f00320007003e0000c0e900804f540017
:108710001a0032000040e800804f54000c003a007c
:108720001600370040c8b300804f540011003200db
:1087300064404000804f540005003a0015003700a7
:1087400019c1b3002f0037008044eb002d00370023
:1087500029c1b3002b003700884478002900370076
:108760000bff07000100370030ff0700804478004e
:108770002200370065ff0700fcff370063ff07009a
:10878000804478000004e0001c003a0069ff070004
:10879000f6ff3700e9cfb3001a003700a6cbbf00c1
:1087a000e44f500006003200e84f50000300320052
:1087b000e24f500011003a000900370053ff070054
:1087c000fdcf5400040032005aff070020c0b30060
:1087d000a6ebb7000200370040c0b300030037002b
:1087e000f6cf540003003a0010c0b300a6ebb70068
:1087f0000400370020c0b300a6ebb700e1cf44006f
:108800002700320062ba2000124178008a80fb0003
:108810006f006100808f50001e0032000904e000ec
:108820000600320002007800a5ebb7000244a00069
:1088300002007800a6ebb7001100370049ba20000b
:10884000994478000904e000040032000a0078002e
:10885000a5ebb7000a44a00007003700a5cbbf0076
:108860000054e10002003e0080c4eb00020037002b
:1088700009007800a5ebb7000a007800a6ebb70066
:10888000a6cbbf008940780003fe0700a46bef0071
:10889000030037008040eb0002407800fefd070037
:1088a0004f0578004f04be00000006008040eb003a
:1088b0008000fd009febb700a5ebb700a4ebb7006d
:1088c000aeebb700b0ebb7008000fd008000fd000c
:1088d000afebb70098ebb700a9ebb7008000fd0045
:1088e00010c0b300a6ebb700ebfd370094fd3700d6
:1088f000881f7800010107000d01070034010700ff
:10890000e70007003eee0700a000070002eb0700ab
:10891000f1eb07003eea07007a01070015ee0700b9
:108920006dee070001003700c482a80020fc07009c
:108930000000e000fcff320085fc0700c482a900b3
:10894000d70007000004eb0012e224001100090028
:108950000204d800010078000804e8000000e000ec
:1089600001003a0027ee070014fc0700f6ff37006d
:108970000000400081be20006080780000000600fa
:108980000001be000100e0000d0032006002200086
:108990000090b9004002b000c2ab20006000790036
:1089a0000000e00004003d000000ea00808f51005c
:1089b00003003500030037008081410001003700cb
:1089c0008001eb0003007800000006000001780041
:1089d000600220000091b90078014100c0ab200086
:1089e0006200780052002000e40f500005003400bf
:1089f00000017800c07d2000800f5100010034008c
:108a000000017800c37d200001805100717d2000ad
:108a1000810f5000020034000100780000000600c1
:108a200082805100810f500001003d00010078005c
:108a300000000600000178000102780060022000ba
:108a40000091b90078014100c0ab200062007800bd
:108a500051002000e40f5000050034008000780031
:108a6000c07d2000808f500001003400800078001d
:108a7000810f520004003c0084007800e50f520092
:108a800001003d00510020000100780000000600b8
:108a9000889fbe008a1f7800800478000104780057
:108aa000a7ec0700e10f5000030032001a0020007d
:108ab0000004eb00040037000085eb000800e00034
:108ac0000100350000057800880178000800e0000a
:108ad00001003d008801ea00098444006002200092
:108ae00000c8b90078004000c2ab2000e000790067
:108af00003007800818f51000100340001007800ec
:108b000000d0b90082be20000034790083007800d4
:108b1000090078009aff070080017800605f8800f4
:108b20004281de0020032000800f510001003d0043
:108b30000001780002f0a100300e80000100280042
:108b40000100600002007000300e88008300780091
:108b5000090078009dff070061be200000b4780086
:108b6000b00e8800c00e8800d00e88000000eb0018
:108b70000a00e000010034001000200035ea070080
:108b80004f0578004f04be00000006000001eb0016
:108b9000425f8800325f8800c1e1a900020e8800b0
:108ba000c0c1bf006f406000c0e1b700c0c1bf00de
:108bb00031cfb30001406000c0e1b700303f20007a
:108bc000200e8800c0c1bf00c1cfb30001406000cb
:108bd000c0e1b700120e8800420e8800c901a9004a
:108be000c921a900c941a900c881a800c801a800dd
:108bf000c8a1a800c821a800520e8800cbc1bf00a0
:108c000001cfb30001406000cbe1b700ca41a8002a
:108c1000300e800001002800010060004006b30013
:108c2000300e8800620e8800ccc1bf0001ccb300ba
:108c3000014060006040b300cce1b700cdc1bf008f
:108c4000014060006040b300cde1b700720e8800c3
:108c5000ce21a900ce01a800ce61a900ce41a80076
:108c6000b20e8800c20e8800c941a900c8c1a80080
:108c7000c841a800cea1a900ce81a800d20e8800cc
:108c8000ca21a900820e88008b20a9009b20a90080
:108c9000c1e1a800000006008b20a90000400600ea
:108ca0008500a9009500a900a4c0bf0081cfb30032
