:020000040000fa
:080000000018040000000000dc
:020000040000fa
:103000000f99200000ff2000000188000000000050
:103010000a00070011000700000020000000e00087
:10302000020032000000020000000000bc23020089
:10303000000000000040da000000fe004440a9004b
:10304000000020000000e00003003200000020002b
:10305000a00188004440a80000000600e06c2200a7
:10306000010020001500370062004000e0804800a9
:10307000910188009001ba0062004000e0804800a1
:10308000910188009002ba0062004000e080480090
:103090000002eb006028e10004003a000059eb0058
:1030a0008301e900fdff3e00040037006128e100d4
:1030b000010032000082eb0005000700910188004a
:1030c0001001ba000200e000e7ff3a00000005002e
:1030d000910188008002780062004000e080480092
:1030e0003559ba008301e900080032002559ba00b9
:1030f0008301e900050032000400e000f4ff320023
:1031000015d9ba008301e900f1ff3a00000006007a
:103110008001eb0002003700817178008301e80034
:10312000828f5100fcff3a0000000600020ab9003d
:10313000001bb9000200b80081004200810043007a
:10314000000006006022b800060220000000d00047
:103150008180d2000482d2008582d2000000a000cb
:103160000202520083825a00030031000202420030
:1031700083824a000000a1000603e900f3ff3a0041
:103180000000060000027800620220000281b900ff
:10319000208d200080014100a08920008002410094
:1031a0000400420042902000020040001001e800ac
:1031b0000208780045009000c0019800550090007a
:1031c000d001980065009000e00198007500900023
:1031d000f00198000510900080119800750890008b
:1031e000f00998000000eb00810f510051003500fc
:1031f000040142008000eb00409020000131780083
:10320000930090001501900010002000828f500064
:103210000f003200028050000081eb0001003300fb
:1032200012002000028050009001980001d0270079
:10323000810f500003003c0001302800810f500036
:1032400001003d0001007800900198000000eb00b3
:10325000a300900025019000828f50000f003200e3
:10326000028050000081eb000100330012002000ba
:1032700002805000a001980001d02700810f50006b
:1032800003003c0001302800810f500001003d0088
:1032900001007800a00198000000eb00b30090004e
:1032a00035019000828f50000f00320002805000e4
:1032b0000081eb000100330012002000028050006a
:1032c000b001980001d02700810f500003003c009e
:1032d00001302800810f500001003d0001007800fe
:1032e000b00198000000eb009310900015119000c1
:1032f000828f50000f003200028050000081eb00ee
:10330000010033001200200002805000901198004c
:1033100001d02700810f500003003c00013028003d
:10332000810f500001003d000100780090119800cd
:103330000000eb000000060080027800620220001e
:103340000281b900208d200080014100a089200069
:10335000000141000580420044902000040040002c
:103360001002e8000408780042009000c0019800b4
:1033700052009000d001980062009000e001980097
:1033800062009000f00198000210900080119800f7
:1033900072099000f20998000001eb00810f5200c1
:1033a00029003500058142008000eb00409020009c
:1033b0000131780013009000120020000000e000ae
:1033c000060032008080eb00010035001100200073
:1033d00001005000900198000001eb0023009000d4
:1033e0000000e000060032008080eb0001003500a4
:1033f0001100200001005000a00198000001eb0026
:10340000330090000000e000060032008080eb00f6
:10341000010035001100200001005000b0019800ab
:103420000001eb00131090000000e00006003200e5
:103430008080eb00010035001100200001005000e9
:10344000901198000001eb000200780000000600d7
:10345000889fbe00800478006002200000c8b90088
:10346000228d2000000141000004eb0018019800ab
:1034700028019800380198001811980078019800e8
:1034800048019800580198006801980008119800b8
:10349000c248dd00c08f2000008040006011b800ed
:1034a0000288be0000902000808040008288be001c
:1034b0004648dd0081902000010040000204200009
:1034c0008800780012ff070089804400a08f200048
:1034d0000080400008087800808f200000804000b5
:1034e000080878004090200000804000080878001c
:1034f0004f04be00000006000000eb0030488800ca
:10350000d3ff3700fd043700e6874700889fbe00e1
:103510008a9fbe008c9fbe008e1f78000005780039
:10352000810178006002200000d0b900228d2000c7
:1035300082054000a2892000020740001e0890007a
:10354000808f510003003c002e089000808f5100b6
:1035500001003d0080017800834688004b00900008
:103560000098de009b0090000182b900f4b79f0034
:1035700085bf9f004251dd004095200000004100c2
:103580000488be0000902000000141006118b900cd
:1035900032034000a28348000689be007b009000f1
:1035a0006102b900840f5300858f5b0007003c0067
:1035b0000000ea00cf80de000602be00800f53004c
:1035c000818f5b0001003d000002be004254dd001f
:1035d00000902000000044000488be002b009000f2
:1035e000cf80de005b0390000603e9000300330098
:1035f0008582d1000482d300fbff37000401be00a6
:10360000cafe07000006be0000952000000044002e
:103610000c88be000a034500808f2000e604780075
:10362000c08f2000000444004551dd000901410025
:10363000020141008790200062827b00cfa2de0061
:1036400038001200a8801a000002be00a38f2000dc
:10365000668079000000ea0000b17b008003eb0087
:1036600007b37900cf80de00040140008581480067
:10367000028cbe000902e800ff0f52000100340076
:10368000070278008a004500808f2000843078008f
:103690003b009000cf80de00a4fe07006b0290008c
:1036a0000402e900030033008180d1000080d300d0
:1036b000fbff37000001be00c250dd00c0942000b7
:1036c000008040000288be008094200000824000fc
:1036d000000aeb0034127800000021001e00600098
:1036e000030032001b109000cf80de00008abe0075
:1036f0007fb297008fba97000400460085804e0085
:1037000000004100818049004251dd008394200087
:103710000301410032024000a28248000400be00c2
:10372000644688007546880042c7200003002000d8
:10373000820f5200838f5a0005003c0082372f0011
:10374000f3ff2f00820f5200838f5a0001003d00cb
:103750000200be0060468800714688008000780044
:103760000a00780067ff07004f0778004f06be0089
:103770004f05be004f04be006f00b1000000060000
:10378000889fbe00884580005945800030488000f1
:10379000e20f50001b00320005003c000000e0007a
:1037a00008003200e10f500034003a000f003700eb
:1037b000e30f50002b003200e40f50002f003a00be
:1037c0001c0037006000b8004eff0700e10f5400f6
:1037d00002003200e20f540001003a00384888002d
:1037e0000000eb001aff0700260037008900780070
:1037f0000000eb0043ff0700e10f540021003200fe
:1038000002003700e20f5400020032000629ef00e8
:103810001c003700a10f20000000eb0059fe07003c
:103820000000e0000b00320040002000304888001b
:1038300008003700e20f540003003200300020007f
:10384000304888000f003700a10f20000000eb0077
:103850004cfe0700890078000000eb002aff0700fb
:1038600008003700a10f20000000eb00b2fe0700a7
:103870000000e000010032000629ef006000b800ff
:1038800020ff07004f04be000000060000000600f5
:10389000c2c2bf000048a30002003200c482a900d7
:1038a00000000600c482a80000000600c3c2bf00da
:1038b0006100600000000600000006000000060035
:1038c000ac03070000000500000006007d09ab0006
:1038d0000a00320010c0b3006ee9b700524b8000fe
:1038e000e14a8000c0832000eb000700a08920008f
:1038f000c18320002500090031587800000006002f
:103900000000eb00b70307008044880040468000b9
:1039100000448800304680000020a000c044880099
:10392000000006000800fa00f5ff070082002000f2
:10393000019c200068805700d70007004fb897000f
:10394000dfb897006fb99700ffb997008487200010
:10395000009abe000292be000080200081872000f5
:103960002100090031587800624b8000d14a800064
:1039700000802000e50007000080fa00000006003b
:103980003600f800809fbe00829fbe00849fbe006c
:10399000869fbe00d4c2a8008400a9008100070051
:1039a0006949e200060032007049e200010032007d
:1039b000c6ff07006f49e20001003200d9ff07008f
:1039c00010002000504688004f03be004f02be008a
:1039d0004f01be004f00be003600f9000040060057
:1039e0008540a9009540a9004222ef0042a2a8000c
:1039f00042c2bf00c1cfb300014060000014a0006c
:103a000042e2b70042c2bf0031ceb30001406000c5
:103a10008041b30042e2b70042c2a8004302a900bd
:103a20004322a9004342a90040c2a90041e2a800e4
:103a3000d4c2a800000006000200fa00881f780027
:103a40000040eb00c0ff9f00c8032000684b8800c7
:103a5000584b8800220220008000eb008087200065
:103a6000abfd0700620220008000eb00a08920006f
:103a7000a7fd0700080178008000eb00c08320004c
:103a8000a3fd0700080178008000eb000080200003
:103a90009ffd07000000eb0040468800304688008c
:103aa00020468800c028ef00c228ef00504688005a
:103ab000cbff07008200a8008220a8008240a80057
:103ac000d4c2a8008400a900120020000114200024
:103ad00064805700a40007004ff89700e54f50009e
:103ae000f9ff3a00120020005100200080962000cb
:103af0009d0007000000eb00e00007009400a80014
:103b00000c0307004f0478000080fa000000060054
:103b10000000050000000500000005000000050091
:103b20000000050000000500000005009400a90049
:103b3000d4c2a9008540a9000004200040128800da
:103b400085c0bf000028a300fdff320040128000a6
:103b50007ce9b7008540a9002007200040128800ba
:103b600085c0bf000028a300fdff32004012800086
:103b70007de9b7008540a900f00f200040128800c1
:103b800085c0bf000028a300fdff32004012800066
:103b900072e9b7008540a900d4c2a8009400a8002b
:103ba00000000600d4c2a9008540a9004822ef0009
:103bb00085c0bf000028a300fdff32004012800036
:103bc0007ce9b7008540a900200020004012880051
:103bd00085c0bf000028a300fdff32004012800016
:103be0007de9b7008540a900d4c2a8000000060006
:103bf0004300dd008180fb0081007000d4c2a90079
:103c00008540a9004808de004012880085c0bf003a
:103c10000028a300fdff3200401280007ce9b700bd
:103c20008540a9000180fb004012880085c0bf00cc
:103c30000028a300fdff3200401280007de9b7009c
:103c40008540a900000006004300dd008180fb00e4
:103c500081007000d4c2a9008540a9004808de0098
:103c60004012880085c0bf000028a300fdff32007d
:103c7000401280008540a9000180fb0040128800ae
:103c800085c0bf000028a300fdff32004012800065
:103c90008540a90000000600889fbe0080047800cf
:103ca000010078000204780021c0b300e6ff07009d
:103cb000880078008041eb000001eb000c00370029
:103cc0000100e00001003a0080c1eb008540a9003e
:103cd0000380fb004012880085c0bf000028a300bd
:103ce000fdff320040128000807479000201e8007c
:103cf0008100e900880f5100f1ff3a008540a900da
:103d0000d4c2a8004f04be0000000600889fbe0079
:103d100080047800010078000204780041c0b300fc
:103d2000c9ff07008000eb00090037008540a900ab
:103d300069c078000080fb004012880085c0bf0089
:103d40000028a300fdff3200401280008100e8003f
:103d5000888f5000f5ff3a008540a900d4c2a80022
:103d60004f04be0000000600889fbe008a9fbe0070
:103d70008005780001047800020578008004eb00db
:103d8000100037009400a90021c0b300080078009b
:103d900097ff0700f00f20004012880085c0bf0089
:103da0000028a300fdff32004012800080f57c0057
:103db0009400a800d4c2a8000804e8008540a90027
:103dc0008904e8008a8f5400eeff3a004f05be00d8
:103dd0004f04be000000060054ff07007c09ab0042
:103de000080032002200200001122000009820006c
:103df000ddff0700e0ceb3007c69b60080c9bf00dc
:103e00007f01070000000600889fbe008a9fbe0059
:103e10008005780001047800020578008004eb003a
:103e2000110037009400a90041c0b30008007800d9
:103e30006fff07008540a9006bc07c000080fb007d
:103e40004012880085c0bf000028a300fdff32009b
:103e5000401280009400a8000804e8008540a900f2
:103e6000d4c2a8008904e8008a8f5400edff3a000c
:103e70004f05be004f04be00000006000200fa001d
:103e8000881f7800000478002200200041202000d4
:103e900064805700b4ff0700efb89700010064008a
:103ea000e0bf9f009400a9000000e00001003a007c
:103eb00082e9b700220020004120200064805700e2
:103ec000d1ff07009400a8004f0478000080fa009a
:103ed000000006000200fa00881f78000004780045
:103ee0002200200041202000648057009eff070030
:103ef0006fb8970000007400e0bf9f009400a90015
:103f000010c0b30082e9b700220020004120200049
:103f100064805700bcff07009400a8004f0478009d
:103f20000080fa00000006000200fa00881f7800f6
:103f3000014478000080fb00e0bf9f0022002000c9
:103f40000113200064805700afff0700e14f4400d9
:103f5000060032000880fb00e0bf9f002200200026
:103f60004113200064805700a7ff07004f0478002a
:103f70000080fa00000006000200fa0011c0b30041
:103f8000e1ff9f000080fb004300dd007180200006
:103f900081004000120020000f80e9009aff070016
:103fa0000080fa00000006000200fa008040eb00ea
:103fb000e1ff9f000080fb004300dd0071802000d6
:103fc00081004000120020000f80e9008eff0700f2
:103fd0000080fa0000000600881f78004897200043
:103fe0000080fb004300dd000180200081004000d4
:103ff00082002000080078005bff070008007800be
:104000004f04780000000600010178000004e00081
:1040100003003200e14f50005a003a002b003700f5
:1040200061409000d00fb20006003a0011009000ed
:104030000000e0005c003a006a09e200570032002c
:1040400059003700e10f500057003a0091009000ee
:10405000504b8000808f500053003a00c2419000c6
:104060006d806100e40f50004e003a006096200021
:1040700021c0b30090cf100008003a0092007800f1
:10408000f0ff2000808f5000450036000000220025
:10409000808f50000400360041003700e04a800065
:1040a000920f10003e003a000368a30003003200a4
:1040b00010c0b3005fe9b700010037005f69ef008f
:1040c0006c09e20035003a00290037006140900099
:1040d000d00fb20006003a00110090000000e0008e
:1040e00031003a006c09e2002c0032002e0037004b
:1040f000e10f50002c003a0011029000604b80004c
:10410000800f520028003a00414090008081fb005f
:104110006d80610023003a006096200021c0b3004a
:1041200090cf100008003a0092007800f0ff2000c5
:10413000808f50001a00360000002200808f50004f
:104140000400360016003700d04a8000920f10009d
:1041500013003a000400e0001000320083007800f1
:10416000d102b20000022000808f500003003a000c
:1041700010c0b30069e9b700080037006969ef00b3
:104180000600370061409000d00fb20006003a00f0
:10419000110090000000e00003003a00000005005c
:1041a000200005004000050030000500889fbe008b
:1041b0008a9fbe00804578000045eb008004eb003c
:1041c0001200370018c0b3000004e0000400320001
:1041d0000044eb00e14f5000010032000044780041
:1041e000084078007cff07008000780008407800d5
:1041f00085ff07000004e000030032000a04e0002d
:1042000001003a007d4544008904e8000940780037
:104210008bcf5400ebff39000a80fb004f05be0036
:104220004f04be00000006000040eb006aff0700dc
:1042300010007800e04a880010c0b30066ff070055
:1042400010017800d24a8800e34a8000504b800079
:104250006300b90000804100820f50000500360065
:10426000604b800000004100d1012000808f510090
:10427000120039006c09e2000900320010c0b300de
:1042800049ff070025fe07000004e000020032009d
:104290008080fb000900370010c0b3006fe9b70051
:1042a0006a09e200020032000040eb003eff070016
:1042b0000000eb0007ff07008000eb000100780022
:1042c000000006000400fa00220020000140200047
:1042d0000f80e900a4fe07007fb897000000e0000f
:1042e000140032005f49e200120032002200200078
:1042f00001422000648057009bfe07006fb89700c2
:104300000000e0000e003200010020007fb997009d
:104310000300200085fb0700821a2600030020000e
:1043200088fb0700104b88005f49e20006003a0056
:10433000170037000000eb00e0bf9f00104b880023
:104340005f49e20012003a006a09e200050032000b
:10435000f4fd07000004e000020032000080fb00d2
:104360000e00370010c0b30070e9b7005849e200f2
:1043700009003a006949e200070032006a09e200d8
:104380000500320000102000d2fe070002003700b6
:10439000f0012000010037000000eb000080fa006f
:1043a00000000600f0ef2f00b4fe07000040eb0015
:1043b0006ee9b70070e9b7006a09e2000100320057
:1043c000d9fd07000080fb00000006000040eb0064
:1043d000e9fe070030cf2f00a8fe07000040eb00e9
:1043e00069e9b70058e9b7006fe9b70010c0b3003a
:1043f000e1fe0700cafd07000080fb000000060088
:10440000889fbe008a1f7800004178000248a30000
:10441000020032006689a9000800370066c9bf00a3
:104420000080fb000048a30004003200ef006100a0
:104430006f006000808f5000bb003c006f45610042
:1044400066c9bf004400dd000a444000080078004f
:104450005ee9b70080c4b300804f54001200320000
:1044600005003e0040c2b300804f54000a003200f5
:1044700040c4b3000400370040c8b300804f54006c
:1044800009003200644040008044eb00804f54003b
:1044900008003a00040037009ffd070080447800c0
:1044a0000004e0005f003a0068c9bf003fff07005a
:1044b000804478000904e0005a003a0080c2b3004a
:1044c000804f5400420032001e003e00f84f54005e
:1044d0003f0032000c003e00f24f54003e0032001c
:1044e00003003e00f14f54003d003a004b003700fe
:1044f00039c1b300894f540064003200f44f5400b6
:1045000037003a003200370020c2b300804f540019
:104510004200320004003e000040e900804f540099
:104520002f003a002c00370030c2b300804f5400f7
:10453000270032000040e800804f540028003a0075
:104540002900370080c4b300804f54002800320097
:104550000d003e0066405000804f54002d00320098
:1045600004003e000040e900804f54001c003a0067
:104570002800370030c4b300804f540014003200cc
:104580000040e8000f00370030c8b300804f5400ef
:104590000f00320007003e0000c0e900804f5400c9
:1045a000180032000040e800804f54000c003a0030
:1045b0001400370040c8b300804f54000f00320091
:1045c00064404000804f540005003a00130037005b
:1045d00019c1b3002d0037008044eb0029003700db
:1045e00029c1b300290037000fff07000100370081
:1045f00034ff0700804478002200370069ff07007d
:10460000fcff370067ff0700804478000004e000eb
:104610001c003a006dff0700f6ff3700e9cfb3003a
:104620001a00370066c9bf00e44f50000600320090
:10463000e84f500003003200e24f500011003a00f2
:104640000900370057ff0700fdcf54000400320077
:104650005eff070020c0b30066e9b7000200370024
:1046600040c0b30003003700f6cf540003003a0007
:1046700010c0b30066e9b7000400370020c0b300e3
:1046800066e9b700e1cf44002700320062962000bf
:10469000124178008a80fb006f006100808f50001b
:1046a0001e0032000904e00006003200020078001b
:1046b00065e9b700024078000044a00066e9b70051
:1046c0001100370049962000994478000904e00061
:1046d000040032000a00780065e9b7000a44a0002f
:1046e0000700370080c4eb0065c9bf000054e1003b
:1046f000030036000040eb0065e9b7008044780015
:104700000a00780066e9b70066c9bf0089407800f2
:1047100005fe07006469ef00030037008040eb00ee
:104720000240780000fe07004f0578004f04be00ed
:10473000000006008040eb008000fd005fe9b7004c
:1047400065e9b70064e9b7006ee9b70070e9b70042
:104750008000fd008000fd006fe9b70058e9b70058
:1047600069e9b7008000fd0010c0b30066e9b7003a
:10477000edfd370098fd3700881f7800ec0007003a
:10478000f70007001a010700d60007003ffc0700ea
:10479000a000070058fb0700520107000100370086
:1047a000c482a80041fc07000000e000fcff3200ca
:1047b000a1fc0700c482a900ca00070012e224007d
:1047c000110009000204d800010078000804e80084
:1047d0000000e00001003a002dfc070038fc070053
:1047e000f6ff3700000040006198200060807800ec
:1047f000000006000001be000100e0000d003200d4
:10480000600220000090b9004002b000a2892000a0
:10481000600079000000e00004003d000000ea00b4
:10482000808f510003003500030037008081410074
:10483000010037008001eb00030078000000060053
:1048400000017800600220000091b9007801410069
:10485000a08920006200780052002000e40f500080
:10486000050034000001780040c72000800f51008f
:10487000010034000001780040c720008100500092
:1048800065005000808f500006003c0040c72000ab
:104890000201500001007800828f500001003d00ad
:1048a000020078000000060000017800600220008d
:1048b0000091b90078014100a089200062017800d0
:1048c00050002000e40f5100050034000200780081
:1048d00042c72000820f500001003400020078001f
:1048e000808f500004003c0001007800e58f5000ec
:1048f00001003d005000200000000600889fbe001f
:104900008a1f780080047800010278008082eb0022
:104910000100e0000100350015002000840178004e
:104920000400e00001003d008401ea006002200074
:1049300000c8b90078004000a28920006004790016
:1049400089804400609820000081400003007800c6
:10495000888f5100010034000800780000a8b900d9
:10496000000978000085eb000400e000010035003c
:104970001a00200083007800090078009dff0700de
:10498000800078000081eb000000e00001003500ad
:1049900012002000010078000100e00001003d004d
:1049a0000100ea00880f5000010034000800780080
:1049b0000091b90009844400609820000234780016
:1049c000808c2000023478004098200000044400cd
:1049d000090078009aff0700000c78000a00e00048
:1049e00005003500204c8000b00e8800803020008b
:1049f000a00e88000400370020c02000a00e880010
:104a0000204c8000c00e88004f0578004f04be0087
:104a1000000006000001eb00324c8800224c8800a8
:104a2000c1e1a900020e8800f0c0b300c061b60069
:104a300030cfb300c061b600f0632000200e8800c4
:104a4000c0cfb300c061b600120e8800420e8800cd
:104a5000c901a900c921a900c941a900c881a800ac
:104a6000c801a800c8a1a800c821a800520e88004b
:104a700000cfb300cb61b600ca41a800300e800061
:104a800001002800010060004006b300300e8800dd
:104a9000620e8800ccc1bf0001ccb30001406000b1
:104aa0006040b300cce1b700cdc1bf000140600061
:104ab0006040b300cde1b700720e8800ce21a9009e
:104ac000ce01a800ce61a900ce41a800b20e880098
:104ad000c20e8800820e88008b20a900c1e1a800c8
:104ae00000000600a4c0bf0082cfb30002406000f7
:104af0003040b300a4e0b700b2c0bf00f1c8b300bb
:104b0000014060000054a000b2e0b700aac0bf009e
:104b1000014060000043b300aae0b700a8c0bf0096
:104b2000024060005040b300a8e0b700000006005b
:104b3000000a2000303a8800f0c3b3004467b60092
:104b400044c7bf000034a1007041b30044e7b70080
:104b500042c7bf000058a300fdff3200000006005e
:104b60000000eb0010168800501688009016880090
:104b7000c082a900c102a800c8e2a800c942a800da
:104b8000c962a800d062a900d082a800d0c2a90042
:104b9000d0e2a900d102a900d122a800c002a80039
:104ba000c022a800c802a800c822a800c842a800c5
:104bb000c8a2a800d042a900d002a900c8c2a8007b
:104bc000c862a900d022a900c882a800c922a800f2
:104bd000c902a800c942a900c962a900c982a900e6
:104be000c9a2a900c9c2a900c9e2a9000000060023
:104bf00021742000620420007305200082487800a0
:104c00008348780042c7a90082c6bf0001ceb30026
:104c1000014060004041b30082e6b700a8c6bf0073
:104c2000014060009041b300a8e6b700d6c6bf00bf
:104c3000014060009040b300d6e6b700d7c6bf0081
:104c4000014060000034a000d7e6b700d8c6bf001e
:104c5000014060007040b300d8e6b7002174200026
:104c600062042000730520008248780083487800a1
:104c700042c7a800000006000001eb000400370056
:104c8000810020008100e900feff3a000201e800f7
:104c9000800f5100faff3500000006000001eb0014
:104ca0000400370001f421008100e900feff3a0012
:104cb0000201e800800f5100faff350000000600f5
:104cc0000001eb0004003700013220008100e90000
:104cd000feff3a000201e800800f5100faff3500a4
:104ce000000006000000eb00404c8800900888009f
:104cf0005008880012c1bf00f1ccb3000140600031
:104d00000044a00012e1b700409c20007008880019
:104d10008500a90013e1a8009500a8000000060086
:104d20003600f800809fbe00829fbe00849fbe00b8
:104d3000869fbe008500a900d462a800d462a900a5
:104d40008ffa07008829ec004f03be004f02be0017
:104d50004f01be004f00be003600f90000400600c3
:104d60000200fa00000f7800d402a9000080fa00c7
:104d7000000006000000fa0010002000704c8800bf
:104d80000080fa00000006000000fa000000eb00be
:0c4d9000704c88000080fa000000060053
:020000040000fa
:0200000401f009
:04000800ffff0000f6
:020000040000fa
:0200000401f009
:04000c00fbff0000f6
:020000040000fa
:0200000401f009
:040010009cff000051
:020000040000fa
:0200000401f009
:040014007fff00006a
:020000040000fa
:0200000401f009
:04001800e8ff0000fd
:020000040000fa
:0200000401f009
:04001c00feff0000e3
:020000040000fa
:10000800002700000027000000270000002700004c
:10001800002700000027000000270000002700003c
:10002800c01c000000270000002700000027000077
:10003800002700000027000000270000002700001c
:10004800902600000027000000270000002700007d
:1000580000270000002700000027000000270000fc
:1000680000270000002700000027000000270000ec
:1000780000270000002700000027000000270000dc
:1000880000270000002700000027000000270000cc
:1000980000270000002700000027000000270000bc
:1000a80000270000002700000027000000270000ac
:1000b800002700000027000000270000002700009c
:1000c800002700000027000000270000002700008c
:1000d800002700000027000000270000002700007c
:1000e800002700000027000000270000002700006c
:1000f800002700000027000000270000002700005c
:10010800002700000027000000270000002700004b
:10011800002700000027000000270000002700003b
:10012800002700000027000000270000002700002b
:10013800002700000027000000270000002700001b
:10014800002700000027000000270000002700000b
:1001580000270000002700000027000000270000fb
:1001680000270000002700000027000000270000eb
:1001780000270000002700000027000000270000db
:1001880000270000002700000027000000270000cb
:1001980000270000002700000027000000270000bb
:1001a80000270000002700000027000000270000ab
:1001b800002700000027000000270000002700009b
:1001c800002700000027000000270000002700008b
:1001d800002700000027000000270000002700007b
:1001e800002700000027000000270000002700006b
:0801f8000027000000270000b1
:020000040000fa
:10020800002700000027000000270000002700004a
:10021800002700000027000000270000002700003a
:10022800c01c000000270000002700000027000075
:10023800002700000027000000270000002700001a
:10024800902600000027000000270000002700007b
:1002580000270000002700000027000000270000fa
:1002680000270000002700000027000000270000ea
:1002780000270000002700000027000000270000da
:1002880000270000002700000027000000270000ca
:1002980000270000002700000027000000270000ba
:1002a80000270000002700000027000000270000aa
:1002b800002700000027000000270000002700009a
:1002c800002700000027000000270000002700008a
:1002d800002700000027000000270000002700007a
:1002e800002700000027000000270000002700006a
:1002f800002700000027000000270000002700005a
:100308000027000000270000002700000027000049
:100318000027000000270000002700000027000039
:100328000027000000270000002700000027000029
:100338000027000000270000002700000027000019
:100348000027000000270000002700000027000009
:1003580000270000002700000027000000270000f9
:1003680000270000002700000027000000270000e9
:1003780000270000002700000027000000270000d9
:1003880000270000002700000027000000270000c9
:1003980000270000002700000027000000270000b9
:1003a80000270000002700000027000000270000a9
:1003b8000027000000270000002700000027000099
:1003c8000027000000270000002700000027000089
:1003d8000027000000270000002700000027000079
:1003e8000027000000270000002700000027000069
:0803f8000027000000270000af
:020000040000fa
:104d9c00cc0800008c00000000000000000800009f
:104dac00cc000000000000008c0900000200000094
:104dbc00000000007209000012000000000000005a
:104dcc00580900001a0000000000000084090000cf
:104ddc00040000000000000088090000040000002e
:104dec00000000008e09000002000000000000001e
:044dfc0000000000b3
:020000040000fa
:044e00000000fe00b0
:00000001FF
