:020000040000fa
:080000000018040000000000dc
:020000040000fa
:10300000efaf200000ff200000018800000000005a
:103010000c000700603325000100200011000700ac
:10302000000020000000e00002003200000002006a
:1030300000000000402e0200000000000040da0006
:103040000000fe004440a900000020000000e00055
:103050000300320000002000a00188004440a800c6
:103060000000060091018800800078000000eb005d
:1030700015003700e280400032a0b4009101ba0090
:10308000e280400032a0b4009102ba00e280400029
:1030900032a0b4000002eb00472bde00f507b200bf
:1030a000602ce10004003a000059eb008301e900c4
:1030b000fdff3e00040037006128e10001003200fe
:1030c0000082eb00040007001101ba000200e000da
:1030d000e8ff3a00000006003159ba008301e90018
:1030e0000c0032002159ba008301e90008003200c7
:1030f0000400e00003003a00e280400032a0b40087
:10310000f5ff370011d9ba008301e900faff3a0050
:103110008100e800e180400032a0b4000000060019
:103120008001eb0002003700817178008301e80024
:10313000828f5100fcff3a00000006006022b800b8
:10314000060220000000d0008180d2000482d2005c
:103150008582d2000000a0000202520083825a0041
:10316000030031000202420083824a000000a100f5
:103170000603e900f3ff3a00000006000800fa0029
:10318000300798006000b8001007980021079800e9
:103190000000eb00000f7800100037003e009000a8
:1031a0009e0078004500dd000100400080004000e6
:1031b000e080200000804000100078006101b8002d
:1031c0001e009000ae009000000041008180490088
:1031d00010079800210798001e0fe800f00120005a
:1031e0009e0f1000edff34001e009000ae00900016
:1031f0004b09dd004500de0000007100c588de00df
:103200000080fa00000006000600fa006000b80026
:10321000008fbe000000eb00200798000b00370075
:103220002e00900080004000e094200000804000cc
:1032300010007800010020001e0f40005e9748003b
:103240002e0090000000e800200798002e0090005b
:10325000e10f5000f2ff34001e00be008180d1005b
:103260000080d3000080fa00000006000000fa0091
:103270000000eb00504088000000eb006040880038
:103280000000eb006019880023c3bf007f4060008e
:1032900023e3b70025e3a9005132200091407800d4
:1032a00000ceb30000c060006040b30025e3b7006b
:1032b00080c0b30024e3b700313220009140780091
:1032c000c0cfb30000c0600023e3b7002043a800d4
:1032d0002143a8002063a9002343a8002132200035
:1032e0009140780030ccb30000c060000044a000e2
:1032f00022e3b7002c03a9002c23a9002c43a9002a
:103300002c63a9002c83a9002ca3a8002cc3a8001f
:103310002ce3a8002d03a80020c3bf007f4060005d
:1033200001c6b3000140700020e3b7002223a800cb
:103330003003a8003023a8003043a8003063a80061
:103340003083a8001132200091407800c0cfb30034
:1033500000c0600021e3b70021e3a80085a0a90018
:1033600095a0a8000080fa0000000600809fbe0023
:10337000821f78000200fa0085a0a90022c3bf00c6
:1033800001c8b300014060000004e0000b003a00f7
:10339000801880000040880090188000104088004d
:1033a000a018800020408800b018800030408800bd
:1033b000c0188000404088000a00370000188000d4
:1033c00000408800101880001040880020188000fd
:1033d000204088003018800030408800401880006d
:1033e00040408800504080002240800000004000a3
:1033f0000108200080804000e08020000080400024
:1034000002087800504080004240800000004000e8
:103410000110200080804000e080200000804000fb
:1034200002087800504080003240800000004000d8
:10343000010c200080804000e080200000804000df
:103440000208780050408000024080008000400068
:10345000e08020000080400002087800504080009a
:1034600012408000000040000104200080804000e5
:10347000e08020000080400002087800504080007a
:103480000000e800ff0f500004003c0050408000a6
:103490000000e800000f7800020037000000eb0099
:1034a000000f78001e007800504088000080fa006d
:1034b0004f0178004f00be00004006002200fa00d5
:1034c00030079800410798000000eb0020079800a3
:1034d000be009000600220000088b90080007800e3
:1034e000e0a720000080400010079800be00900078
:1034f000600220000088b90080007800e09520007c
:10350000008f4000be0090000181400000a3200019
:1035100000004100100078000001e80081804000b8
:1035200000a3200000804000020878001e00780000
:10353000c00090001e009000410098001e0078001e
:10354000d00090001e009000510098001e007800ee
:10355000e00090001e009000610098001e007800be
:10356000f00090001e009000710098001e0078008e
:10357000801090001e009000011098001e0078003e
:10358000f00890001e009000710898003e00900026
:103590008000400000a320000080400090007800e0
:1035a0004e009000808f5000c80035003e00900013
:1035b0008000400000a32000808040000000eb005d
:1035c0008008780010002000200798001e0090005e
:1035d000900090001e00780010009000808f500036
:1035e0002a0032001e009000100090000017980082
:1035f0001e009000900090001e00780010009000c7
:10360000008050000000e00003003d000080eb005f
:10361000700f98000200370011002000710f980011
:103620000e1190007e089000800051001e00900056
:10363000110098001e0090009000900000d027001c
:10364000808f50000a003c001e0090001000900087
:10365000600f980000302800ee089000808f500026
:1036600005003d0002302800620f9800020037007c
:1036700000d02700600f98001e009000ee08900018
:10368000110098000000eb00200798001e00900039
:10369000a00090001e00780020009000808f500055
:1036a0002a0032001e00900020009000500f980069
:1036b0001e009000a00090001e00780020009000e6
:1036c000008050000000e00003003d000081eb009e
:1036d000420f98000200370010002000400f9800b1
:1036e0005e0990004e089000800051001e0090007e
:1036f000210098001e009000a000900000d027003c
:10370000808f50000a003c001e00900020009000b6
:10371000300f980000302800be089000808f5000c5
:1037200005003d0002302800320f980002003700eb
:1037300000d02700300f98001e009000be089000b7
:10374000210098000000eb00200798001e00900068
:10375000b00090001e00780030009000808f500074
:103760002a0032001e00900030009000200f9800c8
:103770001e009000b00090001e0078003000900005
:10378000008050000000e00003003d000081eb00dd
:10379000120f98000200370010002000100f980050
:1037a0002e0990001e089000800051001e0090001d
:1037b000310098001e009000b000900000d027005b
:1037c000808f50000a003c001e00900030009000e6
:1037d000000f9800003028008e089000808f500065
:1037e00005003d0002302800020f9800020037005b
:1037f00000d02700000f98001e0090008e08900057
:10380000310098000000eb00200798001e00900097
:10381000901090001e00780010109000808f5000d3
:103820002a0032001e0090001010900070079800cf
:103830001e009000901090001e0078001010900064
:10384000008050000000e00003003d000081eb001c
:1038500062079800020037001000200060079800ff
:103860007e0190006e009000800051001e009000cc
:10387000111098001e0090009010900000d02700ba
:10388000808f50000a003c001e0090001010900035
:103890005007980000302800de009000808f500014
:1038a00005003d0002302800520798000200370052
:1038b00000d02700500798001e009000de00900006
:1038c000111098000000eb00200798002e009000d7
:1038d0000080fa00000006001a00fa003007980085
:1038e000410798000000eb0020079800be00900000
:1038f000600220000088b90080007800e0a7200066
:103900000080400010079800be0090006002200078
:103910000088b90080007800e0952000008f40000a
:10392000be0090000181400000a320000000410083
:10393000100078000001e8008180400000a3200012
:1039400000804000020878001e007800c00090004f
:103950001e009000410098001e007800d0009000ea
:103960001e009000510098001e007800e0009000ba
:103970001e009000610098001e007800e00090009a
:103980001e009000710098001e00780080109000ca
:103990001e009000011098001e007800f0089000b2
:1039a0001e009000710898003e00900080004000ca
:1039b00000a3200000804000900078004e0090009e
:1039c000808f5000640035003e0090008000400071
:1039d00000a32000808040000000eb0080087800f9
:1039e00010002000200798001e009000100090009a
:1039f0000000e000130032001e0090001000900054
:103a0000400f98001e009000100090000000e000a1
:103a100003003d000080eb00300f980002003700eb
:103a200011002000310f98004e099000be08900050
:103a3000010051009e009000900098000000eb00f3
:103a4000200798001e009000200090000000e00079
:103a5000130032001e00900020009000200f9800fc
:103a60001e009000200090000000e00003003d00d8
:103a70000081eb00120f98000200370010002000b8
:103a8000100f9800ae0890001e09900002805000b0
:103a90009e009000a00098000000eb002007980016
:103aa0001e009000300090000000e0001300320083
:103ab0001e00900030009000000f98001e00900043
:103ac000300090000000e00003003d000080eb00ab
:103ad000700798000200370011002000710798005d
:103ae0000e099000fe009000010051009e00900021
:103af000b00098000000eb00200798001e00900026
:103b0000101090000000e000130032001e00900032
:103b100010109000600798001e0090001010900098
:103b20000000e00003003d000081eb005207980018
:103b3000020037001000200050079800ee009000af
:103b40005e019000028050009e009000901098004e
:103b50000000eb00200798002e0090000080fa0083
:103b6000000006000400fa00100798009e00900074
:103b7000600220000088b90080007800e0a72000e3
:103b8000008f40009e0078000000eb00900098003d
:103b90009e0078000000eb00a00098009e007800d6
:103ba0000000eb00b00098009e0078000000eb00e1
:103bb000901098009e0078000000eb00f000980044
:103bc0009e0078000000eb00c00098009e00780086
:103bd0000000eb00d00098009e0078000000eb0091
:103be000e00098009e0078000000eb008010980034
:103bf0001e009000c200dd0060a320000081400094
:103c00006000b8000089be001e009000c200dd0008
:103c100020a32000008140006000b8000089be00a1
:103c20001e0090004600dd0080007800a0a3200068
:103c300000804000020420008000eb0038fd0700f7
:103c40001e00900080004000a0a72000808040005f
:103c50000000eb00800878001e009000800040000b
:103c6000c0a72000808040000000eb0080087800a2
:103c70001e0090008000400000a3200080804000d3
:103c80000000eb00800878000080fa0000000600c9
:103c90000200fa000000eb00000f78000900370076
:103ca0001e00780080004000e0a2200080804000dc
:103cb0000000eb00800878001e007800a9ff0700d4
:103cc0001e0fe8001e00e000f5ff34000080fa003f
:103cd000000006000400fa00000f780011079800a9
:103ce0009e0090001e007800c90807000080fa00be
:103cf000000006000800fa000000eb002007980012
:103d00008d003700ae009000600220000088b900ee
:103d1000f6004000e0952000008040009000780010
:103d200011079800ae009000600220000088b900e2
:103d3000f0004000e095200000804000100f780067
:103d40002e00900080004000e0a220000080400093
:103d500010007800300798003e009000e20f5000fd
:103d600036003200be009000e28f500007003c0099
:103d70003e0090000000e0000b003200be0090000a
:103d8000e18f500020003200650037003e009000b7
:103d9000e30f500053003200be009000e48f50004b
:103da0003f0032005e0037008000eb002e009000e4
:103db000c8ff07001e009000e10f500006003a0007
:103dc0002e00900080004000e0a220008080400093
:103dd00010002000800878001e009000e20f5000c4
:103de00006003a002e00900080004000e0a2200073
:103df0008080400020002000800878002e00900085
:103e000058ff0700490037009e0078002e00900000
:103e1000b0ff07001e009000e10f50004300320089
:103e20002e00900080004000e0a220008080400032
:103e30000000eb00800878003c0037001e00900076
:103e4000e20f5000070032002e009000800040007a
:103e5000e0a22000808040000000eb008008780095
:103e600032003700a10f20002e00900093fd0700c4
:103e70000000e000060032002e00900080004000ac
:103e8000e0a22000808040004000200080087800f0
:103e90009e0078002e0090002c00070023003700c1
:103ea0001e009000e20f5000070032002e0090002c
:103eb00080004000e0a22000808040003000200010
:103ec0008008780019003700a10f20002e00900014
:103ed0007afd07009e0078002e0090001b0007006e
:103ee00012003700a10f20002e0090007afe07007c
:103ef0000000e000060032002e009000800040002c
:103f0000e0a22000808040000000eb0080087800e4
:103f10008000eb002e0090006eff070003003700ca
:103f20008000eb002e0090006aff07002e0090003a
:103f30000000e800200798002e0090000000e0003c
:103f400070ff34000080fa00000006002400fa0030
:103f5000889fbe008a1f780050079800610798006c
:103f6000de009000600220000088b9008000780028
:103f7000e0a720000080400040079800de0090008d
:103f8000600220000088b90080007800e0952000e1
:103f900000804000300798003e009000900890009c
:103fa0006e009000808f500004003d003e009000a5
:103fb00010089000001798000b0037003e0090009a
:103fc00020089000ee00900011179800001798004c
:103fd0000e1190009e119000830f510002003d00d1
:103fe0001e129000041798008e129000250798006a
:103ff0000000eb00100798003e00900010007800d1
:104000000000d100610060000004e0000400320004
:104010000000eb00b4090700100798000300370008
:104020000000eb00670a070010079800ae00900040
:104030001e0090000080500020558800de01900096
:104040004e009000100090006104b90021558000de
:104050004e009000400090000088de006102b90030
:104060008800780004007800000bb80005c0b90093
:10407000070178000001410009a0b90000014100da
:1040800082037800c218dd00e0a12000008040001b
:104090000688be005e0290005e009000c200dd0057
:1040a00020a32000008040001001be0020558000a9
:1040b000cf80de000201400083814800c220dd0085
:1040c00020a32000008040000288be005e00900017
:1040d000700f98005e009000c200dd0020a3200059
:1040e000008040001001be004e0090007000900063
:1040f000cf80de00800f5100818f59000600340010
:104100004e009000700090006101b900520f9800bd
:10411000630f9800180037005e009000c200dd00b9
:1041200020a32000008040001001be004e0090003f
:10413000700090000000ea006102b900340f98009e
:10414000450f9800520f9800630f98005e0890008a
:10415000ee0890003e099000ce099000820f5000ba
:10416000838f580004003d003e0a9000ce0a900064
:10417000540f9800650f9800fe0a9000c228dd00d9
:1041800020a32000008040005e099000ee0990000e
:104190000288be005e0590004e0090002000900056
:1041a0006104b9005e009000c200dd0020a3200081
:1041b000008040001001be004e00900050009000b2
:1041c0000202be00800078008100e9000300330095
:1041d0008582d1000482d300fbff3700880078007d
:1041e00004007800000bb80005c0b9000701780092
:1041f0000001410009a0b9000001410082037800dc
:10420000c250dd0020a22000008040000688be00d1
:104210005e00900080004000c0a7200000804000a9
:10422000100f78005e0290005e009000c200dd007a
:1042300060a32000008040001001be005e009000de
:104240009e0078004500dd00010040008000400035
:10425000a0a320000080400010007800cf80de0086
:104260000001510081815900c220dd0060a32000bf
:10427000008040000288be005e0190009e01780030
:104280005e00900080004000a0a720000080400059
:10429000900078001e009000010250004510dd00e3
:1042a0000300400080004000a0a3200000804000e8
:1042b000040878005e00900080004000a0a7200065
:1042c000008040001e019000020878005e0290000d
:1042d0005e009000c200dd0060a32000008040006e
:1042e0001001be005e0090009e0078004500dd00d9
:1042f0000100400080004000a0a32000008040009a
:1043000010007800cf80de00020140008381480069
:10431000c220dd0060a32000008040000288be00b3
:10432000de019000230f98001e00e800ff0f5000f0
:1043300003003c001e02e800140f98000200370042
:104340008002eb00150f98002e0890002e089000b8
:1043500080004000c0a72000008040009e08900020
:10436000010878005e0590004e009000300090003b
:104370006104b9005e009000c200dd0060a320006f
:10438000008040001002be00880078000400780021
:10439000000bb80005c0b90007017800000141001a
:1043a00009a0b90000014100820378004e0090008e
:1043b000600090000601be00000278000402e900df
:1043c000030033008381d1000281d300fbff37005b
:1043d000c250dd0060a22000008040000288be00c4
:1043e0005e0290004e009000101190004e00900070
:1043f000f00890002e009000810050004e009000c8
:10440000001090000088de000090b9006101b90042
:10441000c220dd00a0a22000008040000288be0073
:104420005e009000c200dd00e0a12000008040009e
:104430001001be005e009000c200dd0020a220003e
:10444000008040001000be0002014000838148004f
:104450005e009000c200dd0060a2200000804000ed
:104460001000be0002014000838148005e00900001
:10447000c200dd00a0a22000008040001000be00ad
:104480000200400083804800305588004155880074
:10449000325580004355800000c8200001002000f4
:1044a000800f5100818f590010003c003055800072
:1044b0004155800070079800010f980040382f0088
:1044c000f1ff2f007e0190008e099000800f5100b7
:1044d000818f590009003d0044382f00f5ff2f005f
:1044e00074079800050f98000400370000c82000ea
:1044f0000100200070079800010f98007e019000d5
:104500008e09900032558800435588003055800050
:1045100041558000800078005e009000edfd0700ae
:104520004f0578004f04be000080fa00000006002e
:104530000000fa000080fa00000006000000fa0007
:10454000c2c2bf00704060000004e0000200320000
:10455000c482a90001003700c482a8000080fa00cc
:10456000000006000000fa00c3c2bf006140600006
:104570000080fb000080fa00000006000000fa0046
:10458000bb0507000000eb000080fa0000000600f9
:104590000000fa000080fa00000006000000fa00a7
:1045a000e9cabf000080fb00610060000004e00079
:1045b0000c00320010c0b300cceab7008256800075
:1045c000f1568000609a200060010700619a200087
:1045d000e095200025000900315878006002b10004
:1045e0006102b1000080fa00000006000800fa0035
:1045f000140007000e00780082002000019c2000bb
:10460000520107003e00be002e01be00449820006b
:10461000009abe000292be0040982000219e200019
:1046200021000900b05878002002b10072568000c5
:1046300001578000209e20006d0107000080fa00d5
:10464000000006000000fa000000eb001d08070053
:10465000004d88001000200023080700f04c88005f
:104660001000200017080700104d88000000eb0024
:104670001d080700704c880020002000bffa0700ca
:10468000804c880030002000bcfa0700b04c880045
:1046900040002000b9fa0700904c88000000eb00b1
:1046a000a04c88000000eb00b4fa0700c04c880062
:1046b00010002000b1fa0700d04c88000000eb0089
:1046c00099050700e04c8800a04a8000604c8800f3
:1046d000b04a80000020a000204d88000080fa0031
:1046e000000006003600f800809fbe00829fbe00da
:1046f000849fbe00869fbe000200fa00d4c2a800bc
:104700008400a900b7000700d2cabf000004e0007f
:104710000a003200cacabf000004e00002003200f2
:104720009eff07000100370099ff0700cbcabf00ba
:104730000004e00001003200acff07001000200080
:10474000904a88000080fa004f03be004f02be006e
:104750004f01be004f00be003600f90000400600c9
:104760000400fa000040eb0030479800c00320002e
:1047700070568800c00320008056880040982000b2
:10478000220220008000eb0065fa0700e09520007f
:10479000620220008000eb0061fa0700609a2000ae
:1047a000c20320008000eb005dfa0700209e20007d
:1047b000c20320008000eb0059fa07000000eb0064
:1047c000000f78000d0037001e00780080004000c8
:1047d00040952000808040000000eb0080087800b9
:1047e0001e0078008000400060952000808040001e
:1047f0000000eb00800878001e0fe8001e00e000bb
:10480000f1ff34000000eb00c04a88006000b800ef
:10481000d04a8800e14a88000000eb00904a8800f6
:10482000160007008200a8008220a8008240a8008d
:10483000d4c2a8008400a900630047001200200031
:1048400001142000230107003e409000e54f500076
:10485000f9ff3a00120020005100200030ad200086
:104860001c0107000000eb00650107009400a80090
:10487000e70407000080fa00000006000000fa00cc
:104880008540a9009540a9000000eb0010128800a7
:1048900042a2a8002124200091407800c0cfb3009c
:1048a00000c060000014a00042e2b70021242000f4
:1048b0009140780030ceb30000c060008041b3006a
:1048c00042e2b70042c2a8004302a9004322a90065
:1048d0004342a90040c2a90041e2a800d4c2a800f6
:1048e0000080fa00000006000000fa000000eb0063
:1048f0000080fa00000006000000fa000000eb0053
:104900000080fa00000006000000fa000000eb0042
:104910000080fa00000006000000fa000000eb0032
:104920000080fa00000006000000fa000000eb0022
:104930000080fa00000006000000fa000000eb0012
:104940000080fa00000006000000fa000000eb0002
:104950000080fa00000006000000fa009400a900a0
:10496000d4c2a9008540a90000042000401288009c
:1049700085c0bf00644060000004e000fcff32001e
:1049800040128000e8eab7008540a9002007200017
:104990004012880085c0bf00644060000004e00051
:1049a000fcff320040128000e9eab7008540a90010
:1049b000f00f20004012880085c0bf0064406000f6
:1049c0000004e000fcff320040128000f4eab7006f
:1049d0008540a900d4c2a8009400a8000080fa0075
:1049e000000006000000fa00d4c2a9008540a9001a
:1049f0000000eb004012880085c0bf0064406000ea
:104a00000004e000fcff320040128000e8eab7003a
:104a10008540a900200020004012880085c0bf000a
:104a2000644060000004e000fcff3200401280009f
:104a3000e9eab7008540a900d4c2a8000080fa00c6
:104a4000000006000600fa00100798004147980091
:104a50001e009000c300dd004e4090000080fb006f
:104a600000807000000f7800d4c2a9008540a90022
:104a70001e4090000080fb004012880085c0bf00ef
:104a8000644060000004e000fcff3200401280003f
:104a9000e8eab7008540a9001e4078000080fb00ce
:104aa0004012880085c0bf00644060000004e00040
:104ab000fcff320040128000e9eab7008540a900ff
:104ac0000080fa00000006000800fa0020079800a5
:104ad000614798002e009000c300dd006e409000fa
:104ae0000080fb000080700010079800d4c2a9006d
:104af0008540a9003e4090000080fb0040128800e5
:104b000085c0bf00644060000004e000fcff32008c
:104b100040128000004f78008540a9002e40900090
:104b20000080fb004012880085c0bf006440600028
:104b30000004e000fcff320040128000004f7800cb
:104b40008540a9000080fa00000006000a00fa0073
:104b50002007980031079800420798004e00900007
:104b6000100798000040eb00004f780021c0b30010
:104b70003e009000d4ff0700130037001e00900095
:104b80000000e00002003a0000c0eb00004f780097
:104b90008540a9001e80fb004012880085c0bf0030
:104ba000644060000004e000fcff3200401280001e
:104bb000804078002e009000014878002e00900080
:104bc0000000e800200798001e0090000000e900a7
:104bd000100798001e009000e10f4000e7ff3a0028
:104be0008540a900d4c2a8000080fa000000060099
:104bf0000a00fa0020079800310798004207980041
:104c00004e0090001007980041c0b3003e00900095
:104c1000adff07000e0037008540a9002e00900070
:104c2000104078000080fb004012880085c0bf0063
:104c3000644060000004e000fcff3200401280008d
:104c4000004f78002e0090000000e8002007980038
:104c50001e0090000000e900100798001e00900060
:104c6000e10f4000ecff3a008540a900d4c2a80043
:104c70000080fa00000006000000fa0036ff07007e
:104c8000c05680000000e00000003200e8cabf000b
:104c90000080fb00610060000004e0000b003200b7
:104ca000220020000112200060ae20000900070051
:104cb00081ae200091407800e0ceb30000c06000db
:104cc000e8eab700e6cabf006b0207000080fa00fe
:104cd000000006000800fa0010079800210798005d
:104ce000320798003e009000000f78001700370050
:104cf0009400a90021c0b3002e00900051ff0700ce
:104d0000f00f20004012880085c0bf0064406000a2
:104d10000004e000fcff3200401280008040780078
:104d20001e009000014878001e0090000000e8007e
:104d3000100798009400a800d4c2a8002e0090008c
:104d40000000e800200798008540a9001e0fe90038
:104d50000080eb009e0f1000e5ff3a000080fa0093
:104d6000000006000a00fa002007980031079800aa
:104d7000420798004e009000100798001800370076
:104d80009400a90041c0b3003e0090002dff070031
:104d90008540a9002e009000104078000080fb00a4
:104da000401288002e0090000000e80020079800c4
:104db00085c0bf00644060000004e000fcff3200da
:104dc00040128000004f78009400a8003e00900040
:104dd0000000e800300798008540a900d4c2a80070
:104de0001e0090000000e900100798001e009000cf
:104df000e10f4000e2ff3a000080fa0000000600e8
:104e00000400fa00100798000e007800220020002d
:104e100041202000afff07009e0078001e00900098
:104e200000806000000f78009400a9001e00780048
:104e30000000e00002003a000040eb00e4eab700a6
:104e40000e0078002200200041202000c5ff07004e
:104e50009400a8000080fa00000006000400fa0098
:104e6000100798000e00780022002000412020004a
:104e700098ff07009e0078001e00900000807000e0
:104e8000000f78009400a90010c0b300e4eab70056
:104e90000e0078002200200041202000b1ff070012
:104ea0009400a8000080fa00000006000400fa0048
:104eb00020479800314798002e4090000080fb006a
:104ec000000f78000e00780022002000011320005f
:104ed000a4ff07003e409000e14f40000700320071
:104ee0003e4090000080fb00000f78000e0078002c
:104ef00022002000411320009aff07000080fa00e2
:104f0000000006000400fa002047980010c0b3001b
:104f1000004f78002e4090000080fb00c300dd00b1
:104f20007080200080804000120020000e00780079
:104f30008cff07000080fa00000006000400fa0061
:104f4000204798000040eb00004f78002e40900072
:104f50000080fb00c300dd007080200080804000e6
:104f6000120020000e0078007eff07000080fa008b
:104f7000000006000200fa00004f78001e80fb00cf
:104f8000c300dd000080200080804000c0ae200013
:104f9000820020004fff0700c0ae20000080fa0012
:104fa000000006000800fa00004f78001107980082
:104fb0001e80fb00300798003e0090000000e000db
:104fc000040032003e009000e10f50005600320015
:104fd000a90037001e009000604090008080fb0018
:104fe000d00f2000008060000000e0000a003a00be
:104ff0001e009000100090000000e00006003a0043
:10500000805680000000e00003003a000000eb0042
:1050100020079800a80037001e0090006040900014
:105020008080fb00d00f200000806000e10f500066
:105030003a003a001e0090009000900080568000d8
:10504000808f500035003a001e00900040409000d4
:105050000080fb006d006000e40f50002c003a005f
:10506000d5cabf00e24f50000a003a001e0090006f
:1050700090007800f0ff2000808f5000050036007f
:105080001e0090009000780000002200808f5000e9
:1050900008003600d5cabf00e24f500019003200a8
:1050a0001e00900090007800f0568000808f500025
:1050b00014003a001e009000404090000080fb0069
:1050c0004600de00610060000004e00003003200e2
:1050d00010c0b300dceab700020037000040eb006c
:1050e000dceab700705680000000e00002003a00e1
:1050f00010c0b300d2eab7000000eb002007980010
:105100006d00370020002000200798006a0037005b
:105110004000200020079800670037003000200082
:1051200020079800640037001e0090006040900047
:105130008080fb00d00f2000008060000000e000b5
:105140000a003a001e009000100090000000e000ed
:1051500006003a00705680000000e00003003a00ac
:105160000000eb0020079800530037001e0090005d
:10517000604090008080fb00d00f20000080600025
:10518000e10f500039003a001e009000900090009e
:1051900070568000808f500034003a001e0090004e
:1051a000404090000080fb006d0060000000e000c7
:1051b0002b003a00d5cabf00e24f50000a003a0067
:1051c0001e00900090007800f0ff2000808f5000bb
:1051d000050036001e0090009000780000002200bc
:1051e000808f500008003600d5cabf00e24f500043
:1051f000180032001e0090009000780000578000d8
:10520000808f500013003a00705680000000e000cc
:105210000d0032001e009000404090008080fb0096
:10522000d00220008080600000022000808f5000ab
:1052300003003a0010c0b300d2eab7000200370002
:105240000040eb00d2eab7000000eb002007980016
:1052500019003700200020002007980016003700b2
:105260004000200020079800130037003000200085
:1052700020079800100037001e009000604090004a
:105280008080fb00d00f2000008060000000e00064
:1052900004003a001e009000100090000000e000a2
:1052a0000300320030002000200798000200370081
:1052b0000000eb00200798002e0090000080fa000c
:1052c000000006000600fa00404798000040eb008e
:1052d000104798000040eb00304798001f0037004f
:1052e0003e409000004f78003e4090000004e000f7
:1052f00003003a0010c0b300004f780005003700eb
:105300003e409000e14f500002003a000040eb00a8
:10531000004f78001e40780016ff070080007800dc
:105320001e4078001fff0700204798002e40900085
:105330000004e000060032001e4090000004e0007f
:1053400003003a001e4078007d404000104798005e
:105350003e4090000040e80030479800be4090007a
:105360004e40900080cf5000ddff39001e4090007d
:105370000080fb000080fa00000006000800fa0030
:105380000000eb00000f78000040eb00f9fe070082
:10539000100798001e00900010007800f05688005a
:1053a00010c0b300f3fe0700100798001e00900025
:1053b0001000780000578800805680006300b90014
:1053c00080007800f0568000808040000057800008
:1053d000808f500009003600015780007056800011
:1053e00080804000f0568000808f5000030036001f
:1053f000d001200030079800190037007056800057
:105400000000e0000d00320010c0b300cbfe07002a
:1054100041fd0700404798004e4090000004e00026
:10542000040032004e4090000080fb0030079800de
:105430000b00370010c0b300cbeab70080568000e5
:105440000000e000020032000040eb00bbfe07005d
:105450001e00780081fe07000000eb003007980076
:105460003e0090000080fa00000006000c00fa00e8
:105470000040eb00404798006600470022002000f3
:105480000140200013fe07003e0090000000e000f5
:1054900023003200dccabf000004e000200032001c
:1054a00068004700220020000142200009fe07009a
:1054b0004e0090000000e0001d0032004e00900001
:1054c00001002000008fbe003e0090006103b80084
:1054d0009e00780006007800000ab8001e007800e0
:1054e0000780b90005017800000141001e0090000e
:1054f00000b0b9000001410082027800048fbe00b4
:105500001e00be00821a2600030020000bf70700d1
:10551000008fbe001e007800c056880004003700cf
:105520000000eb00400798000000eb00c056880028
:105530004e0090000000e00006003a00dccabf0008
:105540000004e00009003200f0012000500798003c
:1055500021003700dccabf000004e00003003a006d
:10556000f0012000500798001b0037008056800093
:105570000000e00009003200effc070040479800ff
:105580004e4090000004e000040032004e409000c5
:105590000080fb00500798000f00370010c0b300d8
:1055a000caeab700e2cabf000004e00008003a00ff
:1055b000d2cabf000004e00005003200805680001f
:1055c0000000e000020032000010200023fe07006f
:1055d0000000eb00500798005e0090000080fa0089
:1055e000000006000200fa000040eb00004f7800c7
:1055f000f0ef2f0002fe07000040eb00cceab700fe
:105600000040eb00caeab700805680000000e000ce
:1056100002003200ccfc0700004f78001e80fb0027
:105620000080fa00000006000200fa000040eb00d3
:10563000004f78000040eb0032fe070030cf2f0013
:10564000effd07000040eb00d2eab7000040eb009e
:10565000e2eab7000040eb00cbeab70010c0b300ad
:1056600028fe0700b0fc0700004f78001e80fb00fa
:105670000080fa00000006000c00fa0020479800a5
:105680000040eb00104798002e4090000080fb0087
:105690004400de00610060000004e000050032000c
:1056a000d5cabf00f1ceb30001406000d5eab70013
:1056b0000e003700d5cabf000080fb004400de00aa
:1056c000610060000004e000080032002e409000fd
:1056d0000080fb00ef006000d5cabf000080fb0027
:1056e0006f006000808f500047013c002e4090000a
:1056f0006f40600020479800d5cabf00004f780077
:105700001e4078004400dd00004f78002e409000dd
:105710001e4f40001e407800ddeab7001e80fb00ef
:105720003007980040042000be009000808f500099
:105730002d003200400420003e019000800f5100f7
:105740000e003c0020022000be019000808f51001e
:105750002800320020022000be009000808f500000
:1057600001003c0023003700400220003e01900071
:10577000800f5100170032001e0037002008200063
:10578000be019000808f51001a00320020082000d6
:10579000be009000808f500005003c008004200077
:1057a0003e019000800f51000f00320011003700c1
:1057b00040082000be019000808f51000a00320096
:1057c00080082000be009000808f5000060032004c
:1057d000080037004cfc0700104798001e4090005e
:1057e0000004e00003003a00d3cabf00b5fe070082
:1057f000104798001e4090000004e000af003a00ff
:105800001e80fb006101b900f0fe2f00f1ff2f00a8
:105810000201400083814800420798005307980026
:1058200070072000010020004e019000de01900072
:10583000800f5100818f59009d003e004e00900066
:10584000de0090000060010093003700bb003700cd
:10585000750037009300370095003700940037003b
:10586000930037008f003700910037009000370019
:105870008f0037008e0037008d0037008c00370016
:105880008b0037008a003700ac00370082003700f9
:105890008400370067003700850037008400370038
:1058a000830037007f003700810037008000370019
:1058b0007f0037007e0037007d0037007c00370016
:1058c0007b0037007a003700790037007800370016
:1058d0007700370076003700750037007400370016
:1058e0007300370072003700710037007000370016
:1058f0006f0037006e0037006d0037006c00370016
:105900006b0037006a00370060003700570037002f
:10591000640037006000370065003700640037001e
:105920006300370046003700610037006000370031
:105930005f0037005e0037005d0037005c00370015
:105940005b0037005a003700590037005800370015
:105950005700370056003700550037005400370015
:105960005300370052003700510037005000370015
:105970004f0037004e0037004d0037004c00370015
:105980004b0037004a003700490037004800370015
:105990004700370046003700450037004400370015
:1059a0004300370042003700410037004000370015
:1059b0003f0037003e0037003d0037003c00370015
:1059c0003b0037003a003700390037003800370015
:1059d0003700370036003700350037003400370015
:1059e0003300370032003700310037003000370015
:1059f0002f0037002e0037002d0037002c00370015
:105a00002b0037002a0037001b0037001200370038
:105a1000240037000d003700250037002400370030
:105a2000230037001c00370030c1b3001047980036
:105a30004200370051fe0700104798003f00370032
:105a40008afe0700104798003c003700e5fe07007b
:105a50001047980039003700e2fe07001047980011
:105a60001e4090000004e00034003a00eefe070003
:105a70001047980031003700dafe07001047980001
:105a80001e4090000004e0002c003a00e6fe0700f3
:105a90001047980029003700e0cfb3001047980066
:105aa0002600370010c1b3001047980023003700cc
:105ab00020c1b3001047980020003700d5cabf00ae
:105ac0000080fb0020079800ae009000e48f50009b
:105ad000080032002e019000e80f5100040032004f
:105ae000ae019000e28f51000c003200130037002d
:105af000bcfe07001e409000fd4f50000400320025
:105b0000c9fe070020c0b300d5eab7000300370084
:105b100040c0b300d5eab700080037001e4090002f
:105b2000f64f500003003a0010c0b300d5eab700aa
:105b30000200370020c0b300d5eab7001e40900035
:105b4000e14f4000300032002e4090008080fb008a
:105b5000d5cabf000080fb006f006000808f50003e
:105b6000260032001e4090000004e00006003200d3
:105b7000d5cabf00d6eab700d5cabf000044a0000e
:105b8000d5eab70017003700d7cabf000004e0000d
:105b900008003200d7cabf00104798002e4090007e
:105ba000d6eab7002e4090000044a000204798009d
:105bb0000a00370061ad2000914078002e4090002f
:105bc000814f500003003e0000c0eb0010479800da
:105bd000020037000040eb00d6eab7002e409000ec
:105be000d5eab700d5cabf009e409000affc0700c1
:105bf0000040eb00d7eab70003003700d5cabf006a
:105c00008040eb00a9fc07000080fa0000000600bd
:105c10000000fa000040eb00dceab7000040eb00b7
:105c2000d6eab7000040eb00d7eab7000040eb002f
:105c3000cceab7000040eb00caeab7000040eb0036
:105c4000cbeab7000040eb00e2eab7000040eb000f
:105c5000d2eab70010c0b300d5eab700d5cabf007a
:105c60008040eb0091fc07000080fa000000060075
:105c70000000fa0000fc07000080fa0000000600a7
:105c80000800fa0010002000000f7800be01070095
:105c9000cf010700f60107009e01070024fa070064
:105ca0005a010700faf7070070f507005c020700c9
:105cb0002c03070001003700c482a80029fa07005e
:105cc0000000e000fcff3200a5fa0700c482a90032
:105cd000900107000000370028fa07001e0090001e
:105ce00002e22400110009000200d8008000fd003b
:105cf0008040eb00614798000000e00002003a009d
:105d000010c0b300604798001e0090000000e8003b
:105d100010079800ee4090000104e000eeff320012
:105d200006fa0700ecff37000200fa00000f7800c7
:105d30001e0078008000400060af2000008040001e
:105d4000100078000080fa00000006000800fa0049
:105d5000000f7800110798001e0090000000e0007e
:105d600003003a000000eb00300798002d003700d8
:105d70009e007800600220000088b90041022000e7
:105d800080804000e09520000080400010007800f6
:105d90000000e00016003d009e0078006002200038
:105da0000088b9004102200080804000e09520007a
:105db000008040001000780020079800ae0090009e
:105dc0000100e00003003d002e0090000000ea000a
:105dd000200798001e009000ae009000808f5000b9
:105de0000e0034000000eb00100798000b00370095
:105df0009e007800600220000088b9004102200067
:105e000080804000e09520000080400090007800f5
:105e10001e00900001004000100798001e00900036
:105e2000300798003e0090000080fa000000060055
:105e30000c00fa0010079800210798009e009000bf
:105e4000600220000088b900f8004000e0952000c2
:105e500000804000100078000000e00009003200df
:105e60009e009000600220000088b900f800400009
:105e7000e095200000804000100078000000e00065
:105e80000f0034009e009000600220000088b900de
:105e9000f8004000e09520000080400010007800ed
:105ea0005007980000c82000de009000808f50004e
:105eb0000500340000c82000500798000200370099
:105ec0008000eb00510798005e009000000f780002
:105ed00001c820002e0090008080500000c82000e3
:105ee000808f50000e003c0001c820002e00900062
:105ef0008080500000c820001e005000300798002d
:105f000041079800ce0090003e009000808f500026
:105f100005003d00be0090004107980002003700d8
:105f200000c82000400798004e0090000080fa0052
:105f3000000006000a00fa001007980021079800e8
:105f40009e009000600220000088b900f800400028
:105f5000e095200000804000100078000000e00084
:105f6000090032009e009000600220000088b90005
:105f7000f8004000e095200000804000100078000c
:105f80000000e0000f0034009e009000600220003e
:105f90000088b900f8004000e09520000080400033
:105fa000100078004007980000c82000ce00900044
:105fb000808f50000500340000c820004007980082
:105fc000020037008000eb00410798004e0090006f
:105fd000000f78001e00e00008003500ae009000c1
:105fe000310798003e0090000000e00005003d00f1
:105ff0008000eb0031079800020037001e00780097
:10600000300798003e0090000080fa000000060073
:106010001a00fa0010079800210798001e0090004f
:10602000300f98002e0090000000e00003003d00bb
:106030008080eb00210f9800020037001200200042
:10604000220f9800ae019000130f98001e089000d8
:106050000000e00003003d009e0890008100ea007f
:10606000110f98009e009000600220000088b90087
:10607000f8004000e095200000804000100078000b
:10608000000f98001e09900072079800fe01900012
:106090000e089000808f5100020034008e0890009e
:1060a000710798002e099000fe0190000390b9003e
:1060b000000178003e0890003e08900080004000fb
:1060c00060af200000804000020878009e00900031
:1060d000600220000088b900f8004000e095200030
:1060e000008040001000780060079800ee009000eb
:1060f0000100e00003003d006e0190000201ea0093
:1061000062079800ee019000430f980000c820003d
:10611000ce089000808f50000200340002c820009a
:10612000420f9800ce099000030f78002e009000d7
:106130000000e00002003c00cda2a80001003700f2
:10614000cda2a9002e0090000000e0001300320054
:106150002e00900050079800de0090000100e00043
:1061600003003d005e0190000201ea005207980022
:106170009e009000600220000088b90041022000cb
:1061800080804000e09520000080400010007800f2
:10619000de019000008041002007980001c8200027
:1061a0002e0090008080500000c82000808f50009a
:1061b0000e003c0001c820002e009000808050009e
:1061c00000c820001e0050003007980041079800ca
:1061d0004e009000be009000810f500005003d0071
:1061e0003e019000420798000200370003c82000db
:1061f000430798004e009000c0578800c0578000a9
:10620000b00e88000080fa00000006000200fa00cc
:106210000000eb00000f78000d0037001e00780032
:106220008000400060af2000808040000000eb0054
:10623000800878001e0078008000400080af2000b9
:10624000808040000000eb00800878001e0fe8000e
:106250001e00e000f1ff3400c1e1a9000000eb00e6
:10626000000e8800c0c1bf006f406000c0e1b700f1
:10627000011c20009140780030cfb30000c06000c6
:10628000c0e1b700f0632000200e8800011c200050
:1062900091407800c0cfb30000c06000c0e1b700fb
:1062a0000000eb00100e88000000eb00400e88009c
:1062b000c921a800c901a800c881a8000000eb00fe
:1062c000b00e8800cd82a9000000eb00500e8800bf
:1062d000b11c20009140780000cfb30000c06000e6
:1062e000cbe1b700310e8000000028000080600084
:1062f000a10f200001007000300e88000000eb00ac
:10630000800e88008b20a900c1e1a8000080fa005f
:10631000000006000000fa00410a200091407800c9
:1063200080cfb30000c060003040b300a4e0b700ed
:10633000210b200091407800f0c8b30000c060003d
:1063400001c2b30001407000b2e0b700a10a200012
:1063500091407800f0c8b30000c0600001c5b300f0
:1063600001407000aae0b700810a20009140780047
:1063700080cfb30000c060000024a000a8e0b700f8
:106380000080fa00000006000000fa00000a200069
:10639000303a880044c7bf00f043b20044e7b7007a
:1063a000417420009140780000ceb30000c060002e
:1063b0007041b30044e7b70042c7bf000042b200db
:1063c0000004e000fcff32000080fa00000006003c
:1063d0000000fa000000eb00101688000000eb003f
:1063e000501688000000eb0090168800c082a900bb
:1063f000c102a800c8e2a800c942a800c962a8005a
:10640000d062a900d082a800d0c2a900d0e2a90021
:10641000d102a900d122a800c002a800c022a80071
:10642000c802a800c822a800c842a800c8a2a800a4
:10643000d042a900d002a900c8c2a800c862a90021
:10644000d022a900c882a800c922a800c902a800b9
:10645000c942a900c962a900c982a900c9a2a900ac
:10646000c9c2a900c9e2a9000080fa000000060024
:106470000000fa002174200062042000730520004f
:10648000824878008348780042c7a900216820002c
:106490009140780000ceb30000c060004041b300de
:1064a00082e6b700816a20009140780000ceb300f8
:1064b00000c060009041b300a8e6b700616d200005
:1064c0009140780000ceb30000c060009040b3005f
:1064d000d6e6b700716d20009140780000ceb30081
:1064e00000c060000034a000d7e6b700816d200036
:1064f0009140780000ceb30000c060007040b3004f
:10650000d8e6b70021742000620420007305200043
:10651000824878008348780042c7a8000080fa00cb
:10652000000006000600fa00200798000000eb00bb
:10653000100798000a0037000000eb00000f7800f9
:10654000010037001e0fe800700020009e0f1000b1
:10655000fcff34001e0090000000e80010079800c7
:106560009e0090002e009000808f5000f2ff3500ba
:106570000080fa00000006000600fa0020079800dc
:106580000000eb00100798000a0037000000eb0045
:10659000000f7800010037001e0fe800f0f3210023
:1065a0009e0f1000fcff34001e0090000000e80069
:1065b000100798009e0090002e009000808f5000e1
:1065c000f2ff35000080fa00000006000600fa0025
:1065d000200798000000eb00100798000a00370021
:1065e0000000eb00000f7800010037001e0fe800ec
:1065f000f03120009e0f1000fcff34001e009000c0
:106600000000e800100798009e0090002e00900007
:10661000808f5000f2ff35000080fa000000060075
:106620000000fa000000eb00e05788000000eb00db
:10663000900888000000eb0050088800211120001d
:1066400091407800f0ccb30000c060000044a0008e
:1066500012e1b700409c2000700888008500a90066
:1066600013e1a8009500a8000080fa0000000600d1
:106670003600f800809fbe00829fbe00849fbe004f
:10668000869fbe000000fa008500a900d462a80021
:10669000d500070097f50700e05780000000e800ec
:1066a000e0578800d462a9000080fa004f03be00c2
:1066b0004f02be004f01be004f00be003600f90081
:1066c000004006000200fa00000f78001e0078006b
:1066d0008000400040ac20000080400010007800a6
:1066e0000080fa00000006000800fa003007980059
:1066f0006000b80010079800210798000000eb0028
:10670000000f78000f0037003e0090009e007800d8
:1067100002ab2000000040000100400000004000eb
:10672000600079006101b8001e009000ae0090008a
:10673000000041008180490010079800210798005f
:106740001e0fe800100020009e0f1000eeff340026
:106750001e009000ae0090008180d1000080d30028
:106760000080fa00000006000600fa00000f780022
:10677000110798001e00900063006000e20f5000b7
:10678000050032001e009000c200de00e0fd230084
:10679000808f5000210036001e0178001e00780016
:1067a0008000400040ac20000080400010007800d5
:1067b0008001e8008200410040ac200000804000e1
:1067c000030878009e007800600220000088b9006d
:1067d00080007800e09520000080400010007800e4
:1067e0004700de00610060000004e00003003200aa
:1067f0001e009000200798000a0037001e00780055
:1068000080004000a0aa2000008040001000780016
:106810004200dd0020079800020037001e009000b3
:10682000200798002e0090000080fa00000006006b
:106830000c00fa00300798003e0090006600b90096
:106840008000780080ab200000804000900078003d
:10685000210798003e0090006600b9008080e800a3
:1068600080ab200000804000900078001107980065
:106870003e0090006600b900e400400080ab2000bc
:1068800000804000100f7800ae0090001e009000c5
:10689000808f500003003e002e0090009e0f50009d
:1068a000070031002e0090009e0f500007003e00b0
:1068b000ae0090001e009000808f50000300390051
:1068c0002e00900040079800210037009e009000a5
:1068d0002e009000808f500003003e001e009000ac
:1068e0009e0f5000070031001e0090009e0f5000c8
:1068f00007003e009e0090002e009000808f500008
:10690000030039009e0090004107980010003700f6
:106910002e0090009e0f100003003e001e0090000d
:106920009e0f1000060031001e0090009e0f100008
:1069300006003e002e0090009e0f1000030039005c
:106940001e00780040079800010037000200370061
:10695000ce009000510798005e0090000080fa0081
:10696000000006000200fa00d442a800cc62a80091
:106970000000eb00000f78000d0037001e007800cb
:1069800080004000a0aa2000808040000000eb00b2
:10699000800878001e0078008000400040ac200095
:1069a000808040000000eb00800878001e0fe800a7
:1069b000100020009e0f1000f0ff34000080fa004d
:1069c000000006000200fa00000f78001e007800a8
:1069d00080004000a0aa2000008040001000780045
:1069e0000080fa00000006000800fa00c8a2a90012
:1069f000cea2a800c8c2a900cec2a800d442a90055
:106a0000cc62a900d402a900d422a9000000000091
:106a10000000000000000000000000000000000076
:106a20000000000000000000000000000000000066
:106a30000000000000000000000000000000000056
:106a40000000000000000000000000000000000046
:106a50000000000000000000000000000000000036
:106a60000000000000000000000000000000000026
:106a70000000000000000000000000000000000016
:106a80000000000000000000000000000000000006
:106a900000000000000000000000000000000000f6
:106aa00000000000000000000000000000000000e6
:106ab00000000000000000000000000000000000d6
:106ac00000000000000000000000000000000000c6
:106ad00000000000000000000000000000000000b6
:106ae00000000000000000000000000000000000a6
:106af0000000000000000000000000000000000096
:106b00000000000000000000000000000000000085
:106b10000000000000000000000000000000000075
:106b20000000000000000000000000000000000065
:106b30000000000000000000000000000000000055
:106b40000000000000000000000000000000000045
:106b50000000000000000000000000000000000035
:106b60000000000000000000000000000000000025
:106b7000000000000000000000000000d402a80097
:106b8000d422a800cca2a800ccc2a800000000001b
:106b900000000000000000000000000000000000f5
:106ba00000000000000000000000000000000000e5
:106bb00000000000000000000000000000000000d5
:106bc00000000000000000000000000000000000c5
:106bd00000000000000000000000000000000000b5
:106be00000000000000000000000000000000000a5
:106bf0000000000000000000000000000000000095
:106c00000000000000000000000000000000000084
:106c10000000000000000000000000000000000074
:106c20000000000000000000000000000000000064
:106c30000000000000000000000000000000000054
:106c4000000000000000000000000000d402a900c5
:106c5000d422a90000000000000000000000000095
:106c60000000000000000000000000000000000024
:106c70000000000000000000000000000000000014
:106c80000000000000000000000000000000000004
:106c900000000000000000000000000000000000f4
:106ca00000000000000000000000000000000000e4
:106cb00000000000000000000000000000000000d4
:106cc00000000000000000000000000000000000c4
:106cd00000000000000000000000000000000000b4
:106ce00000000000000000000000000000000000a4
:106cf0000000000000000000000000000000000094
:106d00000000000000000000000000000000000083
:106d100000000000d402a800d422a800cca2a90040
:106d2000ccc2a9000000000000000000000000002c
:106d30000000000000000000000000000000000053
:106d40000000000000000000000000000000000043
:106d50000000000000000000000000000000000033
:106d60000000000000000000000000000000000023
:106d70000000000000000000000000000000000013
:106d80000000000000000000000000000000000003
:106d900000000000000000000000000000000000f3
:106da00000000000000000000000000000000000e3
:106db00000000000000000000000000000000000d3
:106dc00000000000000000000000000000000000c3
:106dd00000000000000000000000000000000000b3
:106de00000000000d402a900d422a9000000000085
:106df0000000000000000000000000000000000093
:106e00000000000000000000000000000000000082
:106e10000000000000000000000000000000000072
:106e20000000000000000000000000000000000062
:106e30000000000000000000000000000000000052
:106e40000000000000000000000000000000000042
:106e50000000000000000000000000000000000032
:106e60000000000000000000000000000000000022
:106e70000000000000000000000000000000000012
:106e80000000000000000000000000000000000002
:106e900000000000000000000000000000000000f2
:106ea000000000000000000000000000d402a80064
:106eb000d422a800cca2a800ccc2a80000000000e8
:106ec00000000000000000000000000000000000c2
:106ed00000000000000000000000000000000000b2
:106ee00000000000000000000000000000000000a2
:106ef0000000000000000000000000000000000092
:106f00000000000000000000000000000000000081
:106f10000000000000000000000000000000000071
:106f20000000000000000000000000000000000061
:106f30000000000000000000000000000000000051
:106f40000000000000000000000000000000000041
:106f50000000000000000000000000000000000031
:106f60000000000000000000000000000000000021
:106f7000000000000000000000000000d402a90092
:106f8000d422a90000000000000000000000000062
:106f900000000000000000000000000000000000f1
:106fa00000000000000000000000000000000000e1
:106fb00000000000000000000000000000000000d1
:106fc00000000000000000000000000000000000c1
:106fd00000000000000000000000000000000000b1
:106fe00000000000000000000000000000000000a1
:106ff0000000000000000000000000000000000091
:107000000000000000000000000000000000000080
:107010000000000000000000000000000000000070
:107020000000000000000000000000000000000060
:107030000000000000000000000000000000000050
:1070400000000000d402a800d422a800cca2a9000d
:10705000ccc2a900000000000000000000000000f9
:107060000000000000000000000000000000000020
:107070000000000000000000000000000000000010
:107080000000000000000000000000000000000000
:1070900000000000000000000000000000000000f0
:1070a00000000000000000000000000000000000e0
:1070b00000000000000000000000000000000000d0
:1070c00000000000000000000000000000000000c0
:1070d00000000000000000000000000000000000b0
:1070e00000000000000000000000000000000000a0
:1070f0000000000000000000000000000000000090
:10710000000000000000000000000000000000007f
:1071100000000000d402a900d422a9000000000051
:10712000000000000000000000000000000000005f
:10713000000000000000000000000000000000004f
:10714000000000000000000000000000000000003f
:10715000000000000000000000000000000000002f
:10716000000000000000000000000000000000001f
:10717000000000000000000000000000000000000f
:1071800000000000000000000000000000000000ff
:1071900000000000000000000000000000000000ef
:1071a00000000000000000000000000000000000df
:1071b00000000000000000000000000000000000cf
:1071c00000000000000000000000000000000000bf
:1071d000000000000000000000000000d402a80031
:1071e000d422a800cca2a800ccc2a80000000000b5
:1071f000000000000000000000000000000000008f
:10720000000000000000000000000000000000007e
:10721000000000000000000000000000000000006e
:10722000000000000000000000000000000000005e
:10723000000000000000000000000000000000004e
:10724000000000000000000000000000000000003e
:10725000000000000000000000000000000000002e
:10726000000000000000000000000000000000001e
:10727000000000000000000000000000000000000e
:1072800000000000000000000000000000000000fe
:1072900000000000000000000000000000000000ee
:1072a000000000000000000000000000d402a9005f
:1072b000d422a9000000000000000000000000002f
:1072c00000000000000000000000000000000000be
:1072d00000000000000000000000000000000000ae
:1072e000000000000000000000000000000000009e
:1072f000000000000000000000000000000000008e
:10730000000000000000000000000000000000007d
:10731000000000000000000000000000000000006d
:10732000000000000000000000000000000000005d
:10733000000000000000000000000000000000004d
:10734000000000000000000000000000000000003d
:10735000000000000000000000000000000000002d
:10736000000000000000000000000000000000001d
:1073700000000000d402a800d422a800cca2a900da
:10738000ccc2a900000000000000000000000000c6
:1073900000000000000000000000000000000000ed
:1073a00000000000000000000000000000000000dd
:1073b00000000000000000000000000000000000cd
:1073c00000000000000000000000000000000000bd
:1073d00000000000000000000000000000000000ad
:1073e000000000000000000000000000000000009d
:1073f000000000000000000000000000000000008d
:10740000000000000000000000000000000000007c
:10741000000000000000000000000000000000006c
:10742000000000000000000000000000000000005c
:10743000000000000000000000000000000000004c
:1074400000000000d402a900d422a900000000001e
:10745000000000000000000000000000000000002c
:10746000000000000000000000000000000000001c
:10747000000000000000000000000000000000000c
:1074800000000000000000000000000000000000fc
:1074900000000000000000000000000000000000ec
:1074a00000000000000000000000000000000000dc
:1074b00000000000000000000000000000000000cc
:1074c00000000000000000000000000000000000bc
:1074d00000000000000000000000000000000000ac
:1074e000000000000000000000000000000000009c
:1074f000000000000000000000000000000000008c
:10750000000000000000000000000000d402a800fd
:10751000d422a800cca2a800ccc2a8000000000081
:10752000000000000000000000000000000000005b
:10753000000000000000000000000000000000004b
:10754000000000000000000000000000000000003b
:10755000000000000000000000000000000000002b
:10756000000000000000000000000000000000001b
:10757000000000000000000000000000000000000b
:1075800000000000000000000000000000000000fb
:1075900000000000000000000000000000000000eb
:1075a00000000000000000000000000000000000db
:1075b00000000000000000000000000000000000cb
:1075c00000000000000000000000000000000000bb
:1075d000000000000000000000000000d402a9002c
:1075e000d422a900000000000000000000000000fc
:1075f000000000000000000000000000000000008b
:10760000000000000000000000000000000000007a
:10761000000000000000000000000000000000006a
:10762000000000000000000000000000000000005a
:10763000000000000000000000000000000000004a
:10764000000000000000000000000000000000003a
:10765000000000000000000000000000000000002a
:10766000000000000000000000000000000000001a
:10767000000000000000000000000000000000000a
:1076800000000000000000000000000000000000fa
:1076900000000000000000000000000000000000ea
:1076a00000000000d402a800d422a800cca2a900a7
:1076b000ccc2a90000000000000000000000000093
:1076c00000000000000000000000000000000000ba
:1076d00000000000000000000000000000000000aa
:1076e000000000000000000000000000000000009a
:1076f000000000000000000000000000000000008a
:107700000000000000000000000000000000000079
:107710000000000000000000000000000000000069
:107720000000000000000000000000000000000059
:107730000000000000000000000000000000000049
:107740000000000000000000000000000000000039
:107750000000000000000000000000000000000029
:107760000000000000000000000000000000000019
:1077700000000000d402a900d422a90000000000eb
:1077800000000000000000000000000000000000f9
:1077900000000000000000000000000000000000e9
:1077a00000000000000000000000000000000000d9
:1077b00000000000000000000000000000000000c9
:1077c00000000000000000000000000000000000b9
:1077d00000000000000000000000000000000000a9
:1077e0000000000000000000000000000000000099
:1077f0000000000000000000000000000000000089
:107800000000000000000000000000000000000078
:107810000000000000000000000000000000000068
:107820000000000000000000000000000000000058
:10783000000000000000000000000000d000200058
:1078400038fb0700d402a800d422a800cca2a800cc
:10785000ccc2a800000000000000000000000000f2
:107860000000000000000000000000000000000018
:107870000000000000000000000000000000000008
:1078800000000000000000000000000000000000f8
:1078900000000000000000000000000000000000e8
:1078a00000000000000000000000000000000000d8
:1078b00000000000000000000000000000000000c8
:1078c00000000000000000000000000000000000b8
:1078d00000000000000000000000000000000000a8
:1078e0000000000000000000000000000000000098
:1078f0000000000000000000000000000000000088
:107900000000000000000000000000000000000077
:1079100000000000d402a900d422a9000000000049
:107920000000000000000000000000000000000057
:107930000000000000000000000000000000000047
:107940000000000000000000000000000000000037
:107950000000000000000000000000000000000027
:107960000000000000000000000000000000000017
:107970000000000000000000000000000000000007
:1079800000000000000000000000000000000000f7
:1079900000000000000000000000000000000000e7
:1079a00000000000000000000000000000000000d7
:1079b00000000000000000000000000000000000c7
:1079c00000000000000000000000000000000000b7
:1079d000000000000000000000000000d402a80029
:1079e000d422a800cca2a800ccc2a80000000000ad
:1079f0000000000000000000000000000000000087
:107a00000000000000000000000000000000000076
:107a10000000000000000000000000000000000066
:107a20000000000000000000000000000000000056
:107a30000000000000000000000000000000000046
:107a40000000000000000000000000000000000036
:107a50000000000000000000000000000000000026
:107a60000000000000000000000000000000000016
:107a70000000000000000000000000000000000006
:107a800000000000000000000000000000000000f6
:107a900000000000000000000000000000000000e6
:107aa000000000000000000000000000d402a90057
:107ab000d422a90000000000000000000000000027
:107ac00000000000000000000000000000000000b6
:107ad00000000000000000000000000000000000a6
:107ae0000000000000000000000000000000000096
:107af0000000000000000000000000000000000086
:107b00000000000000000000000000000000000075
:107b10000000000000000000000000000000000065
:107b20000000000000000000000000000000000055
:107b30000000000000000000000000000000000045
:107b40000000000000000000000000000000000035
:107b50000000000000000000000000000000000025
:107b60000000000000000000000000000000000015
:107b700000000000d402a800d422a800cca2a800d3
:107b8000ccc2a800000000000000000000000000bf
:107b900000000000000000000000000000000000e5
:107ba00000000000000000000000000000000000d5
:107bb00000000000000000000000000000000000c5
:107bc00000000000000000000000000000000000b5
:107bd00000000000000000000000000000000000a5
:107be0000000000000000000000000000000000095
:107bf0000000000000000000000000000000000085
:107c00000000000000000000000000000000000074
:107c10000000000000000000000000000000000064
:107c20000000000000000000000000000000000054
:107c30000000000000000000000000000000000044
:107c400000000000d402a900d422a9000000000016
:107c50000000000000000000000000000000000024
:107c60000000000000000000000000000000000014
:107c70000000000000000000000000000000000004
:107c800000000000000000000000000000000000f4
:107c900000000000000000000000000000000000e4
:107ca00000000000000000000000000000000000d4
:107cb00000000000000000000000000000000000c4
:107cc00000000000000000000000000000000000b4
:107cd00000000000000000000000000000000000a4
:107ce0000000000000000000000000000000000094
:107cf0000000000000000000000000000000000084
:107d0000000000000000000000000000d402a800f5
:107d1000d422a800cca2a800ccc2a8000000000079
:107d20000000000000000000000000000000000053
:107d30000000000000000000000000000000000043
:107d40000000000000000000000000000000000033
:107d50000000000000000000000000000000000023
:107d60000000000000000000000000000000000013
:107d70000000000000000000000000000000000003
:107d800000000000000000000000000000000000f3
:107d900000000000000000000000000000000000e3
:107da00000000000000000000000000000000000d3
:107db00000000000000000000000000000000000c3
:107dc00000000000000000000000000000000000b3
:107dd000000000000000000000000000d402a90024
:107de000d422a900000000000000000000000000f4
:107df0000000000000000000000000000000000083
:107e00000000000000000000000000000000000072
:107e10000000000000000000000000000000000062
:107e20000000000000000000000000000000000052
:107e30000000000000000000000000000000000042
:107e40000000000000000000000000000000000032
:107e50000000000000000000000000000000000022
:107e60000000000000000000000000000000000012
:107e70000000000000000000000000000000000002
:107e800000000000000000000000000000000000f2
:107e900000000000000000000000000000000000e2
:107ea00000000000d402a800d422a800cca2a800a0
:107eb000ccc2a8000000000000000000000000008c
:107ec00000000000000000000000000000000000b2
:107ed00000000000000000000000000000000000a2
:107ee0000000000000000000000000000000000092
:107ef0000000000000000000000000000000000082
:107f00000000000000000000000000000000000071
:107f10000000000000000000000000000000000061
:107f20000000000000000000000000000000000051
:107f30000000000000000000000000000000000041
:107f40000000000000000000000000000000000031
:107f50000000000000000000000000000000000021
:107f60000000000000000000000000000000000011
:107f700000000000d402a900d422a90000000000e3
:107f800000000000000000000000000000000000f1
:107f900000000000000000000000000000000000e1
:107fa00000000000000000000000000000000000d1
:107fb00000000000000000000000000000000000c1
:107fc00000000000000000000000000000000000b1
:107fd00000000000000000000000000000000000a1
:107fe0000000000000000000000000000000000091
:107ff0000000000000000000000000000000000081
:108000000000000000000000000000000000000070
:108010000000000000000000000000000000000060
:108020000000000000000000000000000000000050
:10803000000000000000000000000000d402a800c2
:10804000d422a800cca2a800ccc2a8000000000046
:108050000000000000000000000000000000000020
:108060000000000000000000000000000000000010
:108070000000000000000000000000000000000000
:1080800000000000000000000000000000000000f0
:1080900000000000000000000000000000000000e0
:1080a00000000000000000000000000000000000d0
:1080b00000000000000000000000000000000000c0
:1080c00000000000000000000000000000000000b0
:1080d00000000000000000000000000000000000a0
:1080e0000000000000000000000000000000000090
:1080f0000000000000000000000000000000000080
:10810000000000000000000000000000d402a900f0
:10811000d422a900000000000000000000000000c0
:10812000000000000000000000000000000000004f
:10813000000000000000000000000000000000003f
:10814000000000000000000000000000000000002f
:10815000000000000000000000000000000000001f
:10816000000000000000000000000000000000000f
:1081700000000000000000000000000000000000ff
:1081800000000000000000000000000000000000ef
:1081900000000000000000000000000000000000df
:1081a00000000000000000000000000000000000cf
:1081b00000000000000000000000000000000000bf
:1081c00000000000000000000000000000000000af
:1081d00000000000d402a800d422a800cca2a8006d
:1081e000ccc2a80000000000000000000000000059
:1081f000000000000000000000000000000000007f
:10820000000000000000000000000000000000006e
:10821000000000000000000000000000000000005e
:10822000000000000000000000000000000000004e
:10823000000000000000000000000000000000003e
:10824000000000000000000000000000000000002e
:10825000000000000000000000000000000000001e
:10826000000000000000000000000000000000000e
:1082700000000000000000000000000000000000fe
:1082800000000000000000000000000000000000ee
:1082900000000000000000000000000000000000de
:1082a00000000000d402a900d422a90000000000b0
:1082b00000000000000000000000000000000000be
:1082c00000000000000000000000000000000000ae
:1082d000000000000000000000000000000000009e
:1082e000000000000000000000000000000000008e
:1082f000000000000000000000000000000000007e
:10830000000000000000000000000000000000006d
:10831000000000000000000000000000000000005d
:10832000000000000000000000000000000000004d
:10833000000000000000000000000000000000003d
:10834000000000000000000000000000000000002d
:10835000000000000000000000000000000000001d
:10836000000000000000000000000000d402a8008f
:10837000d422a800cca2a800ccc2a8000000000013
:1083800000000000000000000000000000000000ed
:1083900000000000000000000000000000000000dd
:1083a00000000000000000000000000000000000cd
:1083b00000000000000000000000000000000000bd
:1083c00000000000000000000000000000000000ad
:1083d000000000000000000000000000000000009d
:1083e000000000000000000000000000000000008d
:1083f000000000000000000000000000000000007d
:10840000000000000000000000000000000000006c
:10841000000000000000000000000000000000005c
:10842000000000000000000000000000000000004c
:10843000000000000000000000000000d402a900bd
:10844000d422a9000000000000000000000000008d
:10845000000000000000000000000000000000001c
:10846000000000000000000000000000000000000c
:1084700000000000000000000000000000000000fc
:1084800000000000000000000000000000000000ec
:1084900000000000000000000000000000000000dc
:1084a00000000000000000000000000000000000cc
:1084b00000000000000000000000000000000000bc
:1084c00000000000000000000000000000000000ac
:1084d000000000000000000000000000000000009c
:1084e000000000000000000000000000000000008c
:1084f000000000000000000000000000000000007c
:10850000000000008000200006f80700c8a2a800b4
:10851000cea2a900c8c2a800cec2a9008000200037
:1085200000f807000000eb00100798000000eb00c7
:10853000000f7800d402a800d422a8000000000098
:10854000000000000000000000000000000000002b
:10855000000000000000000000000000000000001b
:10856000000000000000000000000000000000000b
:1085700000000000000000000000000000000000fb
:1085800000000000000000000000000000000000eb
:1085900000000000000000000000000000000000db
:1085a00000000000000000000000000000000000cb
:1085b00000000000000000000000000000000000bb
:1085c00000000000000000000000000000000000ab
:1085d000000000000000000000000000000000009b
:1085e000000000000000000000000000000000008b
:1085f000000000000000000000000000d402a900fc
:10860000d422a900cac2bf000080fb004500de00e2
:10861000614060008080fb001e009000010070003f
:1086200010079800cac2bf000080fb004600de00b1
:10863000614060000080fb001e0f70000000000021
:10864000000000000000000000000000000000002a
:10865000000000000000000000000000000000001a
:10866000000000000000000000000000000000000a
:1086700000000000000000000000000000000000fa
:1086800000000000000000000000000000000000ea
:1086900000000000000000000000000000000000da
:1086a00000000000000000000000000000000000ca
:1086b00000000000000000000000000000000000ba
:1086c00000000000000000000000000000000000aa
:1086d000000000000000000000000000000000009a
:1086e000000000000000000000000000000000008a
:1086f0000000000000000000000000001e009000cc
:1087000000004000100798001e00780000004000a4
:10871000000f7800d402a800d422a80000000000b6
:108720000000000000000000000000000000000049
:108730000000000000000000000000000000000039
:108740000000000000000000000000000000000029
:108750000000000000000000000000000000000019
:108760000000000000000000000000000000000009
:1087700000000000000000000000000000000000f9
:1087800000000000000000000000000000000000e9
:1087900000000000000000000000000000000000d9
:1087a00000000000000000000000000000000000c9
:1087b00000000000000000000000000000000000b9
:1087c00000000000000000000000000000000000a9
:1087d000000000000000000000000000d402a9001a
:1087e000d422a900cac2bf000080fb004500de0001
:1087f000614060008080fb001e009000010070005e
:1088000010079800cac2bf000080fb004600de00cf
:10881000614060000080fb001e0f7000000000003f
:108820000000000000000000000000000000000048
:108830000000000000000000000000000000000038
:108840000000000000000000000000000000000028
:108850000000000000000000000000000000000018
:108860000000000000000000000000000000000008
:1088700000000000000000000000000000000000f8
:1088800000000000000000000000000000000000e8
:1088900000000000000000000000000000000000d8
:1088a00000000000000000000000000000000000c8
:1088b00000000000000000000000000000000000b8
:1088c00000000000000000000000000000000000a8
:1088d0000000000000000000000000001e009000ea
:1088e00000004000100798001e00780000004000c3
:1088f000000f7800d402a800d422a80000000000d5
:108900000000000000000000000000000000000067
:108910000000000000000000000000000000000057
:108920000000000000000000000000000000000047
:108930000000000000000000000000000000000037
:108940000000000000000000000000000000000027
:108950000000000000000000000000000000000017
:108960000000000000000000000000000000000007
:1089700000000000000000000000000000000000f7
:1089800000000000000000000000000000000000e7
:1089900000000000000000000000000000000000d7
:1089a00000000000000000000000000000000000c7
:1089b000000000000000000000000000d402a90038
:1089c000d422a900cac2bf000080fb004500de001f
:1089d000614060008080fb001e009000010070007c
:1089e00010079800cac2bf000080fb004600de00ee
:1089f000614060000080fb001e0f7000000000005e
:108a00000000000000000000000000000000000066
:108a10000000000000000000000000000000000056
:108a20000000000000000000000000000000000046
:108a30000000000000000000000000000000000036
:108a40000000000000000000000000000000000026
:108a50000000000000000000000000000000000016
:108a60000000000000000000000000000000000006
:108a700000000000000000000000000000000000f6
:108a800000000000000000000000000000000000e6
:108a900000000000000000000000000000000000d6
:108aa00000000000000000000000000000000000c6
:108ab0000000000000000000000000001e00900008
:108ac00000004000100798001e00780000004000e1
